{
  "contractName": "ExampleFlashSwap",
  "abi": [
    {
      "inputs": [
        {
          "internalType": "address",
          "name": "_factory",
          "type": "address"
        },
        {
          "internalType": "address",
          "name": "_factoryV1",
          "type": "address"
        },
        {
          "internalType": "address",
          "name": "router",
          "type": "address"
        }
      ],
      "stateMutability": "nonpayable",
      "type": "constructor"
    },
    {
      "stateMutability": "payable",
      "type": "receive"
    },
    {
      "inputs": [
        {
          "internalType": "address",
          "name": "sender",
          "type": "address"
        },
        {
          "internalType": "uint256",
          "name": "amount0",
          "type": "uint256"
        },
        {
          "internalType": "uint256",
          "name": "amount1",
          "type": "uint256"
        },
        {
          "internalType": "bytes",
          "name": "data",
          "type": "bytes"
        }
      ],
      "name": "uniswapV2Call",
      "outputs": [],
      "stateMutability": "nonpayable",
      "type": "function"
    }
  ],
  "bytecode": "0x60e060405234801561001057600080fd5b506040516118773803806118778339818101604052606081101561003357600080fd5b810190808051906020019092919080519060200190929190805190602001909291905050508173ffffffffffffffffffffffffffffffffffffffff1660808173ffffffffffffffffffffffffffffffffffffffff1660601b815250508273ffffffffffffffffffffffffffffffffffffffff1660a08173ffffffffffffffffffffffffffffffffffffffff1660601b815250508073ffffffffffffffffffffffffffffffffffffffff16638dd950026040518163ffffffff1660e01b815260040160206040518083038186803b15801561010c57600080fd5b505afa158015610120573d6000803e3d6000fd5b505050506040513d602081101561013657600080fd5b810190808051906020019092919050505073ffffffffffffffffffffffffffffffffffffffff1660c08173ffffffffffffffffffffffffffffffffffffffff1660601b8152505050505060805160601c60a05160601c60c05160601c6116956101e26000398061036552806103c25280610421528061048a52806104f6528061083e52806108bf5280610acc52508061024652806107f75280610c1752508061059152506116956000f3fe6080604052600436106100225760003560e01c806310d1e85c1461002e57610029565b3661002957005b600080fd5b34801561003a57600080fd5b506100e66004803603608081101561005157600080fd5b81019080803573ffffffffffffffffffffffffffffffffffffffff1690602001909291908035906020019092919080359060200190929190803590602001906401000000008111156100a257600080fd5b8201836020820111156100b457600080fd5b803590602001918460018302840111640100000000831117156100d657600080fd5b90919293919293905050506100e8565b005b6060600267ffffffffffffffff8111801561010257600080fd5b506040519080825280602002602001820160405280156101315781602001602082028036833780820191505090505b50905060008060003373ffffffffffffffffffffffffffffffffffffffff16630dfe16816040518163ffffffff1660e01b815260040160206040518083038186803b15801561017f57600080fd5b505afa158015610193573d6000803e3d6000fd5b505050506040513d60208110156101a957600080fd5b8101908080519060200190929190505050905060003373ffffffffffffffffffffffffffffffffffffffff1663d21220a76040518163ffffffff1660e01b815260040160206040518083038186803b15801561020457600080fd5b505afa158015610218573d6000803e3d6000fd5b505050506040513d602081101561022e57600080fd5b8101908080519060200190929190505050905061026c7f00000000000000000000000000000000000000000000000000000000000000008383610dd2565b73ffffffffffffffffffffffffffffffffffffffff163373ffffffffffffffffffffffffffffffffffffffff16146102a057fe5b60008914806102af5750600088145b6102b557fe5b600089146102c357806102c5565b815b856000815181106102d257fe5b602002602001019073ffffffffffffffffffffffffffffffffffffffff16908173ffffffffffffffffffffffffffffffffffffffff16815250506000891461031a578161031c565b805b8560018151811061032957fe5b602002602001019073ffffffffffffffffffffffffffffffffffffffff16908173ffffffffffffffffffffffffffffffffffffffff16815250507f000000000000000000000000000000000000000000000000000000000000000073ffffffffffffffffffffffffffffffffffffffff168273ffffffffffffffffffffffffffffffffffffffff16146103bc57886103be565b875b93507f000000000000000000000000000000000000000000000000000000000000000073ffffffffffffffffffffffffffffffffffffffff168273ffffffffffffffffffffffffffffffffffffffff1614610419578761041b565b885b925050507f000000000000000000000000000000000000000000000000000000000000000073ffffffffffffffffffffffffffffffffffffffff168360008151811061046357fe5b602002602001015173ffffffffffffffffffffffffffffffffffffffff1614806104ec57507f000000000000000000000000000000000000000000000000000000000000000073ffffffffffffffffffffffffffffffffffffffff16836001815181106104cc57fe5b602002602001015173ffffffffffffffffffffffffffffffffffffffff16145b6104f257fe5b60007f000000000000000000000000000000000000000000000000000000000000000073ffffffffffffffffffffffffffffffffffffffff168460008151811061053857fe5b602002602001015173ffffffffffffffffffffffffffffffffffffffff1614610575578360008151811061056857fe5b602002602001015161058b565b8360018151811061058257fe5b60200260200101515b905060007f000000000000000000000000000000000000000000000000000000000000000073ffffffffffffffffffffffffffffffffffffffff166306f2bf62836040518263ffffffff1660e01b8152600401808273ffffffffffffffffffffffffffffffffffffffff16815260200191505060206040518083038186803b15801561061657600080fd5b505afa15801561062a573d6000803e3d6000fd5b505050506040513d602081101561064057600080fd5b810190808051906020019092919050505090506000841115610aa55760008787602081101561066e57600080fd5b810190808035906020019092919050505090508273ffffffffffffffffffffffffffffffffffffffff1663095ea7b383876040518363ffffffff1660e01b8152600401808373ffffffffffffffffffffffffffffffffffffffff16815260200182815260200192505050602060405180830381600087803b1580156106f257600080fd5b505af1158015610706573d6000803e3d6000fd5b505050506040513d602081101561071c57600080fd5b81019080805190602001909291905050505060008273ffffffffffffffffffffffffffffffffffffffff166313d8976587847fffffffffffffffffffffffffffffffffffffffffffffffffffffffffffffffff6040518463ffffffff1660e01b8152600401808481526020018381526020018281526020019350505050602060405180830381600087803b1580156107b357600080fd5b505af11580156107c7573d6000803e3d6000fd5b505050506040513d60208110156107dd57600080fd5b81019080805190602001909291905050509050600061081d7f0000000000000000000000000000000000000000000000000000000000000000888a610eeb565b60008151811061082957fe5b6020026020010151905080821161083c57fe5b7f000000000000000000000000000000000000000000000000000000000000000073ffffffffffffffffffffffffffffffffffffffff1663d0e30db0826040518263ffffffff1660e01b81526004016000604051808303818588803b1580156108a457600080fd5b505af11580156108b8573d6000803e3d6000fd5b50505050507f000000000000000000000000000000000000000000000000000000000000000073ffffffffffffffffffffffffffffffffffffffff1663a9059cbb33836040518363ffffffff1660e01b8152600401808373ffffffffffffffffffffffffffffffffffffffff16815260200182815260200192505050602060405180830381600087803b15801561094e57600080fd5b505af1158015610962573d6000803e3d6000fd5b505050506040513d602081101561097857600080fd5b810190808051906020019092919050505061098f57fe5b60008d73ffffffffffffffffffffffffffffffffffffffff16828403600067ffffffffffffffff811180156109c357600080fd5b506040519080825280601f01601f1916602001820160405280156109f65781602001600182028036833780820191505090505b506040518082805190602001908083835b60208310610a2a5780518252602082019150602081019050602083039250610a07565b6001836020036101000a03801982511681845116808217855250505050505090500191505060006040518083038185875af1925050503d8060008114610a8c576040519150601f19603f3d011682016040523d82523d6000602084013e610a91565b606091505b5050905080610a9c57fe5b50505050610dc6565b600087876020811015610ab757600080fd5b810190808035906020019092919050505090507f000000000000000000000000000000000000000000000000000000000000000073ffffffffffffffffffffffffffffffffffffffff16632e1a7d4d856040518263ffffffff1660e01b815260040180828152602001915050600060405180830381600087803b158015610b3d57600080fd5b505af1158015610b51573d6000803e3d6000fd5b5050505060008273ffffffffffffffffffffffffffffffffffffffff166393453b9186847fffffffffffffffffffffffffffffffffffffffffffffffffffffffffffffffff6040518463ffffffff1660e01b815260040180838152602001828152602001925050506020604051808303818588803b158015610bd257600080fd5b505af1158015610be6573d6000803e3d6000fd5b50505050506040513d6020811015610bfd57600080fd5b810190808051906020019092919050505090506000610c3d7f0000000000000000000000000000000000000000000000000000000000000000878a610eeb565b600081518110610c4957fe5b60200260200101519050808211610c5c57fe5b8473ffffffffffffffffffffffffffffffffffffffff1663a9059cbb33836040518363ffffffff1660e01b8152600401808373ffffffffffffffffffffffffffffffffffffffff16815260200182815260200192505050602060405180830381600087803b158015610ccd57600080fd5b505af1158015610ce1573d6000803e3d6000fd5b505050506040513d6020811015610cf757600080fd5b8101908080519060200190929190505050610d0e57fe5b8473ffffffffffffffffffffffffffffffffffffffff1663a9059cbb8e8385036040518363ffffffff1660e01b8152600401808373ffffffffffffffffffffffffffffffffffffffff16815260200182815260200192505050602060405180830381600087803b158015610d8157600080fd5b505af1158015610d95573d6000803e3d6000fd5b505050506040513d6020811015610dab57600080fd5b8101908080519060200190929190505050610dc257fe5b5050505b50505050505050505050565b6000806000610de1858561106b565b91509150858282604051602001808373ffffffffffffffffffffffffffffffffffffffff1660601b81526014018273ffffffffffffffffffffffffffffffffffffffff1660601b8152601401925050506040516020818303038152906040528051906020012060405160200180807fff000000000000000000000000000000000000000000000000000000000000008152506001018373ffffffffffffffffffffffffffffffffffffffff1660601b8152601401828152602001807ffbf8b0d7e1edf4984120d0a0eb1b4a536f7316c689b8e967e3368720cf088d40815250602001925050506040516020818303038152906040528051906020012060001c925050509392505050565b6060600282511015610f65576040517f08c379a000000000000000000000000000000000000000000000000000000000815260040180806020018281038252601f8152602001807f506570657377617056324c6962726172793a20494e56414c49445f504154480081525060200191505060405180910390fd5b815167ffffffffffffffff81118015610f7d57600080fd5b50604051908082528060200260200182016040528015610fac5781602001602082028036833780820191505090505b5090508281600183510381518110610fc057fe5b6020026020010181815250506000600183510390505b60008111156110635760008061101687866001860381518110610ff557fe5b602002602001015187868151811061100957fe5b60200260200101516111e2565b9150915061103884848151811061102957fe5b6020026020010151838361130b565b84600185038151811061104757fe5b6020026020010181815250505050808060019003915050610fd6565b509392505050565b6000808273ffffffffffffffffffffffffffffffffffffffff168473ffffffffffffffffffffffffffffffffffffffff1614156110f3576040517f08c379a00000000000000000000000000000000000000000000000000000000081526004018080602001828103825260268152602001806115e46026913960400191505060405180910390fd5b8273ffffffffffffffffffffffffffffffffffffffff168473ffffffffffffffffffffffffffffffffffffffff161061112d578284611130565b83835b8092508193505050600073ffffffffffffffffffffffffffffffffffffffff168273ffffffffffffffffffffffffffffffffffffffff1614156111db576040517f08c379a000000000000000000000000000000000000000000000000000000000815260040180806020018281038252601f8152602001807f506570657377617056324c6962726172793a205a45524f5f414444524553530081525060200191505060405180910390fd5b9250929050565b60008060006111f1858561106b565b509050600080611202888888610dd2565b73ffffffffffffffffffffffffffffffffffffffff16630902f1ac6040518163ffffffff1660e01b815260040160606040518083038186803b15801561124757600080fd5b505afa15801561125b573d6000803e3d6000fd5b505050506040513d606081101561127157600080fd5b81019080805190602001909291908051906020019092919080519060200190929190505050506dffffffffffffffffffffffffffff1691506dffffffffffffffffffffffffffff1691508273ffffffffffffffffffffffffffffffffffffffff168773ffffffffffffffffffffffffffffffffffffffff16146112f55780826112f8565b81815b8095508196505050505050935093915050565b6000808411611365576040517f08c379a000000000000000000000000000000000000000000000000000000000815260040180806020018281038252602d815260200180611633602d913960400191505060405180910390fd5b6000831180156113755750600082115b6113ca576040517f08c379a000000000000000000000000000000000000000000000000000000000815260040180806020018281038252602981526020018061160a6029913960400191505060405180910390fd5b60006113f36103e86113e5878761144890919063ffffffff16565b61144890919063ffffffff16565b9050600061141e6103e561141088876114dd90919063ffffffff16565b61144890919063ffffffff16565b905061143d600182848161142e57fe5b0461156090919063ffffffff16565b925050509392505050565b600080821480611465575082828385029250828161146257fe5b04145b6114d7576040517f08c379a00000000000000000000000000000000000000000000000000000000081526004018080602001828103825260148152602001807f64732d6d6174682d6d756c2d6f766572666c6f7700000000000000000000000081525060200191505060405180910390fd5b92915050565b600082828403915081111561155a576040517f08c379a00000000000000000000000000000000000000000000000000000000081526004018080602001828103825260158152602001807f64732d6d6174682d7375622d756e646572666c6f77000000000000000000000081525060200191505060405180910390fd5b92915050565b60008282840191508110156115dd576040517f08c379a00000000000000000000000000000000000000000000000000000000081526004018080602001828103825260148152602001807f64732d6d6174682d6164642d6f766572666c6f7700000000000000000000000081525060200191505060405180910390fd5b9291505056fe506570657377617056324c6962726172793a204944454e544943414c5f414444524553534553506570657377617056324c6962726172793a20494e53554646494349454e545f4c4951554944495459506570657377617056324c6962726172793a20494e53554646494349454e545f4f55545055545f414d4f554e54a2646970667358221220973034b8874c7a968fa8e532b1b1f1ee681fa6615b78c71c5f6d6b835f3185b564736f6c634300060c0033",
  "immutableReferences": {
    "4061": [
      {
        "length": 32,
        "start": 1425
      }
    ],
    "4063": [
      {
        "length": 32,
        "start": 582
      },
      {
        "length": 32,
        "start": 2039
      },
      {
        "length": 32,
        "start": 3095
      }
    ],
    "4065": [
      {
        "length": 32,
        "start": 869
      },
      {
        "length": 32,
        "start": 962
      },
      {
        "length": 32,
        "start": 1057
      },
      {
        "length": 32,
        "start": 1162
      },
      {
        "length": 32,
        "start": 1270
      },
      {
        "length": 32,
        "start": 2110
      },
      {
        "length": 32,
        "start": 2239
      },
      {
        "length": 32,
        "start": 2764
      }
    ]
  },
  "source": "pragma solidity =0.6.12;\r\n\r\nimport '@uniswap/v2-core/contracts/interfaces/IUniswapV2Callee.sol';\r\n\r\nimport '../libraries/PepeswapV2Library.sol';\r\nimport '../interfaces/V1/IPepeswapV1Factory.sol';\r\nimport '../interfaces/V1/IPepeswapV1Exchange.sol';\r\nimport '../interfaces/IPepeswapV2Router01.sol';\r\nimport '../interfaces/IBEP20.sol';\r\nimport '../interfaces/IWBNB.sol';\r\n\r\ncontract ExampleFlashSwap is IUniswapV2Callee {\r\n    IPepeswapV1Factory immutable factoryV1;\r\n    address immutable factory;\r\n    IWBNB immutable WBNB;\r\n\r\n    constructor(address _factory, address _factoryV1, address router) public {\r\n        factoryV1 = IPepeswapV1Factory(_factoryV1);\r\n        factory = _factory;\r\n        WBNB = IWBNB(IPepeswapV2Router01(router).WBNB());\r\n    }\r\n\r\n    // needs to accept BNB from any V1 exchange and WBNB. ideally this could be enforced, as in the router,\r\n    // but it's not possible because it requires a call to the v1 factory, which takes too much gas\r\n    receive() external payable {}\r\n\r\n    // gets tokens/WBNB via a V2 flash swap, swaps for the BNB/tokens on V1, repays V2, and keeps the rest!\r\n    function uniswapV2Call(address sender, uint amount0, uint amount1, bytes calldata data) external override {\r\n        address[] memory path = new address[](2);\r\n        uint amountToken;\r\n        uint amountBNB;\r\n        { // scope for token{0,1}, avoids stack too deep errors\r\n        address token0 = IUniswapV2Pair(msg.sender).token0();\r\n        address token1 = IUniswapV2Pair(msg.sender).token1();\r\n        assert(msg.sender == PepeswapV2Library.pairFor(factory, token0, token1)); // ensure that msg.sender is actually a V2 pair\r\n        assert(amount0 == 0 || amount1 == 0); // this strategy is unidirectional\r\n        path[0] = amount0 == 0 ? token0 : token1;\r\n        path[1] = amount0 == 0 ? token1 : token0;\r\n        amountToken = token0 == address(WBNB) ? amount1 : amount0;\r\n        amountBNB = token0 == address(WBNB) ? amount0 : amount1;\r\n        }\r\n\r\n        assert(path[0] == address(WBNB) || path[1] == address(WBNB)); // this strategy only works with a V2 WBNB pair\r\n        IBEP20 token = IBEP20(path[0] == address(WBNB) ? path[1] : path[0]);\r\n        IPepeswapV1Exchange exchangeV1 = IPepeswapV1Exchange(factoryV1.getExchange(address(token))); // get V1 exchange\r\n\r\n        if (amountToken > 0) {\r\n            (uint minBNB) = abi.decode(data, (uint)); // slippage parameter for V1, passed in by caller\r\n            token.approve(address(exchangeV1), amountToken);\r\n            uint amountReceived = exchangeV1.tokenToBnbSwapInput(amountToken, minBNB, uint(-1));\r\n            uint amountRequired = PepeswapV2Library.getAmountsIn(factory, amountToken, path)[0];\r\n            assert(amountReceived > amountRequired); // fail if we didn't get enough BNB back to repay our flash loan\r\n            WBNB.deposit{value: amountRequired}();\r\n            assert(WBNB.transfer(msg.sender, amountRequired)); // return WBNB to V2 pair\r\n            (bool success,) = sender.call{value: amountReceived - amountRequired}(new bytes(0)); // keep the rest! (BNB)\r\n            assert(success);\r\n        } else {\r\n            (uint minTokens) = abi.decode(data, (uint)); // slippage parameter for V1, passed in by caller\r\n            WBNB.withdraw(amountBNB);\r\n            uint amountReceived = exchangeV1.bnbToTokenSwapInput{value: amountBNB}(minTokens, uint(-1));\r\n            uint amountRequired = PepeswapV2Library.getAmountsIn(factory, amountBNB, path)[0];\r\n            assert(amountReceived > amountRequired); // fail if we didn't get enough tokens back to repay our flash loan\r\n            assert(token.transfer(msg.sender, amountRequired)); // return tokens to V2 pair\r\n            assert(token.transfer(sender, amountReceived - amountRequired)); // keep the rest! (tokens)\r\n        }\r\n    }\r\n}\r\n",
  "sourcePath": "C:/Users/fsong/pepeswap/periphery/contracts/examples/ExampleFlashSwap.sol",
  "compiler": {
    "name": "solc",
    "version": "0.6.12+commit.27d51765.Emscripten.clang"
  },
  "schemaVersion": "3.3.4",
  "updatedAt": "2021-05-27T01:20:26.997Z",
  "devdoc": {
    "kind": "dev",
    "methods": {},
    "version": 1
  },
  "userdoc": {
    "kind": "user",
    "methods": {},
    "version": 1
  }
}