{
  "contractName": "ExampleComputeLiquidityValue",
  "abi": [
    {
      "inputs": [
        {
          "internalType": "address",
          "name": "factory_",
          "type": "address"
        }
      ],
      "stateMutability": "nonpayable",
      "type": "constructor"
    },
    {
      "inputs": [],
      "name": "factory",
      "outputs": [
        {
          "internalType": "address",
          "name": "",
          "type": "address"
        }
      ],
      "stateMutability": "view",
      "type": "function"
    },
    {
      "inputs": [
        {
          "internalType": "address",
          "name": "tokenA",
          "type": "address"
        },
        {
          "internalType": "address",
          "name": "tokenB",
          "type": "address"
        },
        {
          "internalType": "uint256",
          "name": "truePriceTokenA",
          "type": "uint256"
        },
        {
          "internalType": "uint256",
          "name": "truePriceTokenB",
          "type": "uint256"
        }
      ],
      "name": "getReservesAfterArbitrage",
      "outputs": [
        {
          "internalType": "uint256",
          "name": "reserveA",
          "type": "uint256"
        },
        {
          "internalType": "uint256",
          "name": "reserveB",
          "type": "uint256"
        }
      ],
      "stateMutability": "view",
      "type": "function"
    },
    {
      "inputs": [
        {
          "internalType": "address",
          "name": "tokenA",
          "type": "address"
        },
        {
          "internalType": "address",
          "name": "tokenB",
          "type": "address"
        },
        {
          "internalType": "uint256",
          "name": "liquidityAmount",
          "type": "uint256"
        }
      ],
      "name": "getLiquidityValue",
      "outputs": [
        {
          "internalType": "uint256",
          "name": "tokenAAmount",
          "type": "uint256"
        },
        {
          "internalType": "uint256",
          "name": "tokenBAmount",
          "type": "uint256"
        }
      ],
      "stateMutability": "view",
      "type": "function"
    },
    {
      "inputs": [
        {
          "internalType": "address",
          "name": "tokenA",
          "type": "address"
        },
        {
          "internalType": "address",
          "name": "tokenB",
          "type": "address"
        },
        {
          "internalType": "uint256",
          "name": "truePriceTokenA",
          "type": "uint256"
        },
        {
          "internalType": "uint256",
          "name": "truePriceTokenB",
          "type": "uint256"
        },
        {
          "internalType": "uint256",
          "name": "liquidityAmount",
          "type": "uint256"
        }
      ],
      "name": "getLiquidityValueAfterArbitrageToPrice",
      "outputs": [
        {
          "internalType": "uint256",
          "name": "tokenAAmount",
          "type": "uint256"
        },
        {
          "internalType": "uint256",
          "name": "tokenBAmount",
          "type": "uint256"
        }
      ],
      "stateMutability": "view",
      "type": "function"
    },
    {
      "inputs": [
        {
          "internalType": "address",
          "name": "tokenA",
          "type": "address"
        },
        {
          "internalType": "address",
          "name": "tokenB",
          "type": "address"
        },
        {
          "internalType": "uint256",
          "name": "truePriceTokenA",
          "type": "uint256"
        },
        {
          "internalType": "uint256",
          "name": "truePriceTokenB",
          "type": "uint256"
        },
        {
          "internalType": "uint256",
          "name": "liquidityAmount",
          "type": "uint256"
        }
      ],
      "name": "getGasCostOfGetLiquidityValueAfterArbitrageToPrice",
      "outputs": [
        {
          "internalType": "uint256",
          "name": "",
          "type": "uint256"
        }
      ],
      "stateMutability": "view",
      "type": "function"
    }
  ],
  "bytecode": "0x60a060405234801561001057600080fd5b506040516110ef3803806110ef8339818101604052602081101561003357600080fd5b5051606081901b6001600160601b0319166080526001600160a01b031661107461007b600039806101a952806101e7528061022a5280610268528061029252506110746000f3fe608060405234801561001057600080fd5b50600436106100575760003560e01c80633558e94c1461005c57806369a2fcbd146100b157806380caa353146100f3578063c45a015514610147578063d9b7a6e71461016b575b600080fd5b6100986004803603608081101561007257600080fd5b506001600160a01b038135811691602081013590911690604081013590606001356101a1565b6040805192835260208301919091528051918290030190f35b610098600480360360a08110156100c757600080fd5b506001600160a01b038135811691602081013590911690604081013590606081013590608001356101df565b610135600480360360a081101561010957600080fd5b506001600160a01b0381358116916020810135909116906040810135906060810135906080013561021f565b60408051918252519081900360200190f35b61014f610266565b604080516001600160a01b039092168252519081900360200190f35b6100986004803603606081101561018157600080fd5b506001600160a01b0381358116916020810135909116906040013561028a565b6000806101d17f0000000000000000000000000000000000000000000000000000000000000000878787876102c5565b915091505b94509492505050565b6000806102107f00000000000000000000000000000000000000000000000000000000000000008888888888610389565b915091505b9550959350505050565b6000805a90506102537f00000000000000000000000000000000000000000000000000000000000000008888888888610389565b505060005a909103979650505050505050565b7f000000000000000000000000000000000000000000000000000000000000000081565b6000806102b97f000000000000000000000000000000000000000000000000000000000000000086868661057a565b91509150935093915050565b6000806102d387878761071c565b909250905081158015906102e75750600081115b6103225760405162461bcd60e51b815260040180806020018281038252602e815260200180610fbe602e913960400191505060405180910390fd5b600080610331868686866107e3565b915091508060001415610345575050610215565b81156103665760006103588286866108a9565b94820194909303925061037d565b60006103738285876108a9565b9094039350918201915b50509550959350505050565b6000806000806001600160a01b0316896001600160a01b031663017e7e586040518163ffffffff1660e01b815260040160206040518083038186803b1580156103d157600080fd5b505afa1580156103e5573d6000803e3d6000fd5b505050506040513d60208110156103fb57600080fd5b50516001600160a01b03161415905060006104178a8a8a610981565b905060008261042757600061048d565b816001600160a01b0316637464fc3d6040518163ffffffff1660e01b815260040160206040518083038186803b15801561046057600080fd5b505afa158015610474573d6000803e3d6000fd5b505050506040513d602081101561048a57600080fd5b50515b90506000826001600160a01b03166318160ddd6040518163ffffffff1660e01b815260040160206040518083038186803b1580156104ca57600080fd5b505afa1580156104de573d6000803e3d6000fd5b505050506040513d60208110156104f457600080fd5b505190508681108015906105085750600087115b6105435760405162461bcd60e51b81526004018080602001828103825260278152602001806110186027913960400191505060405180910390fd5b6000806105538e8e8e8e8e6102c5565b915091506105658282858c8a89610a3c565b97509750505050505050965096945050505050565b60008060008061058b88888861071c565b91509150600061059c898989610981565b90506000806001600160a01b03168a6001600160a01b031663017e7e586040518163ffffffff1660e01b815260040160206040518083038186803b1580156105e357600080fd5b505afa1580156105f7573d6000803e3d6000fd5b505050506040513d602081101561060d57600080fd5b50516001600160a01b03161415905060008161062a576000610690565b826001600160a01b0316637464fc3d6040518163ffffffff1660e01b815260040160206040518083038186803b15801561066357600080fd5b505afa158015610677573d6000803e3d6000fd5b505050506040513d602081101561068d57600080fd5b50515b90506000836001600160a01b03166318160ddd6040518163ffffffff1660e01b815260040160206040518083038186803b1580156106cd57600080fd5b505afa1580156106e1573d6000803e3d6000fd5b505050506040513d60208110156106f757600080fd5b505190506107098686838c8787610a3c565b9750975050505050505094509492505050565b600080600061072b8585610af1565b50905060008061073c888888610981565b6001600160a01b0316630902f1ac6040518163ffffffff1660e01b815260040160606040518083038186803b15801561077457600080fd5b505afa158015610788573d6000803e3d6000fd5b505050506040513d606081101561079e57600080fd5b5080516020909101516001600160701b0391821693501690506001600160a01b03878116908416146107d15780826107d4565b81815b90999098509650505050505050565b600080856107f2858786610bcf565b10915060006108018585610c87565b90506000610847610842610817846103e8610c87565b866108225789610824565b8a5b61083d6103e589610835578d610837565b8c5b90610c87565b610bcf565b610cf0565b905060006103e5856108645761085f876103e8610c87565b610870565b610870886103e8610c87565b8161087757fe5b0490508082101561089157600080945094505050506101d6565b61089b8282610e32565b935050505094509492505050565b60008084116108e95760405162461bcd60e51b815260040180806020018281038252602c815260200180610fec602c913960400191505060405180910390fd5b6000831180156108f95750600082115b6109345760405162461bcd60e51b8152600401808060200182810382526029815260200180610f956029913960400191505060405180910390fd5b6000610942856103e5610c87565b905060006109508285610c87565b9050600061096a83610964886103e8610c87565b90610e82565b905080828161097557fe5b04979650505050505050565b60008060006109908585610af1565b604080516001600160601b0319606094851b811660208084019190915293851b81166034830152825160288184030181526048830184528051908501206001600160f81b031960688401529a90941b9093166069840152607d8301989098527fbeeeac8471bcf8a381a08b1f523bc051855c14835f0d5ed2086840e71124a1c6609d808401919091528851808403909101815260bd909201909752805196019590952095945050505050565b600080838015610a4c5750600083115b15610abc576000610a606108428a8a610c87565b90506000610a6d85610cf0565b905080821115610ab957876000610a848484610e32565b90506000610a9784610964876005610c87565b90506000610aa6848484610bcf565b9050610ab28c82610e82565b9b50505050505b50505b85610ac78987610c87565b81610ace57fe5b0486610ada8988610c87565b81610ae157fe5b0491509150965096945050505050565b600080826001600160a01b0316846001600160a01b03161415610b455760405162461bcd60e51b8152600401808060200182810382526026815260200180610f6f6026913960400191505060405180910390fd5b826001600160a01b0316846001600160a01b031610610b65578284610b68565b83835b90925090506001600160a01b038216610bc8576040805162461bcd60e51b815260206004820152601f60248201527f506570657377617056324c6962726172793a205a45524f5f4144445245535300604482015290519081900360640190fd5b9250929050565b6000806000610bde8686610ed1565b9150915060008480610bec57fe5b868809905082811115610c00576001820391505b918290039181610c1e57848381610c1357fe5b049350505050610c80565b848210610c6f576040805162461bcd60e51b815260206004820152601a60248201527946756c6c4d6174683a2046554c4c4449565f4f564552464c4f5760301b604482015290519081900360640190fd5b610c7a838387610efe565b93505050505b9392505050565b6000811580610ca257505080820282828281610c9f57fe5b04145b610cea576040805162461bcd60e51b815260206004820152601460248201527364732d6d6174682d6d756c2d6f766572666c6f7760601b604482015290519081900360640190fd5b92915050565b600081610cff57506000610e2d565b816001600160801b8210610d185760809190911c9060401b5b600160401b8210610d2e5760409190911c9060201b5b600160201b8210610d445760209190911c9060101b5b620100008210610d595760109190911c9060081b5b6101008210610d6d5760089190911c9060041b5b60108210610d805760049190911c9060021b5b60088210610d8c5760011b5b6001818581610d9757fe5b048201901c90506001818581610da957fe5b048201901c90506001818581610dbb57fe5b048201901c90506001818581610dcd57fe5b048201901c90506001818581610ddf57fe5b048201901c90506001818581610df157fe5b048201901c90506001818581610e0357fe5b048201901c90506000818581610e1557fe5b049050808210610e255780610e27565b815b93505050505b919050565b80820382811115610cea576040805162461bcd60e51b815260206004820152601560248201527464732d6d6174682d7375622d756e646572666c6f7760581b604482015290519081900360640190fd5b80820182811015610cea576040805162461bcd60e51b815260206004820152601460248201527364732d6d6174682d6164642d6f766572666c6f7760601b604482015290519081900360640190fd5b6000808060001984860990508385029250828103915082811015610ef6576001820391505b509250929050565b60008181038216808381610f0e57fe5b049250808581610f1a57fe5b049450808160000381610f2957fe5b6002858103808702820302808702820302808702820302808702820302808702820302808702820302958602900390940293046001019390930293909301029291505056fe506570657377617056324c6962726172793a204944454e544943414c5f414444524553534553506570657377617056324c6962726172793a20494e53554646494349454e545f4c4951554944495459506570657377617056324172626974726167654c6962726172793a205a45524f5f504149525f5245534552564553506570657377617056324c6962726172793a20494e53554646494349454e545f494e5055545f414d4f554e54436f6d707574654c697175696469747956616c75653a204c49515549444954595f414d4f554e54a26469706673582212209eab4d3cf06821214474be5361bdd5cf741ade7261b9e7e4e4291635eda71d6e64736f6c634300060c0033",
  "immutableReferences": {
    "3954": [
      {
        "length": 32,
        "start": 425
      },
      {
        "length": 32,
        "start": 487
      },
      {
        "length": 32,
        "start": 554
      },
      {
        "length": 32,
        "start": 616
      },
      {
        "length": 32,
        "start": 658
      }
    ]
  },
  "source": "pragma solidity =0.6.12;\n\nimport '../libraries/PepeswapV2LiquidityMathLibrary.sol';\n\ncontract ExampleComputeLiquidityValue {\n    using SafeMath for uint256;\n\n    address public immutable factory;\n\n    constructor(address factory_) public {\n        factory = factory_;\n    }\n\n    // see PepeswapV2LiquidityMathLibrary#getReservesAfterArbitrage\n    function getReservesAfterArbitrage(\n        address tokenA,\n        address tokenB,\n        uint256 truePriceTokenA,\n        uint256 truePriceTokenB\n    ) external view returns (uint256 reserveA, uint256 reserveB) {\n        return PepeswapV2LiquidityMathLibrary.getReservesAfterArbitrage(\n            factory,\n            tokenA,\n            tokenB,\n            truePriceTokenA,\n            truePriceTokenB\n        );\n    }\n\n    // see PepeswapV2LiquidityMathLibrary#getLiquidityValue\n    function getLiquidityValue(\n        address tokenA,\n        address tokenB,\n        uint256 liquidityAmount\n    ) external view returns (\n        uint256 tokenAAmount,\n        uint256 tokenBAmount\n    ) {\n        return PepeswapV2LiquidityMathLibrary.getLiquidityValue(\n            factory,\n            tokenA,\n            tokenB,\n            liquidityAmount\n        );\n    }\n\n    // see PepeswapV2LiquidityMathLibrary#getLiquidityValueAfterArbitrageToPrice\n    function getLiquidityValueAfterArbitrageToPrice(\n        address tokenA,\n        address tokenB,\n        uint256 truePriceTokenA,\n        uint256 truePriceTokenB,\n        uint256 liquidityAmount\n    ) external view returns (\n        uint256 tokenAAmount,\n        uint256 tokenBAmount\n    ) {\n        return PepeswapV2LiquidityMathLibrary.getLiquidityValueAfterArbitrageToPrice(\n            factory,\n            tokenA,\n            tokenB,\n            truePriceTokenA,\n            truePriceTokenB,\n            liquidityAmount\n        );\n    }\n\n    // test function to measure the gas cost of the above function\n    function getGasCostOfGetLiquidityValueAfterArbitrageToPrice(\n        address tokenA,\n        address tokenB,\n        uint256 truePriceTokenA,\n        uint256 truePriceTokenB,\n        uint256 liquidityAmount\n    ) external view returns (\n        uint256\n    ) {\n        uint gasBefore = gasleft();\n        PepeswapV2LiquidityMathLibrary.getLiquidityValueAfterArbitrageToPrice(\n            factory,\n            tokenA,\n            tokenB,\n            truePriceTokenA,\n            truePriceTokenB,\n            liquidityAmount\n        );\n        uint gasAfter = gasleft();\n        return gasBefore - gasAfter;\n    }\n}\n",
  "sourcePath": "/Users/blockchaindev/Documents/pepeswap-periphery/contracts/examples/ExampleComputeLiquidityValue.sol",
  "compiler": {
    "name": "solc",
    "version": "0.6.12+commit.27d51765.Emscripten.clang"
  },
  "schemaVersion": "3.4.1",
  "updatedAt": "2021-07-01T01:53:35.020Z",
  "devdoc": {
    "kind": "dev",
    "methods": {},
    "version": 1
  },
  "userdoc": {
    "kind": "user",
    "methods": {},
    "version": 1
  }
}