{
  "contractName": "ExampleOracleSimple",
  "abi": [
    {
      "inputs": [
        {
          "internalType": "address",
          "name": "factory",
          "type": "address"
        },
        {
          "internalType": "address",
          "name": "tokenA",
          "type": "address"
        },
        {
          "internalType": "address",
          "name": "tokenB",
          "type": "address"
        }
      ],
      "stateMutability": "nonpayable",
      "type": "constructor"
    },
    {
      "inputs": [],
      "name": "PERIOD",
      "outputs": [
        {
          "internalType": "uint256",
          "name": "",
          "type": "uint256"
        }
      ],
      "stateMutability": "view",
      "type": "function"
    },
    {
      "inputs": [],
      "name": "blockTimestampLast",
      "outputs": [
        {
          "internalType": "uint32",
          "name": "",
          "type": "uint32"
        }
      ],
      "stateMutability": "view",
      "type": "function"
    },
    {
      "inputs": [],
      "name": "price0Average",
      "outputs": [
        {
          "internalType": "uint224",
          "name": "_x",
          "type": "uint224"
        }
      ],
      "stateMutability": "view",
      "type": "function"
    },
    {
      "inputs": [],
      "name": "price0CumulativeLast",
      "outputs": [
        {
          "internalType": "uint256",
          "name": "",
          "type": "uint256"
        }
      ],
      "stateMutability": "view",
      "type": "function"
    },
    {
      "inputs": [],
      "name": "price1Average",
      "outputs": [
        {
          "internalType": "uint224",
          "name": "_x",
          "type": "uint224"
        }
      ],
      "stateMutability": "view",
      "type": "function"
    },
    {
      "inputs": [],
      "name": "price1CumulativeLast",
      "outputs": [
        {
          "internalType": "uint256",
          "name": "",
          "type": "uint256"
        }
      ],
      "stateMutability": "view",
      "type": "function"
    },
    {
      "inputs": [],
      "name": "token0",
      "outputs": [
        {
          "internalType": "address",
          "name": "",
          "type": "address"
        }
      ],
      "stateMutability": "view",
      "type": "function"
    },
    {
      "inputs": [],
      "name": "token1",
      "outputs": [
        {
          "internalType": "address",
          "name": "",
          "type": "address"
        }
      ],
      "stateMutability": "view",
      "type": "function"
    },
    {
      "inputs": [],
      "name": "update",
      "outputs": [],
      "stateMutability": "nonpayable",
      "type": "function"
    },
    {
      "inputs": [
        {
          "internalType": "address",
          "name": "token",
          "type": "address"
        },
        {
          "internalType": "uint256",
          "name": "amountIn",
          "type": "uint256"
        }
      ],
      "name": "consult",
      "outputs": [
        {
          "internalType": "uint256",
          "name": "amountOut",
          "type": "uint256"
        }
      ],
      "stateMutability": "view",
      "type": "function"
    }
  ],
  "bytecode": "0x60e06040523480156200001157600080fd5b50604051620011ba380380620011ba833981810160405260608110156200003757600080fd5b5080516020808301516040909301519192919060009062000067908590859085906200044a6200037d821b17901c565b9050806001600160a01b03166080816001600160a01b031660601b81525050806001600160a01b0316630dfe16816040518163ffffffff1660e01b815260040160206040518083038186803b158015620000c057600080fd5b505afa158015620000d5573d6000803e3d6000fd5b505050506040513d6020811015620000ec57600080fd5b505160601b6001600160601b03191660a0526040805163d21220a760e01b815290516001600160a01b0383169163d21220a7916004808301926020929190829003018186803b1580156200013f57600080fd5b505afa15801562000154573d6000803e3d6000fd5b505050506040513d60208110156200016b57600080fd5b505160601b6001600160601b03191660c05260408051635909c0d560e01b815290516001600160a01b03831691635909c0d5916004808301926020929190829003018186803b158015620001be57600080fd5b505afa158015620001d3573d6000803e3d6000fd5b505050506040513d6020811015620001ea57600080fd5b505160005560408051635a3d549360e01b815290516001600160a01b03831691635a3d5493916004808301926020929190829003018186803b1580156200023057600080fd5b505afa15801562000245573d6000803e3d6000fd5b505050506040513d60208110156200025c57600080fd5b505160015560408051630240bc6b60e21b8152905160009182916001600160a01b03851691630902f1ac916004808301926060929190829003018186803b158015620002a757600080fd5b505afa158015620002bc573d6000803e3d6000fd5b505050506040513d6060811015620002d357600080fd5b50805160208201516040909201516002805463ffffffff191663ffffffff909216919091179055925090506001600160701b038216158015906200031f57506001600160701b03811615155b62000371576040805162461bcd60e51b815260206004820181905260248201527f4578616d706c654f7261636c6553696d706c653a204e4f5f5245534552564553604482015290519081900360640190fd5b50505050505062000534565b600080806200038d858562000451565b604080516001600160601b0319606094851b811660208084019190915293851b81166034830152825160288184030181526048830184528051908501207fff0000000000000000000000000000000000000000000000000000000000000060688401529a90941b9093166069840152607d8301989098527fbeeeac8471bcf8a381a08b1f523bc051855c14835f0d5ed2086840e71124a1c6609d808401919091528851808403909101815260bd909201909752805196019590952095945050505050565b600080826001600160a01b0316846001600160a01b03161415620004a75760405162461bcd60e51b8152600401808060200182810382526026815260200180620011946026913960400191505060405180910390fd5b826001600160a01b0316846001600160a01b031610620004c9578284620004cc565b83835b90925090506001600160a01b0382166200052d576040805162461bcd60e51b815260206004820152601f60248201527f506570657377617056324c6962726172793a205a45524f5f4144445245535300604482015290519081900360640190fd5b9250929050565b60805160601c60a05160601c60c05160601c610c20620005746000398061020a528061042852508061016e52806101945250806102d65250610c206000f3fe608060405234801561001057600080fd5b506004361061008e5760003560e01c80630dfe1681146100935780633ddac953146100b75780635909c0d5146100f55780635a3d5493146100fd5780635e6aaf2c14610105578063a2e6204514610129578063a6bb453914610133578063b4d1d7951461013b578063c5700a0214610143578063d21220a714610164575b600080fd5b61009b61016c565b604080516001600160a01b039092168252519081900360200190f35b6100e3600480360360408110156100cd57600080fd5b506001600160a01b038135169060200135610190565b60408051918252519081900360200190f35b6100e36102b1565b6100e36102b7565b61010d6102bd565b604080516001600160e01b039092168252519081900360200190f35b6101316102cc565b005b61010d610404565b6100e3610413565b61014b61041a565b6040805163ffffffff9092168252519081900360200190f35b61009b610426565b7f000000000000000000000000000000000000000000000000000000000000000081565b60007f00000000000000000000000000000000000000000000000000000000000000006001600160a01b0316836001600160a01b031614156102085760408051602081019091526003546001600160e01b031681526101f8906101f39084610505565b610595565b6001600160901b031690506102ab565b7f00000000000000000000000000000000000000000000000000000000000000006001600160a01b0316836001600160a01b0316146102785760405162461bcd60e51b8152600401808060200182810382526022815260200180610b826022913960400191505060405180910390fd5b60408051602081019091526004546001600160e01b0316815261029f906101f39084610505565b6001600160901b031690505b92915050565b60005481565b60015481565b6004546001600160e01b031681565b60008060006102fa7f000000000000000000000000000000000000000000000000000000000000000061059c565b600254929550909350915063ffffffff9081168203906201518090821610156103545760405162461bcd60e51b8152600401808060200182810382526027815260200180610bc46027913960400191505060405180910390fd5b60405180602001604052808263ffffffff1660005487038161037257fe5b046001600160e01b039081169091529051600380546001600160e01b031916919092161790556040805160208101909152600154819063ffffffff8416908603816103b957fe5b046001600160e01b039081169091529051600480546001600160e01b03191691909216179055506000929092556001556002805463ffffffff191663ffffffff909216919091179055565b6003546001600160e01b031681565b6201518081565b60025463ffffffff1681565b7f000000000000000000000000000000000000000000000000000000000000000081565b6000806000610459858561078b565b604080516001600160601b0319606094851b811660208084019190915293851b81166034830152825160288184030181526048830184528051908501206001600160f81b031960688401529a90941b9093166069840152607d8301989098527fbeeeac8471bcf8a381a08b1f523bc051855c14835f0d5ed2086840e71124a1c6609d808401919091528851808403909101815260bd909201909752805196019590952095945050505050565b61050d610b10565b600082158061053357505082516001600160e01b03168281029083828161053057fe5b04145b610580576040805162461bcd60e51b81526020600482015260196024820152784669786564506f696e743a3a6d756c3a206f766572666c6f7760381b604482015290519081900360640190fd5b60408051602081019091529081529392505050565b5160701c90565b60008060006105a9610869565b9050836001600160a01b0316635909c0d56040518163ffffffff1660e01b815260040160206040518083038186803b1580156105e457600080fd5b505afa1580156105f8573d6000803e3d6000fd5b505050506040513d602081101561060e57600080fd5b505160408051635a3d549360e01b815290519194506001600160a01b03861691635a3d549391600480820192602092909190829003018186803b15801561065457600080fd5b505afa158015610668573d6000803e3d6000fd5b505050506040513d602081101561067e57600080fd5b505160408051630240bc6b60e21b81529051919350600091829182916001600160a01b03891691630902f1ac916004808301926060929190829003018186803b1580156106ca57600080fd5b505afa1580156106de573d6000803e3d6000fd5b505050506040513d60608110156106f457600080fd5b5080516020820151604090920151909450909250905063ffffffff808216908516146107815780840363ffffffff811661073a6001600160701b03808616908716610873565b600001516001600160e01b031602870196508063ffffffff1661076f856001600160701b0316856001600160701b0316610873565b516001600160e01b0316029590950194505b5050509193909250565b600080826001600160a01b0316846001600160a01b031614156107df5760405162461bcd60e51b8152600401808060200182810382526026815260200180610b366026913960400191505060405180910390fd5b826001600160a01b0316846001600160a01b0316106107ff578284610802565b83835b90925090506001600160a01b038216610862576040805162461bcd60e51b815260206004820152601f60248201527f506570657377617056324c6962726172793a205a45524f5f4144445245535300604482015290519081900360640190fd5b9250929050565b63ffffffff421690565b61087b610b23565b600082116108ba5760405162461bcd60e51b8152600401808060200182810382526026815260200180610b5c6026913960400191505060405180910390fd5b826108d457506040805160208101909152600081526102ab565b6001600160901b03831161095e57600082607085901b816108f157fe5b0490506001600160e01b0381111561093e576040805162461bcd60e51b815260206004820152601e6024820152600080516020610ba4833981519152604482015290519081900360640190fd5b6040518060200160405280826001600160e01b03168152509150506102ab565b600061096f84600160701b856109bb565b90506001600160e01b0381111561093e576040805162461bcd60e51b815260206004820152601e6024820152600080516020610ba4833981519152604482015290519081900360640190fd5b60008060006109ca8686610a73565b91509150600084806109d857fe5b8688099050828111156109ec576001820391505b918290039181610a0a578483816109ff57fe5b049350505050610a6c565b848210610a5b576040805162461bcd60e51b815260206004820152601a60248201527946756c6c4d6174683a2046554c4c4449565f4f564552464c4f5760301b604482015290519081900360640190fd5b610a66838387610aa0565b93505050505b9392505050565b6000808060001984860990508385029250828103915082811015610a98576001820391505b509250929050565b60008181038216808381610ab057fe5b049250808581610abc57fe5b049450808160000381610acb57fe5b60028581038087028203028087028203028087028203028087028203028087028203028087028203029586029003909402930460010193909302939093010292915050565b6040518060200160405280600081525090565b6040805160208101909152600081529056fe506570657377617056324c6962726172793a204944454e544943414c5f4144445245535345534669786564506f696e743a3a6672616374696f6e3a206469766973696f6e206279207a65726f4578616d706c654f7261636c6553696d706c653a20494e56414c49445f544f4b454e4669786564506f696e743a3a6672616374696f6e3a206f766572666c6f7700004578616d706c654f7261636c6553696d706c653a20504552494f445f4e4f545f454c4150534544a2646970667358221220d6b0bf6d814cf793e649c49d7c111ec8c8e88dedc23449d1b59414a280433c8764736f6c634300060c0033506570657377617056324c6962726172793a204944454e544943414c5f414444524553534553",
  "immutableReferences": {
    "4472": [
      {
        "length": 32,
        "start": 726
      }
    ],
    "4474": [
      {
        "length": 32,
        "start": 366
      },
      {
        "length": 32,
        "start": 404
      }
    ],
    "4476": [
      {
        "length": 32,
        "start": 522
      },
      {
        "length": 32,
        "start": 1064
      }
    ]
  },
  "source": "pragma solidity =0.6.12;\n\nimport '@uniswap/v2-core/contracts/interfaces/IUniswapV2Factory.sol';\nimport '@uniswap/v2-core/contracts/interfaces/IUniswapV2Pair.sol';\nimport '@uniswap/lib/contracts/libraries/FixedPoint.sol';\n\nimport '../libraries/PepeswapV2OracleLibrary.sol';\nimport '../libraries/PepeswapV2Library.sol';\n\n// fixed window oracle that recomputes the average price for the entire period once every period\n// note that the price average is only guaranteed to be over at least 1 period, but may be over a longer period\ncontract ExampleOracleSimple {\n    using FixedPoint for *;\n\n    uint public constant PERIOD = 24 hours;\n\n    IUniswapV2Pair immutable pair;\n    address public immutable token0;\n    address public immutable token1;\n\n    uint    public price0CumulativeLast;\n    uint    public price1CumulativeLast;\n    uint32  public blockTimestampLast;\n    FixedPoint.uq112x112 public price0Average;\n    FixedPoint.uq112x112 public price1Average;\n\n    constructor(address factory, address tokenA, address tokenB) public {\n        IUniswapV2Pair _pair = IUniswapV2Pair(PepeswapV2Library.pairFor(factory, tokenA, tokenB));\n        pair = _pair;\n        token0 = _pair.token0();\n        token1 = _pair.token1();\n        price0CumulativeLast = _pair.price0CumulativeLast(); // fetch the current accumulated price value (1 / 0)\n        price1CumulativeLast = _pair.price1CumulativeLast(); // fetch the current accumulated price value (0 / 1)\n        uint112 reserve0;\n        uint112 reserve1;\n        (reserve0, reserve1, blockTimestampLast) = _pair.getReserves();\n        require(reserve0 != 0 && reserve1 != 0, 'ExampleOracleSimple: NO_RESERVES'); // ensure that there's liquidity in the pair\n    }\n\n    function update() external {\n        (uint price0Cumulative, uint price1Cumulative, uint32 blockTimestamp) =\n            PepeswapV2OracleLibrary.currentCumulativePrices(address(pair));\n        uint32 timeElapsed = blockTimestamp - blockTimestampLast; // overflow is desired\n\n        // ensure that at least one full period has passed since the last update\n        require(timeElapsed >= PERIOD, 'ExampleOracleSimple: PERIOD_NOT_ELAPSED');\n\n        // overflow is desired, casting never truncates\n        // cumulative price is in (uq112x112 price * seconds) units so we simply wrap it after division by time elapsed\n        price0Average = FixedPoint.uq112x112(uint224((price0Cumulative - price0CumulativeLast) / timeElapsed));\n        price1Average = FixedPoint.uq112x112(uint224((price1Cumulative - price1CumulativeLast) / timeElapsed));\n\n        price0CumulativeLast = price0Cumulative;\n        price1CumulativeLast = price1Cumulative;\n        blockTimestampLast = blockTimestamp;\n    }\n\n    // note this will always return 0 before update has been called successfully for the first time.\n    function consult(address token, uint amountIn) external view returns (uint amountOut) {\n        if (token == token0) {\n            amountOut = price0Average.mul(amountIn).decode144();\n        } else {\n            require(token == token1, 'ExampleOracleSimple: INVALID_TOKEN');\n            amountOut = price1Average.mul(amountIn).decode144();\n        }\n    }\n}\n",
  "sourcePath": "/Users/blockchaindev/Documents/pepeswap-periphery/contracts/examples/ExampleOracleSimple.sol",
  "compiler": {
    "name": "solc",
    "version": "0.6.12+commit.27d51765.Emscripten.clang"
  },
  "schemaVersion": "3.4.1",
  "updatedAt": "2021-07-01T01:53:35.035Z",
  "devdoc": {
    "kind": "dev",
    "methods": {},
    "version": 1
  },
  "userdoc": {
    "kind": "user",
    "methods": {},
    "version": 1
  }
}