{
  "contractName": "ExampleSwapToPrice",
  "abi": [
    {
      "inputs": [
        {
          "internalType": "address",
          "name": "factory_",
          "type": "address"
        },
        {
          "internalType": "contract IPepeswapV2Router01",
          "name": "router_",
          "type": "address"
        }
      ],
      "stateMutability": "nonpayable",
      "type": "constructor"
    },
    {
      "inputs": [],
      "name": "factory",
      "outputs": [
        {
          "internalType": "address",
          "name": "",
          "type": "address"
        }
      ],
      "stateMutability": "view",
      "type": "function"
    },
    {
      "inputs": [],
      "name": "router",
      "outputs": [
        {
          "internalType": "contract IPepeswapV2Router01",
          "name": "",
          "type": "address"
        }
      ],
      "stateMutability": "view",
      "type": "function"
    },
    {
      "inputs": [
        {
          "internalType": "address",
          "name": "tokenA",
          "type": "address"
        },
        {
          "internalType": "address",
          "name": "tokenB",
          "type": "address"
        },
        {
          "internalType": "uint256",
          "name": "truePriceTokenA",
          "type": "uint256"
        },
        {
          "internalType": "uint256",
          "name": "truePriceTokenB",
          "type": "uint256"
        },
        {
          "internalType": "uint256",
          "name": "maxSpendTokenA",
          "type": "uint256"
        },
        {
          "internalType": "uint256",
          "name": "maxSpendTokenB",
          "type": "uint256"
        },
        {
          "internalType": "address",
          "name": "to",
          "type": "address"
        },
        {
          "internalType": "uint256",
          "name": "deadline",
          "type": "uint256"
        }
      ],
      "name": "swapToPrice",
      "outputs": [],
      "stateMutability": "nonpayable",
      "type": "function"
    }
  ],
  "bytecode": "0x60c060405234801561001057600080fd5b506040516115113803806115118339818101604052604081101561003357600080fd5b8101908080519060200190929190805190602001909291905050508173ffffffffffffffffffffffffffffffffffffffff1660a08173ffffffffffffffffffffffffffffffffffffffff1660601b815250508073ffffffffffffffffffffffffffffffffffffffff1660808173ffffffffffffffffffffffffffffffffffffffff1660601b81525050505060805160601c60a05160601c61141b6100f660003980610277528061063552508061036152806104645280610659525061141b6000f3fe608060405234801561001057600080fd5b50600436106100415760003560e01c8063bef90fd314610046578063c45a0155146100fd578063f887ea4014610131575b600080fd5b6100fb600480360361010081101561005d57600080fd5b81019080803573ffffffffffffffffffffffffffffffffffffffff169060200190929190803573ffffffffffffffffffffffffffffffffffffffff16906020019092919080359060200190929190803590602001909291908035906020019092919080359060200190929190803573ffffffffffffffffffffffffffffffffffffffff16906020019092919080359060200190929190505050610165565b005b610105610633565b604051808273ffffffffffffffffffffffffffffffffffffffff16815260200191505060405180910390f35b610139610657565b604051808273ffffffffffffffffffffffffffffffffffffffff16815260200191505060405180910390f35b60008614158015610177575060008514155b6101e9576040517f08c379a000000000000000000000000000000000000000000000000000000000815260040180806020018281038252601e8152602001807f4578616d706c6553776170546f50726963653a205a45524f5f5052494345000081525060200191505060405180910390fd5b6000841415806101fa575060008314155b61026c576040517f08c379a000000000000000000000000000000000000000000000000000000000815260040180806020018281038252601e8152602001807f4578616d706c6553776170546f50726963653a205a45524f5f5350454e44000081525060200191505060405180910390fd5b60008060008061029d7f00000000000000000000000000000000000000000000000000000000000000008d8d61067b565b915091506102ad8a8a84846107a4565b8094508195505050505060008111610310576040517f08c379a00000000000000000000000000000000000000000000000000000000081526004018080602001828103825260228152602001806113c46022913960400191505060405180910390fd5b60008261031d578561031f565b865b90508082111561032d578091505b60008361033a578a61033c565b8b5b905060008461034b578c61034d565b8b5b905061035b823330876108a1565b610386827f000000000000000000000000000000000000000000000000000000000000000086610a86565b6060600267ffffffffffffffff811180156103a057600080fd5b506040519080825280602002602001820160405280156103cf5781602001602082028036833780820191505090505b50905082816000815181106103e057fe5b602002602001019073ffffffffffffffffffffffffffffffffffffffff16908173ffffffffffffffffffffffffffffffffffffffff1681525050818160018151811061042857fe5b602002602001019073ffffffffffffffffffffffffffffffffffffffff16908173ffffffffffffffffffffffffffffffffffffffff16815250507f000000000000000000000000000000000000000000000000000000000000000073ffffffffffffffffffffffffffffffffffffffff166338ed1739866000848c8c6040518663ffffffff1660e01b815260040180868152602001858152602001806020018473ffffffffffffffffffffffffffffffffffffffff168152602001838152602001828103825285818151815260200191508051906020019060200280838360005b83811015610524578082015181840152602081019050610509565b505050509050019650505050505050600060405180830381600087803b15801561054d57600080fd5b505af1158015610561573d6000803e3d6000fd5b505050506040513d6000823e3d601f19601f82011682018060405250602081101561058b57600080fd5b81019080805160405193929190846401000000008211156105ab57600080fd5b838201915060208201858111156105c157600080fd5b82518660208202830111640100000000821117156105de57600080fd5b8083526020830192505050908051906020019060200280838360005b838110156106155780820151818401526020810190506105fa565b50505050905001604052505050505050505050505050505050505050565b7f000000000000000000000000000000000000000000000000000000000000000081565b7f000000000000000000000000000000000000000000000000000000000000000081565b600080600061068a8585610c4c565b50905060008061069b888888610dc3565b73ffffffffffffffffffffffffffffffffffffffff16630902f1ac6040518163ffffffff1660e01b815260040160606040518083038186803b1580156106e057600080fd5b505afa1580156106f4573d6000803e3d6000fd5b505050506040513d606081101561070a57600080fd5b81019080805190602001909291908051906020019092919080519060200190929190505050506dffffffffffffffffffffffffffff1691506dffffffffffffffffffffffffffff1691508273ffffffffffffffffffffffffffffffffffffffff168773ffffffffffffffffffffffffffffffffffffffff161461078e578082610791565b81815b8095508196505050505050935093915050565b600080856107b3858786610edc565b10915060006107cb8486610fbc90919063ffffffff16565b9050600061082261081d6107ea6103e885610fbc90919063ffffffff16565b866107f557896107f7565b8a5b6108186103e589610808578d61080a565b8c5b610fbc90919063ffffffff16565b610edc565b611051565b905060006103e585610848576108436103e888610fbc90919063ffffffff16565b61085e565b61085d6103e889610fbc90919063ffffffff16565b5b8161086557fe5b0490508082101561087f5760008094509450505050610898565b61089281836111ce90919063ffffffff16565b93505050505b94509492505050565b600060608573ffffffffffffffffffffffffffffffffffffffff166323b872dd868686604051602401808473ffffffffffffffffffffffffffffffffffffffff1681526020018373ffffffffffffffffffffffffffffffffffffffff16815260200182815260200193505050506040516020818303038152906040529060e01b6020820180517bffffffffffffffffffffffffffffffffffffffffffffffffffffffff83818316178352505050506040518082805190602001908083835b60208310610982578051825260208201915060208101905060208303925061095f565b6001836020036101000a0380198251168184511680821785525050505050509050019150506000604051808303816000865af19150503d80600081146109e4576040519150601f19603f3d011682016040523d82523d6000602084013e6109e9565b606091505b5091509150818015610a295750600081511480610a285750808060200190516020811015610a1657600080fd5b81019080805190602001909291905050505b5b610a7e576040517f08c379a00000000000000000000000000000000000000000000000000000000081526004018080602001828103825260318152602001806113686031913960400191505060405180910390fd5b505050505050565b600060608473ffffffffffffffffffffffffffffffffffffffff1663095ea7b38585604051602401808373ffffffffffffffffffffffffffffffffffffffff168152602001828152602001925050506040516020818303038152906040529060e01b6020820180517bffffffffffffffffffffffffffffffffffffffffffffffffffffffff83818316178352505050506040518082805190602001908083835b60208310610b495780518252602082019150602081019050602083039250610b26565b6001836020036101000a0380198251168184511680821785525050505050509050019150506000604051808303816000865af19150503d8060008114610bab576040519150601f19603f3d011682016040523d82523d6000602084013e610bb0565b606091505b5091509150818015610bf05750600081511480610bef5750808060200190516020811015610bdd57600080fd5b81019080805190602001909291905050505b5b610c45576040517f08c379a000000000000000000000000000000000000000000000000000000000815260040180806020018281038252602b815260200180611399602b913960400191505060405180910390fd5b5050505050565b6000808273ffffffffffffffffffffffffffffffffffffffff168473ffffffffffffffffffffffffffffffffffffffff161415610cd4576040517f08c379a00000000000000000000000000000000000000000000000000000000081526004018080602001828103825260268152602001806113426026913960400191505060405180910390fd5b8273ffffffffffffffffffffffffffffffffffffffff168473ffffffffffffffffffffffffffffffffffffffff1610610d0e578284610d11565b83835b8092508193505050600073ffffffffffffffffffffffffffffffffffffffff168273ffffffffffffffffffffffffffffffffffffffff161415610dbc576040517f08c379a000000000000000000000000000000000000000000000000000000000815260040180806020018281038252601f8152602001807f506570657377617056324c6962726172793a205a45524f5f414444524553530081525060200191505060405180910390fd5b9250929050565b6000806000610dd28585610c4c565b91509150858282604051602001808373ffffffffffffffffffffffffffffffffffffffff1660601b81526014018273ffffffffffffffffffffffffffffffffffffffff1660601b8152601401925050506040516020818303038152906040528051906020012060405160200180807fff000000000000000000000000000000000000000000000000000000000000008152506001018373ffffffffffffffffffffffffffffffffffffffff1660601b8152601401828152602001807ffbf8b0d7e1edf4984120d0a0eb1b4a536f7316c689b8e967e3368720cf088d40815250602001925050506040516020818303038152906040528051906020012060001c925050509392505050565b6000806000610eeb8686611251565b9150915060008480610ef957fe5b868809905082811115610f0d576001820391505b80830392506000821415610f2f57848381610f2457fe5b049350505050610fb5565b848210610fa4576040517f08c379a000000000000000000000000000000000000000000000000000000000815260040180806020018281038252601a8152602001807f46756c6c4d6174683a2046554c4c4449565f4f564552464c4f5700000000000081525060200191505060405180910390fd5b610faf8383876112a4565b93505050505b9392505050565b600080821480610fd95750828283850292508281610fd657fe5b04145b61104b576040517f08c379a00000000000000000000000000000000000000000000000000000000081526004018080602001828103825260148152602001807f64732d6d6174682d6d756c2d6f766572666c6f7700000000000000000000000081525060200191505060405180910390fd5b92915050565b60008082141561106457600090506111c9565b6000829050600060019050700100000000000000000000000000000000821061109657608082901c9150604081901b90505b6801000000000000000082106110b557604082901c9150602081901b90505b64010000000082106110d057602082901c9150601081901b90505b6201000082106110e957601082901c9150600881901b90505b610100821061110157600882901c9150600481901b90505b6010821061111857600482901c9150600281901b90505b6008821061112857600181901b90505b600181858161113357fe5b048201901c9050600181858161114557fe5b048201901c9050600181858161115757fe5b048201901c9050600181858161116957fe5b048201901c9050600181858161117b57fe5b048201901c9050600181858161118d57fe5b048201901c9050600181858161119f57fe5b048201901c905060008185816111b157fe5b0490508082106111c157806111c3565b815b93505050505b919050565b600082828403915081111561124b576040517f08c379a00000000000000000000000000000000000000000000000000000000081526004018080602001828103825260158152602001807f64732d6d6174682d7375622d756e646572666c6f77000000000000000000000081525060200191505060405180910390fd5b92915050565b60008060007fffffffffffffffffffffffffffffffffffffffffffffffffffffffffffffffff8061127e57fe5b8486099050838502925082810391508281101561129c576001820391505b509250929050565b60008082600003831690508083816112b857fe5b0492508085816112c457fe5b04945060018182600003816112d557fe5b0401840285019450600060019050808402600203810290508084026002038102905080840260020381029050808402600203810290508084026002038102905080840260020381029050808402600203810290508084026002038102905080860292505050939250505056fe506570657377617056324c6962726172793a204944454e544943414c5f4144445245535345535472616e7366657248656c7065723a3a7472616e7366657246726f6d3a207472616e7366657246726f6d206661696c65645472616e7366657248656c7065723a3a73616665417070726f76653a20617070726f7665206661696c65644578616d706c6553776170546f50726963653a205a45524f5f414d4f554e545f494ea2646970667358221220c8399a927f833550989f1197ea88847b69ab40b3c3582da2285184862944617964736f6c634300060c0033",
  "immutableReferences": {
    "5014": [
      {
        "length": 32,
        "start": 865
      },
      {
        "length": 32,
        "start": 1124
      },
      {
        "length": 32,
        "start": 1625
      }
    ],
    "5016": [
      {
        "length": 32,
        "start": 631
      },
      {
        "length": 32,
        "start": 1589
      }
    ]
  },
  "source": "pragma solidity =0.6.12;\r\n\r\nimport '@uniswap/v2-core/contracts/interfaces/IUniswapV2Pair.sol';\r\nimport '@uniswap/lib/contracts/libraries/Babylonian.sol';\r\nimport '@uniswap/lib/contracts/libraries/TransferHelper.sol';\r\n\r\nimport '../libraries/PepeswapV2LiquidityMathLibrary.sol';\r\nimport '../interfaces/IBEP20.sol';\r\nimport '../interfaces/IPepeswapV2Router01.sol';\r\nimport '../libraries/SafeMath.sol';\r\nimport '../libraries/PepeswapV2Library.sol';\r\n\r\ncontract ExampleSwapToPrice {\r\n    using SafeMath for uint256;\r\n\r\n    IPepeswapV2Router01 public immutable router;\r\n    address public immutable factory;\r\n\r\n    constructor(address factory_, IPepeswapV2Router01 router_) public {\r\n        factory = factory_;\r\n        router = router_;\r\n    }\r\n\r\n    // swaps an amount of either token such that the trade is profit-maximizing, given an external true price\r\n    // true price is expressed in the ratio of token A to token B\r\n    // caller must approve this contract to spend whichever token is intended to be swapped\r\n    function swapToPrice(\r\n        address tokenA,\r\n        address tokenB,\r\n        uint256 truePriceTokenA,\r\n        uint256 truePriceTokenB,\r\n        uint256 maxSpendTokenA,\r\n        uint256 maxSpendTokenB,\r\n        address to,\r\n        uint256 deadline\r\n    ) public {\r\n        // true price is expressed as a ratio, so both values must be non-zero\r\n        require(truePriceTokenA != 0 && truePriceTokenB != 0, \"ExampleSwapToPrice: ZERO_PRICE\");\r\n        // caller can specify 0 for either if they wish to swap in only one direction, but not both\r\n        require(maxSpendTokenA != 0 || maxSpendTokenB != 0, \"ExampleSwapToPrice: ZERO_SPEND\");\r\n\r\n        bool aToB;\r\n        uint256 amountIn;\r\n        {\r\n            (uint256 reserveA, uint256 reserveB) = PepeswapV2Library.getReserves(factory, tokenA, tokenB);\r\n            (aToB, amountIn) = PepeswapV2LiquidityMathLibrary.computeProfitMaximizingTrade(\r\n                truePriceTokenA, truePriceTokenB,\r\n                reserveA, reserveB\r\n            );\r\n        }\r\n\r\n        require(amountIn > 0, 'ExampleSwapToPrice: ZERO_AMOUNT_IN');\r\n\r\n        // spend up to the allowance of the token in\r\n        uint256 maxSpend = aToB ? maxSpendTokenA : maxSpendTokenB;\r\n        if (amountIn > maxSpend) {\r\n            amountIn = maxSpend;\r\n        }\r\n\r\n        address tokenIn = aToB ? tokenA : tokenB;\r\n        address tokenOut = aToB ? tokenB : tokenA;\r\n        TransferHelper.safeTransferFrom(tokenIn, msg.sender, address(this), amountIn);\r\n        TransferHelper.safeApprove(tokenIn, address(router), amountIn);\r\n\r\n        address[] memory path = new address[](2);\r\n        path[0] = tokenIn;\r\n        path[1] = tokenOut;\r\n\r\n        router.swapExactTokensForTokens(\r\n            amountIn,\r\n            0, // amountOutMin: we can skip computing this number because the math is tested\r\n            path,\r\n            to,\r\n            deadline\r\n        );\r\n    }\r\n}\r\n",
  "sourcePath": "C:/Users/fsong/pepeswap/periphery/contracts/examples/ExampleSwapToPrice.sol",
  "compiler": {
    "name": "solc",
    "version": "0.6.12+commit.27d51765.Emscripten.clang"
  },
  "schemaVersion": "3.3.4",
  "updatedAt": "2021-05-27T01:20:27.025Z",
  "devdoc": {
    "kind": "dev",
    "methods": {},
    "version": 1
  },
  "userdoc": {
    "kind": "user",
    "methods": {},
    "version": 1
  }
}