{
  "contractName": "ExampleComputeLiquidityValue",
  "abi": [
    {
      "inputs": [
        {
          "internalType": "address",
          "name": "factory_",
          "type": "address"
        }
      ],
      "stateMutability": "nonpayable",
      "type": "constructor"
    },
    {
      "inputs": [],
      "name": "factory",
      "outputs": [
        {
          "internalType": "address",
          "name": "",
          "type": "address"
        }
      ],
      "stateMutability": "view",
      "type": "function"
    },
    {
      "inputs": [
        {
          "internalType": "address",
          "name": "tokenA",
          "type": "address"
        },
        {
          "internalType": "address",
          "name": "tokenB",
          "type": "address"
        },
        {
          "internalType": "uint256",
          "name": "truePriceTokenA",
          "type": "uint256"
        },
        {
          "internalType": "uint256",
          "name": "truePriceTokenB",
          "type": "uint256"
        }
      ],
      "name": "getReservesAfterArbitrage",
      "outputs": [
        {
          "internalType": "uint256",
          "name": "reserveA",
          "type": "uint256"
        },
        {
          "internalType": "uint256",
          "name": "reserveB",
          "type": "uint256"
        }
      ],
      "stateMutability": "view",
      "type": "function"
    },
    {
      "inputs": [
        {
          "internalType": "address",
          "name": "tokenA",
          "type": "address"
        },
        {
          "internalType": "address",
          "name": "tokenB",
          "type": "address"
        },
        {
          "internalType": "uint256",
          "name": "liquidityAmount",
          "type": "uint256"
        }
      ],
      "name": "getLiquidityValue",
      "outputs": [
        {
          "internalType": "uint256",
          "name": "tokenAAmount",
          "type": "uint256"
        },
        {
          "internalType": "uint256",
          "name": "tokenBAmount",
          "type": "uint256"
        }
      ],
      "stateMutability": "view",
      "type": "function"
    },
    {
      "inputs": [
        {
          "internalType": "address",
          "name": "tokenA",
          "type": "address"
        },
        {
          "internalType": "address",
          "name": "tokenB",
          "type": "address"
        },
        {
          "internalType": "uint256",
          "name": "truePriceTokenA",
          "type": "uint256"
        },
        {
          "internalType": "uint256",
          "name": "truePriceTokenB",
          "type": "uint256"
        },
        {
          "internalType": "uint256",
          "name": "liquidityAmount",
          "type": "uint256"
        }
      ],
      "name": "getLiquidityValueAfterArbitrageToPrice",
      "outputs": [
        {
          "internalType": "uint256",
          "name": "tokenAAmount",
          "type": "uint256"
        },
        {
          "internalType": "uint256",
          "name": "tokenBAmount",
          "type": "uint256"
        }
      ],
      "stateMutability": "view",
      "type": "function"
    },
    {
      "inputs": [
        {
          "internalType": "address",
          "name": "tokenA",
          "type": "address"
        },
        {
          "internalType": "address",
          "name": "tokenB",
          "type": "address"
        },
        {
          "internalType": "uint256",
          "name": "truePriceTokenA",
          "type": "uint256"
        },
        {
          "internalType": "uint256",
          "name": "truePriceTokenB",
          "type": "uint256"
        },
        {
          "internalType": "uint256",
          "name": "liquidityAmount",
          "type": "uint256"
        }
      ],
      "name": "getGasCostOfGetLiquidityValueAfterArbitrageToPrice",
      "outputs": [
        {
          "internalType": "uint256",
          "name": "",
          "type": "uint256"
        }
      ],
      "stateMutability": "view",
      "type": "function"
    }
  ],
  "bytecode": "0x60a060405234801561001057600080fd5b506040516116fc3803806116fc8339818101604052602081101561003357600080fd5b81019080805190602001909291905050508073ffffffffffffffffffffffffffffffffffffffff1660808173ffffffffffffffffffffffffffffffffffffffff1660601b815250505060805160601c61164f6100ad600039806102e75280610324528061036652806103a852806103d2525061164f6000f3fe608060405234801561001057600080fd5b50600436106100575760003560e01c80633558e94c1461005c57806369a2fcbd146100ef57806380caa3531461018c578063c45a015514610222578063d9b7a6e714610256575b600080fd5b6100d26004803603608081101561007257600080fd5b81019080803573ffffffffffffffffffffffffffffffffffffffff169060200190929190803573ffffffffffffffffffffffffffffffffffffffff16906020019092919080359060200190929190803590602001909291905050506102df565b604051808381526020018281526020019250505060405180910390f35b61016f600480360360a081101561010557600080fd5b81019080803573ffffffffffffffffffffffffffffffffffffffff169060200190929190803573ffffffffffffffffffffffffffffffffffffffff16906020019092919080359060200190929190803590602001909291908035906020019092919050505061031c565b604051808381526020018281526020019250505060405180910390f35b61020c600480360360a08110156101a257600080fd5b81019080803573ffffffffffffffffffffffffffffffffffffffff169060200190929190803573ffffffffffffffffffffffffffffffffffffffff16906020019092919080359060200190929190803590602001909291908035906020019092919050505061035b565b6040518082815260200191505060405180910390f35b61022a6103a6565b604051808273ffffffffffffffffffffffffffffffffffffffff16815260200191505060405180910390f35b6102c26004803603606081101561026c57600080fd5b81019080803573ffffffffffffffffffffffffffffffffffffffff169060200190929190803573ffffffffffffffffffffffffffffffffffffffff169060200190929190803590602001909291905050506103ca565b604051808381526020018281526020019250505060405180910390f35b60008061030f7f000000000000000000000000000000000000000000000000000000000000000087878787610405565b9150915094509492505050565b60008061034d7f000000000000000000000000000000000000000000000000000000000000000088888888886104f0565b915091509550959350505050565b6000805a905061038f7f000000000000000000000000000000000000000000000000000000000000000088888888886104f0565b505060005a90508082039250505095945050505050565b7f000000000000000000000000000000000000000000000000000000000000000081565b6000806103f97f0000000000000000000000000000000000000000000000000000000000000000868686610769565b91509150935093915050565b600080610413878787610979565b809250819350505060008211801561042b5750600081115b610480576040517f08c379a000000000000000000000000000000000000000000000000000000000815260040180806020018281038252602e815260200180611599602e913960400191505060405180910390fd5b60008061048f86868686610aa2565b9150915060008114156104a35750506104e6565b81156104c85760006104b6828686610b9f565b905081850194508084039350506104e3565b60006104d5828587610b9f565b905081840193508085039450505b50505b9550959350505050565b60008060008073ffffffffffffffffffffffffffffffffffffffff168973ffffffffffffffffffffffffffffffffffffffff1663017e7e586040518163ffffffff1660e01b815260040160206040518083038186803b15801561055257600080fd5b505afa158015610566573d6000803e3d6000fd5b505050506040513d602081101561057c57600080fd5b810190808051906020019092919050505073ffffffffffffffffffffffffffffffffffffffff161415905060006105b48a8a8a610ccf565b90506000826105c4576000610646565b8173ffffffffffffffffffffffffffffffffffffffff16637464fc3d6040518163ffffffff1660e01b815260040160206040518083038186803b15801561060a57600080fd5b505afa15801561061e573d6000803e3d6000fd5b505050506040513d602081101561063457600080fd5b81019080805190602001909291905050505b905060008273ffffffffffffffffffffffffffffffffffffffff166318160ddd6040518163ffffffff1660e01b815260040160206040518083038186803b15801561069057600080fd5b505afa1580156106a4573d6000803e3d6000fd5b505050506040513d60208110156106ba57600080fd5b810190808051906020019092919050505090508681101580156106dd5750600087115b610732576040517f08c379a00000000000000000000000000000000000000000000000000000000081526004018080602001828103825260278152602001806115f36027913960400191505060405180910390fd5b6000806107428e8e8e8e8e610405565b915091506107548282858c8a89610de8565b97509750505050505050965096945050505050565b60008060008061077a888888610979565b91509150600061078b898989610ccf565b905060008073ffffffffffffffffffffffffffffffffffffffff168a73ffffffffffffffffffffffffffffffffffffffff1663017e7e586040518163ffffffff1660e01b815260040160206040518083038186803b1580156107ec57600080fd5b505afa158015610800573d6000803e3d6000fd5b505050506040513d602081101561081657600080fd5b810190808051906020019092919050505073ffffffffffffffffffffffffffffffffffffffff161415905060008161084f5760006108d1565b8273ffffffffffffffffffffffffffffffffffffffff16637464fc3d6040518163ffffffff1660e01b815260040160206040518083038186803b15801561089557600080fd5b505afa1580156108a9573d6000803e3d6000fd5b505050506040513d60208110156108bf57600080fd5b81019080805190602001909291905050505b905060008373ffffffffffffffffffffffffffffffffffffffff166318160ddd6040518163ffffffff1660e01b815260040160206040518083038186803b15801561091b57600080fd5b505afa15801561092f573d6000803e3d6000fd5b505050506040513d602081101561094557600080fd5b810190808051906020019092919050505090506109668686838c8787610de8565b9750975050505050505094509492505050565b60008060006109888585610eea565b509050600080610999888888610ccf565b73ffffffffffffffffffffffffffffffffffffffff16630902f1ac6040518163ffffffff1660e01b815260040160606040518083038186803b1580156109de57600080fd5b505afa1580156109f2573d6000803e3d6000fd5b505050506040513d6060811015610a0857600080fd5b81019080805190602001909291908051906020019092919080519060200190929190505050506dffffffffffffffffffffffffffff1691506dffffffffffffffffffffffffffff1691508273ffffffffffffffffffffffffffffffffffffffff168773ffffffffffffffffffffffffffffffffffffffff1614610a8c578082610a8f565b81815b8095508196505050505050935093915050565b60008085610ab1858786611061565b1091506000610ac9848661114190919063ffffffff16565b90506000610b20610b1b610ae86103e88561114190919063ffffffff16565b86610af35789610af5565b8a5b610b166103e589610b06578d610b08565b8c5b61114190919063ffffffff16565b611061565b6111d6565b905060006103e585610b4657610b416103e88861114190919063ffffffff16565b610b5c565b610b5b6103e88961114190919063ffffffff16565b5b81610b6357fe5b04905080821015610b7d5760008094509450505050610b96565b610b90818361135390919063ffffffff16565b93505050505b94509492505050565b6000808411610bf9576040517f08c379a000000000000000000000000000000000000000000000000000000000815260040180806020018281038252602c8152602001806115c7602c913960400191505060405180910390fd5b600083118015610c095750600082115b610c5e576040517f08c379a00000000000000000000000000000000000000000000000000000000081526004018080602001828103825260298152602001806115706029913960400191505060405180910390fd5b6000610c756103e58661114190919063ffffffff16565b90506000610c8c848361114190919063ffffffff16565b90506000610cb783610ca96103e88961114190919063ffffffff16565b6113d690919063ffffffff16565b9050808281610cc257fe5b0493505050509392505050565b6000806000610cde8585610eea565b91509150858282604051602001808373ffffffffffffffffffffffffffffffffffffffff1660601b81526014018273ffffffffffffffffffffffffffffffffffffffff1660601b8152601401925050506040516020818303038152906040528051906020012060405160200180807fff000000000000000000000000000000000000000000000000000000000000008152506001018373ffffffffffffffffffffffffffffffffffffffff1660601b8152601401828152602001807ffbf8b0d7e1edf4984120d0a0eb1b4a536f7316c689b8e967e3368720cf088d40815250602001925050506040516020818303038152906040528051906020012060001c925050509392505050565b600080838015610df85750600083115b15610ea3576000610e1a610e15898b61114190919063ffffffff16565b6111d6565b90506000610e27856111d6565b905080821115610ea05760008890506000610e4b838561135390919063ffffffff16565b90506000610e7584610e6760058861114190919063ffffffff16565b6113d690919063ffffffff16565b90506000610e84848484611061565b9050610e99818d6113d690919063ffffffff16565b9b50505050505b50505b85610eb7868a61114190919063ffffffff16565b81610ebe57fe5b0486610ed3878a61114190919063ffffffff16565b81610eda57fe5b0491509150965096945050505050565b6000808273ffffffffffffffffffffffffffffffffffffffff168473ffffffffffffffffffffffffffffffffffffffff161415610f72576040517f08c379a000000000000000000000000000000000000000000000000000000000815260040180806020018281038252602681526020018061154a6026913960400191505060405180910390fd5b8273ffffffffffffffffffffffffffffffffffffffff168473ffffffffffffffffffffffffffffffffffffffff1610610fac578284610faf565b83835b8092508193505050600073ffffffffffffffffffffffffffffffffffffffff168273ffffffffffffffffffffffffffffffffffffffff16141561105a576040517f08c379a000000000000000000000000000000000000000000000000000000000815260040180806020018281038252601f8152602001807f506570657377617056324c6962726172793a205a45524f5f414444524553530081525060200191505060405180910390fd5b9250929050565b60008060006110708686611459565b915091506000848061107e57fe5b868809905082811115611092576001820391505b808303925060008214156110b4578483816110a957fe5b04935050505061113a565b848210611129576040517f08c379a000000000000000000000000000000000000000000000000000000000815260040180806020018281038252601a8152602001807f46756c6c4d6174683a2046554c4c4449565f4f564552464c4f5700000000000081525060200191505060405180910390fd5b6111348383876114ac565b93505050505b9392505050565b60008082148061115e575082828385029250828161115b57fe5b04145b6111d0576040517f08c379a00000000000000000000000000000000000000000000000000000000081526004018080602001828103825260148152602001807f64732d6d6174682d6d756c2d6f766572666c6f7700000000000000000000000081525060200191505060405180910390fd5b92915050565b6000808214156111e9576000905061134e565b6000829050600060019050700100000000000000000000000000000000821061121b57608082901c9150604081901b90505b68010000000000000000821061123a57604082901c9150602081901b90505b640100000000821061125557602082901c9150601081901b90505b62010000821061126e57601082901c9150600881901b90505b610100821061128657600882901c9150600481901b90505b6010821061129d57600482901c9150600281901b90505b600882106112ad57600181901b90505b60018185816112b857fe5b048201901c905060018185816112ca57fe5b048201901c905060018185816112dc57fe5b048201901c905060018185816112ee57fe5b048201901c9050600181858161130057fe5b048201901c9050600181858161131257fe5b048201901c9050600181858161132457fe5b048201901c9050600081858161133657fe5b0490508082106113465780611348565b815b93505050505b919050565b60008282840391508111156113d0576040517f08c379a00000000000000000000000000000000000000000000000000000000081526004018080602001828103825260158152602001807f64732d6d6174682d7375622d756e646572666c6f77000000000000000000000081525060200191505060405180910390fd5b92915050565b6000828284019150811015611453576040517f08c379a00000000000000000000000000000000000000000000000000000000081526004018080602001828103825260148152602001807f64732d6d6174682d6164642d6f766572666c6f7700000000000000000000000081525060200191505060405180910390fd5b92915050565b60008060007fffffffffffffffffffffffffffffffffffffffffffffffffffffffffffffffff8061148657fe5b848609905083850292508281039150828110156114a4576001820391505b509250929050565b60008082600003831690508083816114c057fe5b0492508085816114cc57fe5b04945060018182600003816114dd57fe5b0401840285019450600060019050808402600203810290508084026002038102905080840260020381029050808402600203810290508084026002038102905080840260020381029050808402600203810290508084026002038102905080860292505050939250505056fe506570657377617056324c6962726172793a204944454e544943414c5f414444524553534553506570657377617056324c6962726172793a20494e53554646494349454e545f4c4951554944495459506570657377617056324172626974726167654c6962726172793a205a45524f5f504149525f5245534552564553506570657377617056324c6962726172793a20494e53554646494349454e545f494e5055545f414d4f554e54436f6d707574654c697175696469747956616c75653a204c49515549444954595f414d4f554e54a2646970667358221220c751289ba372f77b3eb38bdb52f5712553b3a454cf87bc08f5300f15d1cd982964736f6c634300060c0033",
  "immutableReferences": {
    "3921": [
      {
        "length": 32,
        "start": 743
      },
      {
        "length": 32,
        "start": 804
      },
      {
        "length": 32,
        "start": 870
      },
      {
        "length": 32,
        "start": 936
      },
      {
        "length": 32,
        "start": 978
      }
    ]
  },
  "source": "pragma solidity =0.6.12;\r\n\r\nimport '../libraries/PepeswapV2LiquidityMathLibrary.sol';\r\n\r\ncontract ExampleComputeLiquidityValue {\r\n    using SafeMath for uint256;\r\n\r\n    address public immutable factory;\r\n\r\n    constructor(address factory_) public {\r\n        factory = factory_;\r\n    }\r\n\r\n    // see PepeswapV2LiquidityMathLibrary#getReservesAfterArbitrage\r\n    function getReservesAfterArbitrage(\r\n        address tokenA,\r\n        address tokenB,\r\n        uint256 truePriceTokenA,\r\n        uint256 truePriceTokenB\r\n    ) external view returns (uint256 reserveA, uint256 reserveB) {\r\n        return PepeswapV2LiquidityMathLibrary.getReservesAfterArbitrage(\r\n            factory,\r\n            tokenA,\r\n            tokenB,\r\n            truePriceTokenA,\r\n            truePriceTokenB\r\n        );\r\n    }\r\n\r\n    // see PepeswapV2LiquidityMathLibrary#getLiquidityValue\r\n    function getLiquidityValue(\r\n        address tokenA,\r\n        address tokenB,\r\n        uint256 liquidityAmount\r\n    ) external view returns (\r\n        uint256 tokenAAmount,\r\n        uint256 tokenBAmount\r\n    ) {\r\n        return PepeswapV2LiquidityMathLibrary.getLiquidityValue(\r\n            factory,\r\n            tokenA,\r\n            tokenB,\r\n            liquidityAmount\r\n        );\r\n    }\r\n\r\n    // see PepeswapV2LiquidityMathLibrary#getLiquidityValueAfterArbitrageToPrice\r\n    function getLiquidityValueAfterArbitrageToPrice(\r\n        address tokenA,\r\n        address tokenB,\r\n        uint256 truePriceTokenA,\r\n        uint256 truePriceTokenB,\r\n        uint256 liquidityAmount\r\n    ) external view returns (\r\n        uint256 tokenAAmount,\r\n        uint256 tokenBAmount\r\n    ) {\r\n        return PepeswapV2LiquidityMathLibrary.getLiquidityValueAfterArbitrageToPrice(\r\n            factory,\r\n            tokenA,\r\n            tokenB,\r\n            truePriceTokenA,\r\n            truePriceTokenB,\r\n            liquidityAmount\r\n        );\r\n    }\r\n\r\n    // test function to measure the gas cost of the above function\r\n    function getGasCostOfGetLiquidityValueAfterArbitrageToPrice(\r\n        address tokenA,\r\n        address tokenB,\r\n        uint256 truePriceTokenA,\r\n        uint256 truePriceTokenB,\r\n        uint256 liquidityAmount\r\n    ) external view returns (\r\n        uint256\r\n    ) {\r\n        uint gasBefore = gasleft();\r\n        PepeswapV2LiquidityMathLibrary.getLiquidityValueAfterArbitrageToPrice(\r\n            factory,\r\n            tokenA,\r\n            tokenB,\r\n            truePriceTokenA,\r\n            truePriceTokenB,\r\n            liquidityAmount\r\n        );\r\n        uint gasAfter = gasleft();\r\n        return gasBefore - gasAfter;\r\n    }\r\n}\r\n",
  "sourcePath": "C:/Users/fsong/pepeswap/periphery/contracts/examples/ExampleComputeLiquidityValue.sol",
  "compiler": {
    "name": "solc",
    "version": "0.6.12+commit.27d51765.Emscripten.clang"
  },
  "schemaVersion": "3.3.4",
  "updatedAt": "2021-05-27T01:20:26.991Z",
  "devdoc": {
    "kind": "dev",
    "methods": {},
    "version": 1
  },
  "userdoc": {
    "kind": "user",
    "methods": {},
    "version": 1
  }
}