{
  "contractName": "ExampleOracleSimple",
  "abi": [
    {
      "inputs": [
        {
          "internalType": "address",
          "name": "factory",
          "type": "address"
        },
        {
          "internalType": "address",
          "name": "tokenA",
          "type": "address"
        },
        {
          "internalType": "address",
          "name": "tokenB",
          "type": "address"
        }
      ],
      "stateMutability": "nonpayable",
      "type": "constructor"
    },
    {
      "inputs": [],
      "name": "PERIOD",
      "outputs": [
        {
          "internalType": "uint256",
          "name": "",
          "type": "uint256"
        }
      ],
      "stateMutability": "view",
      "type": "function"
    },
    {
      "inputs": [],
      "name": "blockTimestampLast",
      "outputs": [
        {
          "internalType": "uint32",
          "name": "",
          "type": "uint32"
        }
      ],
      "stateMutability": "view",
      "type": "function"
    },
    {
      "inputs": [],
      "name": "price0Average",
      "outputs": [
        {
          "internalType": "uint224",
          "name": "_x",
          "type": "uint224"
        }
      ],
      "stateMutability": "view",
      "type": "function"
    },
    {
      "inputs": [],
      "name": "price0CumulativeLast",
      "outputs": [
        {
          "internalType": "uint256",
          "name": "",
          "type": "uint256"
        }
      ],
      "stateMutability": "view",
      "type": "function"
    },
    {
      "inputs": [],
      "name": "price1Average",
      "outputs": [
        {
          "internalType": "uint224",
          "name": "_x",
          "type": "uint224"
        }
      ],
      "stateMutability": "view",
      "type": "function"
    },
    {
      "inputs": [],
      "name": "price1CumulativeLast",
      "outputs": [
        {
          "internalType": "uint256",
          "name": "",
          "type": "uint256"
        }
      ],
      "stateMutability": "view",
      "type": "function"
    },
    {
      "inputs": [],
      "name": "token0",
      "outputs": [
        {
          "internalType": "address",
          "name": "",
          "type": "address"
        }
      ],
      "stateMutability": "view",
      "type": "function"
    },
    {
      "inputs": [],
      "name": "token1",
      "outputs": [
        {
          "internalType": "address",
          "name": "",
          "type": "address"
        }
      ],
      "stateMutability": "view",
      "type": "function"
    },
    {
      "inputs": [],
      "name": "update",
      "outputs": [],
      "stateMutability": "nonpayable",
      "type": "function"
    },
    {
      "inputs": [
        {
          "internalType": "address",
          "name": "token",
          "type": "address"
        },
        {
          "internalType": "uint256",
          "name": "amountIn",
          "type": "uint256"
        }
      ],
      "name": "consult",
      "outputs": [
        {
          "internalType": "uint256",
          "name": "amountOut",
          "type": "uint256"
        }
      ],
      "stateMutability": "view",
      "type": "function"
    }
  ],
  "bytecode": "0x60e06040523480156200001157600080fd5b5060405162001b6a38038062001b6a833981810160405260608110156200003757600080fd5b81019080805190602001909291908051906020019092919080519060200190929190505050600062000076848484620004b060201b620007be1760201c565b90508073ffffffffffffffffffffffffffffffffffffffff1660808173ffffffffffffffffffffffffffffffffffffffff1660601b815250508073ffffffffffffffffffffffffffffffffffffffff16630dfe16816040518163ffffffff1660e01b815260040160206040518083038186803b158015620000f657600080fd5b505afa1580156200010b573d6000803e3d6000fd5b505050506040513d60208110156200012257600080fd5b810190808051906020019092919050505073ffffffffffffffffffffffffffffffffffffffff1660a08173ffffffffffffffffffffffffffffffffffffffff1660601b815250508073ffffffffffffffffffffffffffffffffffffffff1663d21220a76040518163ffffffff1660e01b815260040160206040518083038186803b158015620001b057600080fd5b505afa158015620001c5573d6000803e3d6000fd5b505050506040513d6020811015620001dc57600080fd5b810190808051906020019092919050505073ffffffffffffffffffffffffffffffffffffffff1660c08173ffffffffffffffffffffffffffffffffffffffff1660601b815250508073ffffffffffffffffffffffffffffffffffffffff16635909c0d56040518163ffffffff1660e01b815260040160206040518083038186803b1580156200026a57600080fd5b505afa1580156200027f573d6000803e3d6000fd5b505050506040513d60208110156200029657600080fd5b81019080805190602001909291905050506000819055508073ffffffffffffffffffffffffffffffffffffffff16635a3d54936040518163ffffffff1660e01b815260040160206040518083038186803b158015620002f457600080fd5b505afa15801562000309573d6000803e3d6000fd5b505050506040513d60208110156200032057600080fd5b81019080805190602001909291905050506001819055506000808273ffffffffffffffffffffffffffffffffffffffff16630902f1ac6040518163ffffffff1660e01b815260040160606040518083038186803b1580156200038157600080fd5b505afa15801562000396573d6000803e3d6000fd5b505050506040513d6060811015620003ad57600080fd5b81019080805190602001909291908051906020019092919080519060200190929190505050600260008291906101000a81548163ffffffff021916908363ffffffff1602179055508193508294505050506000826dffffffffffffffffffffffffffff16141580156200043157506000816dffffffffffffffffffffffffffff1614155b620004a4576040517f08c379a00000000000000000000000000000000000000000000000000000000081526004018080602001828103825260208152602001807f4578616d706c654f7261636c6553696d706c653a204e4f5f524553455256455381525060200191505060405180910390fd5b5050505050506200074d565b6000806000620004c78585620005d160201b60201c565b91509150858282604051602001808373ffffffffffffffffffffffffffffffffffffffff1660601b81526014018273ffffffffffffffffffffffffffffffffffffffff1660601b8152601401925050506040516020818303038152906040528051906020012060405160200180807fff000000000000000000000000000000000000000000000000000000000000008152506001018373ffffffffffffffffffffffffffffffffffffffff1660601b8152601401828152602001807ffbf8b0d7e1edf4984120d0a0eb1b4a536f7316c689b8e967e3368720cf088d40815250602001925050506040516020818303038152906040528051906020012060001c925050509392505050565b6000808273ffffffffffffffffffffffffffffffffffffffff168473ffffffffffffffffffffffffffffffffffffffff1614156200065b576040517f08c379a000000000000000000000000000000000000000000000000000000000815260040180806020018281038252602681526020018062001b446026913960400191505060405180910390fd5b8273ffffffffffffffffffffffffffffffffffffffff168473ffffffffffffffffffffffffffffffffffffffff1610620006975782846200069a565b83835b8092508193505050600073ffffffffffffffffffffffffffffffffffffffff168273ffffffffffffffffffffffffffffffffffffffff16141562000746576040517f08c379a000000000000000000000000000000000000000000000000000000000815260040180806020018281038252601f8152602001807f506570657377617056324c6962726172793a205a45524f5f414444524553530081525060200191505060405180910390fd5b9250929050565b60805160601c60a05160601c60c05160601c6113b76200078d60003980610399528061079c52508061026f528061029552508061053752506113b76000f3fe608060405234801561001057600080fd5b506004361061009e5760003560e01c8063a2e6204511610066578063a2e62045146101b1578063a6bb4539146101bb578063b4d1d795146101f7578063c5700a0214610215578063d21220a7146102395761009e565b80630dfe1681146100a35780633ddac953146100d75780635909c0d5146101395780635a3d5493146101575780635e6aaf2c14610175575b600080fd5b6100ab61026d565b604051808273ffffffffffffffffffffffffffffffffffffffff16815260200191505060405180910390f35b610123600480360360408110156100ed57600080fd5b81019080803573ffffffffffffffffffffffffffffffffffffffff16906020019092919080359060200190929190505050610291565b6040518082815260200191505060405180910390f35b6101416104ed565b6040518082815260200191505060405180910390f35b61015f6104f3565b6040518082815260200191505060405180910390f35b61017d6104f9565b60405180827bffffffffffffffffffffffffffffffffffffffffffffffffffffffff16815260200191505060405180910390f35b6101b961052d565b005b6101c3610749565b60405180827bffffffffffffffffffffffffffffffffffffffffffffffffffffffff16815260200191505060405180910390f35b6101ff61077d565b6040518082815260200191505060405180910390f35b61021d610784565b604051808263ffffffff16815260200191505060405180910390f35b61024161079a565b604051808273ffffffffffffffffffffffffffffffffffffffff16815260200191505060405180910390f35b7f000000000000000000000000000000000000000000000000000000000000000081565b60007f000000000000000000000000000000000000000000000000000000000000000073ffffffffffffffffffffffffffffffffffffffff168373ffffffffffffffffffffffffffffffffffffffff1614156103975761037c6103778360036040518060200160405290816000820160009054906101000a90047bffffffffffffffffffffffffffffffffffffffffffffffffffffffff167bffffffffffffffffffffffffffffffffffffffffffffffffffffffff167bffffffffffffffffffffffffffffffffffffffffffffffffffffffff16815250506108d790919063ffffffff16565b6109ca565b71ffffffffffffffffffffffffffffffffffff1690506104e7565b7f000000000000000000000000000000000000000000000000000000000000000073ffffffffffffffffffffffffffffffffffffffff168373ffffffffffffffffffffffffffffffffffffffff161461043b576040517f08c379a00000000000000000000000000000000000000000000000000000000081526004018080602001828103825260228152602001806113396022913960400191505060405180910390fd5b6104d06104cb8360046040518060200160405290816000820160009054906101000a90047bffffffffffffffffffffffffffffffffffffffffffffffffffffffff167bffffffffffffffffffffffffffffffffffffffffffffffffffffffff167bffffffffffffffffffffffffffffffffffffffffffffffffffffffff16815250506108d790919063ffffffff16565b6109ca565b71ffffffffffffffffffffffffffffffffffff1690505b92915050565b60005481565b60015481565b60048060000160009054906101000a90047bffffffffffffffffffffffffffffffffffffffffffffffffffffffff16905081565b600080600061055b7f00000000000000000000000000000000000000000000000000000000000000006109df565b9250925092506000600260009054906101000a900463ffffffff1682039050620151808163ffffffff1610156105dc576040517f08c379a000000000000000000000000000000000000000000000000000000000815260040180806020018281038252602781526020018061135b6027913960400191505060405180910390fd5b60405180602001604052808263ffffffff166000548703816105fa57fe5b047bffffffffffffffffffffffffffffffffffffffffffffffffffffffff16815250600360008201518160000160006101000a8154817bffffffffffffffffffffffffffffffffffffffffffffffffffffffff02191690837bffffffffffffffffffffffffffffffffffffffffffffffffffffffff16021790555090505060405180602001604052808263ffffffff1660015486038161069657fe5b047bffffffffffffffffffffffffffffffffffffffffffffffffffffffff16815250600460008201518160000160006101000a8154817bffffffffffffffffffffffffffffffffffffffffffffffffffffffff02191690837bffffffffffffffffffffffffffffffffffffffffffffffffffffffff160217905550905050836000819055508260018190555081600260006101000a81548163ffffffff021916908363ffffffff16021790555050505050565b60038060000160009054906101000a90047bffffffffffffffffffffffffffffffffffffffffffffffffffffffff16905081565b6201518081565b600260009054906101000a900463ffffffff1681565b7f000000000000000000000000000000000000000000000000000000000000000081565b60008060006107cd8585610c6a565b91509150858282604051602001808373ffffffffffffffffffffffffffffffffffffffff1660601b81526014018273ffffffffffffffffffffffffffffffffffffffff1660601b8152601401925050506040516020818303038152906040528051906020012060405160200180807fff000000000000000000000000000000000000000000000000000000000000008152506001018373ffffffffffffffffffffffffffffffffffffffff1660601b8152601401828152602001807ffbf8b0d7e1edf4984120d0a0eb1b4a536f7316c689b8e967e3368720cf088d40815250602001925050506040516020818303038152906040528051906020012060001c925050509392505050565b6108df6112a8565b600080831480610940575083600001517bffffffffffffffffffffffffffffffffffffffffffffffffffffffff16838486600001517bffffffffffffffffffffffffffffffffffffffffffffffffffffffff16029250828161093d57fe5b04145b6109b2576040517f08c379a00000000000000000000000000000000000000000000000000000000081526004018080602001828103825260198152602001807f4669786564506f696e743a3a6d756c3a206f766572666c6f770000000000000081525060200191505060405180910390fd5b60405180602001604052808281525091505092915050565b6000607060ff168260000151901c9050919050565b60008060006109ec610de1565b90508373ffffffffffffffffffffffffffffffffffffffff16635909c0d56040518163ffffffff1660e01b815260040160206040518083038186803b158015610a3457600080fd5b505afa158015610a48573d6000803e3d6000fd5b505050506040513d6020811015610a5e57600080fd5b810190808051906020019092919050505092508373ffffffffffffffffffffffffffffffffffffffff16635a3d54936040518163ffffffff1660e01b815260040160206040518083038186803b158015610ab757600080fd5b505afa158015610acb573d6000803e3d6000fd5b505050506040513d6020811015610ae157600080fd5b8101908080519060200190929190505050915060008060008673ffffffffffffffffffffffffffffffffffffffff16630902f1ac6040518163ffffffff1660e01b815260040160606040518083038186803b158015610b3f57600080fd5b505afa158015610b53573d6000803e3d6000fd5b505050506040513d6060811015610b6957600080fd5b810190808051906020019092919080519060200190929190805190602001909291905050509250925092508363ffffffff168163ffffffff1614610c6057600081850390508063ffffffff16610bdf846dffffffffffffffffffffffffffff16866dffffffffffffffffffffffffffff16610df7565b600001517bffffffffffffffffffffffffffffffffffffffffffffffffffffffff1602870196508063ffffffff16610c37856dffffffffffffffffffffffffffff16856dffffffffffffffffffffffffffff16610df7565b600001517bffffffffffffffffffffffffffffffffffffffffffffffffffffffff160286019550505b5050509193909250565b6000808273ffffffffffffffffffffffffffffffffffffffff168473ffffffffffffffffffffffffffffffffffffffff161415610cf2576040517f08c379a00000000000000000000000000000000000000000000000000000000081526004018080602001828103825260268152602001806112ed6026913960400191505060405180910390fd5b8273ffffffffffffffffffffffffffffffffffffffff168473ffffffffffffffffffffffffffffffffffffffff1610610d2c578284610d2f565b83835b8092508193505050600073ffffffffffffffffffffffffffffffffffffffff168273ffffffffffffffffffffffffffffffffffffffff161415610dda576040517f08c379a000000000000000000000000000000000000000000000000000000000815260040180806020018281038252601f8152602001807f506570657377617056324c6962726172793a205a45524f5f414444524553530081525060200191505060405180910390fd5b9250929050565b60006401000000004281610df157fe5b06905090565b610dff6112bb565b60008211610e58576040517f08c379a00000000000000000000000000000000000000000000000000000000081526004018080602001828103825260268152602001806113136026913960400191505060405180910390fd5b6000831415610e9657604051806020016040528060007bffffffffffffffffffffffffffffffffffffffffffffffffffffffff1681525090506110d2565b7fffffffffffffffffffffffffffffffffffffffffffffffffffffffffffffffff71ffffffffffffffffffffffffffffffffffff168311610fcf57600082607060ff1685901b81610ee357fe5b0490507fffffffffffffffffffffffffffffffffffffffffffffffffffffffffffffffff7bffffffffffffffffffffffffffffffffffffffffffffffffffffffff16811115610f9a576040517f08c379a000000000000000000000000000000000000000000000000000000000815260040180806020018281038252601e8152602001807f4669786564506f696e743a3a6672616374696f6e3a206f766572666c6f77000081525060200191505060405180910390fd5b6040518060200160405280827bffffffffffffffffffffffffffffffffffffffffffffffffffffffff168152509150506110d2565b6000610feb846e010000000000000000000000000000856110d8565b90507fffffffffffffffffffffffffffffffffffffffffffffffffffffffffffffffff7bffffffffffffffffffffffffffffffffffffffffffffffffffffffff168111156110a1576040517f08c379a000000000000000000000000000000000000000000000000000000000815260040180806020018281038252601e8152602001807f4669786564506f696e743a3a6672616374696f6e3a206f766572666c6f77000081525060200191505060405180910390fd5b6040518060200160405280827bffffffffffffffffffffffffffffffffffffffffffffffffffffffff168152509150505b92915050565b60008060006110e786866111b8565b91509150600084806110f557fe5b868809905082811115611109576001820391505b8083039250600082141561112b5784838161112057fe5b0493505050506111b1565b8482106111a0576040517f08c379a000000000000000000000000000000000000000000000000000000000815260040180806020018281038252601a8152602001807f46756c6c4d6174683a2046554c4c4449565f4f564552464c4f5700000000000081525060200191505060405180910390fd5b6111ab83838761120b565b93505050505b9392505050565b60008060007fffffffffffffffffffffffffffffffffffffffffffffffffffffffffffffffff806111e557fe5b84860990508385029250828103915082811015611203576001820391505b509250929050565b600080826000038316905080838161121f57fe5b04925080858161122b57fe5b049450600181826000038161123c57fe5b04018402850194506000600190508084026002038102905080840260020381029050808402600203810290508084026002038102905080840260020381029050808402600203810290508084026002038102905080840260020381029050808602925050509392505050565b6040518060200160405280600081525090565b604051806020016040528060007bffffffffffffffffffffffffffffffffffffffffffffffffffffffff168152509056fe506570657377617056324c6962726172793a204944454e544943414c5f4144445245535345534669786564506f696e743a3a6672616374696f6e3a206469766973696f6e206279207a65726f4578616d706c654f7261636c6553696d706c653a20494e56414c49445f544f4b454e4578616d706c654f7261636c6553696d706c653a20504552494f445f4e4f545f454c4150534544a26469706673582212209f22926f6425f1584abe1232d4ffa8a7a42d90670e24593ef684e31b162e99d364736f6c634300060c0033506570657377617056324c6962726172793a204944454e544943414c5f414444524553534553",
  "immutableReferences": {
    "4439": [
      {
        "length": 32,
        "start": 1335
      }
    ],
    "4441": [
      {
        "length": 32,
        "start": 623
      },
      {
        "length": 32,
        "start": 661
      }
    ],
    "4443": [
      {
        "length": 32,
        "start": 921
      },
      {
        "length": 32,
        "start": 1948
      }
    ]
  },
  "source": "pragma solidity =0.6.12;\r\n\r\nimport '@uniswap/v2-core/contracts/interfaces/IUniswapV2Factory.sol';\r\nimport '@uniswap/v2-core/contracts/interfaces/IUniswapV2Pair.sol';\r\nimport '@uniswap/lib/contracts/libraries/FixedPoint.sol';\r\n\r\nimport '../libraries/PepeswapV2OracleLibrary.sol';\r\nimport '../libraries/PepeswapV2Library.sol';\r\n\r\n// fixed window oracle that recomputes the average price for the entire period once every period\r\n// note that the price average is only guaranteed to be over at least 1 period, but may be over a longer period\r\ncontract ExampleOracleSimple {\r\n    using FixedPoint for *;\r\n\r\n    uint public constant PERIOD = 24 hours;\r\n\r\n    IUniswapV2Pair immutable pair;\r\n    address public immutable token0;\r\n    address public immutable token1;\r\n\r\n    uint    public price0CumulativeLast;\r\n    uint    public price1CumulativeLast;\r\n    uint32  public blockTimestampLast;\r\n    FixedPoint.uq112x112 public price0Average;\r\n    FixedPoint.uq112x112 public price1Average;\r\n\r\n    constructor(address factory, address tokenA, address tokenB) public {\r\n        IUniswapV2Pair _pair = IUniswapV2Pair(PepeswapV2Library.pairFor(factory, tokenA, tokenB));\r\n        pair = _pair;\r\n        token0 = _pair.token0();\r\n        token1 = _pair.token1();\r\n        price0CumulativeLast = _pair.price0CumulativeLast(); // fetch the current accumulated price value (1 / 0)\r\n        price1CumulativeLast = _pair.price1CumulativeLast(); // fetch the current accumulated price value (0 / 1)\r\n        uint112 reserve0;\r\n        uint112 reserve1;\r\n        (reserve0, reserve1, blockTimestampLast) = _pair.getReserves();\r\n        require(reserve0 != 0 && reserve1 != 0, 'ExampleOracleSimple: NO_RESERVES'); // ensure that there's liquidity in the pair\r\n    }\r\n\r\n    function update() external {\r\n        (uint price0Cumulative, uint price1Cumulative, uint32 blockTimestamp) =\r\n            PepeswapV2OracleLibrary.currentCumulativePrices(address(pair));\r\n        uint32 timeElapsed = blockTimestamp - blockTimestampLast; // overflow is desired\r\n\r\n        // ensure that at least one full period has passed since the last update\r\n        require(timeElapsed >= PERIOD, 'ExampleOracleSimple: PERIOD_NOT_ELAPSED');\r\n\r\n        // overflow is desired, casting never truncates\r\n        // cumulative price is in (uq112x112 price * seconds) units so we simply wrap it after division by time elapsed\r\n        price0Average = FixedPoint.uq112x112(uint224((price0Cumulative - price0CumulativeLast) / timeElapsed));\r\n        price1Average = FixedPoint.uq112x112(uint224((price1Cumulative - price1CumulativeLast) / timeElapsed));\r\n\r\n        price0CumulativeLast = price0Cumulative;\r\n        price1CumulativeLast = price1Cumulative;\r\n        blockTimestampLast = blockTimestamp;\r\n    }\r\n\r\n    // note this will always return 0 before update has been called successfully for the first time.\r\n    function consult(address token, uint amountIn) external view returns (uint amountOut) {\r\n        if (token == token0) {\r\n            amountOut = price0Average.mul(amountIn).decode144();\r\n        } else {\r\n            require(token == token1, 'ExampleOracleSimple: INVALID_TOKEN');\r\n            amountOut = price1Average.mul(amountIn).decode144();\r\n        }\r\n    }\r\n}\r\n",
  "sourcePath": "C:/Users/fsong/pepeswap/periphery/contracts/examples/ExampleOracleSimple.sol",
  "compiler": {
    "name": "solc",
    "version": "0.6.12+commit.27d51765.Emscripten.clang"
  },
  "schemaVersion": "3.3.4",
  "updatedAt": "2021-05-27T01:20:27.007Z",
  "devdoc": {
    "kind": "dev",
    "methods": {},
    "version": 1
  },
  "userdoc": {
    "kind": "user",
    "methods": {},
    "version": 1
  }
}