{
  "contractName": "PepeswapV2Router01",
  "abi": [
    {
      "inputs": [
        {
          "internalType": "address",
          "name": "_factory",
          "type": "address"
        },
        {
          "internalType": "address",
          "name": "_WBNB",
          "type": "address"
        }
      ],
      "stateMutability": "nonpayable",
      "type": "constructor"
    },
    {
      "inputs": [],
      "name": "WBNB",
      "outputs": [
        {
          "internalType": "address",
          "name": "",
          "type": "address"
        }
      ],
      "stateMutability": "view",
      "type": "function"
    },
    {
      "inputs": [],
      "name": "factory",
      "outputs": [
        {
          "internalType": "address",
          "name": "",
          "type": "address"
        }
      ],
      "stateMutability": "view",
      "type": "function"
    },
    {
      "stateMutability": "payable",
      "type": "receive"
    },
    {
      "inputs": [
        {
          "internalType": "address",
          "name": "tokenA",
          "type": "address"
        },
        {
          "internalType": "address",
          "name": "tokenB",
          "type": "address"
        },
        {
          "internalType": "uint256",
          "name": "amountADesired",
          "type": "uint256"
        },
        {
          "internalType": "uint256",
          "name": "amountBDesired",
          "type": "uint256"
        },
        {
          "internalType": "uint256",
          "name": "amountAMin",
          "type": "uint256"
        },
        {
          "internalType": "uint256",
          "name": "amountBMin",
          "type": "uint256"
        },
        {
          "internalType": "address",
          "name": "to",
          "type": "address"
        },
        {
          "internalType": "uint256",
          "name": "deadline",
          "type": "uint256"
        }
      ],
      "name": "addLiquidity",
      "outputs": [
        {
          "internalType": "uint256",
          "name": "amountA",
          "type": "uint256"
        },
        {
          "internalType": "uint256",
          "name": "amountB",
          "type": "uint256"
        },
        {
          "internalType": "uint256",
          "name": "liquidity",
          "type": "uint256"
        }
      ],
      "stateMutability": "nonpayable",
      "type": "function"
    },
    {
      "inputs": [
        {
          "internalType": "address",
          "name": "token",
          "type": "address"
        },
        {
          "internalType": "uint256",
          "name": "amountTokenDesired",
          "type": "uint256"
        },
        {
          "internalType": "uint256",
          "name": "amountTokenMin",
          "type": "uint256"
        },
        {
          "internalType": "uint256",
          "name": "amountBNBMin",
          "type": "uint256"
        },
        {
          "internalType": "address",
          "name": "to",
          "type": "address"
        },
        {
          "internalType": "uint256",
          "name": "deadline",
          "type": "uint256"
        }
      ],
      "name": "addLiquidityBNB",
      "outputs": [
        {
          "internalType": "uint256",
          "name": "amountToken",
          "type": "uint256"
        },
        {
          "internalType": "uint256",
          "name": "amountBNB",
          "type": "uint256"
        },
        {
          "internalType": "uint256",
          "name": "liquidity",
          "type": "uint256"
        }
      ],
      "stateMutability": "payable",
      "type": "function"
    },
    {
      "inputs": [
        {
          "internalType": "address",
          "name": "tokenA",
          "type": "address"
        },
        {
          "internalType": "address",
          "name": "tokenB",
          "type": "address"
        },
        {
          "internalType": "uint256",
          "name": "liquidity",
          "type": "uint256"
        },
        {
          "internalType": "uint256",
          "name": "amountAMin",
          "type": "uint256"
        },
        {
          "internalType": "uint256",
          "name": "amountBMin",
          "type": "uint256"
        },
        {
          "internalType": "address",
          "name": "to",
          "type": "address"
        },
        {
          "internalType": "uint256",
          "name": "deadline",
          "type": "uint256"
        }
      ],
      "name": "removeLiquidity",
      "outputs": [
        {
          "internalType": "uint256",
          "name": "amountA",
          "type": "uint256"
        },
        {
          "internalType": "uint256",
          "name": "amountB",
          "type": "uint256"
        }
      ],
      "stateMutability": "nonpayable",
      "type": "function"
    },
    {
      "inputs": [
        {
          "internalType": "address",
          "name": "token",
          "type": "address"
        },
        {
          "internalType": "uint256",
          "name": "liquidity",
          "type": "uint256"
        },
        {
          "internalType": "uint256",
          "name": "amountTokenMin",
          "type": "uint256"
        },
        {
          "internalType": "uint256",
          "name": "amountBNBMin",
          "type": "uint256"
        },
        {
          "internalType": "address",
          "name": "to",
          "type": "address"
        },
        {
          "internalType": "uint256",
          "name": "deadline",
          "type": "uint256"
        }
      ],
      "name": "removeLiquidityBNB",
      "outputs": [
        {
          "internalType": "uint256",
          "name": "amountToken",
          "type": "uint256"
        },
        {
          "internalType": "uint256",
          "name": "amountBNB",
          "type": "uint256"
        }
      ],
      "stateMutability": "nonpayable",
      "type": "function"
    },
    {
      "inputs": [
        {
          "internalType": "address",
          "name": "tokenA",
          "type": "address"
        },
        {
          "internalType": "address",
          "name": "tokenB",
          "type": "address"
        },
        {
          "internalType": "uint256",
          "name": "liquidity",
          "type": "uint256"
        },
        {
          "internalType": "uint256",
          "name": "amountAMin",
          "type": "uint256"
        },
        {
          "internalType": "uint256",
          "name": "amountBMin",
          "type": "uint256"
        },
        {
          "internalType": "address",
          "name": "to",
          "type": "address"
        },
        {
          "internalType": "uint256",
          "name": "deadline",
          "type": "uint256"
        },
        {
          "internalType": "bool",
          "name": "approveMax",
          "type": "bool"
        },
        {
          "internalType": "uint8",
          "name": "v",
          "type": "uint8"
        },
        {
          "internalType": "bytes32",
          "name": "r",
          "type": "bytes32"
        },
        {
          "internalType": "bytes32",
          "name": "s",
          "type": "bytes32"
        }
      ],
      "name": "removeLiquidityWithPermit",
      "outputs": [
        {
          "internalType": "uint256",
          "name": "amountA",
          "type": "uint256"
        },
        {
          "internalType": "uint256",
          "name": "amountB",
          "type": "uint256"
        }
      ],
      "stateMutability": "nonpayable",
      "type": "function"
    },
    {
      "inputs": [
        {
          "internalType": "address",
          "name": "token",
          "type": "address"
        },
        {
          "internalType": "uint256",
          "name": "liquidity",
          "type": "uint256"
        },
        {
          "internalType": "uint256",
          "name": "amountTokenMin",
          "type": "uint256"
        },
        {
          "internalType": "uint256",
          "name": "amountBNBMin",
          "type": "uint256"
        },
        {
          "internalType": "address",
          "name": "to",
          "type": "address"
        },
        {
          "internalType": "uint256",
          "name": "deadline",
          "type": "uint256"
        },
        {
          "internalType": "bool",
          "name": "approveMax",
          "type": "bool"
        },
        {
          "internalType": "uint8",
          "name": "v",
          "type": "uint8"
        },
        {
          "internalType": "bytes32",
          "name": "r",
          "type": "bytes32"
        },
        {
          "internalType": "bytes32",
          "name": "s",
          "type": "bytes32"
        }
      ],
      "name": "removeLiquidityBNBWithPermit",
      "outputs": [
        {
          "internalType": "uint256",
          "name": "amountToken",
          "type": "uint256"
        },
        {
          "internalType": "uint256",
          "name": "amountBNB",
          "type": "uint256"
        }
      ],
      "stateMutability": "nonpayable",
      "type": "function"
    },
    {
      "inputs": [
        {
          "internalType": "uint256",
          "name": "amountIn",
          "type": "uint256"
        },
        {
          "internalType": "uint256",
          "name": "amountOutMin",
          "type": "uint256"
        },
        {
          "internalType": "address[]",
          "name": "path",
          "type": "address[]"
        },
        {
          "internalType": "address",
          "name": "to",
          "type": "address"
        },
        {
          "internalType": "uint256",
          "name": "deadline",
          "type": "uint256"
        }
      ],
      "name": "swapExactTokensForTokens",
      "outputs": [
        {
          "internalType": "uint256[]",
          "name": "amounts",
          "type": "uint256[]"
        }
      ],
      "stateMutability": "nonpayable",
      "type": "function"
    },
    {
      "inputs": [
        {
          "internalType": "uint256",
          "name": "amountOut",
          "type": "uint256"
        },
        {
          "internalType": "uint256",
          "name": "amountInMax",
          "type": "uint256"
        },
        {
          "internalType": "address[]",
          "name": "path",
          "type": "address[]"
        },
        {
          "internalType": "address",
          "name": "to",
          "type": "address"
        },
        {
          "internalType": "uint256",
          "name": "deadline",
          "type": "uint256"
        }
      ],
      "name": "swapTokensForExactTokens",
      "outputs": [
        {
          "internalType": "uint256[]",
          "name": "amounts",
          "type": "uint256[]"
        }
      ],
      "stateMutability": "nonpayable",
      "type": "function"
    },
    {
      "inputs": [
        {
          "internalType": "uint256",
          "name": "amountOutMin",
          "type": "uint256"
        },
        {
          "internalType": "address[]",
          "name": "path",
          "type": "address[]"
        },
        {
          "internalType": "address",
          "name": "to",
          "type": "address"
        },
        {
          "internalType": "uint256",
          "name": "deadline",
          "type": "uint256"
        }
      ],
      "name": "swapExactBNBForTokens",
      "outputs": [
        {
          "internalType": "uint256[]",
          "name": "amounts",
          "type": "uint256[]"
        }
      ],
      "stateMutability": "payable",
      "type": "function"
    },
    {
      "inputs": [
        {
          "internalType": "uint256",
          "name": "amountOut",
          "type": "uint256"
        },
        {
          "internalType": "uint256",
          "name": "amountInMax",
          "type": "uint256"
        },
        {
          "internalType": "address[]",
          "name": "path",
          "type": "address[]"
        },
        {
          "internalType": "address",
          "name": "to",
          "type": "address"
        },
        {
          "internalType": "uint256",
          "name": "deadline",
          "type": "uint256"
        }
      ],
      "name": "swapTokensForExactBNB",
      "outputs": [
        {
          "internalType": "uint256[]",
          "name": "amounts",
          "type": "uint256[]"
        }
      ],
      "stateMutability": "nonpayable",
      "type": "function"
    },
    {
      "inputs": [
        {
          "internalType": "uint256",
          "name": "amountIn",
          "type": "uint256"
        },
        {
          "internalType": "uint256",
          "name": "amountOutMin",
          "type": "uint256"
        },
        {
          "internalType": "address[]",
          "name": "path",
          "type": "address[]"
        },
        {
          "internalType": "address",
          "name": "to",
          "type": "address"
        },
        {
          "internalType": "uint256",
          "name": "deadline",
          "type": "uint256"
        }
      ],
      "name": "swapExactTokensForBNB",
      "outputs": [
        {
          "internalType": "uint256[]",
          "name": "amounts",
          "type": "uint256[]"
        }
      ],
      "stateMutability": "nonpayable",
      "type": "function"
    },
    {
      "inputs": [
        {
          "internalType": "uint256",
          "name": "amountOut",
          "type": "uint256"
        },
        {
          "internalType": "address[]",
          "name": "path",
          "type": "address[]"
        },
        {
          "internalType": "address",
          "name": "to",
          "type": "address"
        },
        {
          "internalType": "uint256",
          "name": "deadline",
          "type": "uint256"
        }
      ],
      "name": "swapBNBForExactTokens",
      "outputs": [
        {
          "internalType": "uint256[]",
          "name": "amounts",
          "type": "uint256[]"
        }
      ],
      "stateMutability": "payable",
      "type": "function"
    },
    {
      "inputs": [
        {
          "internalType": "uint256",
          "name": "amountA",
          "type": "uint256"
        },
        {
          "internalType": "uint256",
          "name": "reserveA",
          "type": "uint256"
        },
        {
          "internalType": "uint256",
          "name": "reserveB",
          "type": "uint256"
        }
      ],
      "name": "quote",
      "outputs": [
        {
          "internalType": "uint256",
          "name": "amountB",
          "type": "uint256"
        }
      ],
      "stateMutability": "pure",
      "type": "function"
    },
    {
      "inputs": [
        {
          "internalType": "uint256",
          "name": "amountIn",
          "type": "uint256"
        },
        {
          "internalType": "uint256",
          "name": "reserveIn",
          "type": "uint256"
        },
        {
          "internalType": "uint256",
          "name": "reserveOut",
          "type": "uint256"
        }
      ],
      "name": "getAmountOut",
      "outputs": [
        {
          "internalType": "uint256",
          "name": "amountOut",
          "type": "uint256"
        }
      ],
      "stateMutability": "pure",
      "type": "function"
    },
    {
      "inputs": [
        {
          "internalType": "uint256",
          "name": "amountOut",
          "type": "uint256"
        },
        {
          "internalType": "uint256",
          "name": "reserveIn",
          "type": "uint256"
        },
        {
          "internalType": "uint256",
          "name": "reserveOut",
          "type": "uint256"
        }
      ],
      "name": "getAmountIn",
      "outputs": [
        {
          "internalType": "uint256",
          "name": "amountIn",
          "type": "uint256"
        }
      ],
      "stateMutability": "pure",
      "type": "function"
    },
    {
      "inputs": [
        {
          "internalType": "uint256",
          "name": "amountIn",
          "type": "uint256"
        },
        {
          "internalType": "address[]",
          "name": "path",
          "type": "address[]"
        }
      ],
      "name": "getAmountsOut",
      "outputs": [
        {
          "internalType": "uint256[]",
          "name": "amounts",
          "type": "uint256[]"
        }
      ],
      "stateMutability": "view",
      "type": "function"
    },
    {
      "inputs": [
        {
          "internalType": "uint256",
          "name": "amountOut",
          "type": "uint256"
        },
        {
          "internalType": "address[]",
          "name": "path",
          "type": "address[]"
        }
      ],
      "name": "getAmountsIn",
      "outputs": [
        {
          "internalType": "uint256[]",
          "name": "amounts",
          "type": "uint256[]"
        }
      ],
      "stateMutability": "view",
      "type": "function"
    }
  ],
  "bytecode": "0x60c060405234801561001057600080fd5b5060405162004ef238038062004ef28339818101604052604081101561003557600080fd5b8101908080519060200190929190805190602001909291905050508173ffffffffffffffffffffffffffffffffffffffff1660808173ffffffffffffffffffffffffffffffffffffffff1660601b815250508073ffffffffffffffffffffffffffffffffffffffff1660a08173ffffffffffffffffffffffffffffffffffffffff1660601b81525050505060805160601c60a05160601c614d36620001bc6000398061011f52806112a152806116d752806119b55280611afc5280611cc15280611d5652806121d1528061226e528061243652806124cb5280612aaa5280612d855280612ed15280612f0f52806131bf5280613218528061324c52806132cd5250806110f15280611129528061127f5280611467528061157352806117c952806118d55280611be95280611d955280611fdd52806120e6528061235b528061250a528061271852806129d85280612a015280612b9c5280612ca5528061304752806131f65280613c555280613c9952806143be52806144ba52806145a45250614d366000f3fe6080604052600436106101185760003560e01c80638dd95002116100a0578063d06ca61f11610064578063d06ca61f14610c4f578063d67b571e14610d73578063e058848814610e8c578063e8e3370014610f40578063eaaed4421461102657610174565b80638dd95002146109945780639cf68911146109d5578063ad615dec14610ad7578063baa2abde14610b3a578063c45a015514610c0e57610174565b806338ed1739116100e757806338ed1739146104e45780635d616c5b146105fd5780638332a9631461071657806385f8c259146108185780638803dbee1461087b57610174565b8063054d50d4146101795780631f00ca74146101dc5780632195995c1461030057806334a0772d1461040257610174565b36610174577f000000000000000000000000000000000000000000000000000000000000000073ffffffffffffffffffffffffffffffffffffffff163373ffffffffffffffffffffffffffffffffffffffff161461017257fe5b005b600080fd5b34801561018557600080fd5b506101c66004803603606081101561019c57600080fd5b810190808035906020019092919080359060200190929190803590602001909291905050506110d4565b6040518082815260200191505060405180910390f35b3480156101e857600080fd5b506102a9600480360360408110156101ff57600080fd5b81019080803590602001909291908035906020019064010000000081111561022657600080fd5b82018360208201111561023857600080fd5b8035906020019184602083028401116401000000008311171561025a57600080fd5b919080806020026020016040519081016040528093929190818152602001838360200280828437600081840152601f19601f8201169050808301925050505050505091929192905050506110ea565b6040518080602001828103825283818151815260200191508051906020019060200280838360005b838110156102ec5780820151818401526020810190506102d1565b505050509050019250505060405180910390f35b34801561030c57600080fd5b506103e5600480360361016081101561032457600080fd5b81019080803573ffffffffffffffffffffffffffffffffffffffff169060200190929190803573ffffffffffffffffffffffffffffffffffffffff169060200190929190803590602001909291908035906020019092919080359060200190929190803573ffffffffffffffffffffffffffffffffffffffff16906020019092919080359060200190929190803515159060200190929190803560ff169060200190929190803590602001909291908035906020019092919050505061111f565b604051808381526020018281526020019250505060405180910390f35b34801561040e57600080fd5b506104c7600480360361014081101561042657600080fd5b81019080803573ffffffffffffffffffffffffffffffffffffffff169060200190929190803590602001909291908035906020019092919080359060200190929190803573ffffffffffffffffffffffffffffffffffffffff16906020019092919080359060200190929190803515159060200190929190803560ff1690602001909291908035906020019092919080359060200190929190505050611275565b604051808381526020018281526020019250505060405180910390f35b3480156104f057600080fd5b506105a6600480360360a081101561050757600080fd5b8101908080359060200190929190803590602001909291908035906020019064010000000081111561053857600080fd5b82018360208201111561054a57600080fd5b8035906020019184602083028401116401000000008311171561056c57600080fd5b9091929391929390803573ffffffffffffffffffffffffffffffffffffffff169060200190929190803590602001909291905050506113e9565b6040518080602001828103825283818151815260200191508051906020019060200280838360005b838110156105e95780820151818401526020810190506105ce565b505050509050019250505060405180910390f35b34801561060957600080fd5b506106bf600480360360a081101561062057600080fd5b8101908080359060200190929190803590602001909291908035906020019064010000000081111561065157600080fd5b82018360208201111561066357600080fd5b8035906020019184602083028401116401000000008311171561068557600080fd5b9091929391929390803573ffffffffffffffffffffffffffffffffffffffff1690602001909291908035906020019092919050505061165c565b6040518080602001828103825283818151815260200191508051906020019060200280838360005b838110156107025780820151818401526020810190506106e7565b505050509050019250505060405180910390f35b6107c16004803603608081101561072c57600080fd5b81019080803590602001909291908035906020019064010000000081111561075357600080fd5b82018360208201111561076557600080fd5b8035906020019184602083028401116401000000008311171561078757600080fd5b9091929391929390803573ffffffffffffffffffffffffffffffffffffffff16906020019092919080359060200190929190505050611a81565b6040518080602001828103825283818151815260200191508051906020019060200280838360005b838110156108045780820151818401526020810190506107e9565b505050509050019250505060405180910390f35b34801561082457600080fd5b506108656004803603606081101561083b57600080fd5b81019080803590602001909291908035906020019092919080359060200190929190505050611f49565b6040518082815260200191505060405180910390f35b34801561088757600080fd5b5061093d600480360360a081101561089e57600080fd5b810190808035906020019092919080359060200190929190803590602001906401000000008111156108cf57600080fd5b8201836020820111156108e157600080fd5b8035906020019184602083028401116401000000008311171561090357600080fd5b9091929391929390803573ffffffffffffffffffffffffffffffffffffffff16906020019092919080359060200190929190505050611f5f565b6040518080602001828103825283818151815260200191508051906020019060200280838360005b83811015610980578082015181840152602081019050610965565b505050509050019250505060405180910390f35b3480156109a057600080fd5b506109a96121cf565b604051808273ffffffffffffffffffffffffffffffffffffffff16815260200191505060405180910390f35b610a80600480360360808110156109eb57600080fd5b810190808035906020019092919080359060200190640100000000811115610a1257600080fd5b820183602082011115610a2457600080fd5b80359060200191846020830284011164010000000083111715610a4657600080fd5b9091929391929390803573ffffffffffffffffffffffffffffffffffffffff169060200190929190803590602001909291905050506121f3565b6040518080602001828103825283818151815260200191508051906020019060200280838360005b83811015610ac3578082015181840152602081019050610aa8565b505050509050019250505060405180910390f35b348015610ae357600080fd5b50610b2460048036036060811015610afa57600080fd5b81019080803590602001909291908035906020019092919080359060200190929190505050612681565b6040518082815260200191505060405180910390f35b348015610b4657600080fd5b50610bf1600480360360e0811015610b5d57600080fd5b81019080803573ffffffffffffffffffffffffffffffffffffffff169060200190929190803573ffffffffffffffffffffffffffffffffffffffff169060200190929190803590602001909291908035906020019092919080359060200190929190803573ffffffffffffffffffffffffffffffffffffffff16906020019092919080359060200190929190505050612697565b604051808381526020018281526020019250505060405180910390f35b348015610c1a57600080fd5b50610c236129d6565b604051808273ffffffffffffffffffffffffffffffffffffffff16815260200191505060405180910390f35b348015610c5b57600080fd5b50610d1c60048036036040811015610c7257600080fd5b810190808035906020019092919080359060200190640100000000811115610c9957600080fd5b820183602082011115610cab57600080fd5b80359060200191846020830284011164010000000083111715610ccd57600080fd5b919080806020026020016040519081016040528093929190818152602001838360200280828437600081840152601f19601f8201169050808301925050505050505091929192905050506129fa565b6040518080602001828103825283818151815260200191508051906020019060200280838360005b83811015610d5f578082015181840152602081019050610d44565b505050509050019250505060405180910390f35b348015610d7f57600080fd5b50610e35600480360360a0811015610d9657600080fd5b81019080803590602001909291908035906020019092919080359060200190640100000000811115610dc757600080fd5b820183602082011115610dd957600080fd5b80359060200191846020830284011164010000000083111715610dfb57600080fd5b9091929391929390803573ffffffffffffffffffffffffffffffffffffffff16906020019092919080359060200190929190505050612a2f565b6040518080602001828103825283818151815260200191508051906020019060200280838360005b83811015610e78578082015181840152602081019050610e5d565b505050509050019250505060405180910390f35b348015610e9857600080fd5b50610f23600480360360c0811015610eaf57600080fd5b81019080803573ffffffffffffffffffffffffffffffffffffffff169060200190929190803590602001909291908035906020019092919080359060200190929190803573ffffffffffffffffffffffffffffffffffffffff16906020019092919080359060200190929190505050612e51565b604051808381526020018281526020019250505060405180910390f35b348015610f4c57600080fd5b506110026004803603610100811015610f6457600080fd5b81019080803573ffffffffffffffffffffffffffffffffffffffff169060200190929190803573ffffffffffffffffffffffffffffffffffffffff16906020019092919080359060200190929190803590602001909291908035906020019092919080359060200190929190803573ffffffffffffffffffffffffffffffffffffffff16906020019092919080359060200190929190505050612fae565b60405180848152602001838152602001828152602001935050505060405180910390f35b6110b0600480360360c081101561103c57600080fd5b81019080803573ffffffffffffffffffffffffffffffffffffffff169060200190929190803590602001909291908035906020019092919080359060200190929190803573ffffffffffffffffffffffffffffffffffffffff1690602001909291908035906020019092919050505061313d565b60405180848152602001838152602001828152602001935050505060405180910390f35b60006110e1848484613466565b90509392505050565b60606111177f00000000000000000000000000000000000000000000000000000000000000008484613596565b905092915050565b600080600061114f7f00000000000000000000000000000000000000000000000000000000000000008f8f613716565b905060008761115e578c611180565b7fffffffffffffffffffffffffffffffffffffffffffffffffffffffffffffffff5b90508173ffffffffffffffffffffffffffffffffffffffff1663d505accf3330848d8c8c8c6040518863ffffffff1660e01b8152600401808873ffffffffffffffffffffffffffffffffffffffff1681526020018773ffffffffffffffffffffffffffffffffffffffff1681526020018681526020018581526020018460ff168152602001838152602001828152602001975050505050505050600060405180830381600087803b15801561123457600080fd5b505af1158015611248573d6000803e3d6000fd5b5050505061125b8f8f8f8f8f8f8f612697565b809450819550505050509b509b9950505050505050505050565b60008060006112c57f00000000000000000000000000000000000000000000000000000000000000008e7f0000000000000000000000000000000000000000000000000000000000000000613716565b90506000876112d4578c6112f6565b7fffffffffffffffffffffffffffffffffffffffffffffffffffffffffffffffff5b90508173ffffffffffffffffffffffffffffffffffffffff1663d505accf3330848d8c8c8c6040518863ffffffff1660e01b8152600401808873ffffffffffffffffffffffffffffffffffffffff1681526020018773ffffffffffffffffffffffffffffffffffffffff1681526020018681526020018581526020018460ff168152602001838152602001828152602001975050505050505050600060405180830381600087803b1580156113aa57600080fd5b505af11580156113be573d6000803e3d6000fd5b505050506113d08e8e8e8e8e8e612e51565b809450819550505050509a509a98505050505050505050565b60608142811015611462576040517f08c379a00000000000000000000000000000000000000000000000000000000081526004018080602001828103825260198152602001807f50657065737761705632526f757465723a20455850495245440000000000000081525060200191505060405180910390fd5b6114ce7f000000000000000000000000000000000000000000000000000000000000000089888880806020026020016040519081016040528093929190818152602001838360200280828437600081840152601f19601f8201169050808301925050505050505061382f565b915086826001845103815181106114e157fe5b60200260200101511015611540576040517f08c379a000000000000000000000000000000000000000000000000000000000815260040180806020018281038252602c815260200180614c33602c913960400191505060405180910390fd5b6116058686600081811061155057fe5b9050602002013573ffffffffffffffffffffffffffffffffffffffff16336115eb7f00000000000000000000000000000000000000000000000000000000000000008a8a600081811061159f57fe5b9050602002013573ffffffffffffffffffffffffffffffffffffffff168b8b60018181106115c957fe5b9050602002013573ffffffffffffffffffffffffffffffffffffffff16613716565b856000815181106115f857fe5b60200260200101516139a7565b61165182878780806020026020016040519081016040528093929190818152602001838360200280828437600081840152601f19601f8201169050808301925050505050505086613b8c565b509695505050505050565b606081428110156116d5576040517f08c379a00000000000000000000000000000000000000000000000000000000081526004018080602001828103825260198152602001807f50657065737761705632526f757465723a20455850495245440000000000000081525060200191505060405180910390fd5b7f000000000000000000000000000000000000000000000000000000000000000073ffffffffffffffffffffffffffffffffffffffff1686866001898990500381811061171e57fe5b9050602002013573ffffffffffffffffffffffffffffffffffffffff1673ffffffffffffffffffffffffffffffffffffffff16146117c4576040517f08c379a000000000000000000000000000000000000000000000000000000000815260040180806020018281038252601e8152602001807f50657065737761705632526f757465723a20494e56414c49445f50415448000081525060200191505060405180910390fd5b6118307f000000000000000000000000000000000000000000000000000000000000000089888880806020026020016040519081016040528093929190818152602001838360200280828437600081840152601f19601f8201169050808301925050505050505061382f565b9150868260018451038151811061184357fe5b602002602001015110156118a2576040517f08c379a000000000000000000000000000000000000000000000000000000000815260040180806020018281038252602c815260200180614c33602c913960400191505060405180910390fd5b611967868660008181106118b257fe5b9050602002013573ffffffffffffffffffffffffffffffffffffffff163361194d7f00000000000000000000000000000000000000000000000000000000000000008a8a600081811061190157fe5b9050602002013573ffffffffffffffffffffffffffffffffffffffff168b8b600181811061192b57fe5b9050602002013573ffffffffffffffffffffffffffffffffffffffff16613716565b8560008151811061195a57fe5b60200260200101516139a7565b6119b382878780806020026020016040519081016040528093929190818152602001838360200280828437600081840152601f19601f8201169050808301925050505050505030613b8c565b7f000000000000000000000000000000000000000000000000000000000000000073ffffffffffffffffffffffffffffffffffffffff16632e1a7d4d836001855103815181106119ff57fe5b60200260200101516040518263ffffffff1660e01b815260040180828152602001915050600060405180830381600087803b158015611a3d57600080fd5b505af1158015611a51573d6000803e3d6000fd5b50505050611a768483600185510381518110611a6957fe5b6020026020010151613e21565b509695505050505050565b60608142811015611afa576040517f08c379a00000000000000000000000000000000000000000000000000000000081526004018080602001828103825260198152602001807f50657065737761705632526f757465723a20455850495245440000000000000081525060200191505060405180910390fd5b7f000000000000000000000000000000000000000000000000000000000000000073ffffffffffffffffffffffffffffffffffffffff1686866000818110611b3e57fe5b9050602002013573ffffffffffffffffffffffffffffffffffffffff1673ffffffffffffffffffffffffffffffffffffffff1614611be4576040517f08c379a000000000000000000000000000000000000000000000000000000000815260040180806020018281038252601e8152602001807f50657065737761705632526f757465723a20494e56414c49445f50415448000081525060200191505060405180910390fd5b611c507f000000000000000000000000000000000000000000000000000000000000000088888880806020026020016040519081016040528093929190818152602001838360200280828437600081840152601f19601f82011690508083019250505050505050613596565b91503482600081518110611c6057fe5b60200260200101511115611cbf576040517f08c379a0000000000000000000000000000000000000000000000000000000008152600401808060200182810382526028815260200180614cac6028913960400191505060405180910390fd5b7f000000000000000000000000000000000000000000000000000000000000000073ffffffffffffffffffffffffffffffffffffffff1663d0e30db083600081518110611d0857fe5b60200260200101516040518263ffffffff1660e01b81526004016000604051808303818588803b158015611d3b57600080fd5b505af1158015611d4f573d6000803e3d6000fd5b50505050507f000000000000000000000000000000000000000000000000000000000000000073ffffffffffffffffffffffffffffffffffffffff1663a9059cbb611e0d7f000000000000000000000000000000000000000000000000000000000000000089896000818110611dc157fe5b9050602002013573ffffffffffffffffffffffffffffffffffffffff168a8a6001818110611deb57fe5b9050602002013573ffffffffffffffffffffffffffffffffffffffff16613716565b84600081518110611e1a57fe5b60200260200101516040518363ffffffff1660e01b8152600401808373ffffffffffffffffffffffffffffffffffffffff16815260200182815260200192505050602060405180830381600087803b158015611e7557600080fd5b505af1158015611e89573d6000803e3d6000fd5b505050506040513d6020811015611e9f57600080fd5b8101908080519060200190929190505050611eb657fe5b611f0282878780806020026020016040519081016040528093929190818152602001838360200280828437600081840152601f19601f8201169050808301925050505050505086613b8c565b81600081518110611f0f57fe5b6020026020010151341115611f3f57611f3e3383600081518110611f2f57fe5b60200260200101513403613e21565b5b5095945050505050565b6000611f56848484613466565b90509392505050565b60608142811015611fd8576040517f08c379a00000000000000000000000000000000000000000000000000000000081526004018080602001828103825260198152602001807f50657065737761705632526f757465723a20455850495245440000000000000081525060200191505060405180910390fd5b6120447f000000000000000000000000000000000000000000000000000000000000000089888880806020026020016040519081016040528093929190818152602001838360200280828437600081840152601f19601f82011690508083019250505050505050613596565b9150868260008151811061205457fe5b602002602001015111156120b3576040517f08c379a0000000000000000000000000000000000000000000000000000000008152600401808060200182810382526028815260200180614cac6028913960400191505060405180910390fd5b612178868660008181106120c357fe5b9050602002013573ffffffffffffffffffffffffffffffffffffffff163361215e7f00000000000000000000000000000000000000000000000000000000000000008a8a600081811061211257fe5b9050602002013573ffffffffffffffffffffffffffffffffffffffff168b8b600181811061213c57fe5b9050602002013573ffffffffffffffffffffffffffffffffffffffff16613716565b8560008151811061216b57fe5b60200260200101516139a7565b6121c482878780806020026020016040519081016040528093929190818152602001838360200280828437600081840152601f19601f8201169050808301925050505050505086613b8c565b509695505050505050565b7f000000000000000000000000000000000000000000000000000000000000000081565b6060814281101561226c576040517f08c379a00000000000000000000000000000000000000000000000000000000081526004018080602001828103825260198152602001807f50657065737761705632526f757465723a20455850495245440000000000000081525060200191505060405180910390fd5b7f000000000000000000000000000000000000000000000000000000000000000073ffffffffffffffffffffffffffffffffffffffff16868660008181106122b057fe5b9050602002013573ffffffffffffffffffffffffffffffffffffffff1673ffffffffffffffffffffffffffffffffffffffff1614612356576040517f08c379a000000000000000000000000000000000000000000000000000000000815260040180806020018281038252601e8152602001807f50657065737761705632526f757465723a20494e56414c49445f50415448000081525060200191505060405180910390fd5b6123c27f000000000000000000000000000000000000000000000000000000000000000034888880806020026020016040519081016040528093929190818152602001838360200280828437600081840152601f19601f8201169050808301925050505050505061382f565b915086826001845103815181106123d557fe5b60200260200101511015612434576040517f08c379a000000000000000000000000000000000000000000000000000000000815260040180806020018281038252602c815260200180614c33602c913960400191505060405180910390fd5b7f000000000000000000000000000000000000000000000000000000000000000073ffffffffffffffffffffffffffffffffffffffff1663d0e30db08360008151811061247d57fe5b60200260200101516040518263ffffffff1660e01b81526004016000604051808303818588803b1580156124b057600080fd5b505af11580156124c4573d6000803e3d6000fd5b50505050507f000000000000000000000000000000000000000000000000000000000000000073ffffffffffffffffffffffffffffffffffffffff1663a9059cbb6125827f00000000000000000000000000000000000000000000000000000000000000008989600081811061253657fe5b9050602002013573ffffffffffffffffffffffffffffffffffffffff168a8a600181811061256057fe5b9050602002013573ffffffffffffffffffffffffffffffffffffffff16613716565b8460008151811061258f57fe5b60200260200101516040518363ffffffff1660e01b8152600401808373ffffffffffffffffffffffffffffffffffffffff16815260200182815260200192505050602060405180830381600087803b1580156125ea57600080fd5b505af11580156125fe573d6000803e3d6000fd5b505050506040513d602081101561261457600080fd5b810190808051906020019092919050505061262b57fe5b61267782878780806020026020016040519081016040528093929190818152602001838360200280828437600081840152601f19601f8201169050808301925050505050505086613b8c565b5095945050505050565b600061268e848484613f80565b90509392505050565b6000808242811015612711576040517f08c379a00000000000000000000000000000000000000000000000000000000081526004018080602001828103825260198152602001807f50657065737761705632526f757465723a20455850495245440000000000000081525060200191505060405180910390fd5b600061273e7f00000000000000000000000000000000000000000000000000000000000000008c8c613716565b90508073ffffffffffffffffffffffffffffffffffffffff166323b872dd33838c6040518463ffffffff1660e01b8152600401808473ffffffffffffffffffffffffffffffffffffffff1681526020018373ffffffffffffffffffffffffffffffffffffffff1681526020018281526020019350505050602060405180830381600087803b1580156127cf57600080fd5b505af11580156127e3573d6000803e3d6000fd5b505050506040513d60208110156127f957600080fd5b8101908080519060200190929190505050506000808273ffffffffffffffffffffffffffffffffffffffff166389afcb44896040518263ffffffff1660e01b8152600401808273ffffffffffffffffffffffffffffffffffffffff1681526020019150506040805180830381600087803b15801561287657600080fd5b505af115801561288a573d6000803e3d6000fd5b505050506040513d60408110156128a057600080fd5b8101908080519060200190929190805190602001909291905050509150915060006128cb8e8e614064565b5090508073ffffffffffffffffffffffffffffffffffffffff168e73ffffffffffffffffffffffffffffffffffffffff161461290857818361290b565b82825b80975081985050508a87101561296c576040517f08c379a0000000000000000000000000000000000000000000000000000000008152600401808060200182810382526027815260200180614b8a6027913960400191505060405180910390fd5b898610156129c5576040517f08c379a0000000000000000000000000000000000000000000000000000000008152600401808060200182810382526027815260200180614c5f6027913960400191505060405180910390fd5b505050505097509795505050505050565b7f000000000000000000000000000000000000000000000000000000000000000081565b6060612a277f0000000000000000000000000000000000000000000000000000000000000000848461382f565b905092915050565b60608142811015612aa8576040517f08c379a00000000000000000000000000000000000000000000000000000000081526004018080602001828103825260198152602001807f50657065737761705632526f757465723a20455850495245440000000000000081525060200191505060405180910390fd5b7f000000000000000000000000000000000000000000000000000000000000000073ffffffffffffffffffffffffffffffffffffffff16868660018989905003818110612af157fe5b9050602002013573ffffffffffffffffffffffffffffffffffffffff1673ffffffffffffffffffffffffffffffffffffffff1614612b97576040517f08c379a000000000000000000000000000000000000000000000000000000000815260040180806020018281038252601e8152602001807f50657065737761705632526f757465723a20494e56414c49445f50415448000081525060200191505060405180910390fd5b612c037f000000000000000000000000000000000000000000000000000000000000000089888880806020026020016040519081016040528093929190818152602001838360200280828437600081840152601f19601f82011690508083019250505050505050613596565b91508682600081518110612c1357fe5b60200260200101511115612c72576040517f08c379a0000000000000000000000000000000000000000000000000000000008152600401808060200182810382526028815260200180614cac6028913960400191505060405180910390fd5b612d3786866000818110612c8257fe5b9050602002013573ffffffffffffffffffffffffffffffffffffffff1633612d1d7f00000000000000000000000000000000000000000000000000000000000000008a8a6000818110612cd157fe5b9050602002013573ffffffffffffffffffffffffffffffffffffffff168b8b6001818110612cfb57fe5b9050602002013573ffffffffffffffffffffffffffffffffffffffff16613716565b85600081518110612d2a57fe5b60200260200101516139a7565b612d8382878780806020026020016040519081016040528093929190818152602001838360200280828437600081840152601f19601f8201169050808301925050505050505030613b8c565b7f000000000000000000000000000000000000000000000000000000000000000073ffffffffffffffffffffffffffffffffffffffff16632e1a7d4d83600185510381518110612dcf57fe5b60200260200101516040518263ffffffff1660e01b815260040180828152602001915050600060405180830381600087803b158015612e0d57600080fd5b505af1158015612e21573d6000803e3d6000fd5b50505050612e468483600185510381518110612e3957fe5b6020026020010151613e21565b509695505050505050565b6000808242811015612ecb576040517f08c379a00000000000000000000000000000000000000000000000000000000081526004018080602001828103825260198152602001807f50657065737761705632526f757465723a20455850495245440000000000000081525060200191505060405180910390fd5b612efa897f00000000000000000000000000000000000000000000000000000000000000008a8a8a308a612697565b8093508194505050612f0d8986856141db565b7f000000000000000000000000000000000000000000000000000000000000000073ffffffffffffffffffffffffffffffffffffffff16632e1a7d4d836040518263ffffffff1660e01b815260040180828152602001915050600060405180830381600087803b158015612f8057600080fd5b505af1158015612f94573d6000803e3d6000fd5b50505050612fa28583613e21565b50965096945050505050565b6000806000834281101561302a576040517f08c379a00000000000000000000000000000000000000000000000000000000081526004018080602001828103825260198152602001807f50657065737761705632526f757465723a20455850495245440000000000000081525060200191505060405180910390fd5b6130388c8c8c8c8c8c6143a1565b8094508195505050600061306d7f00000000000000000000000000000000000000000000000000000000000000008e8e613716565b905061307b8d3383886139a7565b6130878c3383876139a7565b8073ffffffffffffffffffffffffffffffffffffffff16636a627842886040518263ffffffff1660e01b8152600401808273ffffffffffffffffffffffffffffffffffffffff168152602001915050602060405180830381600087803b1580156130f057600080fd5b505af1158015613104573d6000803e3d6000fd5b505050506040513d602081101561311a57600080fd5b810190808051906020019092919050505092505050985098509895505050505050565b600080600083428110156131b9576040517f08c379a00000000000000000000000000000000000000000000000000000000081526004018080602001828103825260198152602001807f50657065737761705632526f757465723a20455850495245440000000000000081525060200191505060405180910390fd5b6131e78a7f00000000000000000000000000000000000000000000000000000000000000008b348c8c6143a1565b8094508195505050600061323c7f00000000000000000000000000000000000000000000000000000000000000008c7f0000000000000000000000000000000000000000000000000000000000000000613716565b905061324a8b3383886139a7565b7f000000000000000000000000000000000000000000000000000000000000000073ffffffffffffffffffffffffffffffffffffffff1663d0e30db0856040518263ffffffff1660e01b81526004016000604051808303818588803b1580156132b257600080fd5b505af11580156132c6573d6000803e3d6000fd5b50505050507f000000000000000000000000000000000000000000000000000000000000000073ffffffffffffffffffffffffffffffffffffffff1663a9059cbb82866040518363ffffffff1660e01b8152600401808373ffffffffffffffffffffffffffffffffffffffff16815260200182815260200192505050602060405180830381600087803b15801561335c57600080fd5b505af1158015613370573d6000803e3d6000fd5b505050506040513d602081101561338657600080fd5b810190808051906020019092919050505061339d57fe5b8073ffffffffffffffffffffffffffffffffffffffff16636a627842886040518263ffffffff1660e01b8152600401808273ffffffffffffffffffffffffffffffffffffffff168152602001915050602060405180830381600087803b15801561340657600080fd5b505af115801561341a573d6000803e3d6000fd5b505050506040513d602081101561343057600080fd5b81019080805190602001909291905050509250833411156134585761345733853403613e21565b5b505096509650969350505050565b60008084116134c0576040517f08c379a000000000000000000000000000000000000000000000000000000000815260040180806020018281038252602c815260200180614bda602c913960400191505060405180910390fd5b6000831180156134d05750600082115b613525576040517f08c379a0000000000000000000000000000000000000000000000000000000008152600401808060200182810382526029815260200180614bb16029913960400191505060405180910390fd5b600061353c6103e5866146fd90919063ffffffff16565b9050600061355384836146fd90919063ffffffff16565b9050600061357e836135706103e8896146fd90919063ffffffff16565b61479290919063ffffffff16565b905080828161358957fe5b0493505050509392505050565b6060600282511015613610576040517f08c379a000000000000000000000000000000000000000000000000000000000815260040180806020018281038252601f8152602001807f506570657377617056324c6962726172793a20494e56414c49445f504154480081525060200191505060405180910390fd5b815167ffffffffffffffff8111801561362857600080fd5b506040519080825280602002602001820160405280156136575781602001602082028036833780820191505090505b509050828160018351038151811061366b57fe5b6020026020010181815250506000600183510390505b600081111561370e576000806136c1878660018603815181106136a057fe5b60200260200101518786815181106136b457fe5b6020026020010151614815565b915091506136e38484815181106136d457fe5b6020026020010151838361493e565b8460018503815181106136f257fe5b6020026020010181815250505050808060019003915050613681565b509392505050565b60008060006137258585614064565b91509150858282604051602001808373ffffffffffffffffffffffffffffffffffffffff1660601b81526014018273ffffffffffffffffffffffffffffffffffffffff1660601b8152601401925050506040516020818303038152906040528051906020012060405160200180807fff000000000000000000000000000000000000000000000000000000000000008152506001018373ffffffffffffffffffffffffffffffffffffffff1660601b8152601401828152602001807ffbf8b0d7e1edf4984120d0a0eb1b4a536f7316c689b8e967e3368720cf088d40815250602001925050506040516020818303038152906040528051906020012060001c925050509392505050565b60606002825110156138a9576040517f08c379a000000000000000000000000000000000000000000000000000000000815260040180806020018281038252601f8152602001807f506570657377617056324c6962726172793a20494e56414c49445f504154480081525060200191505060405180910390fd5b815167ffffffffffffffff811180156138c157600080fd5b506040519080825280602002602001820160405280156138f05781602001602082028036833780820191505090505b509050828160008151811061390157fe5b60200260200101818152505060005b600183510381101561399f576000806139538786858151811061392f57fe5b602002602001015187600187018151811061394657fe5b6020026020010151614815565b9150915061397584848151811061396657fe5b60200260200101518383613466565b84600185018151811061398457fe5b60200260200101818152505050508080600101915050613910565b509392505050565b600060608573ffffffffffffffffffffffffffffffffffffffff166323b872dd868686604051602401808473ffffffffffffffffffffffffffffffffffffffff1681526020018373ffffffffffffffffffffffffffffffffffffffff16815260200182815260200193505050506040516020818303038152906040529060e01b6020820180517bffffffffffffffffffffffffffffffffffffffffffffffffffffffff83818316178352505050506040518082805190602001908083835b60208310613a885780518252602082019150602081019050602083039250613a65565b6001836020036101000a0380198251168184511680821785525050505050509050019150506000604051808303816000865af19150503d8060008114613aea576040519150601f19603f3d011682016040523d82523d6000602084013e613aef565b606091505b5091509150818015613b2f5750600081511480613b2e5750808060200190516020811015613b1c57600080fd5b81019080805190602001909291905050505b5b613b84576040517f08c379a0000000000000000000000000000000000000000000000000000000008152600401808060200182810382526031815260200180614b596031913960400191505060405180910390fd5b505050505050565b60005b6001835103811015613e1b57600080848381518110613baa57fe5b6020026020010151856001850181518110613bc157fe5b6020026020010151915091506000613bd98383614064565b5090506000876001860181518110613bed57fe5b602002602001015190506000808373ffffffffffffffffffffffffffffffffffffffff168673ffffffffffffffffffffffffffffffffffffffff1614613c3557826000613c39565b6000835b91509150600060028a51038810613c505788613c92565b613c917f0000000000000000000000000000000000000000000000000000000000000000878c60028c0181518110613c8457fe5b6020026020010151613716565b5b9050613cbf7f00000000000000000000000000000000000000000000000000000000000000008888613716565b73ffffffffffffffffffffffffffffffffffffffff1663022c0d9f848484600067ffffffffffffffff81118015613cf557600080fd5b506040519080825280601f01601f191660200182016040528015613d285781602001600182028036833780820191505090505b506040518563ffffffff1660e01b8152600401808581526020018481526020018373ffffffffffffffffffffffffffffffffffffffff16815260200180602001828103825283818151815260200191508051906020019080838360005b83811015613da0578082015181840152602081019050613d85565b50505050905090810190601f168015613dcd5780820380516001836020036101000a031916815260200191505b5095505050505050600060405180830381600087803b158015613def57600080fd5b505af1158015613e03573d6000803e3d6000fd5b50505050505050505050508080600101915050613b8f565b50505050565b60008273ffffffffffffffffffffffffffffffffffffffff1682600067ffffffffffffffff81118015613e5357600080fd5b506040519080825280601f01601f191660200182016040528015613e865781602001600182028036833780820191505090505b506040518082805190602001908083835b60208310613eba5780518252602082019150602081019050602083039250613e97565b6001836020036101000a03801982511681845116808217855250505050505090500191505060006040518083038185875af1925050503d8060008114613f1c576040519150601f19603f3d011682016040523d82523d6000602084013e613f21565b606091505b5050905080613f7b576040517f08c379a0000000000000000000000000000000000000000000000000000000008152600401808060200182810382526034815260200180614aff6034913960400191505060405180910390fd5b505050565b6000808411613fda576040517f08c379a0000000000000000000000000000000000000000000000000000000008152600401808060200182810382526026815260200180614c866026913960400191505060405180910390fd5b600083118015613fea5750600082115b61403f576040517f08c379a0000000000000000000000000000000000000000000000000000000008152600401808060200182810382526029815260200180614bb16029913960400191505060405180910390fd5b8261405383866146fd90919063ffffffff16565b8161405a57fe5b0490509392505050565b6000808273ffffffffffffffffffffffffffffffffffffffff168473ffffffffffffffffffffffffffffffffffffffff1614156140ec576040517f08c379a0000000000000000000000000000000000000000000000000000000008152600401808060200182810382526026815260200180614b336026913960400191505060405180910390fd5b8273ffffffffffffffffffffffffffffffffffffffff168473ffffffffffffffffffffffffffffffffffffffff1610614126578284614129565b83835b8092508193505050600073ffffffffffffffffffffffffffffffffffffffff168273ffffffffffffffffffffffffffffffffffffffff1614156141d4576040517f08c379a000000000000000000000000000000000000000000000000000000000815260040180806020018281038252601f8152602001807f506570657377617056324c6962726172793a205a45524f5f414444524553530081525060200191505060405180910390fd5b9250929050565b600060608473ffffffffffffffffffffffffffffffffffffffff1663a9059cbb8585604051602401808373ffffffffffffffffffffffffffffffffffffffff168152602001828152602001925050506040516020818303038152906040529060e01b6020820180517bffffffffffffffffffffffffffffffffffffffffffffffffffffffff83818316178352505050506040518082805190602001908083835b6020831061429e578051825260208201915060208101905060208303925061427b565b6001836020036101000a0380198251168184511680821785525050505050509050019150506000604051808303816000865af19150503d8060008114614300576040519150601f19603f3d011682016040523d82523d6000602084013e614305565b606091505b50915091508180156143455750600081511480614344575080806020019051602081101561433257600080fd5b81019080805190602001909291905050505b5b61439a576040517f08c379a000000000000000000000000000000000000000000000000000000000815260040180806020018281038252602d815260200180614cd4602d913960400191505060405180910390fd5b5050505050565b600080600073ffffffffffffffffffffffffffffffffffffffff167f000000000000000000000000000000000000000000000000000000000000000073ffffffffffffffffffffffffffffffffffffffff1663e6a439058a8a6040518363ffffffff1660e01b8152600401808373ffffffffffffffffffffffffffffffffffffffff1681526020018273ffffffffffffffffffffffffffffffffffffffff1681526020019250505060206040518083038186803b15801561446157600080fd5b505afa158015614475573d6000803e3d6000fd5b505050506040513d602081101561448b57600080fd5b810190808051906020019092919050505073ffffffffffffffffffffffffffffffffffffffff16141561459c577f000000000000000000000000000000000000000000000000000000000000000073ffffffffffffffffffffffffffffffffffffffff1663c9c6539689896040518363ffffffff1660e01b8152600401808373ffffffffffffffffffffffffffffffffffffffff1681526020018273ffffffffffffffffffffffffffffffffffffffff16815260200192505050602060405180830381600087803b15801561455f57600080fd5b505af1158015614573573d6000803e3d6000fd5b505050506040513d602081101561458957600080fd5b8101908080519060200190929190505050505b6000806145ca7f00000000000000000000000000000000000000000000000000000000000000008b8b614815565b915091506000821480156145de5750600081145b156145f257878780945081955050506146f0565b60006145ff898484613f80565b90508781116146705785811015614661576040517f08c379a0000000000000000000000000000000000000000000000000000000008152600401808060200182810382526027815260200180614c5f6027913960400191505060405180910390fd5b888180955081965050506146ee565b600061467d898486613f80565b90508981111561468957fe5b878110156146e2576040517f08c379a0000000000000000000000000000000000000000000000000000000008152600401808060200182810382526027815260200180614b8a6027913960400191505060405180910390fd5b80898096508197505050505b505b5050965096945050505050565b60008082148061471a575082828385029250828161471757fe5b04145b61478c576040517f08c379a00000000000000000000000000000000000000000000000000000000081526004018080602001828103825260148152602001807f64732d6d6174682d6d756c2d6f766572666c6f7700000000000000000000000081525060200191505060405180910390fd5b92915050565b600082828401915081101561480f576040517f08c379a00000000000000000000000000000000000000000000000000000000081526004018080602001828103825260148152602001807f64732d6d6174682d6164642d6f766572666c6f7700000000000000000000000081525060200191505060405180910390fd5b92915050565b60008060006148248585614064565b509050600080614835888888613716565b73ffffffffffffffffffffffffffffffffffffffff16630902f1ac6040518163ffffffff1660e01b815260040160606040518083038186803b15801561487a57600080fd5b505afa15801561488e573d6000803e3d6000fd5b505050506040513d60608110156148a457600080fd5b81019080805190602001909291908051906020019092919080519060200190929190505050506dffffffffffffffffffffffffffff1691506dffffffffffffffffffffffffffff1691508273ffffffffffffffffffffffffffffffffffffffff168773ffffffffffffffffffffffffffffffffffffffff161461492857808261492b565b81815b8095508196505050505050935093915050565b6000808411614998576040517f08c379a000000000000000000000000000000000000000000000000000000000815260040180806020018281038252602d815260200180614c06602d913960400191505060405180910390fd5b6000831180156149a85750600082115b6149fd576040517f08c379a0000000000000000000000000000000000000000000000000000000008152600401808060200182810382526029815260200180614bb16029913960400191505060405180910390fd5b6000614a266103e8614a1887876146fd90919063ffffffff16565b6146fd90919063ffffffff16565b90506000614a516103e5614a438887614a7b90919063ffffffff16565b6146fd90919063ffffffff16565b9050614a706001828481614a6157fe5b0461479290919063ffffffff16565b925050509392505050565b6000828284039150811115614af8576040517f08c379a00000000000000000000000000000000000000000000000000000000081526004018080602001828103825260158152602001807f64732d6d6174682d7375622d756e646572666c6f77000000000000000000000081525060200191505060405180910390fd5b9291505056fe5472616e7366657248656c7065723a3a736166655472616e73666572424e423a20424e42207472616e73666572206661696c6564506570657377617056324c6962726172793a204944454e544943414c5f4144445245535345535472616e7366657248656c7065723a3a7472616e7366657246726f6d3a207472616e7366657246726f6d206661696c656450657065737761705632526f757465723a20494e53554646494349454e545f415f414d4f554e54506570657377617056324c6962726172793a20494e53554646494349454e545f4c4951554944495459506570657377617056324c6962726172793a20494e53554646494349454e545f494e5055545f414d4f554e54506570657377617056324c6962726172793a20494e53554646494349454e545f4f55545055545f414d4f554e5450657065737761705632526f757465723a20494e53554646494349454e545f4f55545055545f414d4f554e5450657065737761705632526f757465723a20494e53554646494349454e545f425f414d4f554e54506570657377617056324c6962726172793a20494e53554646494349454e545f414d4f554e5450657065737761705632526f757465723a204558434553534956455f494e5055545f414d4f554e545472616e7366657248656c7065723a3a736166655472616e736665723a207472616e73666572206661696c6564a2646970667358221220eddeed7651a5c93b47e343bfd394313d6a63828aed7e581973c2b24f2359ca7c64736f6c634300060c0033",
  "immutableReferences": {
    "12": [
      {
        "length": 32,
        "start": 4337
      },
      {
        "length": 32,
        "start": 4393
      },
      {
        "length": 32,
        "start": 4735
      },
      {
        "length": 32,
        "start": 5223
      },
      {
        "length": 32,
        "start": 5491
      },
      {
        "length": 32,
        "start": 6089
      },
      {
        "length": 32,
        "start": 6357
      },
      {
        "length": 32,
        "start": 7145
      },
      {
        "length": 32,
        "start": 7573
      },
      {
        "length": 32,
        "start": 8157
      },
      {
        "length": 32,
        "start": 8422
      },
      {
        "length": 32,
        "start": 9051
      },
      {
        "length": 32,
        "start": 9482
      },
      {
        "length": 32,
        "start": 10008
      },
      {
        "length": 32,
        "start": 10712
      },
      {
        "length": 32,
        "start": 10753
      },
      {
        "length": 32,
        "start": 11164
      },
      {
        "length": 32,
        "start": 11429
      },
      {
        "length": 32,
        "start": 12359
      },
      {
        "length": 32,
        "start": 12790
      },
      {
        "length": 32,
        "start": 15445
      },
      {
        "length": 32,
        "start": 15513
      },
      {
        "length": 32,
        "start": 17342
      },
      {
        "length": 32,
        "start": 17594
      },
      {
        "length": 32,
        "start": 17828
      }
    ],
    "15": [
      {
        "length": 32,
        "start": 287
      },
      {
        "length": 32,
        "start": 4769
      },
      {
        "length": 32,
        "start": 5847
      },
      {
        "length": 32,
        "start": 6581
      },
      {
        "length": 32,
        "start": 6908
      },
      {
        "length": 32,
        "start": 7361
      },
      {
        "length": 32,
        "start": 7510
      },
      {
        "length": 32,
        "start": 8657
      },
      {
        "length": 32,
        "start": 8814
      },
      {
        "length": 32,
        "start": 9270
      },
      {
        "length": 32,
        "start": 9419
      },
      {
        "length": 32,
        "start": 10922
      },
      {
        "length": 32,
        "start": 11653
      },
      {
        "length": 32,
        "start": 11985
      },
      {
        "length": 32,
        "start": 12047
      },
      {
        "length": 32,
        "start": 12735
      },
      {
        "length": 32,
        "start": 12824
      },
      {
        "length": 32,
        "start": 12876
      },
      {
        "length": 32,
        "start": 13005
      }
    ]
  },
  "source": "pragma solidity =0.6.12;\r\n\r\nimport '@uniswap/v2-core/contracts/interfaces/IUniswapV2Factory.sol';\r\nimport '@uniswap/lib/contracts/libraries/TransferHelper.sol';\r\n\r\nimport './libraries/PepeswapV2Library.sol';\r\nimport './interfaces/IPepeswapV2Router01.sol';\r\nimport './interfaces/IBEP20.sol';\r\nimport './interfaces/IWBNB.sol';\r\n\r\ncontract PepeswapV2Router01 is IPepeswapV2Router01 {\r\n    address public immutable override factory;\r\n    address public immutable override WBNB;\r\n\r\n    modifier ensure(uint deadline) {\r\n        require(deadline >= block.timestamp, 'PepeswapV2Router: EXPIRED');\r\n        _;\r\n    }\r\n\r\n    constructor(address _factory, address _WBNB) public {\r\n        factory = _factory;\r\n        WBNB = _WBNB;\r\n    }\r\n\r\n    receive() external payable {\r\n        assert(msg.sender == WBNB); // only accept BNB via fallback from the WBNB contract\r\n    }\r\n\r\n    // **** ADD LIQUIDITY ****\r\n    function _addLiquidity(\r\n        address tokenA,\r\n        address tokenB,\r\n        uint amountADesired,\r\n        uint amountBDesired,\r\n        uint amountAMin,\r\n        uint amountBMin\r\n    ) private returns (uint amountA, uint amountB) {\r\n        // create the pair if it doesn't exist yet\r\n        if (IUniswapV2Factory(factory).getPair(tokenA, tokenB) == address(0)) {\r\n            IUniswapV2Factory(factory).createPair(tokenA, tokenB);\r\n        }\r\n        (uint reserveA, uint reserveB) = PepeswapV2Library.getReserves(factory, tokenA, tokenB);\r\n        if (reserveA == 0 && reserveB == 0) {\r\n            (amountA, amountB) = (amountADesired, amountBDesired);\r\n        } else {\r\n            uint amountBOptimal = PepeswapV2Library.quote(amountADesired, reserveA, reserveB);\r\n            if (amountBOptimal <= amountBDesired) {\r\n                require(amountBOptimal >= amountBMin, 'PepeswapV2Router: INSUFFICIENT_B_AMOUNT');\r\n                (amountA, amountB) = (amountADesired, amountBOptimal);\r\n            } else {\r\n                uint amountAOptimal = PepeswapV2Library.quote(amountBDesired, reserveB, reserveA);\r\n                assert(amountAOptimal <= amountADesired);\r\n                require(amountAOptimal >= amountAMin, 'PepeswapV2Router: INSUFFICIENT_A_AMOUNT');\r\n                (amountA, amountB) = (amountAOptimal, amountBDesired);\r\n            }\r\n        }\r\n    }\r\n    function addLiquidity(\r\n        address tokenA,\r\n        address tokenB,\r\n        uint amountADesired,\r\n        uint amountBDesired,\r\n        uint amountAMin,\r\n        uint amountBMin,\r\n        address to,\r\n        uint deadline\r\n    ) external override ensure(deadline) returns (uint amountA, uint amountB, uint liquidity) {\r\n        (amountA, amountB) = _addLiquidity(tokenA, tokenB, amountADesired, amountBDesired, amountAMin, amountBMin);\r\n        address pair = PepeswapV2Library.pairFor(factory, tokenA, tokenB);\r\n        TransferHelper.safeTransferFrom(tokenA, msg.sender, pair, amountA);\r\n        TransferHelper.safeTransferFrom(tokenB, msg.sender, pair, amountB);\r\n        liquidity = IUniswapV2Pair(pair).mint(to);\r\n    }\r\n    function addLiquidityBNB(\r\n        address token,\r\n        uint amountTokenDesired,\r\n        uint amountTokenMin,\r\n        uint amountBNBMin,\r\n        address to,\r\n        uint deadline\r\n    ) external override payable ensure(deadline) returns (uint amountToken, uint amountBNB, uint liquidity) {\r\n        (amountToken, amountBNB) = _addLiquidity(\r\n            token,\r\n            WBNB,\r\n            amountTokenDesired,\r\n            msg.value,\r\n            amountTokenMin,\r\n            amountBNBMin\r\n        );\r\n        address pair = PepeswapV2Library.pairFor(factory, token, WBNB);\r\n        TransferHelper.safeTransferFrom(token, msg.sender, pair, amountToken);\r\n        IWBNB(WBNB).deposit{value: amountBNB}();\r\n        assert(IWBNB(WBNB).transfer(pair, amountBNB));\r\n        liquidity = IUniswapV2Pair(pair).mint(to);\r\n        if (msg.value > amountBNB) TransferHelper.safeTransferBNB(msg.sender, msg.value - amountBNB); // refund dust BNB, if any\r\n    }\r\n\r\n    // **** REMOVE LIQUIDITY ****\r\n    function removeLiquidity(\r\n        address tokenA,\r\n        address tokenB,\r\n        uint liquidity,\r\n        uint amountAMin,\r\n        uint amountBMin,\r\n        address to,\r\n        uint deadline\r\n    ) public override ensure(deadline) returns (uint amountA, uint amountB) {\r\n        address pair = PepeswapV2Library.pairFor(factory, tokenA, tokenB);\r\n        IUniswapV2Pair(pair).transferFrom(msg.sender, pair, liquidity); // send liquidity to pair\r\n        (uint amount0, uint amount1) = IUniswapV2Pair(pair).burn(to);\r\n        (address token0,) = PepeswapV2Library.sortTokens(tokenA, tokenB);\r\n        (amountA, amountB) = tokenA == token0 ? (amount0, amount1) : (amount1, amount0);\r\n        require(amountA >= amountAMin, 'PepeswapV2Router: INSUFFICIENT_A_AMOUNT');\r\n        require(amountB >= amountBMin, 'PepeswapV2Router: INSUFFICIENT_B_AMOUNT');\r\n    }\r\n    function removeLiquidityBNB(\r\n        address token,\r\n        uint liquidity,\r\n        uint amountTokenMin,\r\n        uint amountBNBMin,\r\n        address to,\r\n        uint deadline\r\n    ) public override ensure(deadline) returns (uint amountToken, uint amountBNB) {\r\n        (amountToken, amountBNB) = removeLiquidity(\r\n            token,\r\n            WBNB,\r\n            liquidity,\r\n            amountTokenMin,\r\n            amountBNBMin,\r\n            address(this),\r\n            deadline\r\n        );\r\n        TransferHelper.safeTransfer(token, to, amountToken);\r\n        IWBNB(WBNB).withdraw(amountBNB);\r\n        TransferHelper.safeTransferBNB(to, amountBNB);\r\n    }\r\n    function removeLiquidityWithPermit(\r\n        address tokenA,\r\n        address tokenB,\r\n        uint liquidity,\r\n        uint amountAMin,\r\n        uint amountBMin,\r\n        address to,\r\n        uint deadline,\r\n        bool approveMax, uint8 v, bytes32 r, bytes32 s\r\n    ) external override returns (uint amountA, uint amountB) {\r\n        address pair = PepeswapV2Library.pairFor(factory, tokenA, tokenB);\r\n        uint value = approveMax ? uint(-1) : liquidity;\r\n        IUniswapV2Pair(pair).permit(msg.sender, address(this), value, deadline, v, r, s);\r\n        (amountA, amountB) = removeLiquidity(tokenA, tokenB, liquidity, amountAMin, amountBMin, to, deadline);\r\n    }\r\n    function removeLiquidityBNBWithPermit(\r\n        address token,\r\n        uint liquidity,\r\n        uint amountTokenMin,\r\n        uint amountBNBMin,\r\n        address to,\r\n        uint deadline,\r\n        bool approveMax, uint8 v, bytes32 r, bytes32 s\r\n    ) external override returns (uint amountToken, uint amountBNB) {\r\n        address pair = PepeswapV2Library.pairFor(factory, token, WBNB);\r\n        uint value = approveMax ? uint(-1) : liquidity;\r\n        IUniswapV2Pair(pair).permit(msg.sender, address(this), value, deadline, v, r, s);\r\n        (amountToken, amountBNB) = removeLiquidityBNB(token, liquidity, amountTokenMin, amountBNBMin, to, deadline);\r\n    }\r\n\r\n    // **** SWAP ****\r\n    // requires the initial amount to have already been sent to the first pair\r\n    function _swap(uint[] memory amounts, address[] memory path, address _to) private {\r\n        for (uint i; i < path.length - 1; i++) {\r\n            (address input, address output) = (path[i], path[i + 1]);\r\n            (address token0,) = PepeswapV2Library.sortTokens(input, output);\r\n            uint amountOut = amounts[i + 1];\r\n            (uint amount0Out, uint amount1Out) = input == token0 ? (uint(0), amountOut) : (amountOut, uint(0));\r\n            address to = i < path.length - 2 ? PepeswapV2Library.pairFor(factory, output, path[i + 2]) : _to;\r\n            IUniswapV2Pair(PepeswapV2Library.pairFor(factory, input, output)).swap(amount0Out, amount1Out, to, new bytes(0));\r\n        }\r\n    }\r\n    function swapExactTokensForTokens(\r\n        uint amountIn,\r\n        uint amountOutMin,\r\n        address[] calldata path,\r\n        address to,\r\n        uint deadline\r\n    ) external override ensure(deadline) returns (uint[] memory amounts) {\r\n        amounts = PepeswapV2Library.getAmountsOut(factory, amountIn, path);\r\n        require(amounts[amounts.length - 1] >= amountOutMin, 'PepeswapV2Router: INSUFFICIENT_OUTPUT_AMOUNT');\r\n        TransferHelper.safeTransferFrom(path[0], msg.sender, PepeswapV2Library.pairFor(factory, path[0], path[1]), amounts[0]);\r\n        _swap(amounts, path, to);\r\n    }\r\n    function swapTokensForExactTokens(\r\n        uint amountOut,\r\n        uint amountInMax,\r\n        address[] calldata path,\r\n        address to,\r\n        uint deadline\r\n    ) external override ensure(deadline) returns (uint[] memory amounts) {\r\n        amounts = PepeswapV2Library.getAmountsIn(factory, amountOut, path);\r\n        require(amounts[0] <= amountInMax, 'PepeswapV2Router: EXCESSIVE_INPUT_AMOUNT');\r\n        TransferHelper.safeTransferFrom(path[0], msg.sender, PepeswapV2Library.pairFor(factory, path[0], path[1]), amounts[0]);\r\n        _swap(amounts, path, to);\r\n    }\r\n    function swapExactBNBForTokens(uint amountOutMin, address[] calldata path, address to, uint deadline)\r\n        external\r\n        override\r\n        payable\r\n        ensure(deadline)\r\n        returns (uint[] memory amounts)\r\n    {\r\n        require(path[0] == WBNB, 'PepeswapV2Router: INVALID_PATH');\r\n        amounts = PepeswapV2Library.getAmountsOut(factory, msg.value, path);\r\n        require(amounts[amounts.length - 1] >= amountOutMin, 'PepeswapV2Router: INSUFFICIENT_OUTPUT_AMOUNT');\r\n        IWBNB(WBNB).deposit{value: amounts[0]}();\r\n        assert(IWBNB(WBNB).transfer(PepeswapV2Library.pairFor(factory, path[0], path[1]), amounts[0]));\r\n        _swap(amounts, path, to);\r\n    }\r\n    function swapTokensForExactBNB(uint amountOut, uint amountInMax, address[] calldata path, address to, uint deadline)\r\n        external\r\n        override\r\n        ensure(deadline)\r\n        returns (uint[] memory amounts)\r\n    {\r\n        require(path[path.length - 1] == WBNB, 'PepeswapV2Router: INVALID_PATH');\r\n        amounts = PepeswapV2Library.getAmountsIn(factory, amountOut, path);\r\n        require(amounts[0] <= amountInMax, 'PepeswapV2Router: EXCESSIVE_INPUT_AMOUNT');\r\n        TransferHelper.safeTransferFrom(path[0], msg.sender, PepeswapV2Library.pairFor(factory, path[0], path[1]), amounts[0]);\r\n        _swap(amounts, path, address(this));\r\n        IWBNB(WBNB).withdraw(amounts[amounts.length - 1]);\r\n        TransferHelper.safeTransferBNB(to, amounts[amounts.length - 1]);\r\n    }\r\n    function swapExactTokensForBNB(uint amountIn, uint amountOutMin, address[] calldata path, address to, uint deadline)\r\n        external\r\n        override\r\n        ensure(deadline)\r\n        returns (uint[] memory amounts)\r\n    {\r\n        require(path[path.length - 1] == WBNB, 'PepeswapV2Router: INVALID_PATH');\r\n        amounts = PepeswapV2Library.getAmountsOut(factory, amountIn, path);\r\n        require(amounts[amounts.length - 1] >= amountOutMin, 'PepeswapV2Router: INSUFFICIENT_OUTPUT_AMOUNT');\r\n        TransferHelper.safeTransferFrom(path[0], msg.sender, PepeswapV2Library.pairFor(factory, path[0], path[1]), amounts[0]);\r\n        _swap(amounts, path, address(this));\r\n        IWBNB(WBNB).withdraw(amounts[amounts.length - 1]);\r\n        TransferHelper.safeTransferBNB(to, amounts[amounts.length - 1]);\r\n    }\r\n    function swapBNBForExactTokens(uint amountOut, address[] calldata path, address to, uint deadline)\r\n        external\r\n        override\r\n        payable\r\n        ensure(deadline)\r\n        returns (uint[] memory amounts)\r\n    {\r\n        require(path[0] == WBNB, 'PepeswapV2Router: INVALID_PATH');\r\n        amounts = PepeswapV2Library.getAmountsIn(factory, amountOut, path);\r\n        require(amounts[0] <= msg.value, 'PepeswapV2Router: EXCESSIVE_INPUT_AMOUNT');\r\n        IWBNB(WBNB).deposit{value: amounts[0]}();\r\n        assert(IWBNB(WBNB).transfer(PepeswapV2Library.pairFor(factory, path[0], path[1]), amounts[0]));\r\n        _swap(amounts, path, to);\r\n        if (msg.value > amounts[0]) TransferHelper.safeTransferBNB(msg.sender, msg.value - amounts[0]); // refund dust BNB, if any\r\n    }\r\n\r\n    function quote(uint amountA, uint reserveA, uint reserveB) public pure override returns (uint amountB) {\r\n        return PepeswapV2Library.quote(amountA, reserveA, reserveB);\r\n    }\r\n\r\n    function getAmountOut(uint amountIn, uint reserveIn, uint reserveOut) public pure override returns (uint amountOut) {\r\n        return PepeswapV2Library.getAmountOut(amountIn, reserveIn, reserveOut);\r\n    }\r\n\r\n    function getAmountIn(uint amountOut, uint reserveIn, uint reserveOut) public pure override returns (uint amountIn) {\r\n        return PepeswapV2Library.getAmountOut(amountOut, reserveIn, reserveOut);\r\n    }\r\n\r\n    function getAmountsOut(uint amountIn, address[] memory path) public view override returns (uint[] memory amounts) {\r\n        return PepeswapV2Library.getAmountsOut(factory, amountIn, path);\r\n    }\r\n\r\n    function getAmountsIn(uint amountOut, address[] memory path) public view override returns (uint[] memory amounts) {\r\n        return PepeswapV2Library.getAmountsIn(factory, amountOut, path);\r\n    }\r\n}\r\n",
  "sourcePath": "C:/Users/fsong/pepeswap/periphery/contracts/PepeswapV2Router01.sol",
  "compiler": {
    "name": "solc",
    "version": "0.6.12+commit.27d51765.Emscripten.clang"
  },
  "schemaVersion": "3.3.4",
  "updatedAt": "2021-05-27T14:40:25.130Z",
  "devdoc": {
    "kind": "dev",
    "methods": {},
    "version": 1
  },
  "userdoc": {
    "kind": "user",
    "methods": {},
    "version": 1
  }
}