{
  "contractName": "PepeswapV2Router02",
  "abi": [
    {
      "inputs": [
        {
          "internalType": "address",
          "name": "_factory",
          "type": "address"
        },
        {
          "internalType": "address",
          "name": "_WBNB",
          "type": "address"
        }
      ],
      "stateMutability": "nonpayable",
      "type": "constructor"
    },
    {
      "inputs": [],
      "name": "WBNB",
      "outputs": [
        {
          "internalType": "address",
          "name": "",
          "type": "address"
        }
      ],
      "stateMutability": "view",
      "type": "function"
    },
    {
      "inputs": [],
      "name": "factory",
      "outputs": [
        {
          "internalType": "address",
          "name": "",
          "type": "address"
        }
      ],
      "stateMutability": "view",
      "type": "function"
    },
    {
      "stateMutability": "payable",
      "type": "receive"
    },
    {
      "inputs": [
        {
          "internalType": "address",
          "name": "tokenA",
          "type": "address"
        },
        {
          "internalType": "address",
          "name": "tokenB",
          "type": "address"
        },
        {
          "internalType": "uint256",
          "name": "amountADesired",
          "type": "uint256"
        },
        {
          "internalType": "uint256",
          "name": "amountBDesired",
          "type": "uint256"
        },
        {
          "internalType": "uint256",
          "name": "amountAMin",
          "type": "uint256"
        },
        {
          "internalType": "uint256",
          "name": "amountBMin",
          "type": "uint256"
        },
        {
          "internalType": "address",
          "name": "to",
          "type": "address"
        },
        {
          "internalType": "uint256",
          "name": "deadline",
          "type": "uint256"
        }
      ],
      "name": "addLiquidity",
      "outputs": [
        {
          "internalType": "uint256",
          "name": "amountA",
          "type": "uint256"
        },
        {
          "internalType": "uint256",
          "name": "amountB",
          "type": "uint256"
        },
        {
          "internalType": "uint256",
          "name": "liquidity",
          "type": "uint256"
        }
      ],
      "stateMutability": "nonpayable",
      "type": "function"
    },
    {
      "inputs": [
        {
          "internalType": "address",
          "name": "token",
          "type": "address"
        },
        {
          "internalType": "uint256",
          "name": "amountTokenDesired",
          "type": "uint256"
        },
        {
          "internalType": "uint256",
          "name": "amountTokenMin",
          "type": "uint256"
        },
        {
          "internalType": "uint256",
          "name": "amountBNBMin",
          "type": "uint256"
        },
        {
          "internalType": "address",
          "name": "to",
          "type": "address"
        },
        {
          "internalType": "uint256",
          "name": "deadline",
          "type": "uint256"
        }
      ],
      "name": "addLiquidityBNB",
      "outputs": [
        {
          "internalType": "uint256",
          "name": "amountToken",
          "type": "uint256"
        },
        {
          "internalType": "uint256",
          "name": "amountBNB",
          "type": "uint256"
        },
        {
          "internalType": "uint256",
          "name": "liquidity",
          "type": "uint256"
        }
      ],
      "stateMutability": "payable",
      "type": "function"
    },
    {
      "inputs": [
        {
          "internalType": "address",
          "name": "tokenA",
          "type": "address"
        },
        {
          "internalType": "address",
          "name": "tokenB",
          "type": "address"
        },
        {
          "internalType": "uint256",
          "name": "liquidity",
          "type": "uint256"
        },
        {
          "internalType": "uint256",
          "name": "amountAMin",
          "type": "uint256"
        },
        {
          "internalType": "uint256",
          "name": "amountBMin",
          "type": "uint256"
        },
        {
          "internalType": "address",
          "name": "to",
          "type": "address"
        },
        {
          "internalType": "uint256",
          "name": "deadline",
          "type": "uint256"
        }
      ],
      "name": "removeLiquidity",
      "outputs": [
        {
          "internalType": "uint256",
          "name": "amountA",
          "type": "uint256"
        },
        {
          "internalType": "uint256",
          "name": "amountB",
          "type": "uint256"
        }
      ],
      "stateMutability": "nonpayable",
      "type": "function"
    },
    {
      "inputs": [
        {
          "internalType": "address",
          "name": "token",
          "type": "address"
        },
        {
          "internalType": "uint256",
          "name": "liquidity",
          "type": "uint256"
        },
        {
          "internalType": "uint256",
          "name": "amountTokenMin",
          "type": "uint256"
        },
        {
          "internalType": "uint256",
          "name": "amountBNBMin",
          "type": "uint256"
        },
        {
          "internalType": "address",
          "name": "to",
          "type": "address"
        },
        {
          "internalType": "uint256",
          "name": "deadline",
          "type": "uint256"
        }
      ],
      "name": "removeLiquidityBNB",
      "outputs": [
        {
          "internalType": "uint256",
          "name": "amountToken",
          "type": "uint256"
        },
        {
          "internalType": "uint256",
          "name": "amountBNB",
          "type": "uint256"
        }
      ],
      "stateMutability": "nonpayable",
      "type": "function"
    },
    {
      "inputs": [
        {
          "internalType": "address",
          "name": "tokenA",
          "type": "address"
        },
        {
          "internalType": "address",
          "name": "tokenB",
          "type": "address"
        },
        {
          "internalType": "uint256",
          "name": "liquidity",
          "type": "uint256"
        },
        {
          "internalType": "uint256",
          "name": "amountAMin",
          "type": "uint256"
        },
        {
          "internalType": "uint256",
          "name": "amountBMin",
          "type": "uint256"
        },
        {
          "internalType": "address",
          "name": "to",
          "type": "address"
        },
        {
          "internalType": "uint256",
          "name": "deadline",
          "type": "uint256"
        },
        {
          "internalType": "bool",
          "name": "approveMax",
          "type": "bool"
        },
        {
          "internalType": "uint8",
          "name": "v",
          "type": "uint8"
        },
        {
          "internalType": "bytes32",
          "name": "r",
          "type": "bytes32"
        },
        {
          "internalType": "bytes32",
          "name": "s",
          "type": "bytes32"
        }
      ],
      "name": "removeLiquidityWithPermit",
      "outputs": [
        {
          "internalType": "uint256",
          "name": "amountA",
          "type": "uint256"
        },
        {
          "internalType": "uint256",
          "name": "amountB",
          "type": "uint256"
        }
      ],
      "stateMutability": "nonpayable",
      "type": "function"
    },
    {
      "inputs": [
        {
          "internalType": "address",
          "name": "token",
          "type": "address"
        },
        {
          "internalType": "uint256",
          "name": "liquidity",
          "type": "uint256"
        },
        {
          "internalType": "uint256",
          "name": "amountTokenMin",
          "type": "uint256"
        },
        {
          "internalType": "uint256",
          "name": "amountBNBMin",
          "type": "uint256"
        },
        {
          "internalType": "address",
          "name": "to",
          "type": "address"
        },
        {
          "internalType": "uint256",
          "name": "deadline",
          "type": "uint256"
        },
        {
          "internalType": "bool",
          "name": "approveMax",
          "type": "bool"
        },
        {
          "internalType": "uint8",
          "name": "v",
          "type": "uint8"
        },
        {
          "internalType": "bytes32",
          "name": "r",
          "type": "bytes32"
        },
        {
          "internalType": "bytes32",
          "name": "s",
          "type": "bytes32"
        }
      ],
      "name": "removeLiquidityBNBWithPermit",
      "outputs": [
        {
          "internalType": "uint256",
          "name": "amountToken",
          "type": "uint256"
        },
        {
          "internalType": "uint256",
          "name": "amountBNB",
          "type": "uint256"
        }
      ],
      "stateMutability": "nonpayable",
      "type": "function"
    },
    {
      "inputs": [
        {
          "internalType": "address",
          "name": "token",
          "type": "address"
        },
        {
          "internalType": "uint256",
          "name": "liquidity",
          "type": "uint256"
        },
        {
          "internalType": "uint256",
          "name": "amountTokenMin",
          "type": "uint256"
        },
        {
          "internalType": "uint256",
          "name": "amountBNBMin",
          "type": "uint256"
        },
        {
          "internalType": "address",
          "name": "to",
          "type": "address"
        },
        {
          "internalType": "uint256",
          "name": "deadline",
          "type": "uint256"
        }
      ],
      "name": "removeLiquidityBNBSupportingFeeOnTransferTokens",
      "outputs": [
        {
          "internalType": "uint256",
          "name": "amountBNB",
          "type": "uint256"
        }
      ],
      "stateMutability": "nonpayable",
      "type": "function"
    },
    {
      "inputs": [
        {
          "internalType": "address",
          "name": "token",
          "type": "address"
        },
        {
          "internalType": "uint256",
          "name": "liquidity",
          "type": "uint256"
        },
        {
          "internalType": "uint256",
          "name": "amountTokenMin",
          "type": "uint256"
        },
        {
          "internalType": "uint256",
          "name": "amountBNBMin",
          "type": "uint256"
        },
        {
          "internalType": "address",
          "name": "to",
          "type": "address"
        },
        {
          "internalType": "uint256",
          "name": "deadline",
          "type": "uint256"
        },
        {
          "internalType": "bool",
          "name": "approveMax",
          "type": "bool"
        },
        {
          "internalType": "uint8",
          "name": "v",
          "type": "uint8"
        },
        {
          "internalType": "bytes32",
          "name": "r",
          "type": "bytes32"
        },
        {
          "internalType": "bytes32",
          "name": "s",
          "type": "bytes32"
        }
      ],
      "name": "removeLiquidityBNBWithPermitSupportingFeeOnTransferTokens",
      "outputs": [
        {
          "internalType": "uint256",
          "name": "amountBNB",
          "type": "uint256"
        }
      ],
      "stateMutability": "nonpayable",
      "type": "function"
    },
    {
      "inputs": [
        {
          "internalType": "uint256",
          "name": "amountIn",
          "type": "uint256"
        },
        {
          "internalType": "uint256",
          "name": "amountOutMin",
          "type": "uint256"
        },
        {
          "internalType": "address[]",
          "name": "path",
          "type": "address[]"
        },
        {
          "internalType": "address",
          "name": "to",
          "type": "address"
        },
        {
          "internalType": "uint256",
          "name": "deadline",
          "type": "uint256"
        }
      ],
      "name": "swapExactTokensForTokens",
      "outputs": [
        {
          "internalType": "uint256[]",
          "name": "amounts",
          "type": "uint256[]"
        }
      ],
      "stateMutability": "nonpayable",
      "type": "function"
    },
    {
      "inputs": [
        {
          "internalType": "uint256",
          "name": "amountOut",
          "type": "uint256"
        },
        {
          "internalType": "uint256",
          "name": "amountInMax",
          "type": "uint256"
        },
        {
          "internalType": "address[]",
          "name": "path",
          "type": "address[]"
        },
        {
          "internalType": "address",
          "name": "to",
          "type": "address"
        },
        {
          "internalType": "uint256",
          "name": "deadline",
          "type": "uint256"
        }
      ],
      "name": "swapTokensForExactTokens",
      "outputs": [
        {
          "internalType": "uint256[]",
          "name": "amounts",
          "type": "uint256[]"
        }
      ],
      "stateMutability": "nonpayable",
      "type": "function"
    },
    {
      "inputs": [
        {
          "internalType": "uint256",
          "name": "amountOutMin",
          "type": "uint256"
        },
        {
          "internalType": "address[]",
          "name": "path",
          "type": "address[]"
        },
        {
          "internalType": "address",
          "name": "to",
          "type": "address"
        },
        {
          "internalType": "uint256",
          "name": "deadline",
          "type": "uint256"
        }
      ],
      "name": "swapExactBNBForTokens",
      "outputs": [
        {
          "internalType": "uint256[]",
          "name": "amounts",
          "type": "uint256[]"
        }
      ],
      "stateMutability": "payable",
      "type": "function"
    },
    {
      "inputs": [
        {
          "internalType": "uint256",
          "name": "amountOut",
          "type": "uint256"
        },
        {
          "internalType": "uint256",
          "name": "amountInMax",
          "type": "uint256"
        },
        {
          "internalType": "address[]",
          "name": "path",
          "type": "address[]"
        },
        {
          "internalType": "address",
          "name": "to",
          "type": "address"
        },
        {
          "internalType": "uint256",
          "name": "deadline",
          "type": "uint256"
        }
      ],
      "name": "swapTokensForExactBNB",
      "outputs": [
        {
          "internalType": "uint256[]",
          "name": "amounts",
          "type": "uint256[]"
        }
      ],
      "stateMutability": "nonpayable",
      "type": "function"
    },
    {
      "inputs": [
        {
          "internalType": "uint256",
          "name": "amountIn",
          "type": "uint256"
        },
        {
          "internalType": "uint256",
          "name": "amountOutMin",
          "type": "uint256"
        },
        {
          "internalType": "address[]",
          "name": "path",
          "type": "address[]"
        },
        {
          "internalType": "address",
          "name": "to",
          "type": "address"
        },
        {
          "internalType": "uint256",
          "name": "deadline",
          "type": "uint256"
        }
      ],
      "name": "swapExactTokensForBNB",
      "outputs": [
        {
          "internalType": "uint256[]",
          "name": "amounts",
          "type": "uint256[]"
        }
      ],
      "stateMutability": "nonpayable",
      "type": "function"
    },
    {
      "inputs": [
        {
          "internalType": "uint256",
          "name": "amountOut",
          "type": "uint256"
        },
        {
          "internalType": "address[]",
          "name": "path",
          "type": "address[]"
        },
        {
          "internalType": "address",
          "name": "to",
          "type": "address"
        },
        {
          "internalType": "uint256",
          "name": "deadline",
          "type": "uint256"
        }
      ],
      "name": "swapBNBForExactTokens",
      "outputs": [
        {
          "internalType": "uint256[]",
          "name": "amounts",
          "type": "uint256[]"
        }
      ],
      "stateMutability": "payable",
      "type": "function"
    },
    {
      "inputs": [
        {
          "internalType": "uint256",
          "name": "amountIn",
          "type": "uint256"
        },
        {
          "internalType": "uint256",
          "name": "amountOutMin",
          "type": "uint256"
        },
        {
          "internalType": "address[]",
          "name": "path",
          "type": "address[]"
        },
        {
          "internalType": "address",
          "name": "to",
          "type": "address"
        },
        {
          "internalType": "uint256",
          "name": "deadline",
          "type": "uint256"
        }
      ],
      "name": "swapExactTokensForTokensSupportingFeeOnTransferTokens",
      "outputs": [],
      "stateMutability": "nonpayable",
      "type": "function"
    },
    {
      "inputs": [
        {
          "internalType": "uint256",
          "name": "amountOutMin",
          "type": "uint256"
        },
        {
          "internalType": "address[]",
          "name": "path",
          "type": "address[]"
        },
        {
          "internalType": "address",
          "name": "to",
          "type": "address"
        },
        {
          "internalType": "uint256",
          "name": "deadline",
          "type": "uint256"
        }
      ],
      "name": "swapExactBNBForTokensSupportingFeeOnTransferTokens",
      "outputs": [],
      "stateMutability": "payable",
      "type": "function"
    },
    {
      "inputs": [
        {
          "internalType": "uint256",
          "name": "amountIn",
          "type": "uint256"
        },
        {
          "internalType": "uint256",
          "name": "amountOutMin",
          "type": "uint256"
        },
        {
          "internalType": "address[]",
          "name": "path",
          "type": "address[]"
        },
        {
          "internalType": "address",
          "name": "to",
          "type": "address"
        },
        {
          "internalType": "uint256",
          "name": "deadline",
          "type": "uint256"
        }
      ],
      "name": "swapExactTokensForBNBSupportingFeeOnTransferTokens",
      "outputs": [],
      "stateMutability": "nonpayable",
      "type": "function"
    },
    {
      "inputs": [
        {
          "internalType": "uint256",
          "name": "amountA",
          "type": "uint256"
        },
        {
          "internalType": "uint256",
          "name": "reserveA",
          "type": "uint256"
        },
        {
          "internalType": "uint256",
          "name": "reserveB",
          "type": "uint256"
        }
      ],
      "name": "quote",
      "outputs": [
        {
          "internalType": "uint256",
          "name": "amountB",
          "type": "uint256"
        }
      ],
      "stateMutability": "pure",
      "type": "function"
    },
    {
      "inputs": [
        {
          "internalType": "uint256",
          "name": "amountIn",
          "type": "uint256"
        },
        {
          "internalType": "uint256",
          "name": "reserveIn",
          "type": "uint256"
        },
        {
          "internalType": "uint256",
          "name": "reserveOut",
          "type": "uint256"
        }
      ],
      "name": "getAmountOut",
      "outputs": [
        {
          "internalType": "uint256",
          "name": "amountOut",
          "type": "uint256"
        }
      ],
      "stateMutability": "pure",
      "type": "function"
    },
    {
      "inputs": [
        {
          "internalType": "uint256",
          "name": "amountOut",
          "type": "uint256"
        },
        {
          "internalType": "uint256",
          "name": "reserveIn",
          "type": "uint256"
        },
        {
          "internalType": "uint256",
          "name": "reserveOut",
          "type": "uint256"
        }
      ],
      "name": "getAmountIn",
      "outputs": [
        {
          "internalType": "uint256",
          "name": "amountIn",
          "type": "uint256"
        }
      ],
      "stateMutability": "pure",
      "type": "function"
    },
    {
      "inputs": [
        {
          "internalType": "uint256",
          "name": "amountIn",
          "type": "uint256"
        },
        {
          "internalType": "address[]",
          "name": "path",
          "type": "address[]"
        }
      ],
      "name": "getAmountsOut",
      "outputs": [
        {
          "internalType": "uint256[]",
          "name": "amounts",
          "type": "uint256[]"
        }
      ],
      "stateMutability": "view",
      "type": "function"
    },
    {
      "inputs": [
        {
          "internalType": "uint256",
          "name": "amountOut",
          "type": "uint256"
        },
        {
          "internalType": "address[]",
          "name": "path",
          "type": "address[]"
        }
      ],
      "name": "getAmountsIn",
      "outputs": [
        {
          "internalType": "uint256[]",
          "name": "amounts",
          "type": "uint256[]"
        }
      ],
      "stateMutability": "view",
      "type": "function"
    }
  ],
  "bytecode": "0x60c060405234801561001057600080fd5b506040516200466f3803806200466f8339818101604052604081101561003557600080fd5b5080516020909101516001600160601b0319606092831b8116608052911b1660a05260805160601c60a05160601c6144ea620001856000398061012f5280610dd852806110e6528061117c52806111f052806116db5280611870528061194e5280611a765280611bc95280611c515280611ed45280611f3a5280612085528061210d528061228c528061234052806126bd5280612799528061287752806129495280612ade5280612b195280612d255280612d7b5280612daf5280612e23525080610c835280610cbc5280610db65280610f075280610fe252806112225280611512528061176a528061192c5280611b0a5280611c835280611e155280611fce528061213f52806124105280612624528061264d52806129d85280612c0a5280612d59528061356652806135a9528061374b52806138c15280613efe5280613fb7528061406a52506144ea6000f3fe60806040526004361061011f5760003560e01c8063054d50d41461015d5780631f00ca74146101a55780632195995c146102aa57806334a0772d1461034157806338ed1739146103b457806350e27df31461044a5780635c11d795146104ce5780635d616c5b14610564578063685a0a34146105fa5780638332a9631461066d57806385f8c259146106f15780638803dbee146107275780638dd95002146107bd5780639cf68911146107ee578063ad615dec14610872578063b7e65949146108a8578063baa2abde146108fb578063c45a015514610958578063d06ca61f1461096d578063d46d2f8314610a22578063d67b571e14610ab8578063e058848814610b4e578063e8e3370014610ba1578063eaaed44214610c2157610158565b3661015857336001600160a01b037f0000000000000000000000000000000000000000000000000000000000000000161461015657fe5b005b600080fd5b34801561016957600080fd5b506101936004803603606081101561018057600080fd5b5080359060208101359060400135610c67565b60408051918252519081900360200190f35b3480156101b157600080fd5b5061025a600480360360408110156101c857600080fd5b81359190810190604081016020820135600160201b8111156101e957600080fd5b8201836020820111156101fb57600080fd5b803590602001918460208302840111600160201b8311171561021c57600080fd5b919080806020026020016040519081016040528093929190818152602001838360200280828437600092019190915250929550610c7c945050505050565b60408051602080825283518183015283519192839290830191858101910280838360005b8381101561029657818101518382015260200161027e565b505050509050019250505060405180910390f35b3480156102b657600080fd5b5061032860048036036101608110156102ce57600080fd5b506001600160a01b038135811691602081013582169160408201359160608101359160808201359160a08101359091169060c08101359060e081013515159060ff6101008201351690610120810135906101400135610cb2565b6040805192835260208301919091528051918290030190f35b34801561034d57600080fd5b50610328600480360361014081101561036557600080fd5b506001600160a01b0381358116916020810135916040820135916060810135916080820135169060a08101359060c081013515159060ff60e08201351690610100810135906101200135610dac565b3480156103c057600080fd5b5061025a600480360360a08110156103d757600080fd5b813591602081013591810190606081016040820135600160201b8111156103fd57600080fd5b82018360208201111561040f57600080fd5b803590602001918460208302840111600160201b8311171561043057600080fd5b91935091506001600160a01b038135169060200135610ec0565b6101566004803603608081101561046057600080fd5b81359190810190604081016020820135600160201b81111561048157600080fd5b82018360208201111561049357600080fd5b803590602001918460208302840111600160201b831117156104b457600080fd5b91935091506001600160a01b0381351690602001356110a4565b3480156104da57600080fd5b50610156600480360360a08110156104f157600080fd5b813591602081013591810190606081016040820135600160201b81111561051757600080fd5b82018360208201111561052957600080fd5b803590602001918460208302840111600160201b8311171561054a57600080fd5b91935091506001600160a01b0381351690602001356114ac565b34801561057057600080fd5b5061025a600480360360a081101561058757600080fd5b813591602081013591810190606081016040820135600160201b8111156105ad57600080fd5b8201836020820111156105bf57600080fd5b803590602001918460208302840111600160201b831117156105e057600080fd5b91935091506001600160a01b03813516906020013561168f565b34801561060657600080fd5b50610193600480360361014081101561061e57600080fd5b506001600160a01b0381358116916020810135916040820135916060810135916080820135169060a08101359060c081013515159060ff60e08201351690610100810135906101200135611924565b61025a6004803603608081101561068357600080fd5b81359190810190604081016020820135600160201b8111156106a457600080fd5b8201836020820111156106b657600080fd5b803590602001918460208302840111600160201b831117156106d757600080fd5b91935091506001600160a01b038135169060200135611a32565b3480156106fd57600080fd5b506101936004803603606081101561071457600080fd5b5080359060208101359060400135611dc1565b34801561073357600080fd5b5061025a600480360360a081101561074a57600080fd5b813591602081013591810190606081016040820135600160201b81111561077057600080fd5b82018360208201111561078257600080fd5b803590602001918460208302840111600160201b831117156107a357600080fd5b91935091506001600160a01b038135169060200135611dce565b3480156107c957600080fd5b506107d2611ed2565b604080516001600160a01b039092168252519081900360200190f35b61025a6004803603608081101561080457600080fd5b81359190810190604081016020820135600160201b81111561082557600080fd5b82018360208201111561083757600080fd5b803590602001918460208302840111600160201b8311171561085857600080fd5b91935091506001600160a01b038135169060200135611ef6565b34801561087e57600080fd5b506101936004803603606081101561089557600080fd5b5080359060208101359060400135612237565b3480156108b457600080fd5b50610193600480360360c08110156108cb57600080fd5b506001600160a01b0381358116916020810135916040820135916060810135916080820135169060a00135612244565b34801561090757600080fd5b50610328600480360360e081101561091e57600080fd5b506001600160a01b038135811691602081013582169160408201359160608101359160808201359160a08101359091169060c001356123c6565b34801561096457600080fd5b506107d2612622565b34801561097957600080fd5b5061025a6004803603604081101561099057600080fd5b81359190810190604081016020820135600160201b8111156109b157600080fd5b8201836020820111156109c357600080fd5b803590602001918460208302840111600160201b831117156109e457600080fd5b919080806020026020016040519081016040528093929190818152602001838360200280828437600092019190915250929550612646945050505050565b348015610a2e57600080fd5b50610156600480360360a0811015610a4557600080fd5b813591602081013591810190606081016040820135600160201b811115610a6b57600080fd5b820183602082011115610a7d57600080fd5b803590602001918460208302840111600160201b83111715610a9e57600080fd5b91935091506001600160a01b038135169060200135612673565b348015610ac457600080fd5b5061025a600480360360a0811015610adb57600080fd5b813591602081013591810190606081016040820135600160201b811115610b0157600080fd5b820183602082011115610b1357600080fd5b803590602001918460208302840111600160201b83111715610b3457600080fd5b91935091506001600160a01b0381351690602001356128fd565b348015610b5a57600080fd5b50610328600480360360c0811015610b7157600080fd5b506001600160a01b0381358116916020810135916040820135916060810135916080820135169060a00135612a95565b348015610bad57600080fd5b50610c036004803603610100811015610bc557600080fd5b506001600160a01b038135811691602081013582169160408201359160608101359160808201359160a08101359160c0820135169060e00135612bab565b60408051938452602084019290925282820152519081900360600190f35b610c03600480360360c0811015610c3757600080fd5b506001600160a01b0381358116916020810135916040820135916060810135916080820135169060a00135612cda565b6000610c74848484612f69565b949350505050565b6060610ca97f00000000000000000000000000000000000000000000000000000000000000008484613041565b90505b92915050565b6000806000610ce27f00000000000000000000000000000000000000000000000000000000000000008f8f61317b565b9050600087610cf1578c610cf5565b6000195b6040805163d505accf60e01b815233600482015230602482015260448101839052606481018c905260ff8a16608482015260a4810189905260c4810188905290519192506001600160a01b0384169163d505accf9160e48082019260009290919082900301818387803b158015610d6b57600080fd5b505af1158015610d7f573d6000803e3d6000fd5b50505050610d928f8f8f8f8f8f8f6123c6565b809450819550505050509b509b9950505050505050505050565b6000806000610dfc7f00000000000000000000000000000000000000000000000000000000000000008e7f000000000000000000000000000000000000000000000000000000000000000061317b565b9050600087610e0b578c610e0f565b6000195b6040805163d505accf60e01b815233600482015230602482015260448101839052606481018c905260ff8a16608482015260a4810189905260c4810188905290519192506001600160a01b0384169163d505accf9160e48082019260009290919082900301818387803b158015610e8557600080fd5b505af1158015610e99573d6000803e3d6000fd5b50505050610eab8e8e8e8e8e8e612a95565b909f909e509c50505050505050505050505050565b60608142811015610f02576040805162461bcd60e51b81526020600482015260076024820152661156141254915160ca1b604482015290519081900360640190fd5b610f607f00000000000000000000000000000000000000000000000000000000000000008988888080602002602001604051908101604052809392919081815260200183836020028082843760009201919091525061323692505050565b91508682600184510381518110610f7357fe5b60200260200101511015610fbc576040805162461bcd60e51b815260206004820152601a6024820152600080516020614468833981519152604482015290519081900360640190fd5b61105a86866000818110610fcc57fe5b905060200201356001600160a01b0316336110407f00000000000000000000000000000000000000000000000000000000000000008a8a600081811061100e57fe5b905060200201356001600160a01b03168b8b600181811061102b57fe5b905060200201356001600160a01b031661317b565b8560008151811061104d57fe5b602002602001015161335a565b611099828787808060200260200160405190810160405280939291908181526020018383602002808284376000920191909152508992506134b7915050565b509695505050505050565b80428110156110e4576040805162461bcd60e51b81526020600482015260076024820152661156141254915160ca1b604482015290519081900360640190fd5b7f00000000000000000000000000000000000000000000000000000000000000006001600160a01b03168585600081811061111b57fe5b905060200201356001600160a01b03166001600160a01b031614611175576040805162461bcd60e51b815260206004820152600c60248201526b0929cac82989288bea082a8960a31b604482015290519081900360640190fd5b60003490507f00000000000000000000000000000000000000000000000000000000000000006001600160a01b031663d0e30db0826040518263ffffffff1660e01b81526004016000604051808303818588803b1580156111d557600080fd5b505af11580156111e9573d6000803e3d6000fd5b50505050507f00000000000000000000000000000000000000000000000000000000000000006001600160a01b031663a9059cbb61126b7f00000000000000000000000000000000000000000000000000000000000000008989600081811061124e57fe5b905060200201356001600160a01b03168a8a600181811061102b57fe5b836040518363ffffffff1660e01b815260040180836001600160a01b0316815260200182815260200192505050602060405180830381600087803b1580156112b257600080fd5b505af11580156112c6573d6000803e3d6000fd5b505050506040513d60208110156112dc57600080fd5b50516112e457fe5b6000868660001981018181106112f657fe5b905060200201356001600160a01b03166001600160a01b03166370a08231866040518263ffffffff1660e01b815260040180826001600160a01b0316815260200191505060206040518083038186803b15801561135257600080fd5b505afa158015611366573d6000803e3d6000fd5b505050506040513d602081101561137c57600080fd5b505160408051602089810282810182019093528982529293506113be9290918a918a9182918501908490808284376000920191909152508992506136f4915050565b8761146182898960001981018181106113d357fe5b905060200201356001600160a01b03166001600160a01b03166370a08231896040518263ffffffff1660e01b815260040180826001600160a01b0316815260200191505060206040518083038186803b15801561142f57600080fd5b505afa158015611443573d6000803e3d6000fd5b505050506040513d602081101561145957600080fd5b5051906139fb565b10156114a2576040805162461bcd60e51b815260206004820152601a6024820152600080516020614468833981519152604482015290519081900360640190fd5b5050505050505050565b80428110156114ec576040805162461bcd60e51b81526020600482015260076024820152661156141254915160ca1b604482015290519081900360640190fd5b611544858560008181106114fc57fe5b905060200201356001600160a01b03163361153e7f00000000000000000000000000000000000000000000000000000000000000008989600081811061124e57fe5b8a61335a565b60008585600019810181811061155657fe5b905060200201356001600160a01b03166001600160a01b03166370a08231856040518263ffffffff1660e01b815260040180826001600160a01b0316815260200191505060206040518083038186803b1580156115b257600080fd5b505afa1580156115c6573d6000803e3d6000fd5b505050506040513d60208110156115dc57600080fd5b5051604080516020888102828101820190935288825292935061161e9290918991899182918501908490808284376000920191909152508892506136f4915050565b86611461828888600019810181811061163357fe5b905060200201356001600160a01b03166001600160a01b03166370a08231886040518263ffffffff1660e01b815260040180826001600160a01b0316815260200191505060206040518083038186803b15801561142f57600080fd5b606081428110156116d1576040805162461bcd60e51b81526020600482015260076024820152661156141254915160ca1b604482015290519081900360640190fd5b6001600160a01b037f0000000000000000000000000000000000000000000000000000000000000000168686600019810181811061170b57fe5b905060200201356001600160a01b03166001600160a01b031614611765576040805162461bcd60e51b815260206004820152600c60248201526b0929cac82989288bea082a8960a31b604482015290519081900360640190fd5b6117c37f00000000000000000000000000000000000000000000000000000000000000008988888080602002602001604051908101604052809392919081815260200183836020028082843760009201919091525061323692505050565b915086826001845103815181106117d657fe5b6020026020010151101561181f576040805162461bcd60e51b815260206004820152601a6024820152600080516020614468833981519152604482015290519081900360640190fd5b61182f86866000818110610fcc57fe5b61186e828787808060200260200160405190810160405280939291908181526020018383602002808284376000920191909152503092506134b7915050565b7f00000000000000000000000000000000000000000000000000000000000000006001600160a01b0316632e1a7d4d836001855103815181106118ad57fe5b60200260200101516040518263ffffffff1660e01b815260040180828152602001915050600060405180830381600087803b1580156118eb57600080fd5b505af11580156118ff573d6000803e3d6000fd5b50505050611099848360018551038151811061191757fe5b6020026020010151613a4b565b6000806119727f00000000000000000000000000000000000000000000000000000000000000008d7f000000000000000000000000000000000000000000000000000000000000000061317b565b9050600086611981578b611985565b6000195b6040805163d505accf60e01b815233600482015230602482015260448101839052606481018b905260ff8916608482015260a4810188905260c4810187905290519192506001600160a01b0384169163d505accf9160e48082019260009290919082900301818387803b1580156119fb57600080fd5b505af1158015611a0f573d6000803e3d6000fd5b50505050611a218d8d8d8d8d8d612244565b9d9c50505050505050505050505050565b60608142811015611a74576040805162461bcd60e51b81526020600482015260076024820152661156141254915160ca1b604482015290519081900360640190fd5b7f00000000000000000000000000000000000000000000000000000000000000006001600160a01b031686866000818110611aab57fe5b905060200201356001600160a01b03166001600160a01b031614611b05576040805162461bcd60e51b815260206004820152600c60248201526b0929cac82989288bea082a8960a31b604482015290519081900360640190fd5b611b637f00000000000000000000000000000000000000000000000000000000000000008888888080602002602001604051908101604052809392919081815260200183836020028082843760009201919091525061304192505050565b91503482600081518110611b7357fe5b60200260200101511115611bc7576040805162461bcd60e51b8152602060048201526016602482015275115610d154d4d2559157d25394155517d05353d5539560521b604482015290519081900360640190fd5b7f00000000000000000000000000000000000000000000000000000000000000006001600160a01b031663d0e30db083600081518110611c0357fe5b60200260200101516040518263ffffffff1660e01b81526004016000604051808303818588803b158015611c3657600080fd5b505af1158015611c4a573d6000803e3d6000fd5b50505050507f00000000000000000000000000000000000000000000000000000000000000006001600160a01b031663a9059cbb611caf7f00000000000000000000000000000000000000000000000000000000000000008989600081811061124e57fe5b84600081518110611cbc57fe5b60200260200101516040518363ffffffff1660e01b815260040180836001600160a01b0316815260200182815260200192505050602060405180830381600087803b158015611d0a57600080fd5b505af1158015611d1e573d6000803e3d6000fd5b505050506040513d6020811015611d3457600080fd5b5051611d3c57fe5b611d7b828787808060200260200160405190810160405280939291908181526020018383602002808284376000920191909152508992506134b7915050565b81600081518110611d8857fe5b6020026020010151341115611db757611db73383600081518110611da857fe5b60200260200101513403613a4b565b5095945050505050565b6000610c74848484613b3e565b60608142811015611e10576040805162461bcd60e51b81526020600482015260076024820152661156141254915160ca1b604482015290519081900360640190fd5b611e6e7f00000000000000000000000000000000000000000000000000000000000000008988888080602002602001604051908101604052809392919081815260200183836020028082843760009201919091525061304192505050565b91508682600081518110611e7e57fe5b60200260200101511115610fbc576040805162461bcd60e51b8152602060048201526016602482015275115610d154d4d2559157d25394155517d05353d5539560521b604482015290519081900360640190fd5b7f000000000000000000000000000000000000000000000000000000000000000081565b60608142811015611f38576040805162461bcd60e51b81526020600482015260076024820152661156141254915160ca1b604482015290519081900360640190fd5b7f00000000000000000000000000000000000000000000000000000000000000006001600160a01b031686866000818110611f6f57fe5b905060200201356001600160a01b03166001600160a01b031614611fc9576040805162461bcd60e51b815260206004820152600c60248201526b0929cac82989288bea082a8960a31b604482015290519081900360640190fd5b6120277f00000000000000000000000000000000000000000000000000000000000000003488888080602002602001604051908101604052809392919081815260200183836020028082843760009201919091525061323692505050565b9150868260018451038151811061203a57fe5b60200260200101511015612083576040805162461bcd60e51b815260206004820152601a6024820152600080516020614468833981519152604482015290519081900360640190fd5b7f00000000000000000000000000000000000000000000000000000000000000006001600160a01b031663d0e30db0836000815181106120bf57fe5b60200260200101516040518263ffffffff1660e01b81526004016000604051808303818588803b1580156120f257600080fd5b505af1158015612106573d6000803e3d6000fd5b50505050507f00000000000000000000000000000000000000000000000000000000000000006001600160a01b031663a9059cbb61216b7f00000000000000000000000000000000000000000000000000000000000000008989600081811061124e57fe5b8460008151811061217857fe5b60200260200101516040518363ffffffff1660e01b815260040180836001600160a01b0316815260200182815260200192505050602060405180830381600087803b1580156121c657600080fd5b505af11580156121da573d6000803e3d6000fd5b505050506040513d60208110156121f057600080fd5b50516121f857fe5b611db7828787808060200260200160405190810160405280939291908181526020018383602002808284376000920191909152508992506134b7915050565b6000610c74848484613c16565b60008142811015612286576040805162461bcd60e51b81526020600482015260076024820152661156141254915160ca1b604482015290519081900360640190fd5b6122b5887f000000000000000000000000000000000000000000000000000000000000000089898930896123c6565b90508092505061233e88858a6001600160a01b03166370a08231306040518263ffffffff1660e01b815260040180826001600160a01b0316815260200191505060206040518083038186803b15801561230d57600080fd5b505afa158015612321573d6000803e3d6000fd5b505050506040513d602081101561233757600080fd5b5051613cbc565b7f00000000000000000000000000000000000000000000000000000000000000006001600160a01b0316632e1a7d4d836040518263ffffffff1660e01b815260040180828152602001915050600060405180830381600087803b1580156123a457600080fd5b505af11580156123b8573d6000803e3d6000fd5b505050506110998483613a4b565b6000808242811015612409576040805162461bcd60e51b81526020600482015260076024820152661156141254915160ca1b604482015290519081900360640190fd5b60006124367f00000000000000000000000000000000000000000000000000000000000000008c8c61317b565b604080516323b872dd60e01b81523360048201526001600160a01b03831660248201819052604482018d9052915192935090916323b872dd916064808201926020929091908290030181600087803b15801561249157600080fd5b505af11580156124a5573d6000803e3d6000fd5b505050506040513d60208110156124bb57600080fd5b50506040805163226bf2d160e21b81526001600160a01b03888116600483015282516000938493928616926389afcb44926024808301939282900301818787803b15801561250857600080fd5b505af115801561251c573d6000803e3d6000fd5b505050506040513d604081101561253257600080fd5b5080516020909101519092509050600061254c8e8e613e10565b509050806001600160a01b03168e6001600160a01b03161461256f578183612572565b82825b90975095508a8710156125c4576040805162461bcd60e51b8152602060048201526015602482015274125394d551919250d251539517d057d05353d55395605a1b604482015290519081900360640190fd5b89861015612611576040805162461bcd60e51b8152602060048201526015602482015274125394d551919250d251539517d097d05353d55395605a1b604482015290519081900360640190fd5b505050505097509795505050505050565b7f000000000000000000000000000000000000000000000000000000000000000081565b6060610ca97f00000000000000000000000000000000000000000000000000000000000000008484613236565b80428110156126b3576040805162461bcd60e51b81526020600482015260076024820152661156141254915160ca1b604482015290519081900360640190fd5b6001600160a01b037f000000000000000000000000000000000000000000000000000000000000000016858560001981018181106126ed57fe5b905060200201356001600160a01b03166001600160a01b031614612747576040805162461bcd60e51b815260206004820152600c60248201526b0929cac82989288bea082a8960a31b604482015290519081900360640190fd5b612757858560008181106114fc57fe5b6127958585808060200260200160405190810160405280939291908181526020018383602002808284376000920191909152503092506136f4915050565b60007f00000000000000000000000000000000000000000000000000000000000000006001600160a01b03166370a08231306040518263ffffffff1660e01b815260040180826001600160a01b0316815260200191505060206040518083038186803b15801561280457600080fd5b505afa158015612818573d6000803e3d6000fd5b505050506040513d602081101561282e57600080fd5b5051905086811015612875576040805162461bcd60e51b815260206004820152601a6024820152600080516020614468833981519152604482015290519081900360640190fd5b7f00000000000000000000000000000000000000000000000000000000000000006001600160a01b0316632e1a7d4d826040518263ffffffff1660e01b815260040180828152602001915050600060405180830381600087803b1580156128db57600080fd5b505af11580156128ef573d6000803e3d6000fd5b505050506114a28482613a4b565b6060814281101561293f576040805162461bcd60e51b81526020600482015260076024820152661156141254915160ca1b604482015290519081900360640190fd5b6001600160a01b037f0000000000000000000000000000000000000000000000000000000000000000168686600019810181811061297957fe5b905060200201356001600160a01b03166001600160a01b0316146129d3576040805162461bcd60e51b815260206004820152600c60248201526b0929cac82989288bea082a8960a31b604482015290519081900360640190fd5b612a317f00000000000000000000000000000000000000000000000000000000000000008988888080602002602001604051908101604052809392919081815260200183836020028082843760009201919091525061304192505050565b91508682600081518110612a4157fe5b6020026020010151111561181f576040805162461bcd60e51b8152602060048201526016602482015275115610d154d4d2559157d25394155517d05353d5539560521b604482015290519081900360640190fd5b6000808242811015612ad8576040805162461bcd60e51b81526020600482015260076024820152661156141254915160ca1b604482015290519081900360640190fd5b612b07897f00000000000000000000000000000000000000000000000000000000000000008a8a8a308a6123c6565b9093509150612b17898685613cbc565b7f00000000000000000000000000000000000000000000000000000000000000006001600160a01b0316632e1a7d4d836040518263ffffffff1660e01b815260040180828152602001915050600060405180830381600087803b158015612b7d57600080fd5b505af1158015612b91573d6000803e3d6000fd5b50505050612b9f8583613a4b565b50965096945050505050565b60008060008342811015612bf0576040805162461bcd60e51b81526020600482015260076024820152661156141254915160ca1b604482015290519081900360640190fd5b612bfe8c8c8c8c8c8c613eee565b90945092506000612c307f00000000000000000000000000000000000000000000000000000000000000008e8e61317b565b9050612c3e8d33838861335a565b612c4a8c33838761335a565b806001600160a01b0316636a627842886040518263ffffffff1660e01b815260040180826001600160a01b03168152602001915050602060405180830381600087803b158015612c9957600080fd5b505af1158015612cad573d6000803e3d6000fd5b505050506040513d6020811015612cc357600080fd5b5051949d939c50939a509198505050505050505050565b60008060008342811015612d1f576040805162461bcd60e51b81526020600482015260076024820152661156141254915160ca1b604482015290519081900360640190fd5b612d4d8a7f00000000000000000000000000000000000000000000000000000000000000008b348c8c613eee565b90945092506000612d9f7f00000000000000000000000000000000000000000000000000000000000000008c7f000000000000000000000000000000000000000000000000000000000000000061317b565b9050612dad8b33838861335a565b7f00000000000000000000000000000000000000000000000000000000000000006001600160a01b031663d0e30db0856040518263ffffffff1660e01b81526004016000604051808303818588803b158015612e0857600080fd5b505af1158015612e1c573d6000803e3d6000fd5b50505050507f00000000000000000000000000000000000000000000000000000000000000006001600160a01b031663a9059cbb82866040518363ffffffff1660e01b815260040180836001600160a01b0316815260200182815260200192505050602060405180830381600087803b158015612e9857600080fd5b505af1158015612eac573d6000803e3d6000fd5b505050506040513d6020811015612ec257600080fd5b5051612eca57fe5b806001600160a01b0316636a627842886040518263ffffffff1660e01b815260040180826001600160a01b03168152602001915050602060405180830381600087803b158015612f1957600080fd5b505af1158015612f2d573d6000803e3d6000fd5b505050506040513d6020811015612f4357600080fd5b5051925034841015612f5b57612f5b33853403613a4b565b505096509650969350505050565b6000808411612fa95760405162461bcd60e51b815260040180806020018281038252602c8152602001806143c9602c913960400191505060405180910390fd5b600083118015612fb95750600082115b612ff45760405162461bcd60e51b81526004018080602001828103825260298152602001806143a06029913960400191505060405180910390fd5b6000613002856103e561419b565b90506000613010828561419b565b9050600061302a83613024886103e861419b565b906141fe565b905080828161303557fe5b04979650505050505050565b6060600282511015613088576040805162461bcd60e51b815260206004820152601f60248201526000805160206143f5833981519152604482015290519081900360640190fd5b81516001600160401b038111801561309f57600080fd5b506040519080825280602002602001820160405280156130c9578160200160208202803683370190505b50905082816001835103815181106130dd57fe5b60209081029190910101528151600019015b80156131735760008061312c8786600186038151811061310b57fe5b602002602001015187868151811061311f57fe5b602002602001015161424d565b9150915061314e84848151811061313f57fe5b60200260200101518383613b3e565b84600185038151811061315d57fe5b60209081029190910101525050600019016130ef565b509392505050565b600080600061318a8585613e10565b604080516001600160601b0319606094851b811660208084019190915293851b81166034830152825160288184030181526048830184528051908501206001600160f81b031960688401529a90941b9093166069840152607d8301989098527fbeeeac8471bcf8a381a08b1f523bc051855c14835f0d5ed2086840e71124a1c6609d808401919091528851808403909101815260bd909201909752805196019590952095945050505050565b606060028251101561327d576040805162461bcd60e51b815260206004820152601f60248201526000805160206143f5833981519152604482015290519081900360640190fd5b81516001600160401b038111801561329457600080fd5b506040519080825280602002602001820160405280156132be578160200160208202803683370190505b50905082816000815181106132cf57fe5b60200260200101818152505060005b600183510381101561317357600080613314878685815181106132fd57fe5b602002602001015187866001018151811061311f57fe5b9150915061333684848151811061332757fe5b60200260200101518383612f69565b84846001018151811061334557fe5b602090810291909101015250506001016132de565b604080516001600160a01b0385811660248301528481166044830152606480830185905283518084039091018152608490920183526020820180516001600160e01b03166323b872dd60e01b17815292518251600094606094938a169392918291908083835b602083106133df5780518252601f1990920191602091820191016133c0565b6001836020036101000a0380198251168184511680821785525050505050509050019150506000604051808303816000865af19150503d8060008114613441576040519150601f19603f3d011682016040523d82523d6000602084013e613446565b606091505b5091509150818015613474575080511580613474575080806020019051602081101561347157600080fd5b50515b6134af5760405162461bcd60e51b815260040180806020018281038252603181526020018061436f6031913960400191505060405180910390fd5b505050505050565b60005b60018351038110156136ee576000808483815181106134d557fe5b60200260200101518584600101815181106134ec57fe5b60200260200101519150915060006135048383613e10565b509050600087856001018151811061351857fe5b60200260200101519050600080836001600160a01b0316866001600160a01b0316146135465782600061354a565b6000835b91509150600060028a5103881061356157886135a2565b6135a27f0000000000000000000000000000000000000000000000000000000000000000878c8b6002018151811061359557fe5b602002602001015161317b565b90506135cf7f0000000000000000000000000000000000000000000000000000000000000000888861317b565b6001600160a01b031663022c0d9f84848460006040519080825280601f01601f19166020018201604052801561360c576020820181803683370190505b506040518563ffffffff1660e01b815260040180858152602001848152602001836001600160a01b0316815260200180602001828103825283818151815260200191508051906020019080838360005b8381101561367457818101518382015260200161365c565b50505050905090810190601f1680156136a15780820380516001836020036101000a031916815260200191505b5095505050505050600060405180830381600087803b1580156136c357600080fd5b505af11580156136d7573d6000803e3d6000fd5b5050600190990198506134ba975050505050505050565b50505050565b60005b60018351038110156139f65760008084838151811061371257fe5b602002602001015185846001018151811061372957fe5b60200260200101519150915060006137418383613e10565b50905060006137717f0000000000000000000000000000000000000000000000000000000000000000858561317b565b9050600080600080846001600160a01b0316630902f1ac6040518163ffffffff1660e01b815260040160606040518083038186803b1580156137b257600080fd5b505afa1580156137c6573d6000803e3d6000fd5b505050506040513d60608110156137dc57600080fd5b5080516020909101516001600160701b0391821693501690506000806001600160a01b038a811690891614613812578284613815565b83835b9150915061386a828b6001600160a01b03166370a082318a6040518263ffffffff1660e01b815260040180826001600160a01b0316815260200191505060206040518083038186803b15801561142f57600080fd5b9550613877868383612f69565b945050505050600080856001600160a01b0316886001600160a01b0316146138a1578260006138a5565b6000835b91509150600060028c51038a106138bc578a6138f0565b6138f07f0000000000000000000000000000000000000000000000000000000000000000898e8d6002018151811061359557fe5b604080516000808252602082019283905263022c0d9f60e01b835260248201878152604483018790526001600160a01b038086166064850152608060848501908152845160a48601819052969750908c169563022c0d9f958a958a958a9591949193919260c486019290918190849084905b8381101561397a578181015183820152602001613962565b50505050905090810190601f1680156139a75780820380516001836020036101000a031916815260200191505b5095505050505050600060405180830381600087803b1580156139c957600080fd5b505af11580156139dd573d6000803e3d6000fd5b50506001909b019a506136f79950505050505050505050565b505050565b80820382811115610cac576040805162461bcd60e51b815260206004820152601560248201527464732d6d6174682d7375622d756e646572666c6f7760581b604482015290519081900360640190fd5b604080516000808252602082019092526001600160a01b0384169083906040518082805190602001908083835b60208310613a975780518252601f199092019160209182019101613a78565b6001836020036101000a03801982511681845116808217855250505050505090500191505060006040518083038185875af1925050503d8060008114613af9576040519150601f19603f3d011682016040523d82523d6000602084013e613afe565b606091505b50509050806139f65760405162461bcd60e51b81526004018080602001828103825260348152602001806143156034913960400191505060405180910390fd5b6000808411613b7e5760405162461bcd60e51b815260040180806020018281038252602d815260200180614415602d913960400191505060405180910390fd5b600083118015613b8e5750600082115b613bc95760405162461bcd60e51b81526004018080602001828103825260298152602001806143a06029913960400191505060405180910390fd5b6000613be16103e8613bdb868861419b565b9061419b565b90506000613bf56103e5613bdb86896139fb565b9050613c0c6001828481613c0557fe5b04906141fe565b9695505050505050565b6000808411613c565760405162461bcd60e51b81526004018080602001828103825260268152602001806144426026913960400191505060405180910390fd5b600083118015613c665750600082115b613ca15760405162461bcd60e51b81526004018080602001828103825260298152602001806143a06029913960400191505060405180910390fd5b82613cac858461419b565b81613cb357fe5b04949350505050565b604080516001600160a01b038481166024830152604480830185905283518084039091018152606490920183526020820180516001600160e01b031663a9059cbb60e01b178152925182516000946060949389169392918291908083835b60208310613d395780518252601f199092019160209182019101613d1a565b6001836020036101000a0380198251168184511680821785525050505050509050019150506000604051808303816000865af19150503d8060008114613d9b576040519150601f19603f3d011682016040523d82523d6000602084013e613da0565b606091505b5091509150818015613dce575080511580613dce5750808060200190516020811015613dcb57600080fd5b50515b613e095760405162461bcd60e51b815260040180806020018281038252602d815260200180614488602d913960400191505060405180910390fd5b5050505050565b600080826001600160a01b0316846001600160a01b03161415613e645760405162461bcd60e51b81526004018080602001828103825260268152602001806143496026913960400191505060405180910390fd5b826001600160a01b0316846001600160a01b031610613e84578284613e87565b83835b90925090506001600160a01b038216613ee7576040805162461bcd60e51b815260206004820152601f60248201527f506570657377617056324c6962726172793a205a45524f5f4144445245535300604482015290519081900360640190fd5b9250929050565b60008060006001600160a01b03167f00000000000000000000000000000000000000000000000000000000000000006001600160a01b031663e6a439058a8a6040518363ffffffff1660e01b815260040180836001600160a01b03168152602001826001600160a01b031681526020019250505060206040518083038186803b158015613f7a57600080fd5b505afa158015613f8e573d6000803e3d6000fd5b505050506040513d6020811015613fa457600080fd5b50516001600160a01b03161415614062577f00000000000000000000000000000000000000000000000000000000000000006001600160a01b031663c9c6539689896040518363ffffffff1660e01b815260040180836001600160a01b03168152602001826001600160a01b0316815260200192505050602060405180830381600087803b15801561403557600080fd5b505af1158015614049573d6000803e3d6000fd5b505050506040513d602081101561405f57600080fd5b50505b6000806140907f00000000000000000000000000000000000000000000000000000000000000008b8b61424d565b915091508160001480156140a2575080155b156140b25787935086925061418e565b60006140bf898484613c16565b90508781116141205785811015614115576040805162461bcd60e51b8152602060048201526015602482015274125394d551919250d251539517d097d05353d55395605a1b604482015290519081900360640190fd5b88945092508261418c565b600061412d898486613c16565b90508981111561413957fe5b87811015614186576040805162461bcd60e51b8152602060048201526015602482015274125394d551919250d251539517d057d05353d55395605a1b604482015290519081900360640190fd5b94508793505b505b5050965096945050505050565b60008115806141b6575050808202828282816141b357fe5b04145b610cac576040805162461bcd60e51b815260206004820152601460248201527364732d6d6174682d6d756c2d6f766572666c6f7760601b604482015290519081900360640190fd5b80820182811015610cac576040805162461bcd60e51b815260206004820152601460248201527364732d6d6174682d6164642d6f766572666c6f7760601b604482015290519081900360640190fd5b600080600061425c8585613e10565b50905060008061426d88888861317b565b6001600160a01b0316630902f1ac6040518163ffffffff1660e01b815260040160606040518083038186803b1580156142a557600080fd5b505afa1580156142b9573d6000803e3d6000fd5b505050506040513d60608110156142cf57600080fd5b5080516020909101516001600160701b0391821693501690506001600160a01b0387811690841614614302578082614305565b81815b9099909850965050505050505056fe5472616e7366657248656c7065723a3a736166655472616e73666572424e423a20424e42207472616e73666572206661696c6564506570657377617056324c6962726172793a204944454e544943414c5f4144445245535345535472616e7366657248656c7065723a3a7472616e7366657246726f6d3a207472616e7366657246726f6d206661696c6564506570657377617056324c6962726172793a20494e53554646494349454e545f4c4951554944495459506570657377617056324c6962726172793a20494e53554646494349454e545f494e5055545f414d4f554e54506570657377617056324c6962726172793a20494e56414c49445f5041544800506570657377617056324c6962726172793a20494e53554646494349454e545f4f55545055545f414d4f554e54506570657377617056324c6962726172793a20494e53554646494349454e545f414d4f554e54494e53554646494349454e545f4f55545055545f414d4f554e540000000000005472616e7366657248656c7065723a3a736166655472616e736665723a207472616e73666572206661696c6564a26469706673582212204b34dd702ca9bc4aee7c7da9b711f7d2a2227f5966a8dc4cba00dbbf0237118b64736f6c634300060c0033",
  "immutableReferences": {
    "1677": [
      {
        "length": 32,
        "start": 3203
      },
      {
        "length": 32,
        "start": 3260
      },
      {
        "length": 32,
        "start": 3510
      },
      {
        "length": 32,
        "start": 3847
      },
      {
        "length": 32,
        "start": 4066
      },
      {
        "length": 32,
        "start": 4642
      },
      {
        "length": 32,
        "start": 5394
      },
      {
        "length": 32,
        "start": 5994
      },
      {
        "length": 32,
        "start": 6444
      },
      {
        "length": 32,
        "start": 6922
      },
      {
        "length": 32,
        "start": 7299
      },
      {
        "length": 32,
        "start": 7701
      },
      {
        "length": 32,
        "start": 8142
      },
      {
        "length": 32,
        "start": 8511
      },
      {
        "length": 32,
        "start": 9232
      },
      {
        "length": 32,
        "start": 9764
      },
      {
        "length": 32,
        "start": 9805
      },
      {
        "length": 32,
        "start": 10712
      },
      {
        "length": 32,
        "start": 11274
      },
      {
        "length": 32,
        "start": 11609
      },
      {
        "length": 32,
        "start": 13670
      },
      {
        "length": 32,
        "start": 13737
      },
      {
        "length": 32,
        "start": 14155
      },
      {
        "length": 32,
        "start": 14529
      },
      {
        "length": 32,
        "start": 16126
      },
      {
        "length": 32,
        "start": 16311
      },
      {
        "length": 32,
        "start": 16490
      }
    ],
    "1680": [
      {
        "length": 32,
        "start": 303
      },
      {
        "length": 32,
        "start": 3544
      },
      {
        "length": 32,
        "start": 4326
      },
      {
        "length": 32,
        "start": 4476
      },
      {
        "length": 32,
        "start": 4592
      },
      {
        "length": 32,
        "start": 5851
      },
      {
        "length": 32,
        "start": 6256
      },
      {
        "length": 32,
        "start": 6478
      },
      {
        "length": 32,
        "start": 6774
      },
      {
        "length": 32,
        "start": 7113
      },
      {
        "length": 32,
        "start": 7249
      },
      {
        "length": 32,
        "start": 7892
      },
      {
        "length": 32,
        "start": 7994
      },
      {
        "length": 32,
        "start": 8325
      },
      {
        "length": 32,
        "start": 8461
      },
      {
        "length": 32,
        "start": 8844
      },
      {
        "length": 32,
        "start": 9024
      },
      {
        "length": 32,
        "start": 9917
      },
      {
        "length": 32,
        "start": 10137
      },
      {
        "length": 32,
        "start": 10359
      },
      {
        "length": 32,
        "start": 10569
      },
      {
        "length": 32,
        "start": 10974
      },
      {
        "length": 32,
        "start": 11033
      },
      {
        "length": 32,
        "start": 11557
      },
      {
        "length": 32,
        "start": 11643
      },
      {
        "length": 32,
        "start": 11695
      },
      {
        "length": 32,
        "start": 11811
      }
    ]
  },
  "source": "pragma solidity =0.6.12;\n\nimport '@uniswap/v2-core/contracts/interfaces/IUniswapV2Factory.sol';\nimport '@uniswap/lib/contracts/libraries/TransferHelper.sol';\n\nimport './interfaces/IPepeswapV2Router02.sol';\nimport './libraries/PepeswapV2Library.sol';\nimport './libraries/SafeMath.sol';\nimport './interfaces/IBEP20.sol';\nimport './interfaces/IWBNB.sol';\n\ncontract PepeswapV2Router02 is IPepeswapV2Router02 {\n    using SafeMath for uint;\n\n    address public immutable override factory;\n    address public immutable override WBNB;\n\n    modifier ensure(uint deadline) {\n        require(deadline >= block.timestamp, 'EXPIRED');\n        _;\n    }\n\n    constructor(address _factory, address _WBNB) public {\n        factory = _factory;\n        WBNB = _WBNB;\n    }\n\n    receive() external payable {\n        assert(msg.sender == WBNB); // only accept BNB via fallback from the WBNB contract\n    }\n\n    // **** ADD LIQUIDITY ****\n    function _addLiquidity(\n        address tokenA,\n        address tokenB,\n        uint amountADesired,\n        uint amountBDesired,\n        uint amountAMin,\n        uint amountBMin\n    ) internal virtual returns (uint amountA, uint amountB) {\n        // create the pair if it doesn't exist yet\n        if (IUniswapV2Factory(factory).getPair(tokenA, tokenB) == address(0)) {\n            IUniswapV2Factory(factory).createPair(tokenA, tokenB);\n        }\n        (uint reserveA, uint reserveB) = PepeswapV2Library.getReserves(factory, tokenA, tokenB);\n        if (reserveA == 0 && reserveB == 0) {\n            (amountA, amountB) = (amountADesired, amountBDesired);\n        } else {\n            uint amountBOptimal = PepeswapV2Library.quote(amountADesired, reserveA, reserveB);\n            if (amountBOptimal <= amountBDesired) {\n                require(amountBOptimal >= amountBMin, 'INSUFFICIENT_B_AMOUNT');\n                (amountA, amountB) = (amountADesired, amountBOptimal);\n            } else {\n                uint amountAOptimal = PepeswapV2Library.quote(amountBDesired, reserveB, reserveA);\n                assert(amountAOptimal <= amountADesired);\n                require(amountAOptimal >= amountAMin, 'INSUFFICIENT_A_AMOUNT');\n                (amountA, amountB) = (amountAOptimal, amountBDesired);\n            }\n        }\n    }\n    function addLiquidity(\n        address tokenA,\n        address tokenB,\n        uint amountADesired,\n        uint amountBDesired,\n        uint amountAMin,\n        uint amountBMin,\n        address to,\n        uint deadline\n    ) external virtual override ensure(deadline) returns (uint amountA, uint amountB, uint liquidity) {\n        (amountA, amountB) = _addLiquidity(tokenA, tokenB, amountADesired, amountBDesired, amountAMin, amountBMin);\n        address pair = PepeswapV2Library.pairFor(factory, tokenA, tokenB);\n        TransferHelper.safeTransferFrom(tokenA, msg.sender, pair, amountA);\n        TransferHelper.safeTransferFrom(tokenB, msg.sender, pair, amountB);\n        liquidity = IUniswapV2Pair(pair).mint(to);\n    }\n    function addLiquidityBNB(\n        address token,\n        uint amountTokenDesired,\n        uint amountTokenMin,\n        uint amountBNBMin,\n        address to,\n        uint deadline\n    ) external virtual override payable ensure(deadline) returns (uint amountToken, uint amountBNB, uint liquidity) {\n        (amountToken, amountBNB) = _addLiquidity(\n            token,\n            WBNB,\n            amountTokenDesired,\n            msg.value,\n            amountTokenMin,\n            amountBNBMin\n        );\n        address pair = PepeswapV2Library.pairFor(factory, token, WBNB);\n        TransferHelper.safeTransferFrom(token, msg.sender, pair, amountToken);\n        IWBNB(WBNB).deposit{value: amountBNB}();\n        assert(IWBNB(WBNB).transfer(pair, amountBNB));\n        liquidity = IUniswapV2Pair(pair).mint(to);\n        // refund dust BNB, if any\n        if (msg.value > amountBNB) TransferHelper.safeTransferBNB(msg.sender, msg.value - amountBNB);\n    }\n\n    // **** REMOVE LIQUIDITY ****\n    function removeLiquidity(\n        address tokenA,\n        address tokenB,\n        uint liquidity,\n        uint amountAMin,\n        uint amountBMin,\n        address to,\n        uint deadline\n    ) public virtual override ensure(deadline) returns (uint amountA, uint amountB) {\n        address pair = PepeswapV2Library.pairFor(factory, tokenA, tokenB);\n        IUniswapV2Pair(pair).transferFrom(msg.sender, pair, liquidity); // send liquidity to pair\n        (uint amount0, uint amount1) = IUniswapV2Pair(pair).burn(to);\n        (address token0,) = PepeswapV2Library.sortTokens(tokenA, tokenB);\n        (amountA, amountB) = tokenA == token0 ? (amount0, amount1) : (amount1, amount0);\n        require(amountA >= amountAMin, 'INSUFFICIENT_A_AMOUNT');\n        require(amountB >= amountBMin, 'INSUFFICIENT_B_AMOUNT');\n    }\n    function removeLiquidityBNB(\n        address token,\n        uint liquidity,\n        uint amountTokenMin,\n        uint amountBNBMin,\n        address to,\n        uint deadline\n    ) public virtual override ensure(deadline) returns (uint amountToken, uint amountBNB) {\n        (amountToken, amountBNB) = removeLiquidity(\n            token,\n            WBNB,\n            liquidity,\n            amountTokenMin,\n            amountBNBMin,\n            address(this),\n            deadline\n        );\n        TransferHelper.safeTransfer(token, to, amountToken);\n        IWBNB(WBNB).withdraw(amountBNB);\n        TransferHelper.safeTransferBNB(to, amountBNB);\n    }\n    function removeLiquidityWithPermit(\n        address tokenA,\n        address tokenB,\n        uint liquidity,\n        uint amountAMin,\n        uint amountBMin,\n        address to,\n        uint deadline,\n        bool approveMax, uint8 v, bytes32 r, bytes32 s\n    ) external virtual override returns (uint amountA, uint amountB) {\n        address pair = PepeswapV2Library.pairFor(factory, tokenA, tokenB);\n        uint value = approveMax ? uint(-1) : liquidity;\n        IUniswapV2Pair(pair).permit(msg.sender, address(this), value, deadline, v, r, s);\n        (amountA, amountB) = removeLiquidity(tokenA, tokenB, liquidity, amountAMin, amountBMin, to, deadline);\n    }\n    function removeLiquidityBNBWithPermit(\n        address token,\n        uint liquidity,\n        uint amountTokenMin,\n        uint amountBNBMin,\n        address to,\n        uint deadline,\n        bool approveMax, uint8 v, bytes32 r, bytes32 s\n    ) external virtual override returns (uint amountToken, uint amountBNB) {\n        address pair = PepeswapV2Library.pairFor(factory, token, WBNB);\n        uint value = approveMax ? uint(-1) : liquidity;\n        IUniswapV2Pair(pair).permit(msg.sender, address(this), value, deadline, v, r, s);\n        (amountToken, amountBNB) = removeLiquidityBNB(token, liquidity, amountTokenMin, amountBNBMin, to, deadline);\n    }\n\n    // **** REMOVE LIQUIDITY (supporting fee-on-transfer tokens) ****\n    function removeLiquidityBNBSupportingFeeOnTransferTokens(\n        address token,\n        uint liquidity,\n        uint amountTokenMin,\n        uint amountBNBMin,\n        address to,\n        uint deadline\n    ) public virtual override ensure(deadline) returns (uint amountBNB) {\n        (, amountBNB) = removeLiquidity(\n            token,\n            WBNB,\n            liquidity,\n            amountTokenMin,\n            amountBNBMin,\n            address(this),\n            deadline\n        );\n        TransferHelper.safeTransfer(token, to, IBEP20(token).balanceOf(address(this)));\n        IWBNB(WBNB).withdraw(amountBNB);\n        TransferHelper.safeTransferBNB(to, amountBNB);\n    }\n    function removeLiquidityBNBWithPermitSupportingFeeOnTransferTokens(\n        address token,\n        uint liquidity,\n        uint amountTokenMin,\n        uint amountBNBMin,\n        address to,\n        uint deadline,\n        bool approveMax, uint8 v, bytes32 r, bytes32 s\n    ) external virtual override returns (uint amountBNB) {\n        address pair = PepeswapV2Library.pairFor(factory, token, WBNB);\n        uint value = approveMax ? uint(-1) : liquidity;\n        IUniswapV2Pair(pair).permit(msg.sender, address(this), value, deadline, v, r, s);\n        amountBNB = removeLiquidityBNBSupportingFeeOnTransferTokens(\n            token, liquidity, amountTokenMin, amountBNBMin, to, deadline\n        );\n    }\n\n    // **** SWAP ****\n    // requires the initial amount to have already been sent to the first pair\n    function _swap(uint[] memory amounts, address[] memory path, address _to) internal virtual {\n        for (uint i; i < path.length - 1; i++) {\n            (address input, address output) = (path[i], path[i + 1]);\n            (address token0,) = PepeswapV2Library.sortTokens(input, output);\n            uint amountOut = amounts[i + 1];\n            (uint amount0Out, uint amount1Out) = input == token0 ? (uint(0), amountOut) : (amountOut, uint(0));\n            address to = i < path.length - 2 ? PepeswapV2Library.pairFor(factory, output, path[i + 2]) : _to;\n            IUniswapV2Pair(PepeswapV2Library.pairFor(factory, input, output)).swap(\n                amount0Out, amount1Out, to, new bytes(0)\n            );\n        }\n    }\n    function swapExactTokensForTokens(\n        uint amountIn,\n        uint amountOutMin,\n        address[] calldata path,\n        address to,\n        uint deadline\n    ) external virtual override ensure(deadline) returns (uint[] memory amounts) {\n        amounts = PepeswapV2Library.getAmountsOut(factory, amountIn, path);\n        require(amounts[amounts.length - 1] >= amountOutMin, 'INSUFFICIENT_OUTPUT_AMOUNT');\n        TransferHelper.safeTransferFrom(\n            path[0], msg.sender, PepeswapV2Library.pairFor(factory, path[0], path[1]), amounts[0]\n        );\n        _swap(amounts, path, to);\n    }\n    function swapTokensForExactTokens(\n        uint amountOut,\n        uint amountInMax,\n        address[] calldata path,\n        address to,\n        uint deadline\n    ) external virtual override ensure(deadline) returns (uint[] memory amounts) {\n        amounts = PepeswapV2Library.getAmountsIn(factory, amountOut, path);\n        require(amounts[0] <= amountInMax, 'EXCESSIVE_INPUT_AMOUNT');\n        TransferHelper.safeTransferFrom(\n            path[0], msg.sender, PepeswapV2Library.pairFor(factory, path[0], path[1]), amounts[0]\n        );\n        _swap(amounts, path, to);\n    }\n    function swapExactBNBForTokens(uint amountOutMin, address[] calldata path, address to, uint deadline)\n        external\n        virtual\n        override\n        payable\n        ensure(deadline)\n        returns (uint[] memory amounts)\n    {\n        require(path[0] == WBNB, 'INVALID_PATH');\n        amounts = PepeswapV2Library.getAmountsOut(factory, msg.value, path);\n        require(amounts[amounts.length - 1] >= amountOutMin, 'INSUFFICIENT_OUTPUT_AMOUNT');\n        IWBNB(WBNB).deposit{value: amounts[0]}();\n        assert(IWBNB(WBNB).transfer(PepeswapV2Library.pairFor(factory, path[0], path[1]), amounts[0]));\n        _swap(amounts, path, to);\n    }\n    function swapTokensForExactBNB(uint amountOut, uint amountInMax, address[] calldata path, address to, uint deadline)\n        external\n        virtual\n        override\n        ensure(deadline)\n        returns (uint[] memory amounts)\n    {\n        require(path[path.length - 1] == WBNB, 'INVALID_PATH');\n        amounts = PepeswapV2Library.getAmountsIn(factory, amountOut, path);\n        require(amounts[0] <= amountInMax, 'EXCESSIVE_INPUT_AMOUNT');\n        TransferHelper.safeTransferFrom(\n            path[0], msg.sender, PepeswapV2Library.pairFor(factory, path[0], path[1]), amounts[0]\n        );\n        _swap(amounts, path, address(this));\n        IWBNB(WBNB).withdraw(amounts[amounts.length - 1]);\n        TransferHelper.safeTransferBNB(to, amounts[amounts.length - 1]);\n    }\n    function swapExactTokensForBNB(uint amountIn, uint amountOutMin, address[] calldata path, address to, uint deadline)\n        external\n        virtual\n        override\n        ensure(deadline)\n        returns (uint[] memory amounts)\n    {\n        require(path[path.length - 1] == WBNB, 'INVALID_PATH');\n        amounts = PepeswapV2Library.getAmountsOut(factory, amountIn, path);\n        require(amounts[amounts.length - 1] >= amountOutMin, 'INSUFFICIENT_OUTPUT_AMOUNT');\n        TransferHelper.safeTransferFrom(\n            path[0], msg.sender, PepeswapV2Library.pairFor(factory, path[0], path[1]), amounts[0]\n        );\n        _swap(amounts, path, address(this));\n        IWBNB(WBNB).withdraw(amounts[amounts.length - 1]);\n        TransferHelper.safeTransferBNB(to, amounts[amounts.length - 1]);\n    }\n    function swapBNBForExactTokens(uint amountOut, address[] calldata path, address to, uint deadline)\n        external\n        virtual\n        override\n        payable\n        ensure(deadline)\n        returns (uint[] memory amounts)\n    {\n        require(path[0] == WBNB, 'INVALID_PATH');\n        amounts = PepeswapV2Library.getAmountsIn(factory, amountOut, path);\n        require(amounts[0] <= msg.value, 'EXCESSIVE_INPUT_AMOUNT');\n        IWBNB(WBNB).deposit{value: amounts[0]}();\n        assert(IWBNB(WBNB).transfer(PepeswapV2Library.pairFor(factory, path[0], path[1]), amounts[0]));\n        _swap(amounts, path, to);\n        // refund dust BNB, if any\n        if (msg.value > amounts[0]) TransferHelper.safeTransferBNB(msg.sender, msg.value - amounts[0]);\n    }\n\n    // **** SWAP (supporting fee-on-transfer tokens) ****\n    // requires the initial amount to have already been sent to the first pair\n    function _swapSupportingFeeOnTransferTokens(address[] memory path, address _to) internal virtual {\n        for (uint i; i < path.length - 1; i++) {\n            (address input, address output) = (path[i], path[i + 1]);\n            (address token0,) = PepeswapV2Library.sortTokens(input, output);\n            IUniswapV2Pair pair = IUniswapV2Pair(PepeswapV2Library.pairFor(factory, input, output));\n            uint amountInput;\n            uint amountOutput;\n            { // scope to avoid stack too deep errors\n            (uint reserve0, uint reserve1,) = pair.getReserves();\n            (uint reserveInput, uint reserveOutput) = input == token0 ? (reserve0, reserve1) : (reserve1, reserve0);\n            amountInput = IBEP20(input).balanceOf(address(pair)).sub(reserveInput);\n            amountOutput = PepeswapV2Library.getAmountOut(amountInput, reserveInput, reserveOutput);\n            }\n            (uint amount0Out, uint amount1Out) = input == token0 ? (uint(0), amountOutput) : (amountOutput, uint(0));\n            address to = i < path.length - 2 ? PepeswapV2Library.pairFor(factory, output, path[i + 2]) : _to;\n            pair.swap(amount0Out, amount1Out, to, new bytes(0));\n        }\n    }\n    function swapExactTokensForTokensSupportingFeeOnTransferTokens(\n        uint amountIn,\n        uint amountOutMin,\n        address[] calldata path,\n        address to,\n        uint deadline\n    ) external virtual override ensure(deadline) {\n        TransferHelper.safeTransferFrom(\n            path[0], msg.sender, PepeswapV2Library.pairFor(factory, path[0], path[1]), amountIn\n        );\n        uint balanceBefore = IBEP20(path[path.length - 1]).balanceOf(to);\n        _swapSupportingFeeOnTransferTokens(path, to);\n        require(\n            IBEP20(path[path.length - 1]).balanceOf(to).sub(balanceBefore) >= amountOutMin,\n            'INSUFFICIENT_OUTPUT_AMOUNT'\n        );\n    }\n    function swapExactBNBForTokensSupportingFeeOnTransferTokens(\n        uint amountOutMin,\n        address[] calldata path,\n        address to,\n        uint deadline\n    )\n        external\n        virtual\n        override\n        payable\n        ensure(deadline)\n    {\n        require(path[0] == WBNB, 'INVALID_PATH');\n        uint amountIn = msg.value;\n        IWBNB(WBNB).deposit{value: amountIn}();\n        assert(IWBNB(WBNB).transfer(PepeswapV2Library.pairFor(factory, path[0], path[1]), amountIn));\n        uint balanceBefore = IBEP20(path[path.length - 1]).balanceOf(to);\n        _swapSupportingFeeOnTransferTokens(path, to);\n        require(\n            IBEP20(path[path.length - 1]).balanceOf(to).sub(balanceBefore) >= amountOutMin,\n            'INSUFFICIENT_OUTPUT_AMOUNT'\n        );\n    }\n    function swapExactTokensForBNBSupportingFeeOnTransferTokens(\n        uint amountIn,\n        uint amountOutMin,\n        address[] calldata path,\n        address to,\n        uint deadline\n    )\n        external\n        virtual\n        override\n        ensure(deadline)\n    {\n        require(path[path.length - 1] == WBNB, 'INVALID_PATH');\n        TransferHelper.safeTransferFrom(\n            path[0], msg.sender, PepeswapV2Library.pairFor(factory, path[0], path[1]), amountIn\n        );\n        _swapSupportingFeeOnTransferTokens(path, address(this));\n        uint amountOut = IBEP20(WBNB).balanceOf(address(this));\n        require(amountOut >= amountOutMin, 'INSUFFICIENT_OUTPUT_AMOUNT');\n        IWBNB(WBNB).withdraw(amountOut);\n        TransferHelper.safeTransferBNB(to, amountOut);\n    }\n\n    // **** LIBRARY FUNCTIONS ****\n    function quote(uint amountA, uint reserveA, uint reserveB) public pure virtual override returns (uint amountB) {\n        return PepeswapV2Library.quote(amountA, reserveA, reserveB);\n    }\n\n    function getAmountOut(uint amountIn, uint reserveIn, uint reserveOut)\n        public\n        pure\n        virtual\n        override\n        returns (uint amountOut)\n    {\n        return PepeswapV2Library.getAmountOut(amountIn, reserveIn, reserveOut);\n    }\n\n    function getAmountIn(uint amountOut, uint reserveIn, uint reserveOut)\n        public\n        pure\n        virtual\n        override\n        returns (uint amountIn)\n    {\n        return PepeswapV2Library.getAmountIn(amountOut, reserveIn, reserveOut);\n    }\n\n    function getAmountsOut(uint amountIn, address[] memory path)\n        public\n        view\n        virtual\n        override\n        returns (uint[] memory amounts)\n    {\n        return PepeswapV2Library.getAmountsOut(factory, amountIn, path);\n    }\n\n    function getAmountsIn(uint amountOut, address[] memory path)\n        public\n        view\n        virtual\n        override\n        returns (uint[] memory amounts)\n    {\n        return PepeswapV2Library.getAmountsIn(factory, amountOut, path);\n    }\n}\n",
  "sourcePath": "/Users/blockchaindev/Documents/pepeswap-periphery/contracts/PepeswapV2Router02.sol",
  "compiler": {
    "name": "solc",
    "version": "0.6.12+commit.27d51765.Emscripten.clang"
  },
  "schemaVersion": "3.4.1",
  "updatedAt": "2021-07-01T01:53:34.982Z",
  "devdoc": {
    "kind": "dev",
    "methods": {},
    "version": 1
  },
  "userdoc": {
    "kind": "user",
    "methods": {},
    "version": 1
  }
}