{
  "contractName": "PepeswapV2Migrator",
  "abi": [
    {
      "inputs": [
        {
          "internalType": "address",
          "name": "_factoryV1",
          "type": "address"
        },
        {
          "internalType": "address",
          "name": "_router",
          "type": "address"
        }
      ],
      "stateMutability": "nonpayable",
      "type": "constructor"
    },
    {
      "stateMutability": "payable",
      "type": "receive"
    },
    {
      "inputs": [
        {
          "internalType": "address",
          "name": "token",
          "type": "address"
        },
        {
          "internalType": "uint256",
          "name": "amountTokenMin",
          "type": "uint256"
        },
        {
          "internalType": "uint256",
          "name": "amountBNBMin",
          "type": "uint256"
        },
        {
          "internalType": "address",
          "name": "to",
          "type": "address"
        },
        {
          "internalType": "uint256",
          "name": "deadline",
          "type": "uint256"
        }
      ],
      "name": "migrate",
      "outputs": [],
      "stateMutability": "nonpayable",
      "type": "function"
    }
  ],
  "bytecode": "0x60c060405234801561001057600080fd5b50604051610c8c380380610c8c8339818101604052604081101561003357600080fd5b8101908080519060200190929190805190602001909291905050508173ffffffffffffffffffffffffffffffffffffffff1660808173ffffffffffffffffffffffffffffffffffffffff1660601b815250508073ffffffffffffffffffffffffffffffffffffffff1660a08173ffffffffffffffffffffffffffffffffffffffff1660601b81525050505060805160601c60a05160601c610b9c6100f060003980610442528061046c528061059452508060c15250610b9c6000f3fe6080604052600436106100225760003560e01c8063b7df1d251461002e57610029565b3661002957005b600080fd5b34801561003a57600080fd5b506100bb600480360360a081101561005157600080fd5b81019080803573ffffffffffffffffffffffffffffffffffffffff1690602001909291908035906020019092919080359060200190929190803573ffffffffffffffffffffffffffffffffffffffff169060200190929190803590602001909291905050506100bd565b005b60007f000000000000000000000000000000000000000000000000000000000000000073ffffffffffffffffffffffffffffffffffffffff166306f2bf62876040518263ffffffff1660e01b8152600401808273ffffffffffffffffffffffffffffffffffffffff16815260200191505060206040518083038186803b15801561014657600080fd5b505afa15801561015a573d6000803e3d6000fd5b505050506040513d602081101561017057600080fd5b8101908080519060200190929190505050905060008173ffffffffffffffffffffffffffffffffffffffff166370a08231336040518263ffffffff1660e01b8152600401808273ffffffffffffffffffffffffffffffffffffffff16815260200191505060206040518083038186803b1580156101ec57600080fd5b505afa158015610200573d6000803e3d6000fd5b505050506040513d602081101561021657600080fd5b810190808051906020019092919050505090508173ffffffffffffffffffffffffffffffffffffffff166323b872dd3330846040518463ffffffff1660e01b8152600401808473ffffffffffffffffffffffffffffffffffffffff1681526020018373ffffffffffffffffffffffffffffffffffffffff1681526020018281526020019350505050602060405180830381600087803b1580156102b857600080fd5b505af11580156102cc573d6000803e3d6000fd5b505050506040513d60208110156102e257600080fd5b8101908080519060200190929190505050610365576040517f08c379a00000000000000000000000000000000000000000000000000000000081526004018080602001828103825260148152602001807f5452414e534645525f46524f4d5f4641494c454400000000000000000000000081525060200191505060405180910390fd5b6000808373ffffffffffffffffffffffffffffffffffffffff1663f88bf15a846001807fffffffffffffffffffffffffffffffffffffffffffffffffffffffffffffffff6040518563ffffffff1660e01b8152600401808581526020018481526020018381526020018281526020019450505050506040805180830381600087803b1580156103f357600080fd5b505af1158015610407573d6000803e3d6000fd5b505050506040513d604081101561041d57600080fd5b81019080805190602001909291908051906020019092919050505091509150610467897f0000000000000000000000000000000000000000000000000000000000000000836105ef565b6000807f000000000000000000000000000000000000000000000000000000000000000073ffffffffffffffffffffffffffffffffffffffff1663eaaed442858d868e8e8e8e6040518863ffffffff1660e01b8152600401808773ffffffffffffffffffffffffffffffffffffffff1681526020018681526020018581526020018481526020018373ffffffffffffffffffffffffffffffffffffffff16815260200182815260200196505050505050506060604051808303818588803b15801561053157600080fd5b505af1158015610545573d6000803e3d6000fd5b50505050506040513d606081101561055c57600080fd5b810190808051906020019092919080519060200190929190805190602001909291905050505091509150818311156105cc576105ba8b7f000000000000000000000000000000000000000000000000000000000000000060006105ef565b6105c78b338486036107b5565b6105e2565b808411156105e1576105e03382860361097b565b5b5b5050505050505050505050565b600060608473ffffffffffffffffffffffffffffffffffffffff1663095ea7b38585604051602401808373ffffffffffffffffffffffffffffffffffffffff168152602001828152602001925050506040516020818303038152906040529060e01b6020820180517bffffffffffffffffffffffffffffffffffffffffffffffffffffffff83818316178352505050506040518082805190602001908083835b602083106106b2578051825260208201915060208101905060208303925061068f565b6001836020036101000a0380198251168184511680821785525050505050509050019150506000604051808303816000865af19150503d8060008114610714576040519150601f19603f3d011682016040523d82523d6000602084013e610719565b606091505b50915091508180156107595750600081511480610758575080806020019051602081101561074657600080fd5b81019080805190602001909291905050505b5b6107ae576040517f08c379a000000000000000000000000000000000000000000000000000000000815260040180806020018281038252602b815260200180610b0f602b913960400191505060405180910390fd5b5050505050565b600060608473ffffffffffffffffffffffffffffffffffffffff1663a9059cbb8585604051602401808373ffffffffffffffffffffffffffffffffffffffff168152602001828152602001925050506040516020818303038152906040529060e01b6020820180517bffffffffffffffffffffffffffffffffffffffffffffffffffffffff83818316178352505050506040518082805190602001908083835b602083106108785780518252602082019150602081019050602083039250610855565b6001836020036101000a0380198251168184511680821785525050505050509050019150506000604051808303816000865af19150503d80600081146108da576040519150601f19603f3d011682016040523d82523d6000602084013e6108df565b606091505b509150915081801561091f575060008151148061091e575080806020019051602081101561090c57600080fd5b81019080805190602001909291905050505b5b610974576040517f08c379a000000000000000000000000000000000000000000000000000000000815260040180806020018281038252602d815260200180610b3a602d913960400191505060405180910390fd5b5050505050565b60008273ffffffffffffffffffffffffffffffffffffffff1682600067ffffffffffffffff811180156109ad57600080fd5b506040519080825280601f01601f1916602001820160405280156109e05781602001600182028036833780820191505090505b506040518082805190602001908083835b60208310610a1457805182526020820191506020810190506020830392506109f1565b6001836020036101000a03801982511681845116808217855250505050505090500191505060006040518083038185875af1925050503d8060008114610a76576040519150601f19603f3d011682016040523d82523d6000602084013e610a7b565b606091505b5050905080610ad5576040517f08c379a0000000000000000000000000000000000000000000000000000000008152600401808060200182810382526034815260200180610adb6034913960400191505060405180910390fd5b50505056fe5472616e7366657248656c7065723a3a736166655472616e73666572424e423a20424e42207472616e73666572206661696c65645472616e7366657248656c7065723a3a73616665417070726f76653a20617070726f7665206661696c65645472616e7366657248656c7065723a3a736166655472616e736665723a207472616e73666572206661696c6564a264697066735822122039a48576682e3b379114571e39fc262d31d6f8bbfa5c331e305879f77564783064736f6c634300060c0033",
  "immutableReferences": {
    "11": [
      {
        "length": 32,
        "start": 193
      }
    ],
    "13": [
      {
        "length": 32,
        "start": 1090
      },
      {
        "length": 32,
        "start": 1132
      },
      {
        "length": 32,
        "start": 1428
      }
    ]
  },
  "source": "pragma solidity =0.6.12;\r\n\r\nimport '@uniswap/lib/contracts/libraries/TransferHelper.sol';\r\n\r\nimport './interfaces/IPepeswapV2Migrator.sol';\r\nimport './interfaces/V1/IPepeswapV1Factory.sol';\r\nimport './interfaces/V1/IPepeswapV1Exchange.sol';\r\nimport './interfaces/IPepeswapV2Router01.sol';\r\nimport './interfaces/IBEP20.sol';\r\n\r\ncontract PepeswapV2Migrator is IPepeswapV2Migrator {\r\n    IPepeswapV1Factory immutable factoryV1;\r\n    IPepeswapV2Router01 immutable router;\r\n\r\n    constructor(address _factoryV1, address _router) public {\r\n        factoryV1 = IPepeswapV1Factory(_factoryV1);\r\n        router = IPepeswapV2Router01(_router);\r\n    }\r\n\r\n    // needs to accept BNB from any v1 exchange and the router. ideally this could be enforced, as in the router,\r\n    // but it's not possible because it requires a call to the v1 factory, which takes too much gas\r\n    receive() external payable {}\r\n\r\n    function migrate(address token, uint amountTokenMin, uint amountBNBMin, address to, uint deadline)\r\n        external\r\n        override\r\n    {\r\n        IPepeswapV1Exchange exchangeV1 = IPepeswapV1Exchange(factoryV1.getExchange(token));\r\n        uint liquidityV1 = exchangeV1.balanceOf(msg.sender);\r\n        require(exchangeV1.transferFrom(msg.sender, address(this), liquidityV1), 'TRANSFER_FROM_FAILED');\r\n        (uint amountBNBV1, uint amountTokenV1) = exchangeV1.removeLiquidity(liquidityV1, 1, 1, uint(-1));\r\n        TransferHelper.safeApprove(token, address(router), amountTokenV1);\r\n        (uint amountTokenV2, uint amountBNBV2,) = router.addLiquidityBNB{value: amountBNBV1}(\r\n            token,\r\n            amountTokenV1,\r\n            amountTokenMin,\r\n            amountBNBMin,\r\n            to,\r\n            deadline\r\n        );\r\n        if (amountTokenV1 > amountTokenV2) {\r\n            TransferHelper.safeApprove(token, address(router), 0); // be a good blockchain citizen, reset allowance to 0\r\n            TransferHelper.safeTransfer(token, msg.sender, amountTokenV1 - amountTokenV2);\r\n        } else if (amountBNBV1 > amountBNBV2) {\r\n            // addLiquidityBNB guarantees that all of amountBNBV1 or amountTokenV1 will be used, hence this else is safe\r\n            TransferHelper.safeTransferBNB(msg.sender, amountBNBV1 - amountBNBV2);\r\n        }\r\n    }\r\n}\r\n",
  "sourcePath": "C:/Users/fsong/pepeswap/periphery/contracts/PepeswapV2Migrator.sol",
  "compiler": {
    "name": "solc",
    "version": "0.6.12+commit.27d51765.Emscripten.clang"
  },
  "schemaVersion": "3.3.4",
  "updatedAt": "2021-05-27T01:20:26.883Z",
  "devdoc": {
    "kind": "dev",
    "methods": {},
    "version": 1
  },
  "userdoc": {
    "kind": "user",
    "methods": {},
    "version": 1
  }
}