{
  "contractName": "PepeswapV2Router01",
  "abi": [
    {
      "inputs": [
        {
          "internalType": "address",
          "name": "_factory",
          "type": "address"
        },
        {
          "internalType": "address",
          "name": "_WBNB",
          "type": "address"
        }
      ],
      "stateMutability": "nonpayable",
      "type": "constructor"
    },
    {
      "inputs": [],
      "name": "WBNB",
      "outputs": [
        {
          "internalType": "address",
          "name": "",
          "type": "address"
        }
      ],
      "stateMutability": "view",
      "type": "function"
    },
    {
      "inputs": [],
      "name": "factory",
      "outputs": [
        {
          "internalType": "address",
          "name": "",
          "type": "address"
        }
      ],
      "stateMutability": "view",
      "type": "function"
    },
    {
      "stateMutability": "payable",
      "type": "receive"
    },
    {
      "inputs": [
        {
          "internalType": "address",
          "name": "tokenA",
          "type": "address"
        },
        {
          "internalType": "address",
          "name": "tokenB",
          "type": "address"
        },
        {
          "internalType": "uint256",
          "name": "amountADesired",
          "type": "uint256"
        },
        {
          "internalType": "uint256",
          "name": "amountBDesired",
          "type": "uint256"
        },
        {
          "internalType": "uint256",
          "name": "amountAMin",
          "type": "uint256"
        },
        {
          "internalType": "uint256",
          "name": "amountBMin",
          "type": "uint256"
        },
        {
          "internalType": "address",
          "name": "to",
          "type": "address"
        },
        {
          "internalType": "uint256",
          "name": "deadline",
          "type": "uint256"
        }
      ],
      "name": "addLiquidity",
      "outputs": [
        {
          "internalType": "uint256",
          "name": "amountA",
          "type": "uint256"
        },
        {
          "internalType": "uint256",
          "name": "amountB",
          "type": "uint256"
        },
        {
          "internalType": "uint256",
          "name": "liquidity",
          "type": "uint256"
        }
      ],
      "stateMutability": "nonpayable",
      "type": "function"
    },
    {
      "inputs": [
        {
          "internalType": "address",
          "name": "token",
          "type": "address"
        },
        {
          "internalType": "uint256",
          "name": "amountTokenDesired",
          "type": "uint256"
        },
        {
          "internalType": "uint256",
          "name": "amountTokenMin",
          "type": "uint256"
        },
        {
          "internalType": "uint256",
          "name": "amountBNBMin",
          "type": "uint256"
        },
        {
          "internalType": "address",
          "name": "to",
          "type": "address"
        },
        {
          "internalType": "uint256",
          "name": "deadline",
          "type": "uint256"
        }
      ],
      "name": "addLiquidityBNB",
      "outputs": [
        {
          "internalType": "uint256",
          "name": "amountToken",
          "type": "uint256"
        },
        {
          "internalType": "uint256",
          "name": "amountBNB",
          "type": "uint256"
        },
        {
          "internalType": "uint256",
          "name": "liquidity",
          "type": "uint256"
        }
      ],
      "stateMutability": "payable",
      "type": "function"
    },
    {
      "inputs": [
        {
          "internalType": "address",
          "name": "tokenA",
          "type": "address"
        },
        {
          "internalType": "address",
          "name": "tokenB",
          "type": "address"
        },
        {
          "internalType": "uint256",
          "name": "liquidity",
          "type": "uint256"
        },
        {
          "internalType": "uint256",
          "name": "amountAMin",
          "type": "uint256"
        },
        {
          "internalType": "uint256",
          "name": "amountBMin",
          "type": "uint256"
        },
        {
          "internalType": "address",
          "name": "to",
          "type": "address"
        },
        {
          "internalType": "uint256",
          "name": "deadline",
          "type": "uint256"
        }
      ],
      "name": "removeLiquidity",
      "outputs": [
        {
          "internalType": "uint256",
          "name": "amountA",
          "type": "uint256"
        },
        {
          "internalType": "uint256",
          "name": "amountB",
          "type": "uint256"
        }
      ],
      "stateMutability": "nonpayable",
      "type": "function"
    },
    {
      "inputs": [
        {
          "internalType": "address",
          "name": "token",
          "type": "address"
        },
        {
          "internalType": "uint256",
          "name": "liquidity",
          "type": "uint256"
        },
        {
          "internalType": "uint256",
          "name": "amountTokenMin",
          "type": "uint256"
        },
        {
          "internalType": "uint256",
          "name": "amountBNBMin",
          "type": "uint256"
        },
        {
          "internalType": "address",
          "name": "to",
          "type": "address"
        },
        {
          "internalType": "uint256",
          "name": "deadline",
          "type": "uint256"
        }
      ],
      "name": "removeLiquidityBNB",
      "outputs": [
        {
          "internalType": "uint256",
          "name": "amountToken",
          "type": "uint256"
        },
        {
          "internalType": "uint256",
          "name": "amountBNB",
          "type": "uint256"
        }
      ],
      "stateMutability": "nonpayable",
      "type": "function"
    },
    {
      "inputs": [
        {
          "internalType": "address",
          "name": "tokenA",
          "type": "address"
        },
        {
          "internalType": "address",
          "name": "tokenB",
          "type": "address"
        },
        {
          "internalType": "uint256",
          "name": "liquidity",
          "type": "uint256"
        },
        {
          "internalType": "uint256",
          "name": "amountAMin",
          "type": "uint256"
        },
        {
          "internalType": "uint256",
          "name": "amountBMin",
          "type": "uint256"
        },
        {
          "internalType": "address",
          "name": "to",
          "type": "address"
        },
        {
          "internalType": "uint256",
          "name": "deadline",
          "type": "uint256"
        },
        {
          "internalType": "bool",
          "name": "approveMax",
          "type": "bool"
        },
        {
          "internalType": "uint8",
          "name": "v",
          "type": "uint8"
        },
        {
          "internalType": "bytes32",
          "name": "r",
          "type": "bytes32"
        },
        {
          "internalType": "bytes32",
          "name": "s",
          "type": "bytes32"
        }
      ],
      "name": "removeLiquidityWithPermit",
      "outputs": [
        {
          "internalType": "uint256",
          "name": "amountA",
          "type": "uint256"
        },
        {
          "internalType": "uint256",
          "name": "amountB",
          "type": "uint256"
        }
      ],
      "stateMutability": "nonpayable",
      "type": "function"
    },
    {
      "inputs": [
        {
          "internalType": "address",
          "name": "token",
          "type": "address"
        },
        {
          "internalType": "uint256",
          "name": "liquidity",
          "type": "uint256"
        },
        {
          "internalType": "uint256",
          "name": "amountTokenMin",
          "type": "uint256"
        },
        {
          "internalType": "uint256",
          "name": "amountBNBMin",
          "type": "uint256"
        },
        {
          "internalType": "address",
          "name": "to",
          "type": "address"
        },
        {
          "internalType": "uint256",
          "name": "deadline",
          "type": "uint256"
        },
        {
          "internalType": "bool",
          "name": "approveMax",
          "type": "bool"
        },
        {
          "internalType": "uint8",
          "name": "v",
          "type": "uint8"
        },
        {
          "internalType": "bytes32",
          "name": "r",
          "type": "bytes32"
        },
        {
          "internalType": "bytes32",
          "name": "s",
          "type": "bytes32"
        }
      ],
      "name": "removeLiquidityBNBWithPermit",
      "outputs": [
        {
          "internalType": "uint256",
          "name": "amountToken",
          "type": "uint256"
        },
        {
          "internalType": "uint256",
          "name": "amountBNB",
          "type": "uint256"
        }
      ],
      "stateMutability": "nonpayable",
      "type": "function"
    },
    {
      "inputs": [
        {
          "internalType": "uint256",
          "name": "amountIn",
          "type": "uint256"
        },
        {
          "internalType": "uint256",
          "name": "amountOutMin",
          "type": "uint256"
        },
        {
          "internalType": "address[]",
          "name": "path",
          "type": "address[]"
        },
        {
          "internalType": "address",
          "name": "to",
          "type": "address"
        },
        {
          "internalType": "uint256",
          "name": "deadline",
          "type": "uint256"
        }
      ],
      "name": "swapExactTokensForTokens",
      "outputs": [
        {
          "internalType": "uint256[]",
          "name": "amounts",
          "type": "uint256[]"
        }
      ],
      "stateMutability": "nonpayable",
      "type": "function"
    },
    {
      "inputs": [
        {
          "internalType": "uint256",
          "name": "amountOut",
          "type": "uint256"
        },
        {
          "internalType": "uint256",
          "name": "amountInMax",
          "type": "uint256"
        },
        {
          "internalType": "address[]",
          "name": "path",
          "type": "address[]"
        },
        {
          "internalType": "address",
          "name": "to",
          "type": "address"
        },
        {
          "internalType": "uint256",
          "name": "deadline",
          "type": "uint256"
        }
      ],
      "name": "swapTokensForExactTokens",
      "outputs": [
        {
          "internalType": "uint256[]",
          "name": "amounts",
          "type": "uint256[]"
        }
      ],
      "stateMutability": "nonpayable",
      "type": "function"
    },
    {
      "inputs": [
        {
          "internalType": "uint256",
          "name": "amountOutMin",
          "type": "uint256"
        },
        {
          "internalType": "address[]",
          "name": "path",
          "type": "address[]"
        },
        {
          "internalType": "address",
          "name": "to",
          "type": "address"
        },
        {
          "internalType": "uint256",
          "name": "deadline",
          "type": "uint256"
        }
      ],
      "name": "swapExactBNBForTokens",
      "outputs": [
        {
          "internalType": "uint256[]",
          "name": "amounts",
          "type": "uint256[]"
        }
      ],
      "stateMutability": "payable",
      "type": "function"
    },
    {
      "inputs": [
        {
          "internalType": "uint256",
          "name": "amountOut",
          "type": "uint256"
        },
        {
          "internalType": "uint256",
          "name": "amountInMax",
          "type": "uint256"
        },
        {
          "internalType": "address[]",
          "name": "path",
          "type": "address[]"
        },
        {
          "internalType": "address",
          "name": "to",
          "type": "address"
        },
        {
          "internalType": "uint256",
          "name": "deadline",
          "type": "uint256"
        }
      ],
      "name": "swapTokensForExactBNB",
      "outputs": [
        {
          "internalType": "uint256[]",
          "name": "amounts",
          "type": "uint256[]"
        }
      ],
      "stateMutability": "nonpayable",
      "type": "function"
    },
    {
      "inputs": [
        {
          "internalType": "uint256",
          "name": "amountIn",
          "type": "uint256"
        },
        {
          "internalType": "uint256",
          "name": "amountOutMin",
          "type": "uint256"
        },
        {
          "internalType": "address[]",
          "name": "path",
          "type": "address[]"
        },
        {
          "internalType": "address",
          "name": "to",
          "type": "address"
        },
        {
          "internalType": "uint256",
          "name": "deadline",
          "type": "uint256"
        }
      ],
      "name": "swapExactTokensForBNB",
      "outputs": [
        {
          "internalType": "uint256[]",
          "name": "amounts",
          "type": "uint256[]"
        }
      ],
      "stateMutability": "nonpayable",
      "type": "function"
    },
    {
      "inputs": [
        {
          "internalType": "uint256",
          "name": "amountOut",
          "type": "uint256"
        },
        {
          "internalType": "address[]",
          "name": "path",
          "type": "address[]"
        },
        {
          "internalType": "address",
          "name": "to",
          "type": "address"
        },
        {
          "internalType": "uint256",
          "name": "deadline",
          "type": "uint256"
        }
      ],
      "name": "swapBNBForExactTokens",
      "outputs": [
        {
          "internalType": "uint256[]",
          "name": "amounts",
          "type": "uint256[]"
        }
      ],
      "stateMutability": "payable",
      "type": "function"
    },
    {
      "inputs": [
        {
          "internalType": "uint256",
          "name": "amountA",
          "type": "uint256"
        },
        {
          "internalType": "uint256",
          "name": "reserveA",
          "type": "uint256"
        },
        {
          "internalType": "uint256",
          "name": "reserveB",
          "type": "uint256"
        }
      ],
      "name": "quote",
      "outputs": [
        {
          "internalType": "uint256",
          "name": "amountB",
          "type": "uint256"
        }
      ],
      "stateMutability": "pure",
      "type": "function"
    },
    {
      "inputs": [
        {
          "internalType": "uint256",
          "name": "amountIn",
          "type": "uint256"
        },
        {
          "internalType": "uint256",
          "name": "reserveIn",
          "type": "uint256"
        },
        {
          "internalType": "uint256",
          "name": "reserveOut",
          "type": "uint256"
        }
      ],
      "name": "getAmountOut",
      "outputs": [
        {
          "internalType": "uint256",
          "name": "amountOut",
          "type": "uint256"
        }
      ],
      "stateMutability": "pure",
      "type": "function"
    },
    {
      "inputs": [
        {
          "internalType": "uint256",
          "name": "amountOut",
          "type": "uint256"
        },
        {
          "internalType": "uint256",
          "name": "reserveIn",
          "type": "uint256"
        },
        {
          "internalType": "uint256",
          "name": "reserveOut",
          "type": "uint256"
        }
      ],
      "name": "getAmountIn",
      "outputs": [
        {
          "internalType": "uint256",
          "name": "amountIn",
          "type": "uint256"
        }
      ],
      "stateMutability": "pure",
      "type": "function"
    },
    {
      "inputs": [
        {
          "internalType": "uint256",
          "name": "amountIn",
          "type": "uint256"
        },
        {
          "internalType": "address[]",
          "name": "path",
          "type": "address[]"
        }
      ],
      "name": "getAmountsOut",
      "outputs": [
        {
          "internalType": "uint256[]",
          "name": "amounts",
          "type": "uint256[]"
        }
      ],
      "stateMutability": "view",
      "type": "function"
    },
    {
      "inputs": [
        {
          "internalType": "uint256",
          "name": "amountOut",
          "type": "uint256"
        },
        {
          "internalType": "address[]",
          "name": "path",
          "type": "address[]"
        }
      ],
      "name": "getAmountsIn",
      "outputs": [
        {
          "internalType": "uint256[]",
          "name": "amounts",
          "type": "uint256[]"
        }
      ],
      "stateMutability": "view",
      "type": "function"
    }
  ],
  "bytecode": "0x60c060405234801561001057600080fd5b506040516135c03803806135c08339818101604052604081101561003357600080fd5b5080516020909101516001600160601b0319606092831b8116608052911b1660a05260805160601c60a05160601c61348561013b6000398060f85280610af55280610e115280610fa1528061109d52806111e0528061126852806114f0528061155a52806116a052806117285280611b445280611ccd5280611d085280611f1c5280611f725280611fa6528061201a5250806109a052806109d95280610ad35280610c285280610cff5280610e9f5280611130528061129a528061144052806115ed528061175a52806118ad5280611aa55280611ace5280611bd25280611dfd5280611f50528061275d52806127a05280612ccb5280612d845280612e3752506134856000f3fe6080604052600436106100e85760003560e01c8063054d50d4146101265780631f00ca741461016e5780632195995c1461027357806334a0772d1461030a57806338ed17391461037d5780635d616c5b146104135780638332a963146104a957806385f8c259146101265780638803dbee1461052d5780638dd95002146105c35780639cf68911146105f4578063ad615dec14610678578063baa2abde146106ae578063c45a01551461070b578063d06ca61f14610720578063d67b571e146107d5578063e05884881461086b578063e8e33700146108be578063eaaed4421461093e57610121565b3661012157336001600160a01b037f0000000000000000000000000000000000000000000000000000000000000000161461011f57fe5b005b600080fd5b34801561013257600080fd5b5061015c6004803603606081101561014957600080fd5b5080359060208101359060400135610984565b60408051918252519081900360200190f35b34801561017a57600080fd5b506102236004803603604081101561019157600080fd5b81359190810190604081016020820135600160201b8111156101b257600080fd5b8201836020820111156101c457600080fd5b803590602001918460208302840111600160201b831117156101e557600080fd5b919080806020026020016040519081016040528093929190818152602001838360200280828437600092019190915250929550610999945050505050565b60408051602080825283518183015283519192839290830191858101910280838360005b8381101561025f578181015183820152602001610247565b505050509050019250505060405180910390f35b34801561027f57600080fd5b506102f1600480360361016081101561029757600080fd5b506001600160a01b038135811691602081013582169160408201359160608101359160808201359160a08101359091169060c08101359060e081013515159060ff61010082013516906101208101359061014001356109cf565b6040805192835260208301919091528051918290030190f35b34801561031657600080fd5b506102f1600480360361014081101561032e57600080fd5b506001600160a01b0381358116916020810135916040820135916060810135916080820135169060a08101359060c081013515159060ff60e08201351690610100810135906101200135610ac9565b34801561038957600080fd5b50610223600480360360a08110156103a057600080fd5b813591602081013591810190606081016040820135600160201b8111156103c657600080fd5b8201836020820111156103d857600080fd5b803590602001918460208302840111600160201b831117156103f957600080fd5b91935091506001600160a01b038135169060200135610bdd565b34801561041f57600080fd5b50610223600480360360a081101561043657600080fd5b813591602081013591810190606081016040820135600160201b81111561045c57600080fd5b82018360208201111561046e57600080fd5b803590602001918460208302840111600160201b8311171561048f57600080fd5b91935091506001600160a01b038135169060200135610dc1565b610223600480360360808110156104bf57600080fd5b81359190810190604081016020820135600160201b8111156104e057600080fd5b8201836020820111156104f257600080fd5b803590602001918460208302840111600160201b8311171561051357600080fd5b91935091506001600160a01b038135169060200135611055565b34801561053957600080fd5b50610223600480360360a081101561055057600080fd5b813591602081013591810190606081016040820135600160201b81111561057657600080fd5b82018360208201111561058857600080fd5b803590602001918460208302840111600160201b831117156105a957600080fd5b91935091506001600160a01b0381351690602001356113f5565b3480156105cf57600080fd5b506105d86114ee565b604080516001600160a01b039092168252519081900360200190f35b6102236004803603608081101561060a57600080fd5b81359190810190604081016020820135600160201b81111561062b57600080fd5b82018360208201111561063d57600080fd5b803590602001918460208302840111600160201b8311171561065e57600080fd5b91935091506001600160a01b038135169060200135611512565b34801561068457600080fd5b5061015c6004803603606081101561069b57600080fd5b5080359060208101359060400135611852565b3480156106ba57600080fd5b506102f1600480360360e08110156106d157600080fd5b506001600160a01b038135811691602081013582169160408201359160608101359160808201359160a08101359091169060c0013561185f565b34801561071757600080fd5b506105d8611aa3565b34801561072c57600080fd5b506102236004803603604081101561074357600080fd5b81359190810190604081016020820135600160201b81111561076457600080fd5b82018360208201111561077657600080fd5b803590602001918460208302840111600160201b8311171561079757600080fd5b919080806020026020016040519081016040528093929190818152602001838360200280828437600092019190915250929550611ac7945050505050565b3480156107e157600080fd5b50610223600480360360a08110156107f857600080fd5b813591602081013591810190606081016040820135600160201b81111561081e57600080fd5b82018360208201111561083057600080fd5b803590602001918460208302840111600160201b8311171561085157600080fd5b91935091506001600160a01b038135169060200135611af4565b34801561087757600080fd5b506102f1600480360360c081101561088e57600080fd5b506001600160a01b0381358116916020810135916040820135916060810135916080820135169060a00135611c80565b3480156108ca57600080fd5b5061092060048036036101008110156108e257600080fd5b506001600160a01b038135811691602081013582169160408201359160608101359160808201359160a08101359160c0820135169060e00135611d9a565b60408051938452602084019290925282820152519081900360600190f35b610920600480360360c081101561095457600080fd5b506001600160a01b0381358116916020810135916040820135916060810135916080820135169060a00135611ecd565b6000610991848484612160565b949350505050565b60606109c67f00000000000000000000000000000000000000000000000000000000000000008484612238565b90505b92915050565b60008060006109ff7f00000000000000000000000000000000000000000000000000000000000000008f8f612372565b9050600087610a0e578c610a12565b6000195b6040805163d505accf60e01b815233600482015230602482015260448101839052606481018c905260ff8a16608482015260a4810189905260c4810188905290519192506001600160a01b0384169163d505accf9160e48082019260009290919082900301818387803b158015610a8857600080fd5b505af1158015610a9c573d6000803e3d6000fd5b50505050610aaf8f8f8f8f8f8f8f61185f565b809450819550505050509b509b9950505050505050505050565b6000806000610b197f00000000000000000000000000000000000000000000000000000000000000008e7f0000000000000000000000000000000000000000000000000000000000000000612372565b9050600087610b28578c610b2c565b6000195b6040805163d505accf60e01b815233600482015230602482015260448101839052606481018c905260ff8a16608482015260a4810189905260c4810188905290519192506001600160a01b0384169163d505accf9160e48082019260009290919082900301818387803b158015610ba257600080fd5b505af1158015610bb6573d6000803e3d6000fd5b50505050610bc88e8e8e8e8e8e611c80565b909f909e509c50505050505050505050505050565b60608142811015610c23576040805162461bcd60e51b815260206004820152601960248201526000805160206131ee833981519152604482015290519081900360640190fd5b610c817f00000000000000000000000000000000000000000000000000000000000000008988888080602002602001604051908101604052809392919081815260200183836020028082843760009201919091525061242d92505050565b91508682600184510381518110610c9457fe5b60200260200101511015610cd95760405162461bcd60e51b815260040180806020018281038252602c815260200180613362602c913960400191505060405180910390fd5b610d7786866000818110610ce957fe5b905060200201356001600160a01b031633610d5d7f00000000000000000000000000000000000000000000000000000000000000008a8a6000818110610d2b57fe5b905060200201356001600160a01b03168b8b6001818110610d4857fe5b905060200201356001600160a01b0316612372565b85600081518110610d6a57fe5b6020026020010151612551565b610db6828787808060200260200160405190810160405280939291908181526020018383602002808284376000920191909152508992506126ae915050565b509695505050505050565b60608142811015610e07576040805162461bcd60e51b815260206004820152601960248201526000805160206131ee833981519152604482015290519081900360640190fd5b6001600160a01b037f00000000000000000000000000000000000000000000000000000000000000001686866000198101818110610e4157fe5b905060200201356001600160a01b03166001600160a01b031614610e9a576040805162461bcd60e51b815260206004820152601e602482015260008051602061338e833981519152604482015290519081900360640190fd5b610ef87f00000000000000000000000000000000000000000000000000000000000000008988888080602002602001604051908101604052809392919081815260200183836020028082843760009201919091525061242d92505050565b91508682600184510381518110610f0b57fe5b60200260200101511015610f505760405162461bcd60e51b815260040180806020018281038252602c815260200180613362602c913960400191505060405180910390fd5b610f6086866000818110610ce957fe5b610f9f828787808060200260200160405190810160405280939291908181526020018383602002808284376000920191909152503092506126ae915050565b7f00000000000000000000000000000000000000000000000000000000000000006001600160a01b0316632e1a7d4d83600185510381518110610fde57fe5b60200260200101516040518263ffffffff1660e01b815260040180828152602001915050600060405180830381600087803b15801561101c57600080fd5b505af1158015611030573d6000803e3d6000fd5b50505050610db6848360018551038151811061104857fe5b60200260200101516128eb565b6060814281101561109b576040805162461bcd60e51b815260206004820152601960248201526000805160206131ee833981519152604482015290519081900360640190fd5b7f00000000000000000000000000000000000000000000000000000000000000006001600160a01b0316868660008181106110d257fe5b905060200201356001600160a01b03166001600160a01b03161461112b576040805162461bcd60e51b815260206004820152601e602482015260008051602061338e833981519152604482015290519081900360640190fd5b6111897f00000000000000000000000000000000000000000000000000000000000000008888888080602002602001604051908101604052809392919081815260200183836020028082843760009201919091525061223892505050565b9150348260008151811061119957fe5b602002602001015111156111de5760405162461bcd60e51b81526004018080602001828103825260288152602001806133fb6028913960400191505060405180910390fd5b7f00000000000000000000000000000000000000000000000000000000000000006001600160a01b031663d0e30db08360008151811061121a57fe5b60200260200101516040518263ffffffff1660e01b81526004016000604051808303818588803b15801561124d57600080fd5b505af1158015611261573d6000803e3d6000fd5b50505050507f00000000000000000000000000000000000000000000000000000000000000006001600160a01b031663a9059cbb6112e37f0000000000000000000000000000000000000000000000000000000000000000898960008181106112c657fe5b905060200201356001600160a01b03168a8a6001818110610d4857fe5b846000815181106112f057fe5b60200260200101516040518363ffffffff1660e01b815260040180836001600160a01b0316815260200182815260200192505050602060405180830381600087803b15801561133e57600080fd5b505af1158015611352573d6000803e3d6000fd5b505050506040513d602081101561136857600080fd5b505161137057fe5b6113af828787808060200260200160405190810160405280939291908181526020018383602002808284376000920191909152508992506126ae915050565b816000815181106113bc57fe5b60200260200101513411156113eb576113eb33836000815181106113dc57fe5b602002602001015134036128eb565b5095945050505050565b6060814281101561143b576040805162461bcd60e51b815260206004820152601960248201526000805160206131ee833981519152604482015290519081900360640190fd5b6114997f00000000000000000000000000000000000000000000000000000000000000008988888080602002602001604051908101604052809392919081815260200183836020028082843760009201919091525061223892505050565b915086826000815181106114a957fe5b60200260200101511115610cd95760405162461bcd60e51b81526004018080602001828103825260288152602001806133fb6028913960400191505060405180910390fd5b7f000000000000000000000000000000000000000000000000000000000000000081565b60608142811015611558576040805162461bcd60e51b815260206004820152601960248201526000805160206131ee833981519152604482015290519081900360640190fd5b7f00000000000000000000000000000000000000000000000000000000000000006001600160a01b03168686600081811061158f57fe5b905060200201356001600160a01b03166001600160a01b0316146115e8576040805162461bcd60e51b815260206004820152601e602482015260008051602061338e833981519152604482015290519081900360640190fd5b6116467f00000000000000000000000000000000000000000000000000000000000000003488888080602002602001604051908101604052809392919081815260200183836020028082843760009201919091525061242d92505050565b9150868260018451038151811061165957fe5b6020026020010151101561169e5760405162461bcd60e51b815260040180806020018281038252602c815260200180613362602c913960400191505060405180910390fd5b7f00000000000000000000000000000000000000000000000000000000000000006001600160a01b031663d0e30db0836000815181106116da57fe5b60200260200101516040518263ffffffff1660e01b81526004016000604051808303818588803b15801561170d57600080fd5b505af1158015611721573d6000803e3d6000fd5b50505050507f00000000000000000000000000000000000000000000000000000000000000006001600160a01b031663a9059cbb6117867f0000000000000000000000000000000000000000000000000000000000000000898960008181106112c657fe5b8460008151811061179357fe5b60200260200101516040518363ffffffff1660e01b815260040180836001600160a01b0316815260200182815260200192505050602060405180830381600087803b1580156117e157600080fd5b505af11580156117f5573d6000803e3d6000fd5b505050506040513d602081101561180b57600080fd5b505161181357fe5b6113eb828787808060200260200160405190810160405280939291908181526020018383602002808284376000920191909152508992506126ae915050565b60006109918484846129e3565b60008082428110156118a6576040805162461bcd60e51b815260206004820152601960248201526000805160206131ee833981519152604482015290519081900360640190fd5b60006118d37f00000000000000000000000000000000000000000000000000000000000000008c8c612372565b604080516323b872dd60e01b81523360048201526001600160a01b03831660248201819052604482018d9052915192935090916323b872dd916064808201926020929091908290030181600087803b15801561192e57600080fd5b505af1158015611942573d6000803e3d6000fd5b505050506040513d602081101561195857600080fd5b50506040805163226bf2d160e21b81526001600160a01b03888116600483015282516000938493928616926389afcb44926024808301939282900301818787803b1580156119a557600080fd5b505af11580156119b9573d6000803e3d6000fd5b505050506040513d60408110156119cf57600080fd5b508051602090910151909250905060006119e98e8e612a89565b509050806001600160a01b03168e6001600160a01b031614611a0c578183611a0f565b82825b90975095508a871015611a535760405162461bcd60e51b81526004018080602001828103825260278152602001806132996027913960400191505060405180910390fd5b89861015611a925760405162461bcd60e51b81526004018080602001828103825260278152602001806133ae6027913960400191505060405180910390fd5b505050505097509795505050505050565b7f000000000000000000000000000000000000000000000000000000000000000081565b60606109c67f0000000000000000000000000000000000000000000000000000000000000000848461242d565b60608142811015611b3a576040805162461bcd60e51b815260206004820152601960248201526000805160206131ee833981519152604482015290519081900360640190fd5b6001600160a01b037f00000000000000000000000000000000000000000000000000000000000000001686866000198101818110611b7457fe5b905060200201356001600160a01b03166001600160a01b031614611bcd576040805162461bcd60e51b815260206004820152601e602482015260008051602061338e833981519152604482015290519081900360640190fd5b611c2b7f00000000000000000000000000000000000000000000000000000000000000008988888080602002602001604051908101604052809392919081815260200183836020028082843760009201919091525061223892505050565b91508682600081518110611c3b57fe5b60200260200101511115610f505760405162461bcd60e51b81526004018080602001828103825260288152602001806133fb6028913960400191505060405180910390fd5b6000808242811015611cc7576040805162461bcd60e51b815260206004820152601960248201526000805160206131ee833981519152604482015290519081900360640190fd5b611cf6897f00000000000000000000000000000000000000000000000000000000000000008a8a8a308a61185f565b9093509150611d06898685612b67565b7f00000000000000000000000000000000000000000000000000000000000000006001600160a01b0316632e1a7d4d836040518263ffffffff1660e01b815260040180828152602001915050600060405180830381600087803b158015611d6c57600080fd5b505af1158015611d80573d6000803e3d6000fd5b50505050611d8e85836128eb565b50965096945050505050565b60008060008342811015611de3576040805162461bcd60e51b815260206004820152601960248201526000805160206131ee833981519152604482015290519081900360640190fd5b611df18c8c8c8c8c8c612cbb565b90945092506000611e237f00000000000000000000000000000000000000000000000000000000000000008e8e612372565b9050611e318d338388612551565b611e3d8c338387612551565b806001600160a01b0316636a627842886040518263ffffffff1660e01b815260040180826001600160a01b03168152602001915050602060405180830381600087803b158015611e8c57600080fd5b505af1158015611ea0573d6000803e3d6000fd5b505050506040513d6020811015611eb657600080fd5b5051949d939c50939a509198505050505050505050565b60008060008342811015611f16576040805162461bcd60e51b815260206004820152601960248201526000805160206131ee833981519152604482015290519081900360640190fd5b611f448a7f00000000000000000000000000000000000000000000000000000000000000008b348c8c612cbb565b90945092506000611f967f00000000000000000000000000000000000000000000000000000000000000008c7f0000000000000000000000000000000000000000000000000000000000000000612372565b9050611fa48b338388612551565b7f00000000000000000000000000000000000000000000000000000000000000006001600160a01b031663d0e30db0856040518263ffffffff1660e01b81526004016000604051808303818588803b158015611fff57600080fd5b505af1158015612013573d6000803e3d6000fd5b50505050507f00000000000000000000000000000000000000000000000000000000000000006001600160a01b031663a9059cbb82866040518363ffffffff1660e01b815260040180836001600160a01b0316815260200182815260200192505050602060405180830381600087803b15801561208f57600080fd5b505af11580156120a3573d6000803e3d6000fd5b505050506040513d60208110156120b957600080fd5b50516120c157fe5b806001600160a01b0316636a627842886040518263ffffffff1660e01b815260040180826001600160a01b03168152602001915050602060405180830381600087803b15801561211057600080fd5b505af1158015612124573d6000803e3d6000fd5b505050506040513d602081101561213a57600080fd5b505192503484101561215257612152338534036128eb565b505096509650969350505050565b60008084116121a05760405162461bcd60e51b815260040180806020018281038252602c8152602001806132e9602c913960400191505060405180910390fd5b6000831180156121b05750600082115b6121eb5760405162461bcd60e51b81526004018080602001828103825260298152602001806132c06029913960400191505060405180910390fd5b60006121f9856103e5612f4c565b905060006122078285612f4c565b905060006122218361221b886103e8612f4c565b90612faf565b905080828161222c57fe5b04979650505050505050565b606060028251101561227f576040805162461bcd60e51b815260206004820152601f6024820152600080516020613315833981519152604482015290519081900360640190fd5b81516001600160401b038111801561229657600080fd5b506040519080825280602002602001820160405280156122c0578160200160208202803683370190505b50905082816001835103815181106122d457fe5b60209081029190910101528151600019015b801561236a576000806123238786600186038151811061230257fe5b602002602001015187868151811061231657fe5b6020026020010151612ffe565b9150915061234584848151811061233657fe5b602002602001015183836130c5565b84600185038151811061235457fe5b60209081029190910101525050600019016122e6565b509392505050565b60008060006123818585612a89565b604080516001600160601b0319606094851b811660208084019190915293851b81166034830152825160288184030181526048830184528051908501206001600160f81b031960688401529a90941b9093166069840152607d8301989098527fbeeeac8471bcf8a381a08b1f523bc051855c14835f0d5ed2086840e71124a1c6609d808401919091528851808403909101815260bd909201909752805196019590952095945050505050565b6060600282511015612474576040805162461bcd60e51b815260206004820152601f6024820152600080516020613315833981519152604482015290519081900360640190fd5b81516001600160401b038111801561248b57600080fd5b506040519080825280602002602001820160405280156124b5578160200160208202803683370190505b50905082816000815181106124c657fe5b60200260200101818152505060005b600183510381101561236a5760008061250b878685815181106124f457fe5b602002602001015187866001018151811061231657fe5b9150915061252d84848151811061251e57fe5b60200260200101518383612160565b84846001018151811061253c57fe5b602090810291909101015250506001016124d5565b604080516001600160a01b0385811660248301528481166044830152606480830185905283518084039091018152608490920183526020820180516001600160e01b03166323b872dd60e01b17815292518251600094606094938a169392918291908083835b602083106125d65780518252601f1990920191602091820191016125b7565b6001836020036101000a0380198251168184511680821785525050505050509050019150506000604051808303816000865af19150503d8060008114612638576040519150601f19603f3d011682016040523d82523d6000602084013e61263d565b606091505b509150915081801561266b57508051158061266b575080806020019051602081101561266857600080fd5b50515b6126a65760405162461bcd60e51b81526004018080602001828103825260318152602001806132686031913960400191505060405180910390fd5b505050505050565b60005b60018351038110156128e5576000808483815181106126cc57fe5b60200260200101518584600101815181106126e357fe5b60200260200101519150915060006126fb8383612a89565b509050600087856001018151811061270f57fe5b60200260200101519050600080836001600160a01b0316866001600160a01b03161461273d57826000612741565b6000835b91509150600060028a510388106127585788612799565b6127997f0000000000000000000000000000000000000000000000000000000000000000878c8b6002018151811061278c57fe5b6020026020010151612372565b90506127c67f00000000000000000000000000000000000000000000000000000000000000008888612372565b6001600160a01b031663022c0d9f84848460006040519080825280601f01601f191660200182016040528015612803576020820181803683370190505b506040518563ffffffff1660e01b815260040180858152602001848152602001836001600160a01b0316815260200180602001828103825283818151815260200191508051906020019080838360005b8381101561286b578181015183820152602001612853565b50505050905090810190601f1680156128985780820380516001836020036101000a031916815260200191505b5095505050505050600060405180830381600087803b1580156128ba57600080fd5b505af11580156128ce573d6000803e3d6000fd5b5050600190990198506126b1975050505050505050565b50505050565b604080516000808252602082019092526001600160a01b0384169083906040518082805190602001908083835b602083106129375780518252601f199092019160209182019101612918565b6001836020036101000a03801982511681845116808217855250505050505090500191505060006040518083038185875af1925050503d8060008114612999576040519150601f19603f3d011682016040523d82523d6000602084013e61299e565b606091505b50509050806129de5760405162461bcd60e51b815260040180806020018281038252603481526020018061320e6034913960400191505060405180910390fd5b505050565b6000808411612a235760405162461bcd60e51b81526004018080602001828103825260268152602001806133d56026913960400191505060405180910390fd5b600083118015612a335750600082115b612a6e5760405162461bcd60e51b81526004018080602001828103825260298152602001806132c06029913960400191505060405180910390fd5b82612a798584612f4c565b81612a8057fe5b04949350505050565b600080826001600160a01b0316846001600160a01b03161415612add5760405162461bcd60e51b81526004018080602001828103825260268152602001806132426026913960400191505060405180910390fd5b826001600160a01b0316846001600160a01b031610612afd578284612b00565b83835b90925090506001600160a01b038216612b60576040805162461bcd60e51b815260206004820152601f60248201527f506570657377617056324c6962726172793a205a45524f5f4144445245535300604482015290519081900360640190fd5b9250929050565b604080516001600160a01b038481166024830152604480830185905283518084039091018152606490920183526020820180516001600160e01b031663a9059cbb60e01b178152925182516000946060949389169392918291908083835b60208310612be45780518252601f199092019160209182019101612bc5565b6001836020036101000a0380198251168184511680821785525050505050509050019150506000604051808303816000865af19150503d8060008114612c46576040519150601f19603f3d011682016040523d82523d6000602084013e612c4b565b606091505b5091509150818015612c79575080511580612c795750808060200190516020811015612c7657600080fd5b50515b612cb45760405162461bcd60e51b815260040180806020018281038252602d815260200180613423602d913960400191505060405180910390fd5b5050505050565b60008060006001600160a01b03167f00000000000000000000000000000000000000000000000000000000000000006001600160a01b031663e6a439058a8a6040518363ffffffff1660e01b815260040180836001600160a01b03168152602001826001600160a01b031681526020019250505060206040518083038186803b158015612d4757600080fd5b505afa158015612d5b573d6000803e3d6000fd5b505050506040513d6020811015612d7157600080fd5b50516001600160a01b03161415612e2f577f00000000000000000000000000000000000000000000000000000000000000006001600160a01b031663c9c6539689896040518363ffffffff1660e01b815260040180836001600160a01b03168152602001826001600160a01b0316815260200192505050602060405180830381600087803b158015612e0257600080fd5b505af1158015612e16573d6000803e3d6000fd5b505050506040513d6020811015612e2c57600080fd5b50505b600080612e5d7f00000000000000000000000000000000000000000000000000000000000000008b8b612ffe565b91509150816000148015612e6f575080155b15612e7f57879350869250612f3f565b6000612e8c8984846129e3565b9050878111612edf5785811015612ed45760405162461bcd60e51b81526004018080602001828103825260278152602001806133ae6027913960400191505060405180910390fd5b889450925082612f3d565b6000612eec8984866129e3565b905089811115612ef857fe5b87811015612f375760405162461bcd60e51b81526004018080602001828103825260278152602001806132996027913960400191505060405180910390fd5b94508793505b505b5050965096945050505050565b6000811580612f6757505080820282828281612f6457fe5b04145b6109c9576040805162461bcd60e51b815260206004820152601460248201527364732d6d6174682d6d756c2d6f766572666c6f7760601b604482015290519081900360640190fd5b808201828110156109c9576040805162461bcd60e51b815260206004820152601460248201527364732d6d6174682d6164642d6f766572666c6f7760601b604482015290519081900360640190fd5b600080600061300d8585612a89565b50905060008061301e888888612372565b6001600160a01b0316630902f1ac6040518163ffffffff1660e01b815260040160606040518083038186803b15801561305657600080fd5b505afa15801561306a573d6000803e3d6000fd5b505050506040513d606081101561308057600080fd5b5080516020909101516001600160701b0391821693501690506001600160a01b03878116908416146130b35780826130b6565b81815b90999098509650505050505050565b60008084116131055760405162461bcd60e51b815260040180806020018281038252602d815260200180613335602d913960400191505060405180910390fd5b6000831180156131155750600082115b6131505760405162461bcd60e51b81526004018080602001828103825260298152602001806132c06029913960400191505060405180910390fd5b60006131686103e86131628688612f4c565b90612f4c565b9050600061317c6103e5613162868961319d565b9050613193600182848161318c57fe5b0490612faf565b9695505050505050565b808203828111156109c9576040805162461bcd60e51b815260206004820152601560248201527464732d6d6174682d7375622d756e646572666c6f7760581b604482015290519081900360640190fdfe50657065737761705632526f757465723a2045585049524544000000000000005472616e7366657248656c7065723a3a736166655472616e73666572424e423a20424e42207472616e73666572206661696c6564506570657377617056324c6962726172793a204944454e544943414c5f4144445245535345535472616e7366657248656c7065723a3a7472616e7366657246726f6d3a207472616e7366657246726f6d206661696c656450657065737761705632526f757465723a20494e53554646494349454e545f415f414d4f554e54506570657377617056324c6962726172793a20494e53554646494349454e545f4c4951554944495459506570657377617056324c6962726172793a20494e53554646494349454e545f494e5055545f414d4f554e54506570657377617056324c6962726172793a20494e56414c49445f5041544800506570657377617056324c6962726172793a20494e53554646494349454e545f4f55545055545f414d4f554e5450657065737761705632526f757465723a20494e53554646494349454e545f4f55545055545f414d4f554e5450657065737761705632526f757465723a20494e56414c49445f50415448000050657065737761705632526f757465723a20494e53554646494349454e545f425f414d4f554e54506570657377617056324c6962726172793a20494e53554646494349454e545f414d4f554e5450657065737761705632526f757465723a204558434553534956455f494e5055545f414d4f554e545472616e7366657248656c7065723a3a736166655472616e736665723a207472616e73666572206661696c6564a2646970667358221220058fc8f0d7682edeec1b8ae3ef7536da04c6b50de10ee96bd9d6e80601e7bb9d64736f6c634300060c0033",
  "immutableReferences": {
    "215": [
      {
        "length": 32,
        "start": 2464
      },
      {
        "length": 32,
        "start": 2521
      },
      {
        "length": 32,
        "start": 2771
      },
      {
        "length": 32,
        "start": 3112
      },
      {
        "length": 32,
        "start": 3327
      },
      {
        "length": 32,
        "start": 3743
      },
      {
        "length": 32,
        "start": 4400
      },
      {
        "length": 32,
        "start": 4762
      },
      {
        "length": 32,
        "start": 5184
      },
      {
        "length": 32,
        "start": 5613
      },
      {
        "length": 32,
        "start": 5978
      },
      {
        "length": 32,
        "start": 6317
      },
      {
        "length": 32,
        "start": 6821
      },
      {
        "length": 32,
        "start": 6862
      },
      {
        "length": 32,
        "start": 7122
      },
      {
        "length": 32,
        "start": 7677
      },
      {
        "length": 32,
        "start": 8016
      },
      {
        "length": 32,
        "start": 10077
      },
      {
        "length": 32,
        "start": 10144
      },
      {
        "length": 32,
        "start": 11467
      },
      {
        "length": 32,
        "start": 11652
      },
      {
        "length": 32,
        "start": 11831
      }
    ],
    "218": [
      {
        "length": 32,
        "start": 248
      },
      {
        "length": 32,
        "start": 2805
      },
      {
        "length": 32,
        "start": 3601
      },
      {
        "length": 32,
        "start": 4001
      },
      {
        "length": 32,
        "start": 4253
      },
      {
        "length": 32,
        "start": 4576
      },
      {
        "length": 32,
        "start": 4712
      },
      {
        "length": 32,
        "start": 5360
      },
      {
        "length": 32,
        "start": 5466
      },
      {
        "length": 32,
        "start": 5792
      },
      {
        "length": 32,
        "start": 5928
      },
      {
        "length": 32,
        "start": 6980
      },
      {
        "length": 32,
        "start": 7373
      },
      {
        "length": 32,
        "start": 7432
      },
      {
        "length": 32,
        "start": 7964
      },
      {
        "length": 32,
        "start": 8050
      },
      {
        "length": 32,
        "start": 8102
      },
      {
        "length": 32,
        "start": 8218
      }
    ]
  },
  "source": "pragma solidity =0.6.12;\n\nimport '@uniswap/v2-core/contracts/interfaces/IUniswapV2Factory.sol';\nimport '@uniswap/lib/contracts/libraries/TransferHelper.sol';\n\nimport './libraries/PepeswapV2Library.sol';\nimport './interfaces/IPepeswapV2Router01.sol';\nimport './interfaces/IBEP20.sol';\nimport './interfaces/IWBNB.sol';\n\ncontract PepeswapV2Router01 is IPepeswapV2Router01 {\n    address public immutable override factory;\n    address public immutable override WBNB;\n\n    modifier ensure(uint deadline) {\n        require(deadline >= block.timestamp, 'PepeswapV2Router: EXPIRED');\n        _;\n    }\n\n    constructor(address _factory, address _WBNB) public {\n        factory = _factory;\n        WBNB = _WBNB;\n    }\n\n    receive() external payable {\n        assert(msg.sender == WBNB); // only accept BNB via fallback from the WBNB contract\n    }\n\n    // **** ADD LIQUIDITY ****\n    function _addLiquidity(\n        address tokenA,\n        address tokenB,\n        uint amountADesired,\n        uint amountBDesired,\n        uint amountAMin,\n        uint amountBMin\n    ) private returns (uint amountA, uint amountB) {\n        // create the pair if it doesn't exist yet\n        if (IUniswapV2Factory(factory).getPair(tokenA, tokenB) == address(0)) {\n            IUniswapV2Factory(factory).createPair(tokenA, tokenB);\n        }\n        (uint reserveA, uint reserveB) = PepeswapV2Library.getReserves(factory, tokenA, tokenB);\n        if (reserveA == 0 && reserveB == 0) {\n            (amountA, amountB) = (amountADesired, amountBDesired);\n        } else {\n            uint amountBOptimal = PepeswapV2Library.quote(amountADesired, reserveA, reserveB);\n            if (amountBOptimal <= amountBDesired) {\n                require(amountBOptimal >= amountBMin, 'PepeswapV2Router: INSUFFICIENT_B_AMOUNT');\n                (amountA, amountB) = (amountADesired, amountBOptimal);\n            } else {\n                uint amountAOptimal = PepeswapV2Library.quote(amountBDesired, reserveB, reserveA);\n                assert(amountAOptimal <= amountADesired);\n                require(amountAOptimal >= amountAMin, 'PepeswapV2Router: INSUFFICIENT_A_AMOUNT');\n                (amountA, amountB) = (amountAOptimal, amountBDesired);\n            }\n        }\n    }\n    function addLiquidity(\n        address tokenA,\n        address tokenB,\n        uint amountADesired,\n        uint amountBDesired,\n        uint amountAMin,\n        uint amountBMin,\n        address to,\n        uint deadline\n    ) external override ensure(deadline) returns (uint amountA, uint amountB, uint liquidity) {\n        (amountA, amountB) = _addLiquidity(tokenA, tokenB, amountADesired, amountBDesired, amountAMin, amountBMin);\n        address pair = PepeswapV2Library.pairFor(factory, tokenA, tokenB);\n        TransferHelper.safeTransferFrom(tokenA, msg.sender, pair, amountA);\n        TransferHelper.safeTransferFrom(tokenB, msg.sender, pair, amountB);\n        liquidity = IUniswapV2Pair(pair).mint(to);\n    }\n    function addLiquidityBNB(\n        address token,\n        uint amountTokenDesired,\n        uint amountTokenMin,\n        uint amountBNBMin,\n        address to,\n        uint deadline\n    ) external override payable ensure(deadline) returns (uint amountToken, uint amountBNB, uint liquidity) {\n        (amountToken, amountBNB) = _addLiquidity(\n            token,\n            WBNB,\n            amountTokenDesired,\n            msg.value,\n            amountTokenMin,\n            amountBNBMin\n        );\n        address pair = PepeswapV2Library.pairFor(factory, token, WBNB);\n        TransferHelper.safeTransferFrom(token, msg.sender, pair, amountToken);\n        IWBNB(WBNB).deposit{value: amountBNB}();\n        assert(IWBNB(WBNB).transfer(pair, amountBNB));\n        liquidity = IUniswapV2Pair(pair).mint(to);\n        if (msg.value > amountBNB) TransferHelper.safeTransferBNB(msg.sender, msg.value - amountBNB); // refund dust BNB, if any\n    }\n\n    // **** REMOVE LIQUIDITY ****\n    function removeLiquidity(\n        address tokenA,\n        address tokenB,\n        uint liquidity,\n        uint amountAMin,\n        uint amountBMin,\n        address to,\n        uint deadline\n    ) public override ensure(deadline) returns (uint amountA, uint amountB) {\n        address pair = PepeswapV2Library.pairFor(factory, tokenA, tokenB);\n        IUniswapV2Pair(pair).transferFrom(msg.sender, pair, liquidity); // send liquidity to pair\n        (uint amount0, uint amount1) = IUniswapV2Pair(pair).burn(to);\n        (address token0,) = PepeswapV2Library.sortTokens(tokenA, tokenB);\n        (amountA, amountB) = tokenA == token0 ? (amount0, amount1) : (amount1, amount0);\n        require(amountA >= amountAMin, 'PepeswapV2Router: INSUFFICIENT_A_AMOUNT');\n        require(amountB >= amountBMin, 'PepeswapV2Router: INSUFFICIENT_B_AMOUNT');\n    }\n    function removeLiquidityBNB(\n        address token,\n        uint liquidity,\n        uint amountTokenMin,\n        uint amountBNBMin,\n        address to,\n        uint deadline\n    ) public override ensure(deadline) returns (uint amountToken, uint amountBNB) {\n        (amountToken, amountBNB) = removeLiquidity(\n            token,\n            WBNB,\n            liquidity,\n            amountTokenMin,\n            amountBNBMin,\n            address(this),\n            deadline\n        );\n        TransferHelper.safeTransfer(token, to, amountToken);\n        IWBNB(WBNB).withdraw(amountBNB);\n        TransferHelper.safeTransferBNB(to, amountBNB);\n    }\n    function removeLiquidityWithPermit(\n        address tokenA,\n        address tokenB,\n        uint liquidity,\n        uint amountAMin,\n        uint amountBMin,\n        address to,\n        uint deadline,\n        bool approveMax, uint8 v, bytes32 r, bytes32 s\n    ) external override returns (uint amountA, uint amountB) {\n        address pair = PepeswapV2Library.pairFor(factory, tokenA, tokenB);\n        uint value = approveMax ? uint(-1) : liquidity;\n        IUniswapV2Pair(pair).permit(msg.sender, address(this), value, deadline, v, r, s);\n        (amountA, amountB) = removeLiquidity(tokenA, tokenB, liquidity, amountAMin, amountBMin, to, deadline);\n    }\n    function removeLiquidityBNBWithPermit(\n        address token,\n        uint liquidity,\n        uint amountTokenMin,\n        uint amountBNBMin,\n        address to,\n        uint deadline,\n        bool approveMax, uint8 v, bytes32 r, bytes32 s\n    ) external override returns (uint amountToken, uint amountBNB) {\n        address pair = PepeswapV2Library.pairFor(factory, token, WBNB);\n        uint value = approveMax ? uint(-1) : liquidity;\n        IUniswapV2Pair(pair).permit(msg.sender, address(this), value, deadline, v, r, s);\n        (amountToken, amountBNB) = removeLiquidityBNB(token, liquidity, amountTokenMin, amountBNBMin, to, deadline);\n    }\n\n    // **** SWAP ****\n    // requires the initial amount to have already been sent to the first pair\n    function _swap(uint[] memory amounts, address[] memory path, address _to) private {\n        for (uint i; i < path.length - 1; i++) {\n            (address input, address output) = (path[i], path[i + 1]);\n            (address token0,) = PepeswapV2Library.sortTokens(input, output);\n            uint amountOut = amounts[i + 1];\n            (uint amount0Out, uint amount1Out) = input == token0 ? (uint(0), amountOut) : (amountOut, uint(0));\n            address to = i < path.length - 2 ? PepeswapV2Library.pairFor(factory, output, path[i + 2]) : _to;\n            IUniswapV2Pair(PepeswapV2Library.pairFor(factory, input, output)).swap(amount0Out, amount1Out, to, new bytes(0));\n        }\n    }\n    function swapExactTokensForTokens(\n        uint amountIn,\n        uint amountOutMin,\n        address[] calldata path,\n        address to,\n        uint deadline\n    ) external override ensure(deadline) returns (uint[] memory amounts) {\n        amounts = PepeswapV2Library.getAmountsOut(factory, amountIn, path);\n        require(amounts[amounts.length - 1] >= amountOutMin, 'PepeswapV2Router: INSUFFICIENT_OUTPUT_AMOUNT');\n        TransferHelper.safeTransferFrom(path[0], msg.sender, PepeswapV2Library.pairFor(factory, path[0], path[1]), amounts[0]);\n        _swap(amounts, path, to);\n    }\n    function swapTokensForExactTokens(\n        uint amountOut,\n        uint amountInMax,\n        address[] calldata path,\n        address to,\n        uint deadline\n    ) external override ensure(deadline) returns (uint[] memory amounts) {\n        amounts = PepeswapV2Library.getAmountsIn(factory, amountOut, path);\n        require(amounts[0] <= amountInMax, 'PepeswapV2Router: EXCESSIVE_INPUT_AMOUNT');\n        TransferHelper.safeTransferFrom(path[0], msg.sender, PepeswapV2Library.pairFor(factory, path[0], path[1]), amounts[0]);\n        _swap(amounts, path, to);\n    }\n    function swapExactBNBForTokens(uint amountOutMin, address[] calldata path, address to, uint deadline)\n        external\n        override\n        payable\n        ensure(deadline)\n        returns (uint[] memory amounts)\n    {\n        require(path[0] == WBNB, 'PepeswapV2Router: INVALID_PATH');\n        amounts = PepeswapV2Library.getAmountsOut(factory, msg.value, path);\n        require(amounts[amounts.length - 1] >= amountOutMin, 'PepeswapV2Router: INSUFFICIENT_OUTPUT_AMOUNT');\n        IWBNB(WBNB).deposit{value: amounts[0]}();\n        assert(IWBNB(WBNB).transfer(PepeswapV2Library.pairFor(factory, path[0], path[1]), amounts[0]));\n        _swap(amounts, path, to);\n    }\n    function swapTokensForExactBNB(uint amountOut, uint amountInMax, address[] calldata path, address to, uint deadline)\n        external\n        override\n        ensure(deadline)\n        returns (uint[] memory amounts)\n    {\n        require(path[path.length - 1] == WBNB, 'PepeswapV2Router: INVALID_PATH');\n        amounts = PepeswapV2Library.getAmountsIn(factory, amountOut, path);\n        require(amounts[0] <= amountInMax, 'PepeswapV2Router: EXCESSIVE_INPUT_AMOUNT');\n        TransferHelper.safeTransferFrom(path[0], msg.sender, PepeswapV2Library.pairFor(factory, path[0], path[1]), amounts[0]);\n        _swap(amounts, path, address(this));\n        IWBNB(WBNB).withdraw(amounts[amounts.length - 1]);\n        TransferHelper.safeTransferBNB(to, amounts[amounts.length - 1]);\n    }\n    function swapExactTokensForBNB(uint amountIn, uint amountOutMin, address[] calldata path, address to, uint deadline)\n        external\n        override\n        ensure(deadline)\n        returns (uint[] memory amounts)\n    {\n        require(path[path.length - 1] == WBNB, 'PepeswapV2Router: INVALID_PATH');\n        amounts = PepeswapV2Library.getAmountsOut(factory, amountIn, path);\n        require(amounts[amounts.length - 1] >= amountOutMin, 'PepeswapV2Router: INSUFFICIENT_OUTPUT_AMOUNT');\n        TransferHelper.safeTransferFrom(path[0], msg.sender, PepeswapV2Library.pairFor(factory, path[0], path[1]), amounts[0]);\n        _swap(amounts, path, address(this));\n        IWBNB(WBNB).withdraw(amounts[amounts.length - 1]);\n        TransferHelper.safeTransferBNB(to, amounts[amounts.length - 1]);\n    }\n    function swapBNBForExactTokens(uint amountOut, address[] calldata path, address to, uint deadline)\n        external\n        override\n        payable\n        ensure(deadline)\n        returns (uint[] memory amounts)\n    {\n        require(path[0] == WBNB, 'PepeswapV2Router: INVALID_PATH');\n        amounts = PepeswapV2Library.getAmountsIn(factory, amountOut, path);\n        require(amounts[0] <= msg.value, 'PepeswapV2Router: EXCESSIVE_INPUT_AMOUNT');\n        IWBNB(WBNB).deposit{value: amounts[0]}();\n        assert(IWBNB(WBNB).transfer(PepeswapV2Library.pairFor(factory, path[0], path[1]), amounts[0]));\n        _swap(amounts, path, to);\n        if (msg.value > amounts[0]) TransferHelper.safeTransferBNB(msg.sender, msg.value - amounts[0]); // refund dust BNB, if any\n    }\n\n    function quote(uint amountA, uint reserveA, uint reserveB) public pure override returns (uint amountB) {\n        return PepeswapV2Library.quote(amountA, reserveA, reserveB);\n    }\n\n    function getAmountOut(uint amountIn, uint reserveIn, uint reserveOut) public pure override returns (uint amountOut) {\n        return PepeswapV2Library.getAmountOut(amountIn, reserveIn, reserveOut);\n    }\n\n    function getAmountIn(uint amountOut, uint reserveIn, uint reserveOut) public pure override returns (uint amountIn) {\n        return PepeswapV2Library.getAmountOut(amountOut, reserveIn, reserveOut);\n    }\n\n    function getAmountsOut(uint amountIn, address[] memory path) public view override returns (uint[] memory amounts) {\n        return PepeswapV2Library.getAmountsOut(factory, amountIn, path);\n    }\n\n    function getAmountsIn(uint amountOut, address[] memory path) public view override returns (uint[] memory amounts) {\n        return PepeswapV2Library.getAmountsIn(factory, amountOut, path);\n    }\n}\n",
  "sourcePath": "/Users/blockchaindev/Documents/pepeswap-periphery/contracts/PepeswapV2Router01.sol",
  "compiler": {
    "name": "solc",
    "version": "0.6.12+commit.27d51765.Emscripten.clang"
  },
  "schemaVersion": "3.4.1",
  "updatedAt": "2021-07-01T01:53:34.930Z",
  "devdoc": {
    "kind": "dev",
    "methods": {},
    "version": 1
  },
  "userdoc": {
    "kind": "user",
    "methods": {},
    "version": 1
  }
}