{
  "contractName": "PepeswapV2Router02",
  "abi": [
    {
      "inputs": [
        {
          "internalType": "address",
          "name": "_factory",
          "type": "address"
        },
        {
          "internalType": "address",
          "name": "_WBNB",
          "type": "address"
        }
      ],
      "stateMutability": "nonpayable",
      "type": "constructor"
    },
    {
      "inputs": [],
      "name": "WBNB",
      "outputs": [
        {
          "internalType": "address",
          "name": "",
          "type": "address"
        }
      ],
      "stateMutability": "view",
      "type": "function"
    },
    {
      "inputs": [],
      "name": "factory",
      "outputs": [
        {
          "internalType": "address",
          "name": "",
          "type": "address"
        }
      ],
      "stateMutability": "view",
      "type": "function"
    },
    {
      "stateMutability": "payable",
      "type": "receive"
    },
    {
      "inputs": [
        {
          "internalType": "address",
          "name": "tokenA",
          "type": "address"
        },
        {
          "internalType": "address",
          "name": "tokenB",
          "type": "address"
        },
        {
          "internalType": "uint256",
          "name": "amountADesired",
          "type": "uint256"
        },
        {
          "internalType": "uint256",
          "name": "amountBDesired",
          "type": "uint256"
        },
        {
          "internalType": "uint256",
          "name": "amountAMin",
          "type": "uint256"
        },
        {
          "internalType": "uint256",
          "name": "amountBMin",
          "type": "uint256"
        },
        {
          "internalType": "address",
          "name": "to",
          "type": "address"
        },
        {
          "internalType": "uint256",
          "name": "deadline",
          "type": "uint256"
        }
      ],
      "name": "addLiquidity",
      "outputs": [
        {
          "internalType": "uint256",
          "name": "amountA",
          "type": "uint256"
        },
        {
          "internalType": "uint256",
          "name": "amountB",
          "type": "uint256"
        },
        {
          "internalType": "uint256",
          "name": "liquidity",
          "type": "uint256"
        }
      ],
      "stateMutability": "nonpayable",
      "type": "function"
    },
    {
      "inputs": [
        {
          "internalType": "address",
          "name": "token",
          "type": "address"
        },
        {
          "internalType": "uint256",
          "name": "amountTokenDesired",
          "type": "uint256"
        },
        {
          "internalType": "uint256",
          "name": "amountTokenMin",
          "type": "uint256"
        },
        {
          "internalType": "uint256",
          "name": "amountBNBMin",
          "type": "uint256"
        },
        {
          "internalType": "address",
          "name": "to",
          "type": "address"
        },
        {
          "internalType": "uint256",
          "name": "deadline",
          "type": "uint256"
        }
      ],
      "name": "addLiquidityBNB",
      "outputs": [
        {
          "internalType": "uint256",
          "name": "amountToken",
          "type": "uint256"
        },
        {
          "internalType": "uint256",
          "name": "amountBNB",
          "type": "uint256"
        },
        {
          "internalType": "uint256",
          "name": "liquidity",
          "type": "uint256"
        }
      ],
      "stateMutability": "payable",
      "type": "function"
    },
    {
      "inputs": [
        {
          "internalType": "address",
          "name": "tokenA",
          "type": "address"
        },
        {
          "internalType": "address",
          "name": "tokenB",
          "type": "address"
        },
        {
          "internalType": "uint256",
          "name": "liquidity",
          "type": "uint256"
        },
        {
          "internalType": "uint256",
          "name": "amountAMin",
          "type": "uint256"
        },
        {
          "internalType": "uint256",
          "name": "amountBMin",
          "type": "uint256"
        },
        {
          "internalType": "address",
          "name": "to",
          "type": "address"
        },
        {
          "internalType": "uint256",
          "name": "deadline",
          "type": "uint256"
        }
      ],
      "name": "removeLiquidity",
      "outputs": [
        {
          "internalType": "uint256",
          "name": "amountA",
          "type": "uint256"
        },
        {
          "internalType": "uint256",
          "name": "amountB",
          "type": "uint256"
        }
      ],
      "stateMutability": "nonpayable",
      "type": "function"
    },
    {
      "inputs": [
        {
          "internalType": "address",
          "name": "token",
          "type": "address"
        },
        {
          "internalType": "uint256",
          "name": "liquidity",
          "type": "uint256"
        },
        {
          "internalType": "uint256",
          "name": "amountTokenMin",
          "type": "uint256"
        },
        {
          "internalType": "uint256",
          "name": "amountBNBMin",
          "type": "uint256"
        },
        {
          "internalType": "address",
          "name": "to",
          "type": "address"
        },
        {
          "internalType": "uint256",
          "name": "deadline",
          "type": "uint256"
        }
      ],
      "name": "removeLiquidityBNB",
      "outputs": [
        {
          "internalType": "uint256",
          "name": "amountToken",
          "type": "uint256"
        },
        {
          "internalType": "uint256",
          "name": "amountBNB",
          "type": "uint256"
        }
      ],
      "stateMutability": "nonpayable",
      "type": "function"
    },
    {
      "inputs": [
        {
          "internalType": "address",
          "name": "tokenA",
          "type": "address"
        },
        {
          "internalType": "address",
          "name": "tokenB",
          "type": "address"
        },
        {
          "internalType": "uint256",
          "name": "liquidity",
          "type": "uint256"
        },
        {
          "internalType": "uint256",
          "name": "amountAMin",
          "type": "uint256"
        },
        {
          "internalType": "uint256",
          "name": "amountBMin",
          "type": "uint256"
        },
        {
          "internalType": "address",
          "name": "to",
          "type": "address"
        },
        {
          "internalType": "uint256",
          "name": "deadline",
          "type": "uint256"
        },
        {
          "internalType": "bool",
          "name": "approveMax",
          "type": "bool"
        },
        {
          "internalType": "uint8",
          "name": "v",
          "type": "uint8"
        },
        {
          "internalType": "bytes32",
          "name": "r",
          "type": "bytes32"
        },
        {
          "internalType": "bytes32",
          "name": "s",
          "type": "bytes32"
        }
      ],
      "name": "removeLiquidityWithPermit",
      "outputs": [
        {
          "internalType": "uint256",
          "name": "amountA",
          "type": "uint256"
        },
        {
          "internalType": "uint256",
          "name": "amountB",
          "type": "uint256"
        }
      ],
      "stateMutability": "nonpayable",
      "type": "function"
    },
    {
      "inputs": [
        {
          "internalType": "address",
          "name": "token",
          "type": "address"
        },
        {
          "internalType": "uint256",
          "name": "liquidity",
          "type": "uint256"
        },
        {
          "internalType": "uint256",
          "name": "amountTokenMin",
          "type": "uint256"
        },
        {
          "internalType": "uint256",
          "name": "amountBNBMin",
          "type": "uint256"
        },
        {
          "internalType": "address",
          "name": "to",
          "type": "address"
        },
        {
          "internalType": "uint256",
          "name": "deadline",
          "type": "uint256"
        },
        {
          "internalType": "bool",
          "name": "approveMax",
          "type": "bool"
        },
        {
          "internalType": "uint8",
          "name": "v",
          "type": "uint8"
        },
        {
          "internalType": "bytes32",
          "name": "r",
          "type": "bytes32"
        },
        {
          "internalType": "bytes32",
          "name": "s",
          "type": "bytes32"
        }
      ],
      "name": "removeLiquidityBNBWithPermit",
      "outputs": [
        {
          "internalType": "uint256",
          "name": "amountToken",
          "type": "uint256"
        },
        {
          "internalType": "uint256",
          "name": "amountBNB",
          "type": "uint256"
        }
      ],
      "stateMutability": "nonpayable",
      "type": "function"
    },
    {
      "inputs": [
        {
          "internalType": "address",
          "name": "token",
          "type": "address"
        },
        {
          "internalType": "uint256",
          "name": "liquidity",
          "type": "uint256"
        },
        {
          "internalType": "uint256",
          "name": "amountTokenMin",
          "type": "uint256"
        },
        {
          "internalType": "uint256",
          "name": "amountBNBMin",
          "type": "uint256"
        },
        {
          "internalType": "address",
          "name": "to",
          "type": "address"
        },
        {
          "internalType": "uint256",
          "name": "deadline",
          "type": "uint256"
        }
      ],
      "name": "removeLiquidityBNBSupportingFeeOnTransferTokens",
      "outputs": [
        {
          "internalType": "uint256",
          "name": "amountBNB",
          "type": "uint256"
        }
      ],
      "stateMutability": "nonpayable",
      "type": "function"
    },
    {
      "inputs": [
        {
          "internalType": "address",
          "name": "token",
          "type": "address"
        },
        {
          "internalType": "uint256",
          "name": "liquidity",
          "type": "uint256"
        },
        {
          "internalType": "uint256",
          "name": "amountTokenMin",
          "type": "uint256"
        },
        {
          "internalType": "uint256",
          "name": "amountBNBMin",
          "type": "uint256"
        },
        {
          "internalType": "address",
          "name": "to",
          "type": "address"
        },
        {
          "internalType": "uint256",
          "name": "deadline",
          "type": "uint256"
        },
        {
          "internalType": "bool",
          "name": "approveMax",
          "type": "bool"
        },
        {
          "internalType": "uint8",
          "name": "v",
          "type": "uint8"
        },
        {
          "internalType": "bytes32",
          "name": "r",
          "type": "bytes32"
        },
        {
          "internalType": "bytes32",
          "name": "s",
          "type": "bytes32"
        }
      ],
      "name": "removeLiquidityBNBWithPermitSupportingFeeOnTransferTokens",
      "outputs": [
        {
          "internalType": "uint256",
          "name": "amountBNB",
          "type": "uint256"
        }
      ],
      "stateMutability": "nonpayable",
      "type": "function"
    },
    {
      "inputs": [
        {
          "internalType": "uint256",
          "name": "amountIn",
          "type": "uint256"
        },
        {
          "internalType": "uint256",
          "name": "amountOutMin",
          "type": "uint256"
        },
        {
          "internalType": "address[]",
          "name": "path",
          "type": "address[]"
        },
        {
          "internalType": "address",
          "name": "to",
          "type": "address"
        },
        {
          "internalType": "uint256",
          "name": "deadline",
          "type": "uint256"
        }
      ],
      "name": "swapExactTokensForTokens",
      "outputs": [
        {
          "internalType": "uint256[]",
          "name": "amounts",
          "type": "uint256[]"
        }
      ],
      "stateMutability": "nonpayable",
      "type": "function"
    },
    {
      "inputs": [
        {
          "internalType": "uint256",
          "name": "amountOut",
          "type": "uint256"
        },
        {
          "internalType": "uint256",
          "name": "amountInMax",
          "type": "uint256"
        },
        {
          "internalType": "address[]",
          "name": "path",
          "type": "address[]"
        },
        {
          "internalType": "address",
          "name": "to",
          "type": "address"
        },
        {
          "internalType": "uint256",
          "name": "deadline",
          "type": "uint256"
        }
      ],
      "name": "swapTokensForExactTokens",
      "outputs": [
        {
          "internalType": "uint256[]",
          "name": "amounts",
          "type": "uint256[]"
        }
      ],
      "stateMutability": "nonpayable",
      "type": "function"
    },
    {
      "inputs": [
        {
          "internalType": "uint256",
          "name": "amountOutMin",
          "type": "uint256"
        },
        {
          "internalType": "address[]",
          "name": "path",
          "type": "address[]"
        },
        {
          "internalType": "address",
          "name": "to",
          "type": "address"
        },
        {
          "internalType": "uint256",
          "name": "deadline",
          "type": "uint256"
        }
      ],
      "name": "swapExactBNBForTokens",
      "outputs": [
        {
          "internalType": "uint256[]",
          "name": "amounts",
          "type": "uint256[]"
        }
      ],
      "stateMutability": "payable",
      "type": "function"
    },
    {
      "inputs": [
        {
          "internalType": "uint256",
          "name": "amountOut",
          "type": "uint256"
        },
        {
          "internalType": "uint256",
          "name": "amountInMax",
          "type": "uint256"
        },
        {
          "internalType": "address[]",
          "name": "path",
          "type": "address[]"
        },
        {
          "internalType": "address",
          "name": "to",
          "type": "address"
        },
        {
          "internalType": "uint256",
          "name": "deadline",
          "type": "uint256"
        }
      ],
      "name": "swapTokensForExactBNB",
      "outputs": [
        {
          "internalType": "uint256[]",
          "name": "amounts",
          "type": "uint256[]"
        }
      ],
      "stateMutability": "nonpayable",
      "type": "function"
    },
    {
      "inputs": [
        {
          "internalType": "uint256",
          "name": "amountIn",
          "type": "uint256"
        },
        {
          "internalType": "uint256",
          "name": "amountOutMin",
          "type": "uint256"
        },
        {
          "internalType": "address[]",
          "name": "path",
          "type": "address[]"
        },
        {
          "internalType": "address",
          "name": "to",
          "type": "address"
        },
        {
          "internalType": "uint256",
          "name": "deadline",
          "type": "uint256"
        }
      ],
      "name": "swapExactTokensForBNB",
      "outputs": [
        {
          "internalType": "uint256[]",
          "name": "amounts",
          "type": "uint256[]"
        }
      ],
      "stateMutability": "nonpayable",
      "type": "function"
    },
    {
      "inputs": [
        {
          "internalType": "uint256",
          "name": "amountOut",
          "type": "uint256"
        },
        {
          "internalType": "address[]",
          "name": "path",
          "type": "address[]"
        },
        {
          "internalType": "address",
          "name": "to",
          "type": "address"
        },
        {
          "internalType": "uint256",
          "name": "deadline",
          "type": "uint256"
        }
      ],
      "name": "swapBNBForExactTokens",
      "outputs": [
        {
          "internalType": "uint256[]",
          "name": "amounts",
          "type": "uint256[]"
        }
      ],
      "stateMutability": "payable",
      "type": "function"
    },
    {
      "inputs": [
        {
          "internalType": "uint256",
          "name": "amountIn",
          "type": "uint256"
        },
        {
          "internalType": "uint256",
          "name": "amountOutMin",
          "type": "uint256"
        },
        {
          "internalType": "address[]",
          "name": "path",
          "type": "address[]"
        },
        {
          "internalType": "address",
          "name": "to",
          "type": "address"
        },
        {
          "internalType": "uint256",
          "name": "deadline",
          "type": "uint256"
        }
      ],
      "name": "swapExactTokensForTokensSupportingFeeOnTransferTokens",
      "outputs": [],
      "stateMutability": "nonpayable",
      "type": "function"
    },
    {
      "inputs": [
        {
          "internalType": "uint256",
          "name": "amountOutMin",
          "type": "uint256"
        },
        {
          "internalType": "address[]",
          "name": "path",
          "type": "address[]"
        },
        {
          "internalType": "address",
          "name": "to",
          "type": "address"
        },
        {
          "internalType": "uint256",
          "name": "deadline",
          "type": "uint256"
        }
      ],
      "name": "swapExactBNBForTokensSupportingFeeOnTransferTokens",
      "outputs": [],
      "stateMutability": "payable",
      "type": "function"
    },
    {
      "inputs": [
        {
          "internalType": "uint256",
          "name": "amountIn",
          "type": "uint256"
        },
        {
          "internalType": "uint256",
          "name": "amountOutMin",
          "type": "uint256"
        },
        {
          "internalType": "address[]",
          "name": "path",
          "type": "address[]"
        },
        {
          "internalType": "address",
          "name": "to",
          "type": "address"
        },
        {
          "internalType": "uint256",
          "name": "deadline",
          "type": "uint256"
        }
      ],
      "name": "swapExactTokensForBNBSupportingFeeOnTransferTokens",
      "outputs": [],
      "stateMutability": "nonpayable",
      "type": "function"
    },
    {
      "inputs": [
        {
          "internalType": "uint256",
          "name": "amountA",
          "type": "uint256"
        },
        {
          "internalType": "uint256",
          "name": "reserveA",
          "type": "uint256"
        },
        {
          "internalType": "uint256",
          "name": "reserveB",
          "type": "uint256"
        }
      ],
      "name": "quote",
      "outputs": [
        {
          "internalType": "uint256",
          "name": "amountB",
          "type": "uint256"
        }
      ],
      "stateMutability": "pure",
      "type": "function"
    },
    {
      "inputs": [
        {
          "internalType": "uint256",
          "name": "amountIn",
          "type": "uint256"
        },
        {
          "internalType": "uint256",
          "name": "reserveIn",
          "type": "uint256"
        },
        {
          "internalType": "uint256",
          "name": "reserveOut",
          "type": "uint256"
        }
      ],
      "name": "getAmountOut",
      "outputs": [
        {
          "internalType": "uint256",
          "name": "amountOut",
          "type": "uint256"
        }
      ],
      "stateMutability": "pure",
      "type": "function"
    },
    {
      "inputs": [
        {
          "internalType": "uint256",
          "name": "amountOut",
          "type": "uint256"
        },
        {
          "internalType": "uint256",
          "name": "reserveIn",
          "type": "uint256"
        },
        {
          "internalType": "uint256",
          "name": "reserveOut",
          "type": "uint256"
        }
      ],
      "name": "getAmountIn",
      "outputs": [
        {
          "internalType": "uint256",
          "name": "amountIn",
          "type": "uint256"
        }
      ],
      "stateMutability": "pure",
      "type": "function"
    },
    {
      "inputs": [
        {
          "internalType": "uint256",
          "name": "amountIn",
          "type": "uint256"
        },
        {
          "internalType": "address[]",
          "name": "path",
          "type": "address[]"
        }
      ],
      "name": "getAmountsOut",
      "outputs": [
        {
          "internalType": "uint256[]",
          "name": "amounts",
          "type": "uint256[]"
        }
      ],
      "stateMutability": "view",
      "type": "function"
    },
    {
      "inputs": [
        {
          "internalType": "uint256",
          "name": "amountOut",
          "type": "uint256"
        },
        {
          "internalType": "address[]",
          "name": "path",
          "type": "address[]"
        }
      ],
      "name": "getAmountsIn",
      "outputs": [
        {
          "internalType": "uint256[]",
          "name": "amounts",
          "type": "uint256[]"
        }
      ],
      "stateMutability": "view",
      "type": "function"
    }
  ],
  "bytecode": "0x60c06040523480156200001157600080fd5b50604051620068fd380380620068fd833981810160405260408110156200003757600080fd5b8101908080519060200190929190805190602001909291905050508173ffffffffffffffffffffffffffffffffffffffff1660808173ffffffffffffffffffffffffffffffffffffffff1660601b815250508073ffffffffffffffffffffffffffffffffffffffff1660a08173ffffffffffffffffffffffffffffffffffffffff1660601b81525050505060805160601c60a05160601c6166f4620002096000398061015652806116955280611ae65280611bd55280611c5652806124455280612740528061283652806129f25280612bd45280612c695280613101528061319e52806133835280613418528061366352806137405280613c295280613e165280613f505280614068528061436052806144ac52806144ea528061479a52806147f3528061482752806148a85250806114e5528061151d5280611673528061185b52806119845280611c9552806120cc5280612537528061266052806128145280612adf5280612ca85280612ef05280613016528061328b5280613457528061385f5280613b595280613b825280613d49528061415a5280614280528061462252806147d152806152305280615274528061545352806156a45280615fa452806160a0528061618a52506166f46000f3fe60806040526004361061014f5760003560e01c80638dd95002116100b6578063d06ca61f1161006f578063d06ca61f14610f7f578063d46d2f83146110a3578063d67b571e14611167578063e058848814611280578063e8e3370014611334578063eaaed4421461141a576101ab565b80638dd9500214610c175780639cf6891114610c58578063ad615dec14610d5a578063b7e6594914610dbd578063baa2abde14610e6a578063c45a015514610f3e576101ab565b80635c11d795116101085780635c11d795146106e15780635d616c5b146107a5578063685a0a34146108be5780638332a9631461099957806385f8c25914610a9b5780638803dbee14610afe576101ab565b8063054d50d4146101b05780631f00ca74146102135780632195995c1461033757806334a0772d1461043957806338ed17391461051b57806350e27df314610634576101ab565b366101ab577f000000000000000000000000000000000000000000000000000000000000000073ffffffffffffffffffffffffffffffffffffffff163373ffffffffffffffffffffffffffffffffffffffff16146101a957fe5b005b600080fd5b3480156101bc57600080fd5b506101fd600480360360608110156101d357600080fd5b810190808035906020019092919080359060200190929190803590602001909291905050506114c8565b6040518082815260200191505060405180910390f35b34801561021f57600080fd5b506102e06004803603604081101561023657600080fd5b81019080803590602001909291908035906020019064010000000081111561025d57600080fd5b82018360208201111561026f57600080fd5b8035906020019184602083028401116401000000008311171561029157600080fd5b919080806020026020016040519081016040528093929190818152602001838360200280828437600081840152601f19601f8201169050808301925050505050505091929192905050506114de565b6040518080602001828103825283818151815260200191508051906020019060200280838360005b83811015610323578082015181840152602081019050610308565b505050509050019250505060405180910390f35b34801561034357600080fd5b5061041c600480360361016081101561035b57600080fd5b81019080803573ffffffffffffffffffffffffffffffffffffffff169060200190929190803573ffffffffffffffffffffffffffffffffffffffff169060200190929190803590602001909291908035906020019092919080359060200190929190803573ffffffffffffffffffffffffffffffffffffffff16906020019092919080359060200190929190803515159060200190929190803560ff1690602001909291908035906020019092919080359060200190929190505050611513565b604051808381526020018281526020019250505060405180910390f35b34801561044557600080fd5b506104fe600480360361014081101561045d57600080fd5b81019080803573ffffffffffffffffffffffffffffffffffffffff169060200190929190803590602001909291908035906020019092919080359060200190929190803573ffffffffffffffffffffffffffffffffffffffff16906020019092919080359060200190929190803515159060200190929190803560ff1690602001909291908035906020019092919080359060200190929190505050611669565b604051808381526020018281526020019250505060405180910390f35b34801561052757600080fd5b506105dd600480360360a081101561053e57600080fd5b8101908080359060200190929190803590602001909291908035906020019064010000000081111561056f57600080fd5b82018360208201111561058157600080fd5b803590602001918460208302840111640100000000831117156105a357600080fd5b9091929391929390803573ffffffffffffffffffffffffffffffffffffffff169060200190929190803590602001909291905050506117dd565b6040518080602001828103825283818151815260200191508051906020019060200280838360005b83811015610620578082015181840152602081019050610605565b505050509050019250505060405180910390f35b6106df6004803603608081101561064a57600080fd5b81019080803590602001909291908035906020019064010000000081111561067157600080fd5b82018360208201111561068357600080fd5b803590602001918460208302840111640100000000831117156106a557600080fd5b9091929391929390803573ffffffffffffffffffffffffffffffffffffffff16906020019092919080359060200190929190505050611a6d565b005b3480156106ed57600080fd5b506107a3600480360360a081101561070457600080fd5b8101908080359060200190929190803590602001909291908035906020019064010000000081111561073557600080fd5b82018360208201111561074757600080fd5b8035906020019184602083028401116401000000008311171561076957600080fd5b9091929391929390803573ffffffffffffffffffffffffffffffffffffffff16906020019092919080359060200190929190505050612022565b005b3480156107b157600080fd5b50610867600480360360a08110156107c857600080fd5b810190808035906020019092919080359060200190929190803590602001906401000000008111156107f957600080fd5b82018360208201111561080b57600080fd5b8035906020019184602083028401116401000000008311171561082d57600080fd5b9091929391929390803573ffffffffffffffffffffffffffffffffffffffff169060200190929190803590602001909291905050506123ca565b6040518080602001828103825283818151815260200191508051906020019060200280838360005b838110156108aa57808201518184015260208101905061088f565b505050509050019250505060405180910390f35b3480156108ca57600080fd5b5061098360048036036101408110156108e257600080fd5b81019080803573ffffffffffffffffffffffffffffffffffffffff169060200190929190803590602001909291908035906020019092919080359060200190929190803573ffffffffffffffffffffffffffffffffffffffff16906020019092919080359060200190929190803515159060200190929190803560ff169060200190929190803590602001909291908035906020019092919050505061280c565b6040518082815260200191505060405180910390f35b610a44600480360360808110156109af57600080fd5b8101908080359060200190929190803590602001906401000000008111156109d657600080fd5b8201836020820111156109e857600080fd5b80359060200191846020830284011164010000000083111715610a0a57600080fd5b9091929391929390803573ffffffffffffffffffffffffffffffffffffffff16906020019092919080359060200190929190505050612977565b6040518080602001828103825283818151815260200191508051906020019060200280838360005b83811015610a87578082015181840152602081019050610a6c565b505050509050019250505060405180910390f35b348015610aa757600080fd5b50610ae860048036036060811015610abe57600080fd5b81019080803590602001909291908035906020019092919080359060200190929190505050612e5c565b6040518082815260200191505060405180910390f35b348015610b0a57600080fd5b50610bc0600480360360a0811015610b2157600080fd5b81019080803590602001909291908035906020019092919080359060200190640100000000811115610b5257600080fd5b820183602082011115610b6457600080fd5b80359060200191846020830284011164010000000083111715610b8657600080fd5b9091929391929390803573ffffffffffffffffffffffffffffffffffffffff16906020019092919080359060200190929190505050612e72565b6040518080602001828103825283818151815260200191508051906020019060200280838360005b83811015610c03578082015181840152602081019050610be8565b505050509050019250505060405180910390f35b348015610c2357600080fd5b50610c2c6130ff565b604051808273ffffffffffffffffffffffffffffffffffffffff16815260200191505060405180910390f35b610d0360048036036080811015610c6e57600080fd5b810190808035906020019092919080359060200190640100000000811115610c9557600080fd5b820183602082011115610ca757600080fd5b80359060200191846020830284011164010000000083111715610cc957600080fd5b9091929391929390803573ffffffffffffffffffffffffffffffffffffffff16906020019092919080359060200190929190505050613123565b6040518080602001828103825283818151815260200191508051906020019060200280838360005b83811015610d46578082015181840152602081019050610d2b565b505050509050019250505060405180910390f35b348015610d6657600080fd5b50610da760048036036060811015610d7d57600080fd5b810190808035906020019092919080359060200190929190803590602001909291905050506135ce565b6040518082815260200191505060405180910390f35b348015610dc957600080fd5b50610e54600480360360c0811015610de057600080fd5b81019080803573ffffffffffffffffffffffffffffffffffffffff169060200190929190803590602001909291908035906020019092919080359060200190929190803573ffffffffffffffffffffffffffffffffffffffff169060200190929190803590602001909291905050506135e4565b6040518082815260200191505060405180910390f35b348015610e7657600080fd5b50610f21600480360360e0811015610e8d57600080fd5b81019080803573ffffffffffffffffffffffffffffffffffffffff169060200190929190803573ffffffffffffffffffffffffffffffffffffffff169060200190929190803590602001909291908035906020019092919080359060200190929190803573ffffffffffffffffffffffffffffffffffffffff169060200190929190803590602001909291905050506137de565b604051808381526020018281526020019250505060405180910390f35b348015610f4a57600080fd5b50610f53613b57565b604051808273ffffffffffffffffffffffffffffffffffffffff16815260200191505060405180910390f35b348015610f8b57600080fd5b5061104c60048036036040811015610fa257600080fd5b810190808035906020019092919080359060200190640100000000811115610fc957600080fd5b820183602082011115610fdb57600080fd5b80359060200191846020830284011164010000000083111715610ffd57600080fd5b919080806020026020016040519081016040528093929190818152602001838360200280828437600081840152601f19601f820116905080830192505050505050509192919290505050613b7b565b6040518080602001828103825283818151815260200191508051906020019060200280838360005b8381101561108f578082015181840152602081019050611074565b505050509050019250505060405180910390f35b3480156110af57600080fd5b50611165600480360360a08110156110c657600080fd5b810190808035906020019092919080359060200190929190803590602001906401000000008111156110f757600080fd5b82018360208201111561110957600080fd5b8035906020019184602083028401116401000000008311171561112b57600080fd5b9091929391929390803573ffffffffffffffffffffffffffffffffffffffff16906020019092919080359060200190929190505050613bb0565b005b34801561117357600080fd5b50611229600480360360a081101561118a57600080fd5b810190808035906020019092919080359060200190929190803590602001906401000000008111156111bb57600080fd5b8201836020820111156111cd57600080fd5b803590602001918460208302840111640100000000831117156111ef57600080fd5b9091929391929390803573ffffffffffffffffffffffffffffffffffffffff16906020019092919080359060200190929190505050613fed565b6040518080602001828103825283818151815260200191508051906020019060200280838360005b8381101561126c578082015181840152602081019050611251565b505050509050019250505060405180910390f35b34801561128c57600080fd5b50611317600480360360c08110156112a357600080fd5b81019080803573ffffffffffffffffffffffffffffffffffffffff169060200190929190803590602001909291908035906020019092919080359060200190929190803573ffffffffffffffffffffffffffffffffffffffff1690602001909291908035906020019092919050505061442c565b604051808381526020018281526020019250505060405180910390f35b34801561134057600080fd5b506113f6600480360361010081101561135857600080fd5b81019080803573ffffffffffffffffffffffffffffffffffffffff169060200190929190803573ffffffffffffffffffffffffffffffffffffffff16906020019092919080359060200190929190803590602001909291908035906020019092919080359060200190929190803573ffffffffffffffffffffffffffffffffffffffff16906020019092919080359060200190929190505050614589565b60405180848152602001838152602001828152602001935050505060405180910390f35b6114a4600480360360c081101561143057600080fd5b81019080803573ffffffffffffffffffffffffffffffffffffffff169060200190929190803590602001909291908035906020019092919080359060200190929190803573ffffffffffffffffffffffffffffffffffffffff16906020019092919080359060200190929190505050614718565b60405180848152602001838152602001828152602001935050505060405180910390f35b60006114d5848484614a41565b90509392505050565b606061150b7f00000000000000000000000000000000000000000000000000000000000000008484614b71565b905092915050565b60008060006115437f00000000000000000000000000000000000000000000000000000000000000008f8f614cf1565b9050600087611552578c611574565b7fffffffffffffffffffffffffffffffffffffffffffffffffffffffffffffffff5b90508173ffffffffffffffffffffffffffffffffffffffff1663d505accf3330848d8c8c8c6040518863ffffffff1660e01b8152600401808873ffffffffffffffffffffffffffffffffffffffff1681526020018773ffffffffffffffffffffffffffffffffffffffff1681526020018681526020018581526020018460ff168152602001838152602001828152602001975050505050505050600060405180830381600087803b15801561162857600080fd5b505af115801561163c573d6000803e3d6000fd5b5050505061164f8f8f8f8f8f8f8f6137de565b809450819550505050509b509b9950505050505050505050565b60008060006116b97f00000000000000000000000000000000000000000000000000000000000000008e7f0000000000000000000000000000000000000000000000000000000000000000614cf1565b90506000876116c8578c6116ea565b7fffffffffffffffffffffffffffffffffffffffffffffffffffffffffffffffff5b90508173ffffffffffffffffffffffffffffffffffffffff1663d505accf3330848d8c8c8c6040518863ffffffff1660e01b8152600401808873ffffffffffffffffffffffffffffffffffffffff1681526020018773ffffffffffffffffffffffffffffffffffffffff1681526020018681526020018581526020018460ff168152602001838152602001828152602001975050505050505050600060405180830381600087803b15801561179e57600080fd5b505af11580156117b2573d6000803e3d6000fd5b505050506117c48e8e8e8e8e8e61442c565b809450819550505050509a509a98505050505050505050565b60608142811015611856576040517f08c379a00000000000000000000000000000000000000000000000000000000081526004018080602001828103825260078152602001807f455850495245440000000000000000000000000000000000000000000000000081525060200191505060405180910390fd5b6118c27f000000000000000000000000000000000000000000000000000000000000000089888880806020026020016040519081016040528093929190818152602001838360200280828437600081840152601f19601f82011690508083019250505050505050614e0a565b915086826001845103815181106118d557fe5b60200260200101511015611951576040517f08c379a000000000000000000000000000000000000000000000000000000000815260040180806020018281038252601a8152602001807f494e53554646494349454e545f4f55545055545f414d4f554e5400000000000081525060200191505060405180910390fd5b611a168686600081811061196157fe5b9050602002013573ffffffffffffffffffffffffffffffffffffffff16336119fc7f00000000000000000000000000000000000000000000000000000000000000008a8a60008181106119b057fe5b9050602002013573ffffffffffffffffffffffffffffffffffffffff168b8b60018181106119da57fe5b9050602002013573ffffffffffffffffffffffffffffffffffffffff16614cf1565b85600081518110611a0957fe5b6020026020010151614f82565b611a6282878780806020026020016040519081016040528093929190818152602001838360200280828437600081840152601f19601f8201169050808301925050505050505086615167565b509695505050505050565b8042811015611ae4576040517f08c379a00000000000000000000000000000000000000000000000000000000081526004018080602001828103825260078152602001807f455850495245440000000000000000000000000000000000000000000000000081525060200191505060405180910390fd5b7f000000000000000000000000000000000000000000000000000000000000000073ffffffffffffffffffffffffffffffffffffffff1685856000818110611b2857fe5b9050602002013573ffffffffffffffffffffffffffffffffffffffff1673ffffffffffffffffffffffffffffffffffffffff1614611bce576040517f08c379a000000000000000000000000000000000000000000000000000000000815260040180806020018281038252600c8152602001807f494e56414c49445f50415448000000000000000000000000000000000000000081525060200191505060405180910390fd5b60003490507f000000000000000000000000000000000000000000000000000000000000000073ffffffffffffffffffffffffffffffffffffffff1663d0e30db0826040518263ffffffff1660e01b81526004016000604051808303818588803b158015611c3b57600080fd5b505af1158015611c4f573d6000803e3d6000fd5b50505050507f000000000000000000000000000000000000000000000000000000000000000073ffffffffffffffffffffffffffffffffffffffff1663a9059cbb611d0d7f000000000000000000000000000000000000000000000000000000000000000089896000818110611cc157fe5b9050602002013573ffffffffffffffffffffffffffffffffffffffff168a8a6001818110611ceb57fe5b9050602002013573ffffffffffffffffffffffffffffffffffffffff16614cf1565b836040518363ffffffff1660e01b8152600401808373ffffffffffffffffffffffffffffffffffffffff16815260200182815260200192505050602060405180830381600087803b158015611d6157600080fd5b505af1158015611d75573d6000803e3d6000fd5b505050506040513d6020811015611d8b57600080fd5b8101908080519060200190929190505050611da257fe5b6000868660018989905003818110611db657fe5b9050602002013573ffffffffffffffffffffffffffffffffffffffff1673ffffffffffffffffffffffffffffffffffffffff166370a08231866040518263ffffffff1660e01b8152600401808273ffffffffffffffffffffffffffffffffffffffff16815260200191505060206040518083038186803b158015611e3957600080fd5b505afa158015611e4d573d6000803e3d6000fd5b505050506040513d6020811015611e6357600080fd5b81019080805190602001909291905050509050611ec1878780806020026020016040519081016040528093929190818152602001838360200280828437600081840152601f19601f82011690508083019250505050505050866153fc565b87611fa482898960018c8c905003818110611ed857fe5b9050602002013573ffffffffffffffffffffffffffffffffffffffff1673ffffffffffffffffffffffffffffffffffffffff166370a08231896040518263ffffffff1660e01b8152600401808273ffffffffffffffffffffffffffffffffffffffff16815260200191505060206040518083038186803b158015611f5b57600080fd5b505afa158015611f6f573d6000803e3d6000fd5b505050506040513d6020811015611f8557600080fd5b810190808051906020019092919050505061584790919063ffffffff16565b1015612018576040517f08c379a000000000000000000000000000000000000000000000000000000000815260040180806020018281038252601a8152602001807f494e53554646494349454e545f4f55545055545f414d4f554e5400000000000081525060200191505060405180910390fd5b5050505050505050565b8042811015612099576040517f08c379a00000000000000000000000000000000000000000000000000000000081526004018080602001828103825260078152602001807f455850495245440000000000000000000000000000000000000000000000000081525060200191505060405180910390fd5b61214a858560008181106120a957fe5b9050602002013573ffffffffffffffffffffffffffffffffffffffff16336121447f0000000000000000000000000000000000000000000000000000000000000000898960008181106120f857fe5b9050602002013573ffffffffffffffffffffffffffffffffffffffff168a8a600181811061212257fe5b9050602002013573ffffffffffffffffffffffffffffffffffffffff16614cf1565b8a614f82565b600085856001888890500381811061215e57fe5b9050602002013573ffffffffffffffffffffffffffffffffffffffff1673ffffffffffffffffffffffffffffffffffffffff166370a08231856040518263ffffffff1660e01b8152600401808273ffffffffffffffffffffffffffffffffffffffff16815260200191505060206040518083038186803b1580156121e157600080fd5b505afa1580156121f5573d6000803e3d6000fd5b505050506040513d602081101561220b57600080fd5b81019080805190602001909291905050509050612269868680806020026020016040519081016040528093929190818152602001838360200280828437600081840152601f19601f82011690508083019250505050505050856153fc565b8661234c82888860018b8b90500381811061228057fe5b9050602002013573ffffffffffffffffffffffffffffffffffffffff1673ffffffffffffffffffffffffffffffffffffffff166370a08231886040518263ffffffff1660e01b8152600401808273ffffffffffffffffffffffffffffffffffffffff16815260200191505060206040518083038186803b15801561230357600080fd5b505afa158015612317573d6000803e3d6000fd5b505050506040513d602081101561232d57600080fd5b810190808051906020019092919050505061584790919063ffffffff16565b10156123c0576040517f08c379a000000000000000000000000000000000000000000000000000000000815260040180806020018281038252601a8152602001807f494e53554646494349454e545f4f55545055545f414d4f554e5400000000000081525060200191505060405180910390fd5b5050505050505050565b60608142811015612443576040517f08c379a00000000000000000000000000000000000000000000000000000000081526004018080602001828103825260078152602001807f455850495245440000000000000000000000000000000000000000000000000081525060200191505060405180910390fd5b7f000000000000000000000000000000000000000000000000000000000000000073ffffffffffffffffffffffffffffffffffffffff1686866001898990500381811061248c57fe5b9050602002013573ffffffffffffffffffffffffffffffffffffffff1673ffffffffffffffffffffffffffffffffffffffff1614612532576040517f08c379a000000000000000000000000000000000000000000000000000000000815260040180806020018281038252600c8152602001807f494e56414c49445f50415448000000000000000000000000000000000000000081525060200191505060405180910390fd5b61259e7f000000000000000000000000000000000000000000000000000000000000000089888880806020026020016040519081016040528093929190818152602001838360200280828437600081840152601f19601f82011690508083019250505050505050614e0a565b915086826001845103815181106125b157fe5b6020026020010151101561262d576040517f08c379a000000000000000000000000000000000000000000000000000000000815260040180806020018281038252601a8152602001807f494e53554646494349454e545f4f55545055545f414d4f554e5400000000000081525060200191505060405180910390fd5b6126f28686600081811061263d57fe5b9050602002013573ffffffffffffffffffffffffffffffffffffffff16336126d87f00000000000000000000000000000000000000000000000000000000000000008a8a600081811061268c57fe5b9050602002013573ffffffffffffffffffffffffffffffffffffffff168b8b60018181106126b657fe5b9050602002013573ffffffffffffffffffffffffffffffffffffffff16614cf1565b856000815181106126e557fe5b6020026020010151614f82565b61273e82878780806020026020016040519081016040528093929190818152602001838360200280828437600081840152601f19601f8201169050808301925050505050505030615167565b7f000000000000000000000000000000000000000000000000000000000000000073ffffffffffffffffffffffffffffffffffffffff16632e1a7d4d8360018551038151811061278a57fe5b60200260200101516040518263ffffffff1660e01b815260040180828152602001915050600060405180830381600087803b1580156127c857600080fd5b505af11580156127dc573d6000803e3d6000fd5b5050505061280184836001855103815181106127f457fe5b60200260200101516158ca565b509695505050505050565b60008061285a7f00000000000000000000000000000000000000000000000000000000000000008d7f0000000000000000000000000000000000000000000000000000000000000000614cf1565b9050600086612869578b61288b565b7fffffffffffffffffffffffffffffffffffffffffffffffffffffffffffffffff5b90508173ffffffffffffffffffffffffffffffffffffffff1663d505accf3330848c8b8b8b6040518863ffffffff1660e01b8152600401808873ffffffffffffffffffffffffffffffffffffffff1681526020018773ffffffffffffffffffffffffffffffffffffffff1681526020018681526020018581526020018460ff168152602001838152602001828152602001975050505050505050600060405180830381600087803b15801561293f57600080fd5b505af1158015612953573d6000803e3d6000fd5b505050506129658d8d8d8d8d8d6135e4565b925050509a9950505050505050505050565b606081428110156129f0576040517f08c379a00000000000000000000000000000000000000000000000000000000081526004018080602001828103825260078152602001807f455850495245440000000000000000000000000000000000000000000000000081525060200191505060405180910390fd5b7f000000000000000000000000000000000000000000000000000000000000000073ffffffffffffffffffffffffffffffffffffffff1686866000818110612a3457fe5b9050602002013573ffffffffffffffffffffffffffffffffffffffff1673ffffffffffffffffffffffffffffffffffffffff1614612ada576040517f08c379a000000000000000000000000000000000000000000000000000000000815260040180806020018281038252600c8152602001807f494e56414c49445f50415448000000000000000000000000000000000000000081525060200191505060405180910390fd5b612b467f000000000000000000000000000000000000000000000000000000000000000088888880806020026020016040519081016040528093929190818152602001838360200280828437600081840152601f19601f82011690508083019250505050505050614b71565b91503482600081518110612b5657fe5b60200260200101511115612bd2576040517f08c379a00000000000000000000000000000000000000000000000000000000081526004018080602001828103825260168152602001807f4558434553534956455f494e5055545f414d4f554e540000000000000000000081525060200191505060405180910390fd5b7f000000000000000000000000000000000000000000000000000000000000000073ffffffffffffffffffffffffffffffffffffffff1663d0e30db083600081518110612c1b57fe5b60200260200101516040518263ffffffff1660e01b81526004016000604051808303818588803b158015612c4e57600080fd5b505af1158015612c62573d6000803e3d6000fd5b50505050507f000000000000000000000000000000000000000000000000000000000000000073ffffffffffffffffffffffffffffffffffffffff1663a9059cbb612d207f000000000000000000000000000000000000000000000000000000000000000089896000818110612cd457fe5b9050602002013573ffffffffffffffffffffffffffffffffffffffff168a8a6001818110612cfe57fe5b9050602002013573ffffffffffffffffffffffffffffffffffffffff16614cf1565b84600081518110612d2d57fe5b60200260200101516040518363ffffffff1660e01b8152600401808373ffffffffffffffffffffffffffffffffffffffff16815260200182815260200192505050602060405180830381600087803b158015612d8857600080fd5b505af1158015612d9c573d6000803e3d6000fd5b505050506040513d6020811015612db257600080fd5b8101908080519060200190929190505050612dc957fe5b612e1582878780806020026020016040519081016040528093929190818152602001838360200280828437600081840152601f19601f8201169050808301925050505050505086615167565b81600081518110612e2257fe5b6020026020010151341115612e5257612e513383600081518110612e4257fe5b602002602001015134036158ca565b5b5095945050505050565b6000612e69848484615a29565b90509392505050565b60608142811015612eeb576040517f08c379a00000000000000000000000000000000000000000000000000000000081526004018080602001828103825260078152602001807f455850495245440000000000000000000000000000000000000000000000000081525060200191505060405180910390fd5b612f577f000000000000000000000000000000000000000000000000000000000000000089888880806020026020016040519081016040528093929190818152602001838360200280828437600081840152601f19601f82011690508083019250505050505050614b71565b91508682600081518110612f6757fe5b60200260200101511115612fe3576040517f08c379a00000000000000000000000000000000000000000000000000000000081526004018080602001828103825260168152602001807f4558434553534956455f494e5055545f414d4f554e540000000000000000000081525060200191505060405180910390fd5b6130a886866000818110612ff357fe5b9050602002013573ffffffffffffffffffffffffffffffffffffffff163361308e7f00000000000000000000000000000000000000000000000000000000000000008a8a600081811061304257fe5b9050602002013573ffffffffffffffffffffffffffffffffffffffff168b8b600181811061306c57fe5b9050602002013573ffffffffffffffffffffffffffffffffffffffff16614cf1565b8560008151811061309b57fe5b6020026020010151614f82565b6130f482878780806020026020016040519081016040528093929190818152602001838360200280828437600081840152601f19601f8201169050808301925050505050505086615167565b509695505050505050565b7f000000000000000000000000000000000000000000000000000000000000000081565b6060814281101561319c576040517f08c379a00000000000000000000000000000000000000000000000000000000081526004018080602001828103825260078152602001807f455850495245440000000000000000000000000000000000000000000000000081525060200191505060405180910390fd5b7f000000000000000000000000000000000000000000000000000000000000000073ffffffffffffffffffffffffffffffffffffffff16868660008181106131e057fe5b9050602002013573ffffffffffffffffffffffffffffffffffffffff1673ffffffffffffffffffffffffffffffffffffffff1614613286576040517f08c379a000000000000000000000000000000000000000000000000000000000815260040180806020018281038252600c8152602001807f494e56414c49445f50415448000000000000000000000000000000000000000081525060200191505060405180910390fd5b6132f27f000000000000000000000000000000000000000000000000000000000000000034888880806020026020016040519081016040528093929190818152602001838360200280828437600081840152601f19601f82011690508083019250505050505050614e0a565b9150868260018451038151811061330557fe5b60200260200101511015613381576040517f08c379a000000000000000000000000000000000000000000000000000000000815260040180806020018281038252601a8152602001807f494e53554646494349454e545f4f55545055545f414d4f554e5400000000000081525060200191505060405180910390fd5b7f000000000000000000000000000000000000000000000000000000000000000073ffffffffffffffffffffffffffffffffffffffff1663d0e30db0836000815181106133ca57fe5b60200260200101516040518263ffffffff1660e01b81526004016000604051808303818588803b1580156133fd57600080fd5b505af1158015613411573d6000803e3d6000fd5b50505050507f000000000000000000000000000000000000000000000000000000000000000073ffffffffffffffffffffffffffffffffffffffff1663a9059cbb6134cf7f00000000000000000000000000000000000000000000000000000000000000008989600081811061348357fe5b9050602002013573ffffffffffffffffffffffffffffffffffffffff168a8a60018181106134ad57fe5b9050602002013573ffffffffffffffffffffffffffffffffffffffff16614cf1565b846000815181106134dc57fe5b60200260200101516040518363ffffffff1660e01b8152600401808373ffffffffffffffffffffffffffffffffffffffff16815260200182815260200192505050602060405180830381600087803b15801561353757600080fd5b505af115801561354b573d6000803e3d6000fd5b505050506040513d602081101561356157600080fd5b810190808051906020019092919050505061357857fe5b6135c482878780806020026020016040519081016040528093929190818152602001838360200280828437600081840152601f19601f8201169050808301925050505050505086615167565b5095945050505050565b60006135db848484615b66565b90509392505050565b6000814281101561365d576040517f08c379a00000000000000000000000000000000000000000000000000000000081526004018080602001828103825260078152602001807f455850495245440000000000000000000000000000000000000000000000000081525060200191505060405180910390fd5b61368c887f000000000000000000000000000000000000000000000000000000000000000089898930896137de565b90508092505061373e88858a73ffffffffffffffffffffffffffffffffffffffff166370a08231306040518263ffffffff1660e01b8152600401808273ffffffffffffffffffffffffffffffffffffffff16815260200191505060206040518083038186803b1580156136fe57600080fd5b505afa158015613712573d6000803e3d6000fd5b505050506040513d602081101561372857600080fd5b8101908080519060200190929190505050615c4a565b7f000000000000000000000000000000000000000000000000000000000000000073ffffffffffffffffffffffffffffffffffffffff16632e1a7d4d836040518263ffffffff1660e01b815260040180828152602001915050600060405180830381600087803b1580156137b157600080fd5b505af11580156137c5573d6000803e3d6000fd5b505050506137d384836158ca565b509695505050505050565b6000808242811015613858576040517f08c379a00000000000000000000000000000000000000000000000000000000081526004018080602001828103825260078152602001807f455850495245440000000000000000000000000000000000000000000000000081525060200191505060405180910390fd5b60006138857f00000000000000000000000000000000000000000000000000000000000000008c8c614cf1565b90508073ffffffffffffffffffffffffffffffffffffffff166323b872dd33838c6040518463ffffffff1660e01b8152600401808473ffffffffffffffffffffffffffffffffffffffff1681526020018373ffffffffffffffffffffffffffffffffffffffff1681526020018281526020019350505050602060405180830381600087803b15801561391657600080fd5b505af115801561392a573d6000803e3d6000fd5b505050506040513d602081101561394057600080fd5b8101908080519060200190929190505050506000808273ffffffffffffffffffffffffffffffffffffffff166389afcb44896040518263ffffffff1660e01b8152600401808273ffffffffffffffffffffffffffffffffffffffff1681526020019150506040805180830381600087803b1580156139bd57600080fd5b505af11580156139d1573d6000803e3d6000fd5b505050506040513d60408110156139e757600080fd5b810190808051906020019092919080519060200190929190505050915091506000613a128e8e615e10565b5090508073ffffffffffffffffffffffffffffffffffffffff168e73ffffffffffffffffffffffffffffffffffffffff1614613a4f578183613a52565b82825b80975081985050508a871015613ad0576040517f08c379a00000000000000000000000000000000000000000000000000000000081526004018080602001828103825260158152602001807f494e53554646494349454e545f415f414d4f554e54000000000000000000000081525060200191505060405180910390fd5b89861015613b46576040517f08c379a00000000000000000000000000000000000000000000000000000000081526004018080602001828103825260158152602001807f494e53554646494349454e545f425f414d4f554e54000000000000000000000081525060200191505060405180910390fd5b505050505097509795505050505050565b7f000000000000000000000000000000000000000000000000000000000000000081565b6060613ba87f00000000000000000000000000000000000000000000000000000000000000008484614e0a565b905092915050565b8042811015613c27576040517f08c379a00000000000000000000000000000000000000000000000000000000081526004018080602001828103825260078152602001807f455850495245440000000000000000000000000000000000000000000000000081525060200191505060405180910390fd5b7f000000000000000000000000000000000000000000000000000000000000000073ffffffffffffffffffffffffffffffffffffffff16858560018888905003818110613c7057fe5b9050602002013573ffffffffffffffffffffffffffffffffffffffff1673ffffffffffffffffffffffffffffffffffffffff1614613d16576040517f08c379a000000000000000000000000000000000000000000000000000000000815260040180806020018281038252600c8152602001807f494e56414c49445f50415448000000000000000000000000000000000000000081525060200191505060405180910390fd5b613dc785856000818110613d2657fe5b9050602002013573ffffffffffffffffffffffffffffffffffffffff1633613dc17f000000000000000000000000000000000000000000000000000000000000000089896000818110613d7557fe5b9050602002013573ffffffffffffffffffffffffffffffffffffffff168a8a6001818110613d9f57fe5b9050602002013573ffffffffffffffffffffffffffffffffffffffff16614cf1565b8a614f82565b613e12858580806020026020016040519081016040528093929190818152602001838360200280828437600081840152601f19601f82011690508083019250505050505050306153fc565b60007f000000000000000000000000000000000000000000000000000000000000000073ffffffffffffffffffffffffffffffffffffffff166370a08231306040518263ffffffff1660e01b8152600401808273ffffffffffffffffffffffffffffffffffffffff16815260200191505060206040518083038186803b158015613e9b57600080fd5b505afa158015613eaf573d6000803e3d6000fd5b505050506040513d6020811015613ec557600080fd5b8101908080519060200190929190505050905086811015613f4e576040517f08c379a000000000000000000000000000000000000000000000000000000000815260040180806020018281038252601a8152602001807f494e53554646494349454e545f4f55545055545f414d4f554e5400000000000081525060200191505060405180910390fd5b7f000000000000000000000000000000000000000000000000000000000000000073ffffffffffffffffffffffffffffffffffffffff16632e1a7d4d826040518263ffffffff1660e01b815260040180828152602001915050600060405180830381600087803b158015613fc157600080fd5b505af1158015613fd5573d6000803e3d6000fd5b50505050613fe384826158ca565b5050505050505050565b60608142811015614066576040517f08c379a00000000000000000000000000000000000000000000000000000000081526004018080602001828103825260078152602001807f455850495245440000000000000000000000000000000000000000000000000081525060200191505060405180910390fd5b7f000000000000000000000000000000000000000000000000000000000000000073ffffffffffffffffffffffffffffffffffffffff168686600189899050038181106140af57fe5b9050602002013573ffffffffffffffffffffffffffffffffffffffff1673ffffffffffffffffffffffffffffffffffffffff1614614155576040517f08c379a000000000000000000000000000000000000000000000000000000000815260040180806020018281038252600c8152602001807f494e56414c49445f50415448000000000000000000000000000000000000000081525060200191505060405180910390fd5b6141c17f000000000000000000000000000000000000000000000000000000000000000089888880806020026020016040519081016040528093929190818152602001838360200280828437600081840152601f19601f82011690508083019250505050505050614b71565b915086826000815181106141d157fe5b6020026020010151111561424d576040517f08c379a00000000000000000000000000000000000000000000000000000000081526004018080602001828103825260168152602001807f4558434553534956455f494e5055545f414d4f554e540000000000000000000081525060200191505060405180910390fd5b6143128686600081811061425d57fe5b9050602002013573ffffffffffffffffffffffffffffffffffffffff16336142f87f00000000000000000000000000000000000000000000000000000000000000008a8a60008181106142ac57fe5b9050602002013573ffffffffffffffffffffffffffffffffffffffff168b8b60018181106142d657fe5b9050602002013573ffffffffffffffffffffffffffffffffffffffff16614cf1565b8560008151811061430557fe5b6020026020010151614f82565b61435e82878780806020026020016040519081016040528093929190818152602001838360200280828437600081840152601f19601f8201169050808301925050505050505030615167565b7f000000000000000000000000000000000000000000000000000000000000000073ffffffffffffffffffffffffffffffffffffffff16632e1a7d4d836001855103815181106143aa57fe5b60200260200101516040518263ffffffff1660e01b815260040180828152602001915050600060405180830381600087803b1580156143e857600080fd5b505af11580156143fc573d6000803e3d6000fd5b50505050614421848360018551038151811061441457fe5b60200260200101516158ca565b509695505050505050565b60008082428110156144a6576040517f08c379a00000000000000000000000000000000000000000000000000000000081526004018080602001828103825260078152602001807f455850495245440000000000000000000000000000000000000000000000000081525060200191505060405180910390fd5b6144d5897f00000000000000000000000000000000000000000000000000000000000000008a8a8a308a6137de565b80935081945050506144e8898685615c4a565b7f000000000000000000000000000000000000000000000000000000000000000073ffffffffffffffffffffffffffffffffffffffff16632e1a7d4d836040518263ffffffff1660e01b815260040180828152602001915050600060405180830381600087803b15801561455b57600080fd5b505af115801561456f573d6000803e3d6000fd5b5050505061457d85836158ca565b50965096945050505050565b60008060008342811015614605576040517f08c379a00000000000000000000000000000000000000000000000000000000081526004018080602001828103825260078152602001807f455850495245440000000000000000000000000000000000000000000000000081525060200191505060405180910390fd5b6146138c8c8c8c8c8c615f87565b809450819550505060006146487f00000000000000000000000000000000000000000000000000000000000000008e8e614cf1565b90506146568d338388614f82565b6146628c338387614f82565b8073ffffffffffffffffffffffffffffffffffffffff16636a627842886040518263ffffffff1660e01b8152600401808273ffffffffffffffffffffffffffffffffffffffff168152602001915050602060405180830381600087803b1580156146cb57600080fd5b505af11580156146df573d6000803e3d6000fd5b505050506040513d60208110156146f557600080fd5b810190808051906020019092919050505092505050985098509895505050505050565b60008060008342811015614794576040517f08c379a00000000000000000000000000000000000000000000000000000000081526004018080602001828103825260078152602001807f455850495245440000000000000000000000000000000000000000000000000081525060200191505060405180910390fd5b6147c28a7f00000000000000000000000000000000000000000000000000000000000000008b348c8c615f87565b809450819550505060006148177f00000000000000000000000000000000000000000000000000000000000000008c7f0000000000000000000000000000000000000000000000000000000000000000614cf1565b90506148258b338388614f82565b7f000000000000000000000000000000000000000000000000000000000000000073ffffffffffffffffffffffffffffffffffffffff1663d0e30db0856040518263ffffffff1660e01b81526004016000604051808303818588803b15801561488d57600080fd5b505af11580156148a1573d6000803e3d6000fd5b50505050507f000000000000000000000000000000000000000000000000000000000000000073ffffffffffffffffffffffffffffffffffffffff1663a9059cbb82866040518363ffffffff1660e01b8152600401808373ffffffffffffffffffffffffffffffffffffffff16815260200182815260200192505050602060405180830381600087803b15801561493757600080fd5b505af115801561494b573d6000803e3d6000fd5b505050506040513d602081101561496157600080fd5b810190808051906020019092919050505061497857fe5b8073ffffffffffffffffffffffffffffffffffffffff16636a627842886040518263ffffffff1660e01b8152600401808273ffffffffffffffffffffffffffffffffffffffff168152602001915050602060405180830381600087803b1580156149e157600080fd5b505af11580156149f5573d6000803e3d6000fd5b505050506040513d6020811015614a0b57600080fd5b8101908080519060200190929190505050925083341115614a3357614a32338534036158ca565b5b505096509650969350505050565b6000808411614a9b576040517f08c379a000000000000000000000000000000000000000000000000000000000815260040180806020018281038252602c815260200180616613602c913960400191505060405180910390fd5b600083118015614aab5750600082115b614b00576040517f08c379a00000000000000000000000000000000000000000000000000000000081526004018080602001828103825260298152602001806165ea6029913960400191505060405180910390fd5b6000614b176103e58661631d90919063ffffffff16565b90506000614b2e848361631d90919063ffffffff16565b90506000614b5983614b4b6103e88961631d90919063ffffffff16565b6163b290919063ffffffff16565b9050808281614b6457fe5b0493505050509392505050565b6060600282511015614beb576040517f08c379a000000000000000000000000000000000000000000000000000000000815260040180806020018281038252601f8152602001807f506570657377617056324c6962726172793a20494e56414c49445f504154480081525060200191505060405180910390fd5b815167ffffffffffffffff81118015614c0357600080fd5b50604051908082528060200260200182016040528015614c325781602001602082028036833780820191505090505b5090508281600183510381518110614c4657fe5b6020026020010181815250506000600183510390505b6000811115614ce957600080614c9c87866001860381518110614c7b57fe5b6020026020010151878681518110614c8f57fe5b6020026020010151616435565b91509150614cbe848481518110614caf57fe5b60200260200101518383615a29565b846001850381518110614ccd57fe5b6020026020010181815250505050808060019003915050614c5c565b509392505050565b6000806000614d008585615e10565b91509150858282604051602001808373ffffffffffffffffffffffffffffffffffffffff1660601b81526014018273ffffffffffffffffffffffffffffffffffffffff1660601b8152601401925050506040516020818303038152906040528051906020012060405160200180807fff000000000000000000000000000000000000000000000000000000000000008152506001018373ffffffffffffffffffffffffffffffffffffffff1660601b8152601401828152602001807ffbf8b0d7e1edf4984120d0a0eb1b4a536f7316c689b8e967e3368720cf088d40815250602001925050506040516020818303038152906040528051906020012060001c925050509392505050565b6060600282511015614e84576040517f08c379a000000000000000000000000000000000000000000000000000000000815260040180806020018281038252601f8152602001807f506570657377617056324c6962726172793a20494e56414c49445f504154480081525060200191505060405180910390fd5b815167ffffffffffffffff81118015614e9c57600080fd5b50604051908082528060200260200182016040528015614ecb5781602001602082028036833780820191505090505b5090508281600081518110614edc57fe5b60200260200101818152505060005b6001835103811015614f7a57600080614f2e87868581518110614f0a57fe5b6020026020010151876001870181518110614f2157fe5b6020026020010151616435565b91509150614f50848481518110614f4157fe5b60200260200101518383614a41565b846001850181518110614f5f57fe5b60200260200101818152505050508080600101915050614eeb565b509392505050565b600060608573ffffffffffffffffffffffffffffffffffffffff166323b872dd868686604051602401808473ffffffffffffffffffffffffffffffffffffffff1681526020018373ffffffffffffffffffffffffffffffffffffffff16815260200182815260200193505050506040516020818303038152906040529060e01b6020820180517bffffffffffffffffffffffffffffffffffffffffffffffffffffffff83818316178352505050506040518082805190602001908083835b602083106150635780518252602082019150602081019050602083039250615040565b6001836020036101000a0380198251168184511680821785525050505050509050019150506000604051808303816000865af19150503d80600081146150c5576040519150601f19603f3d011682016040523d82523d6000602084013e6150ca565b606091505b509150915081801561510a575060008151148061510957508080602001905160208110156150f757600080fd5b81019080805190602001909291905050505b5b61515f576040517f08c379a00000000000000000000000000000000000000000000000000000000081526004018080602001828103825260318152602001806165b96031913960400191505060405180910390fd5b505050505050565b60005b60018351038110156153f65760008084838151811061518557fe5b602002602001015185600185018151811061519c57fe5b60200260200101519150915060006151b48383615e10565b50905060008760018601815181106151c857fe5b602002602001015190506000808373ffffffffffffffffffffffffffffffffffffffff168673ffffffffffffffffffffffffffffffffffffffff161461521057826000615214565b6000835b91509150600060028a5103881061522b578861526d565b61526c7f0000000000000000000000000000000000000000000000000000000000000000878c60028c018151811061525f57fe5b6020026020010151614cf1565b5b905061529a7f00000000000000000000000000000000000000000000000000000000000000008888614cf1565b73ffffffffffffffffffffffffffffffffffffffff1663022c0d9f848484600067ffffffffffffffff811180156152d057600080fd5b506040519080825280601f01601f1916602001820160405280156153035781602001600182028036833780820191505090505b506040518563ffffffff1660e01b8152600401808581526020018481526020018373ffffffffffffffffffffffffffffffffffffffff16815260200180602001828103825283818151815260200191508051906020019080838360005b8381101561537b578082015181840152602081019050615360565b50505050905090810190601f1680156153a85780820380516001836020036101000a031916815260200191505b5095505050505050600060405180830381600087803b1580156153ca57600080fd5b505af11580156153de573d6000803e3d6000fd5b5050505050505050505050808060010191505061516a565b50505050565b60005b60018351038110156158425760008084838151811061541a57fe5b602002602001015185600185018151811061543157fe5b60200260200101519150915060006154498383615e10565b50905060006154797f00000000000000000000000000000000000000000000000000000000000000008585614cf1565b90506000806000808473ffffffffffffffffffffffffffffffffffffffff16630902f1ac6040518163ffffffff1660e01b815260040160606040518083038186803b1580156154c757600080fd5b505afa1580156154db573d6000803e3d6000fd5b505050506040513d60608110156154f157600080fd5b81019080805190602001909291908051906020019092919080519060200190929190505050506dffffffffffffffffffffffffffff1691506dffffffffffffffffffffffffffff1691506000808773ffffffffffffffffffffffffffffffffffffffff168a73ffffffffffffffffffffffffffffffffffffffff161461557857828461557b565b83835b91509150615633828b73ffffffffffffffffffffffffffffffffffffffff166370a082318a6040518263ffffffff1660e01b8152600401808273ffffffffffffffffffffffffffffffffffffffff16815260200191505060206040518083038186803b1580156155ea57600080fd5b505afa1580156155fe573d6000803e3d6000fd5b505050506040513d602081101561561457600080fd5b810190808051906020019092919050505061584790919063ffffffff16565b9550615640868383614a41565b9450505050506000808573ffffffffffffffffffffffffffffffffffffffff168873ffffffffffffffffffffffffffffffffffffffff161461568457826000615688565b6000835b91509150600060028c51038a1061569f578a6156e1565b6156e07f0000000000000000000000000000000000000000000000000000000000000000898e60028e01815181106156d357fe5b6020026020010151614cf1565b5b90508573ffffffffffffffffffffffffffffffffffffffff1663022c0d9f848484600067ffffffffffffffff8111801561571a57600080fd5b506040519080825280601f01601f19166020018201604052801561574d5781602001600182028036833780820191505090505b506040518563ffffffff1660e01b8152600401808581526020018481526020018373ffffffffffffffffffffffffffffffffffffffff16815260200180602001828103825283818151815260200191508051906020019080838360005b838110156157c55780820151818401526020810190506157aa565b50505050905090810190601f1680156157f25780820380516001836020036101000a031916815260200191505b5095505050505050600060405180830381600087803b15801561581457600080fd5b505af1158015615828573d6000803e3d6000fd5b5050505050505050505050505080806001019150506153ff565b505050565b60008282840391508111156158c4576040517f08c379a00000000000000000000000000000000000000000000000000000000081526004018080602001828103825260158152602001807f64732d6d6174682d7375622d756e646572666c6f77000000000000000000000081525060200191505060405180910390fd5b92915050565b60008273ffffffffffffffffffffffffffffffffffffffff1682600067ffffffffffffffff811180156158fc57600080fd5b506040519080825280601f01601f19166020018201604052801561592f5781602001600182028036833780820191505090505b506040518082805190602001908083835b602083106159635780518252602082019150602081019050602083039250615940565b6001836020036101000a03801982511681845116808217855250505050505090500191505060006040518083038185875af1925050503d80600081146159c5576040519150601f19603f3d011682016040523d82523d6000602084013e6159ca565b606091505b5050905080615a24576040517f08c379a000000000000000000000000000000000000000000000000000000000815260040180806020018281038252603481526020018061655f6034913960400191505060405180910390fd5b505050565b6000808411615a83576040517f08c379a000000000000000000000000000000000000000000000000000000000815260040180806020018281038252602d81526020018061663f602d913960400191505060405180910390fd5b600083118015615a935750600082115b615ae8576040517f08c379a00000000000000000000000000000000000000000000000000000000081526004018080602001828103825260298152602001806165ea6029913960400191505060405180910390fd5b6000615b116103e8615b03878761631d90919063ffffffff16565b61631d90919063ffffffff16565b90506000615b3c6103e5615b2e888761584790919063ffffffff16565b61631d90919063ffffffff16565b9050615b5b6001828481615b4c57fe5b046163b290919063ffffffff16565b925050509392505050565b6000808411615bc0576040517f08c379a000000000000000000000000000000000000000000000000000000000815260040180806020018281038252602681526020018061666c6026913960400191505060405180910390fd5b600083118015615bd05750600082115b615c25576040517f08c379a00000000000000000000000000000000000000000000000000000000081526004018080602001828103825260298152602001806165ea6029913960400191505060405180910390fd5b82615c39838661631d90919063ffffffff16565b81615c4057fe5b0490509392505050565b600060608473ffffffffffffffffffffffffffffffffffffffff1663a9059cbb8585604051602401808373ffffffffffffffffffffffffffffffffffffffff168152602001828152602001925050506040516020818303038152906040529060e01b6020820180517bffffffffffffffffffffffffffffffffffffffffffffffffffffffff83818316178352505050506040518082805190602001908083835b60208310615d0d5780518252602082019150602081019050602083039250615cea565b6001836020036101000a0380198251168184511680821785525050505050509050019150506000604051808303816000865af19150503d8060008114615d6f576040519150601f19603f3d011682016040523d82523d6000602084013e615d74565b606091505b5091509150818015615db45750600081511480615db35750808060200190516020811015615da157600080fd5b81019080805190602001909291905050505b5b615e09576040517f08c379a000000000000000000000000000000000000000000000000000000000815260040180806020018281038252602d815260200180616692602d913960400191505060405180910390fd5b5050505050565b6000808273ffffffffffffffffffffffffffffffffffffffff168473ffffffffffffffffffffffffffffffffffffffff161415615e98576040517f08c379a00000000000000000000000000000000000000000000000000000000081526004018080602001828103825260268152602001806165936026913960400191505060405180910390fd5b8273ffffffffffffffffffffffffffffffffffffffff168473ffffffffffffffffffffffffffffffffffffffff1610615ed2578284615ed5565b83835b8092508193505050600073ffffffffffffffffffffffffffffffffffffffff168273ffffffffffffffffffffffffffffffffffffffff161415615f80576040517f08c379a000000000000000000000000000000000000000000000000000000000815260040180806020018281038252601f8152602001807f506570657377617056324c6962726172793a205a45524f5f414444524553530081525060200191505060405180910390fd5b9250929050565b600080600073ffffffffffffffffffffffffffffffffffffffff167f000000000000000000000000000000000000000000000000000000000000000073ffffffffffffffffffffffffffffffffffffffff1663e6a439058a8a6040518363ffffffff1660e01b8152600401808373ffffffffffffffffffffffffffffffffffffffff1681526020018273ffffffffffffffffffffffffffffffffffffffff1681526020019250505060206040518083038186803b15801561604757600080fd5b505afa15801561605b573d6000803e3d6000fd5b505050506040513d602081101561607157600080fd5b810190808051906020019092919050505073ffffffffffffffffffffffffffffffffffffffff161415616182577f000000000000000000000000000000000000000000000000000000000000000073ffffffffffffffffffffffffffffffffffffffff1663c9c6539689896040518363ffffffff1660e01b8152600401808373ffffffffffffffffffffffffffffffffffffffff1681526020018273ffffffffffffffffffffffffffffffffffffffff16815260200192505050602060405180830381600087803b15801561614557600080fd5b505af1158015616159573d6000803e3d6000fd5b505050506040513d602081101561616f57600080fd5b8101908080519060200190929190505050505b6000806161b07f00000000000000000000000000000000000000000000000000000000000000008b8b616435565b915091506000821480156161c45750600081145b156161d85787878094508195505050616310565b60006161e5898484615b66565b90508781116162735785811015616264576040517f08c379a00000000000000000000000000000000000000000000000000000000081526004018080602001828103825260158152602001807f494e53554646494349454e545f425f414d4f554e54000000000000000000000081525060200191505060405180910390fd5b8881809550819650505061630e565b6000616280898486615b66565b90508981111561628c57fe5b87811015616302576040517f08c379a00000000000000000000000000000000000000000000000000000000081526004018080602001828103825260158152602001807f494e53554646494349454e545f415f414d4f554e54000000000000000000000081525060200191505060405180910390fd5b80898096508197505050505b505b5050965096945050505050565b60008082148061633a575082828385029250828161633757fe5b04145b6163ac576040517f08c379a00000000000000000000000000000000000000000000000000000000081526004018080602001828103825260148152602001807f64732d6d6174682d6d756c2d6f766572666c6f7700000000000000000000000081525060200191505060405180910390fd5b92915050565b600082828401915081101561642f576040517f08c379a00000000000000000000000000000000000000000000000000000000081526004018080602001828103825260148152602001807f64732d6d6174682d6164642d6f766572666c6f7700000000000000000000000081525060200191505060405180910390fd5b92915050565b60008060006164448585615e10565b509050600080616455888888614cf1565b73ffffffffffffffffffffffffffffffffffffffff16630902f1ac6040518163ffffffff1660e01b815260040160606040518083038186803b15801561649a57600080fd5b505afa1580156164ae573d6000803e3d6000fd5b505050506040513d60608110156164c457600080fd5b81019080805190602001909291908051906020019092919080519060200190929190505050506dffffffffffffffffffffffffffff1691506dffffffffffffffffffffffffffff1691508273ffffffffffffffffffffffffffffffffffffffff168773ffffffffffffffffffffffffffffffffffffffff161461654857808261654b565b81815b809550819650505050505093509391505056fe5472616e7366657248656c7065723a3a736166655472616e73666572424e423a20424e42207472616e73666572206661696c6564506570657377617056324c6962726172793a204944454e544943414c5f4144445245535345535472616e7366657248656c7065723a3a7472616e7366657246726f6d3a207472616e7366657246726f6d206661696c6564506570657377617056324c6962726172793a20494e53554646494349454e545f4c4951554944495459506570657377617056324c6962726172793a20494e53554646494349454e545f494e5055545f414d4f554e54506570657377617056324c6962726172793a20494e53554646494349454e545f4f55545055545f414d4f554e54506570657377617056324c6962726172793a20494e53554646494349454e545f414d4f554e545472616e7366657248656c7065723a3a736166655472616e736665723a207472616e73666572206661696c6564a26469706673582212202aa440cf755ea697c75793899e8a7bbc71f394fd302a7a80847eb41be18321fc64736f6c634300060c0033",
  "immutableReferences": {
    "16": [
      {
        "length": 32,
        "start": 5349
      },
      {
        "length": 32,
        "start": 5405
      },
      {
        "length": 32,
        "start": 5747
      },
      {
        "length": 32,
        "start": 6235
      },
      {
        "length": 32,
        "start": 6532
      },
      {
        "length": 32,
        "start": 7317
      },
      {
        "length": 32,
        "start": 8396
      },
      {
        "length": 32,
        "start": 9527
      },
      {
        "length": 32,
        "start": 9824
      },
      {
        "length": 32,
        "start": 10260
      },
      {
        "length": 32,
        "start": 10975
      },
      {
        "length": 32,
        "start": 11432
      },
      {
        "length": 32,
        "start": 12016
      },
      {
        "length": 32,
        "start": 12310
      },
      {
        "length": 32,
        "start": 12939
      },
      {
        "length": 32,
        "start": 13399
      },
      {
        "length": 32,
        "start": 14431
      },
      {
        "length": 32,
        "start": 15193
      },
      {
        "length": 32,
        "start": 15234
      },
      {
        "length": 32,
        "start": 15689
      },
      {
        "length": 32,
        "start": 16730
      },
      {
        "length": 32,
        "start": 17024
      },
      {
        "length": 32,
        "start": 17954
      },
      {
        "length": 32,
        "start": 18385
      },
      {
        "length": 32,
        "start": 21040
      },
      {
        "length": 32,
        "start": 21108
      },
      {
        "length": 32,
        "start": 21587
      },
      {
        "length": 32,
        "start": 22180
      },
      {
        "length": 32,
        "start": 24484
      },
      {
        "length": 32,
        "start": 24736
      },
      {
        "length": 32,
        "start": 24970
      }
    ],
    "19": [
      {
        "length": 32,
        "start": 342
      },
      {
        "length": 32,
        "start": 5781
      },
      {
        "length": 32,
        "start": 6886
      },
      {
        "length": 32,
        "start": 7125
      },
      {
        "length": 32,
        "start": 7254
      },
      {
        "length": 32,
        "start": 9285
      },
      {
        "length": 32,
        "start": 10048
      },
      {
        "length": 32,
        "start": 10294
      },
      {
        "length": 32,
        "start": 10738
      },
      {
        "length": 32,
        "start": 11220
      },
      {
        "length": 32,
        "start": 11369
      },
      {
        "length": 32,
        "start": 12545
      },
      {
        "length": 32,
        "start": 12702
      },
      {
        "length": 32,
        "start": 13187
      },
      {
        "length": 32,
        "start": 13336
      },
      {
        "length": 32,
        "start": 13923
      },
      {
        "length": 32,
        "start": 14144
      },
      {
        "length": 32,
        "start": 15401
      },
      {
        "length": 32,
        "start": 15894
      },
      {
        "length": 32,
        "start": 16208
      },
      {
        "length": 32,
        "start": 16488
      },
      {
        "length": 32,
        "start": 17248
      },
      {
        "length": 32,
        "start": 17580
      },
      {
        "length": 32,
        "start": 17642
      },
      {
        "length": 32,
        "start": 18330
      },
      {
        "length": 32,
        "start": 18419
      },
      {
        "length": 32,
        "start": 18471
      },
      {
        "length": 32,
        "start": 18600
      }
    ]
  },
  "source": "pragma solidity =0.6.12;\r\n\r\nimport '@uniswap/v2-core/contracts/interfaces/IUniswapV2Factory.sol';\r\nimport '@uniswap/lib/contracts/libraries/TransferHelper.sol';\r\n\r\nimport './interfaces/IPepeswapV2Router02.sol';\r\nimport './libraries/PepeswapV2Library.sol';\r\nimport './libraries/SafeMath.sol';\r\nimport './interfaces/IBEP20.sol';\r\nimport './interfaces/IWBNB.sol';\r\n\r\ncontract PepeswapV2Router02 is IPepeswapV2Router02 {\r\n    using SafeMath for uint;\r\n\r\n    address public immutable override factory;\r\n    address public immutable override WBNB;\r\n\r\n    modifier ensure(uint deadline) {\r\n        require(deadline >= block.timestamp, 'EXPIRED');\r\n        _;\r\n    }\r\n\r\n    constructor(address _factory, address _WBNB) public {\r\n        factory = _factory;\r\n        WBNB = _WBNB;\r\n    }\r\n\r\n    receive() external payable {\r\n        assert(msg.sender == WBNB); // only accept BNB via fallback from the WBNB contract\r\n    }\r\n\r\n    // **** ADD LIQUIDITY ****\r\n    function _addLiquidity(\r\n        address tokenA,\r\n        address tokenB,\r\n        uint amountADesired,\r\n        uint amountBDesired,\r\n        uint amountAMin,\r\n        uint amountBMin\r\n    ) internal virtual returns (uint amountA, uint amountB) {\r\n        // create the pair if it doesn't exist yet\r\n        if (IUniswapV2Factory(factory).getPair(tokenA, tokenB) == address(0)) {\r\n            IUniswapV2Factory(factory).createPair(tokenA, tokenB);\r\n        }\r\n        (uint reserveA, uint reserveB) = PepeswapV2Library.getReserves(factory, tokenA, tokenB);\r\n        if (reserveA == 0 && reserveB == 0) {\r\n            (amountA, amountB) = (amountADesired, amountBDesired);\r\n        } else {\r\n            uint amountBOptimal = PepeswapV2Library.quote(amountADesired, reserveA, reserveB);\r\n            if (amountBOptimal <= amountBDesired) {\r\n                require(amountBOptimal >= amountBMin, 'INSUFFICIENT_B_AMOUNT');\r\n                (amountA, amountB) = (amountADesired, amountBOptimal);\r\n            } else {\r\n                uint amountAOptimal = PepeswapV2Library.quote(amountBDesired, reserveB, reserveA);\r\n                assert(amountAOptimal <= amountADesired);\r\n                require(amountAOptimal >= amountAMin, 'INSUFFICIENT_A_AMOUNT');\r\n                (amountA, amountB) = (amountAOptimal, amountBDesired);\r\n            }\r\n        }\r\n    }\r\n    function addLiquidity(\r\n        address tokenA,\r\n        address tokenB,\r\n        uint amountADesired,\r\n        uint amountBDesired,\r\n        uint amountAMin,\r\n        uint amountBMin,\r\n        address to,\r\n        uint deadline\r\n    ) external virtual override ensure(deadline) returns (uint amountA, uint amountB, uint liquidity) {\r\n        (amountA, amountB) = _addLiquidity(tokenA, tokenB, amountADesired, amountBDesired, amountAMin, amountBMin);\r\n        address pair = PepeswapV2Library.pairFor(factory, tokenA, tokenB);\r\n        TransferHelper.safeTransferFrom(tokenA, msg.sender, pair, amountA);\r\n        TransferHelper.safeTransferFrom(tokenB, msg.sender, pair, amountB);\r\n        liquidity = IUniswapV2Pair(pair).mint(to);\r\n    }\r\n    function addLiquidityBNB(\r\n        address token,\r\n        uint amountTokenDesired,\r\n        uint amountTokenMin,\r\n        uint amountBNBMin,\r\n        address to,\r\n        uint deadline\r\n    ) external virtual override payable ensure(deadline) returns (uint amountToken, uint amountBNB, uint liquidity) {\r\n        (amountToken, amountBNB) = _addLiquidity(\r\n            token,\r\n            WBNB,\r\n            amountTokenDesired,\r\n            msg.value,\r\n            amountTokenMin,\r\n            amountBNBMin\r\n        );\r\n        address pair = PepeswapV2Library.pairFor(factory, token, WBNB);\r\n        TransferHelper.safeTransferFrom(token, msg.sender, pair, amountToken);\r\n        IWBNB(WBNB).deposit{value: amountBNB}();\r\n        assert(IWBNB(WBNB).transfer(pair, amountBNB));\r\n        liquidity = IUniswapV2Pair(pair).mint(to);\r\n        // refund dust BNB, if any\r\n        if (msg.value > amountBNB) TransferHelper.safeTransferBNB(msg.sender, msg.value - amountBNB);\r\n    }\r\n\r\n    // **** REMOVE LIQUIDITY ****\r\n    function removeLiquidity(\r\n        address tokenA,\r\n        address tokenB,\r\n        uint liquidity,\r\n        uint amountAMin,\r\n        uint amountBMin,\r\n        address to,\r\n        uint deadline\r\n    ) public virtual override ensure(deadline) returns (uint amountA, uint amountB) {\r\n        address pair = PepeswapV2Library.pairFor(factory, tokenA, tokenB);\r\n        IUniswapV2Pair(pair).transferFrom(msg.sender, pair, liquidity); // send liquidity to pair\r\n        (uint amount0, uint amount1) = IUniswapV2Pair(pair).burn(to);\r\n        (address token0,) = PepeswapV2Library.sortTokens(tokenA, tokenB);\r\n        (amountA, amountB) = tokenA == token0 ? (amount0, amount1) : (amount1, amount0);\r\n        require(amountA >= amountAMin, 'INSUFFICIENT_A_AMOUNT');\r\n        require(amountB >= amountBMin, 'INSUFFICIENT_B_AMOUNT');\r\n    }\r\n    function removeLiquidityBNB(\r\n        address token,\r\n        uint liquidity,\r\n        uint amountTokenMin,\r\n        uint amountBNBMin,\r\n        address to,\r\n        uint deadline\r\n    ) public virtual override ensure(deadline) returns (uint amountToken, uint amountBNB) {\r\n        (amountToken, amountBNB) = removeLiquidity(\r\n            token,\r\n            WBNB,\r\n            liquidity,\r\n            amountTokenMin,\r\n            amountBNBMin,\r\n            address(this),\r\n            deadline\r\n        );\r\n        TransferHelper.safeTransfer(token, to, amountToken);\r\n        IWBNB(WBNB).withdraw(amountBNB);\r\n        TransferHelper.safeTransferBNB(to, amountBNB);\r\n    }\r\n    function removeLiquidityWithPermit(\r\n        address tokenA,\r\n        address tokenB,\r\n        uint liquidity,\r\n        uint amountAMin,\r\n        uint amountBMin,\r\n        address to,\r\n        uint deadline,\r\n        bool approveMax, uint8 v, bytes32 r, bytes32 s\r\n    ) external virtual override returns (uint amountA, uint amountB) {\r\n        address pair = PepeswapV2Library.pairFor(factory, tokenA, tokenB);\r\n        uint value = approveMax ? uint(-1) : liquidity;\r\n        IUniswapV2Pair(pair).permit(msg.sender, address(this), value, deadline, v, r, s);\r\n        (amountA, amountB) = removeLiquidity(tokenA, tokenB, liquidity, amountAMin, amountBMin, to, deadline);\r\n    }\r\n    function removeLiquidityBNBWithPermit(\r\n        address token,\r\n        uint liquidity,\r\n        uint amountTokenMin,\r\n        uint amountBNBMin,\r\n        address to,\r\n        uint deadline,\r\n        bool approveMax, uint8 v, bytes32 r, bytes32 s\r\n    ) external virtual override returns (uint amountToken, uint amountBNB) {\r\n        address pair = PepeswapV2Library.pairFor(factory, token, WBNB);\r\n        uint value = approveMax ? uint(-1) : liquidity;\r\n        IUniswapV2Pair(pair).permit(msg.sender, address(this), value, deadline, v, r, s);\r\n        (amountToken, amountBNB) = removeLiquidityBNB(token, liquidity, amountTokenMin, amountBNBMin, to, deadline);\r\n    }\r\n\r\n    // **** REMOVE LIQUIDITY (supporting fee-on-transfer tokens) ****\r\n    function removeLiquidityBNBSupportingFeeOnTransferTokens(\r\n        address token,\r\n        uint liquidity,\r\n        uint amountTokenMin,\r\n        uint amountBNBMin,\r\n        address to,\r\n        uint deadline\r\n    ) public virtual override ensure(deadline) returns (uint amountBNB) {\r\n        (, amountBNB) = removeLiquidity(\r\n            token,\r\n            WBNB,\r\n            liquidity,\r\n            amountTokenMin,\r\n            amountBNBMin,\r\n            address(this),\r\n            deadline\r\n        );\r\n        TransferHelper.safeTransfer(token, to, IBEP20(token).balanceOf(address(this)));\r\n        IWBNB(WBNB).withdraw(amountBNB);\r\n        TransferHelper.safeTransferBNB(to, amountBNB);\r\n    }\r\n    function removeLiquidityBNBWithPermitSupportingFeeOnTransferTokens(\r\n        address token,\r\n        uint liquidity,\r\n        uint amountTokenMin,\r\n        uint amountBNBMin,\r\n        address to,\r\n        uint deadline,\r\n        bool approveMax, uint8 v, bytes32 r, bytes32 s\r\n    ) external virtual override returns (uint amountBNB) {\r\n        address pair = PepeswapV2Library.pairFor(factory, token, WBNB);\r\n        uint value = approveMax ? uint(-1) : liquidity;\r\n        IUniswapV2Pair(pair).permit(msg.sender, address(this), value, deadline, v, r, s);\r\n        amountBNB = removeLiquidityBNBSupportingFeeOnTransferTokens(\r\n            token, liquidity, amountTokenMin, amountBNBMin, to, deadline\r\n        );\r\n    }\r\n\r\n    // **** SWAP ****\r\n    // requires the initial amount to have already been sent to the first pair\r\n    function _swap(uint[] memory amounts, address[] memory path, address _to) internal virtual {\r\n        for (uint i; i < path.length - 1; i++) {\r\n            (address input, address output) = (path[i], path[i + 1]);\r\n            (address token0,) = PepeswapV2Library.sortTokens(input, output);\r\n            uint amountOut = amounts[i + 1];\r\n            (uint amount0Out, uint amount1Out) = input == token0 ? (uint(0), amountOut) : (amountOut, uint(0));\r\n            address to = i < path.length - 2 ? PepeswapV2Library.pairFor(factory, output, path[i + 2]) : _to;\r\n            IUniswapV2Pair(PepeswapV2Library.pairFor(factory, input, output)).swap(\r\n                amount0Out, amount1Out, to, new bytes(0)\r\n            );\r\n        }\r\n    }\r\n    function swapExactTokensForTokens(\r\n        uint amountIn,\r\n        uint amountOutMin,\r\n        address[] calldata path,\r\n        address to,\r\n        uint deadline\r\n    ) external virtual override ensure(deadline) returns (uint[] memory amounts) {\r\n        amounts = PepeswapV2Library.getAmountsOut(factory, amountIn, path);\r\n        require(amounts[amounts.length - 1] >= amountOutMin, 'INSUFFICIENT_OUTPUT_AMOUNT');\r\n        TransferHelper.safeTransferFrom(\r\n            path[0], msg.sender, PepeswapV2Library.pairFor(factory, path[0], path[1]), amounts[0]\r\n        );\r\n        _swap(amounts, path, to);\r\n    }\r\n    function swapTokensForExactTokens(\r\n        uint amountOut,\r\n        uint amountInMax,\r\n        address[] calldata path,\r\n        address to,\r\n        uint deadline\r\n    ) external virtual override ensure(deadline) returns (uint[] memory amounts) {\r\n        amounts = PepeswapV2Library.getAmountsIn(factory, amountOut, path);\r\n        require(amounts[0] <= amountInMax, 'EXCESSIVE_INPUT_AMOUNT');\r\n        TransferHelper.safeTransferFrom(\r\n            path[0], msg.sender, PepeswapV2Library.pairFor(factory, path[0], path[1]), amounts[0]\r\n        );\r\n        _swap(amounts, path, to);\r\n    }\r\n    function swapExactBNBForTokens(uint amountOutMin, address[] calldata path, address to, uint deadline)\r\n        external\r\n        virtual\r\n        override\r\n        payable\r\n        ensure(deadline)\r\n        returns (uint[] memory amounts)\r\n    {\r\n        require(path[0] == WBNB, 'INVALID_PATH');\r\n        amounts = PepeswapV2Library.getAmountsOut(factory, msg.value, path);\r\n        require(amounts[amounts.length - 1] >= amountOutMin, 'INSUFFICIENT_OUTPUT_AMOUNT');\r\n        IWBNB(WBNB).deposit{value: amounts[0]}();\r\n        assert(IWBNB(WBNB).transfer(PepeswapV2Library.pairFor(factory, path[0], path[1]), amounts[0]));\r\n        _swap(amounts, path, to);\r\n    }\r\n    function swapTokensForExactBNB(uint amountOut, uint amountInMax, address[] calldata path, address to, uint deadline)\r\n        external\r\n        virtual\r\n        override\r\n        ensure(deadline)\r\n        returns (uint[] memory amounts)\r\n    {\r\n        require(path[path.length - 1] == WBNB, 'INVALID_PATH');\r\n        amounts = PepeswapV2Library.getAmountsIn(factory, amountOut, path);\r\n        require(amounts[0] <= amountInMax, 'EXCESSIVE_INPUT_AMOUNT');\r\n        TransferHelper.safeTransferFrom(\r\n            path[0], msg.sender, PepeswapV2Library.pairFor(factory, path[0], path[1]), amounts[0]\r\n        );\r\n        _swap(amounts, path, address(this));\r\n        IWBNB(WBNB).withdraw(amounts[amounts.length - 1]);\r\n        TransferHelper.safeTransferBNB(to, amounts[amounts.length - 1]);\r\n    }\r\n    function swapExactTokensForBNB(uint amountIn, uint amountOutMin, address[] calldata path, address to, uint deadline)\r\n        external\r\n        virtual\r\n        override\r\n        ensure(deadline)\r\n        returns (uint[] memory amounts)\r\n    {\r\n        require(path[path.length - 1] == WBNB, 'INVALID_PATH');\r\n        amounts = PepeswapV2Library.getAmountsOut(factory, amountIn, path);\r\n        require(amounts[amounts.length - 1] >= amountOutMin, 'INSUFFICIENT_OUTPUT_AMOUNT');\r\n        TransferHelper.safeTransferFrom(\r\n            path[0], msg.sender, PepeswapV2Library.pairFor(factory, path[0], path[1]), amounts[0]\r\n        );\r\n        _swap(amounts, path, address(this));\r\n        IWBNB(WBNB).withdraw(amounts[amounts.length - 1]);\r\n        TransferHelper.safeTransferBNB(to, amounts[amounts.length - 1]);\r\n    }\r\n    function swapBNBForExactTokens(uint amountOut, address[] calldata path, address to, uint deadline)\r\n        external\r\n        virtual\r\n        override\r\n        payable\r\n        ensure(deadline)\r\n        returns (uint[] memory amounts)\r\n    {\r\n        require(path[0] == WBNB, 'INVALID_PATH');\r\n        amounts = PepeswapV2Library.getAmountsIn(factory, amountOut, path);\r\n        require(amounts[0] <= msg.value, 'EXCESSIVE_INPUT_AMOUNT');\r\n        IWBNB(WBNB).deposit{value: amounts[0]}();\r\n        assert(IWBNB(WBNB).transfer(PepeswapV2Library.pairFor(factory, path[0], path[1]), amounts[0]));\r\n        _swap(amounts, path, to);\r\n        // refund dust BNB, if any\r\n        if (msg.value > amounts[0]) TransferHelper.safeTransferBNB(msg.sender, msg.value - amounts[0]);\r\n    }\r\n\r\n\r\n    // **** SWAP (supporting fee-on-transfer tokens) ****\r\n    // requires the initial amount to have already been sent to the first pair\r\n    function _swapSupportingFeeOnTransferTokens(address[] memory path, address _to) internal virtual {\r\n        for (uint i; i < path.length - 1; i++) {\r\n            (address input, address output) = (path[i], path[i + 1]);\r\n            (address token0,) = PepeswapV2Library.sortTokens(input, output);\r\n            IUniswapV2Pair pair = IUniswapV2Pair(PepeswapV2Library.pairFor(factory, input, output));\r\n            uint amountInput;\r\n            uint amountOutput;\r\n            { // scope to avoid stack too deep errors\r\n            (uint reserve0, uint reserve1,) = pair.getReserves();\r\n            (uint reserveInput, uint reserveOutput) = input == token0 ? (reserve0, reserve1) : (reserve1, reserve0);\r\n            amountInput = IBEP20(input).balanceOf(address(pair)).sub(reserveInput);\r\n            amountOutput = PepeswapV2Library.getAmountOut(amountInput, reserveInput, reserveOutput);\r\n            }\r\n            (uint amount0Out, uint amount1Out) = input == token0 ? (uint(0), amountOutput) : (amountOutput, uint(0));\r\n            address to = i < path.length - 2 ? PepeswapV2Library.pairFor(factory, output, path[i + 2]) : _to;\r\n            pair.swap(amount0Out, amount1Out, to, new bytes(0));\r\n        }\r\n    }\r\n    function swapExactTokensForTokensSupportingFeeOnTransferTokens(\r\n        uint amountIn,\r\n        uint amountOutMin,\r\n        address[] calldata path,\r\n        address to,\r\n        uint deadline\r\n    ) external virtual override ensure(deadline) {\r\n        TransferHelper.safeTransferFrom(\r\n            path[0], msg.sender, PepeswapV2Library.pairFor(factory, path[0], path[1]), amountIn\r\n        );\r\n        uint balanceBefore = IBEP20(path[path.length - 1]).balanceOf(to);\r\n        _swapSupportingFeeOnTransferTokens(path, to);\r\n        require(\r\n            IBEP20(path[path.length - 1]).balanceOf(to).sub(balanceBefore) >= amountOutMin,\r\n            'INSUFFICIENT_OUTPUT_AMOUNT'\r\n        );\r\n    }\r\n    function swapExactBNBForTokensSupportingFeeOnTransferTokens(\r\n        uint amountOutMin,\r\n        address[] calldata path,\r\n        address to,\r\n        uint deadline\r\n    )\r\n        external\r\n        virtual\r\n        override\r\n        payable\r\n        ensure(deadline)\r\n    {\r\n        require(path[0] == WBNB, 'INVALID_PATH');\r\n        uint amountIn = msg.value;\r\n        IWBNB(WBNB).deposit{value: amountIn}();\r\n        assert(IWBNB(WBNB).transfer(PepeswapV2Library.pairFor(factory, path[0], path[1]), amountIn));\r\n        uint balanceBefore = IBEP20(path[path.length - 1]).balanceOf(to);\r\n        _swapSupportingFeeOnTransferTokens(path, to);\r\n        require(\r\n            IBEP20(path[path.length - 1]).balanceOf(to).sub(balanceBefore) >= amountOutMin,\r\n            'INSUFFICIENT_OUTPUT_AMOUNT'\r\n        );\r\n    }\r\n    function swapExactTokensForBNBSupportingFeeOnTransferTokens(\r\n        uint amountIn,\r\n        uint amountOutMin,\r\n        address[] calldata path,\r\n        address to,\r\n        uint deadline\r\n    )\r\n        external\r\n        virtual\r\n        override\r\n        ensure(deadline)\r\n    {\r\n        require(path[path.length - 1] == WBNB, 'INVALID_PATH');\r\n        TransferHelper.safeTransferFrom(\r\n            path[0], msg.sender, PepeswapV2Library.pairFor(factory, path[0], path[1]), amountIn\r\n        );\r\n        _swapSupportingFeeOnTransferTokens(path, address(this));\r\n        uint amountOut = IBEP20(WBNB).balanceOf(address(this));\r\n        require(amountOut >= amountOutMin, 'INSUFFICIENT_OUTPUT_AMOUNT');\r\n        IWBNB(WBNB).withdraw(amountOut);\r\n        TransferHelper.safeTransferBNB(to, amountOut);\r\n    }\r\n\r\n\r\n    // **** LIBRARY FUNCTIONS ****\r\n    function quote(uint amountA, uint reserveA, uint reserveB) public pure virtual override returns (uint amountB) {\r\n        return PepeswapV2Library.quote(amountA, reserveA, reserveB);\r\n    }\r\n\r\n    function getAmountOut(uint amountIn, uint reserveIn, uint reserveOut)\r\n        public\r\n        pure\r\n        virtual\r\n        override\r\n        returns (uint amountOut)\r\n    {\r\n        return PepeswapV2Library.getAmountOut(amountIn, reserveIn, reserveOut);\r\n    }\r\n\r\n    function getAmountIn(uint amountOut, uint reserveIn, uint reserveOut)\r\n        public\r\n        pure\r\n        virtual\r\n        override\r\n        returns (uint amountIn)\r\n    {\r\n        return PepeswapV2Library.getAmountIn(amountOut, reserveIn, reserveOut);\r\n    }\r\n\r\n    function getAmountsOut(uint amountIn, address[] memory path)\r\n        public\r\n        view\r\n        virtual\r\n        override\r\n        returns (uint[] memory amounts)\r\n    {\r\n        return PepeswapV2Library.getAmountsOut(factory, amountIn, path);\r\n    }\r\n\r\n    function getAmountsIn(uint amountOut, address[] memory path)\r\n        public\r\n        view\r\n        virtual\r\n        override\r\n        returns (uint[] memory amounts)\r\n    {\r\n        return PepeswapV2Library.getAmountsIn(factory, amountOut, path);\r\n    }\r\n}\r\n",
  "sourcePath": "C:/Users/fsong/pepeswap/periphery/contracts/PepeswapV2Router02.sol",
  "compiler": {
    "name": "solc",
    "version": "0.6.12+commit.27d51765.Emscripten.clang"
  },
  "schemaVersion": "3.3.4",
  "updatedAt": "2021-05-27T21:51:50.407Z",
  "devdoc": {
    "kind": "dev",
    "methods": {},
    "version": 1
  },
  "userdoc": {
    "kind": "user",
    "methods": {},
    "version": 1
  }
}