{
  "contractName": "RouterEventEmitter",
  "abi": [
    {
      "anonymous": false,
      "inputs": [
        {
          "indexed": false,
          "internalType": "uint256[]",
          "name": "amounts",
          "type": "uint256[]"
        }
      ],
      "name": "Amounts",
      "type": "event"
    },
    {
      "stateMutability": "payable",
      "type": "receive"
    },
    {
      "inputs": [
        {
          "internalType": "address",
          "name": "router",
          "type": "address"
        },
        {
          "internalType": "uint256",
          "name": "amountIn",
          "type": "uint256"
        },
        {
          "internalType": "uint256",
          "name": "amountOutMin",
          "type": "uint256"
        },
        {
          "internalType": "address[]",
          "name": "path",
          "type": "address[]"
        },
        {
          "internalType": "address",
          "name": "to",
          "type": "address"
        },
        {
          "internalType": "uint256",
          "name": "deadline",
          "type": "uint256"
        }
      ],
      "name": "swapExactTokensForTokens",
      "outputs": [],
      "stateMutability": "nonpayable",
      "type": "function"
    },
    {
      "inputs": [
        {
          "internalType": "address",
          "name": "router",
          "type": "address"
        },
        {
          "internalType": "uint256",
          "name": "amountOut",
          "type": "uint256"
        },
        {
          "internalType": "uint256",
          "name": "amountInMax",
          "type": "uint256"
        },
        {
          "internalType": "address[]",
          "name": "path",
          "type": "address[]"
        },
        {
          "internalType": "address",
          "name": "to",
          "type": "address"
        },
        {
          "internalType": "uint256",
          "name": "deadline",
          "type": "uint256"
        }
      ],
      "name": "swapTokensForExactTokens",
      "outputs": [],
      "stateMutability": "nonpayable",
      "type": "function"
    },
    {
      "inputs": [
        {
          "internalType": "address",
          "name": "router",
          "type": "address"
        },
        {
          "internalType": "uint256",
          "name": "amountOutMin",
          "type": "uint256"
        },
        {
          "internalType": "address[]",
          "name": "path",
          "type": "address[]"
        },
        {
          "internalType": "address",
          "name": "to",
          "type": "address"
        },
        {
          "internalType": "uint256",
          "name": "deadline",
          "type": "uint256"
        }
      ],
      "name": "swapExacBNBtForTokens",
      "outputs": [],
      "stateMutability": "payable",
      "type": "function"
    },
    {
      "inputs": [
        {
          "internalType": "address",
          "name": "router",
          "type": "address"
        },
        {
          "internalType": "uint256",
          "name": "amountOut",
          "type": "uint256"
        },
        {
          "internalType": "uint256",
          "name": "amountInMax",
          "type": "uint256"
        },
        {
          "internalType": "address[]",
          "name": "path",
          "type": "address[]"
        },
        {
          "internalType": "address",
          "name": "to",
          "type": "address"
        },
        {
          "internalType": "uint256",
          "name": "deadline",
          "type": "uint256"
        }
      ],
      "name": "swapTokensForExactBNB",
      "outputs": [],
      "stateMutability": "nonpayable",
      "type": "function"
    },
    {
      "inputs": [
        {
          "internalType": "address",
          "name": "router",
          "type": "address"
        },
        {
          "internalType": "uint256",
          "name": "amountIn",
          "type": "uint256"
        },
        {
          "internalType": "uint256",
          "name": "amountOutMin",
          "type": "uint256"
        },
        {
          "internalType": "address[]",
          "name": "path",
          "type": "address[]"
        },
        {
          "internalType": "address",
          "name": "to",
          "type": "address"
        },
        {
          "internalType": "uint256",
          "name": "deadline",
          "type": "uint256"
        }
      ],
      "name": "swapExactTokensForBNB",
      "outputs": [],
      "stateMutability": "nonpayable",
      "type": "function"
    },
    {
      "inputs": [
        {
          "internalType": "address",
          "name": "router",
          "type": "address"
        },
        {
          "internalType": "uint256",
          "name": "amountOut",
          "type": "uint256"
        },
        {
          "internalType": "address[]",
          "name": "path",
          "type": "address[]"
        },
        {
          "internalType": "address",
          "name": "to",
          "type": "address"
        },
        {
          "internalType": "uint256",
          "name": "deadline",
          "type": "uint256"
        }
      ],
      "name": "swapBNBForExactTokens",
      "outputs": [],
      "stateMutability": "payable",
      "type": "function"
    }
  ],
  "bytecode": "0x608060405234801561001057600080fd5b50611663806100206000396000f3fe6080604052600436106100595760003560e01c806322b5841014610065578063375734d91461014957806366dc44da1461022d57806384a0dcbf14610311578063e18c1022146103de578063f443115b146104ab57610060565b3661006057005b600080fd5b34801561007157600080fd5b50610147600480360360c081101561008857600080fd5b81019080803573ffffffffffffffffffffffffffffffffffffffff1690602001909291908035906020019092919080359060200190929190803590602001906401000000008111156100d957600080fd5b8201836020820111156100eb57600080fd5b8035906020019184602083028401116401000000008311171561010d57600080fd5b9091929391929390803573ffffffffffffffffffffffffffffffffffffffff1690602001909291908035906020019092919050505061058f565b005b34801561015557600080fd5b5061022b600480360360c081101561016c57600080fd5b81019080803573ffffffffffffffffffffffffffffffffffffffff1690602001909291908035906020019092919080359060200190929190803590602001906401000000008111156101bd57600080fd5b8201836020820111156101cf57600080fd5b803590602001918460208302840111640100000000831117156101f157600080fd5b9091929391929390803573ffffffffffffffffffffffffffffffffffffffff16906020019092919080359060200190929190505050610857565b005b34801561023957600080fd5b5061030f600480360360c081101561025057600080fd5b81019080803573ffffffffffffffffffffffffffffffffffffffff1690602001909291908035906020019092919080359060200190929190803590602001906401000000008111156102a157600080fd5b8201836020820111156102b357600080fd5b803590602001918460208302840111640100000000831117156102d557600080fd5b9091929391929390803573ffffffffffffffffffffffffffffffffffffffff16906020019092919080359060200190929190505050610b1f565b005b6103dc600480360360a081101561032757600080fd5b81019080803573ffffffffffffffffffffffffffffffffffffffff169060200190929190803590602001909291908035906020019064010000000081111561036e57600080fd5b82018360208201111561038057600080fd5b803590602001918460208302840111640100000000831117156103a257600080fd5b9091929391929390803573ffffffffffffffffffffffffffffffffffffffff16906020019092919080359060200190929190505050610de7565b005b6104a9600480360360a08110156103f457600080fd5b81019080803573ffffffffffffffffffffffffffffffffffffffff169060200190929190803590602001909291908035906020019064010000000081111561043b57600080fd5b82018360208201111561044d57600080fd5b8035906020019184602083028401116401000000008311171561046f57600080fd5b9091929391929390803573ffffffffffffffffffffffffffffffffffffffff169060200190929190803590602001909291905050506110a6565b005b3480156104b757600080fd5b5061058d600480360360c08110156104ce57600080fd5b81019080803573ffffffffffffffffffffffffffffffffffffffff16906020019092919080359060200190929190803590602001909291908035906020019064010000000081111561051f57600080fd5b82018360208201111561053157600080fd5b8035906020019184602083028401116401000000008311171561055357600080fd5b9091929391929390803573ffffffffffffffffffffffffffffffffffffffff16906020019092919080359060200190929190505050611365565b005b600060608873ffffffffffffffffffffffffffffffffffffffff16638803dbee60e01b89898989898960405160240180878152602001868152602001806020018473ffffffffffffffffffffffffffffffffffffffff1681526020018381526020018281038252868682818152602001925060200280828437600081840152601f19601f820116905080830192505050975050505050505050604051602081830303815290604052907bffffffffffffffffffffffffffffffffffffffffffffffffffffffff19166020820180517bffffffffffffffffffffffffffffffffffffffffffffffffffffffff83818316178352505050506040518082805190602001908083835b602083106106b85780518252602082019150602081019050602083039250610695565b6001836020036101000a038019825116818451168082178552505050505050905001915050600060405180830381855af49150503d8060008114610718576040519150601f19603f3d011682016040523d82523d6000602084013e61071d565b606091505b50915091508161072957fe5b7f4cc17991e3610e3400e74a8306aa421daaee1e3446fa22b490604610999e10b381806020019051602081101561075f57600080fd5b810190808051604051939291908464010000000082111561077f57600080fd5b8382019150602082018581111561079557600080fd5b82518660208202830111640100000000821117156107b257600080fd5b8083526020830192505050908051906020019060200280838360005b838110156107e95780820151818401526020810190506107ce565b505050509050016040525050506040518080602001828103825283818151815260200191508051906020019060200280838360005b8381101561083957808201518184015260208101905061081e565b505050509050019250505060405180910390a1505050505050505050565b600060608873ffffffffffffffffffffffffffffffffffffffff166338ed173960e01b89898989898960405160240180878152602001868152602001806020018473ffffffffffffffffffffffffffffffffffffffff1681526020018381526020018281038252868682818152602001925060200280828437600081840152601f19601f820116905080830192505050975050505050505050604051602081830303815290604052907bffffffffffffffffffffffffffffffffffffffffffffffffffffffff19166020820180517bffffffffffffffffffffffffffffffffffffffffffffffffffffffff83818316178352505050506040518082805190602001908083835b60208310610980578051825260208201915060208101905060208303925061095d565b6001836020036101000a038019825116818451168082178552505050505050905001915050600060405180830381855af49150503d80600081146109e0576040519150601f19603f3d011682016040523d82523d6000602084013e6109e5565b606091505b5091509150816109f157fe5b7f4cc17991e3610e3400e74a8306aa421daaee1e3446fa22b490604610999e10b3818060200190516020811015610a2757600080fd5b8101908080516040519392919084640100000000821115610a4757600080fd5b83820191506020820185811115610a5d57600080fd5b8251866020820283011164010000000082111715610a7a57600080fd5b8083526020830192505050908051906020019060200280838360005b83811015610ab1578082015181840152602081019050610a96565b505050509050016040525050506040518080602001828103825283818151815260200191508051906020019060200280838360005b83811015610b01578082015181840152602081019050610ae6565b505050509050019250505060405180910390a1505050505050505050565b600060608873ffffffffffffffffffffffffffffffffffffffff1663d67b571e60e01b89898989898960405160240180878152602001868152602001806020018473ffffffffffffffffffffffffffffffffffffffff1681526020018381526020018281038252868682818152602001925060200280828437600081840152601f19601f820116905080830192505050975050505050505050604051602081830303815290604052907bffffffffffffffffffffffffffffffffffffffffffffffffffffffff19166020820180517bffffffffffffffffffffffffffffffffffffffffffffffffffffffff83818316178352505050506040518082805190602001908083835b60208310610c485780518252602082019150602081019050602083039250610c25565b6001836020036101000a038019825116818451168082178552505050505050905001915050600060405180830381855af49150503d8060008114610ca8576040519150601f19603f3d011682016040523d82523d6000602084013e610cad565b606091505b509150915081610cb957fe5b7f4cc17991e3610e3400e74a8306aa421daaee1e3446fa22b490604610999e10b3818060200190516020811015610cef57600080fd5b8101908080516040519392919084640100000000821115610d0f57600080fd5b83820191506020820185811115610d2557600080fd5b8251866020820283011164010000000082111715610d4257600080fd5b8083526020830192505050908051906020019060200280838360005b83811015610d79578082015181840152602081019050610d5e565b505050509050016040525050506040518080602001828103825283818151815260200191508051906020019060200280838360005b83811015610dc9578082015181840152602081019050610dae565b505050509050019250505060405180910390a1505050505050505050565b600060608773ffffffffffffffffffffffffffffffffffffffff16638332a96360e01b888888888860405160240180868152602001806020018473ffffffffffffffffffffffffffffffffffffffff1681526020018381526020018281038252868682818152602001925060200280828437600081840152601f19601f8201169050808301925050509650505050505050604051602081830303815290604052907bffffffffffffffffffffffffffffffffffffffffffffffffffffffff19166020820180517bffffffffffffffffffffffffffffffffffffffffffffffffffffffff83818316178352505050506040518082805190602001908083835b60208310610f085780518252602082019150602081019050602083039250610ee5565b6001836020036101000a038019825116818451168082178552505050505050905001915050600060405180830381855af49150503d8060008114610f68576040519150601f19603f3d011682016040523d82523d6000602084013e610f6d565b606091505b509150915081610f7957fe5b7f4cc17991e3610e3400e74a8306aa421daaee1e3446fa22b490604610999e10b3818060200190516020811015610faf57600080fd5b8101908080516040519392919084640100000000821115610fcf57600080fd5b83820191506020820185811115610fe557600080fd5b825186602082028301116401000000008211171561100257600080fd5b8083526020830192505050908051906020019060200280838360005b8381101561103957808201518184015260208101905061101e565b505050509050016040525050506040518080602001828103825283818151815260200191508051906020019060200280838360005b8381101561108957808201518184015260208101905061106e565b505050509050019250505060405180910390a15050505050505050565b600060608773ffffffffffffffffffffffffffffffffffffffff16639cf6891160e01b888888888860405160240180868152602001806020018473ffffffffffffffffffffffffffffffffffffffff1681526020018381526020018281038252868682818152602001925060200280828437600081840152601f19601f8201169050808301925050509650505050505050604051602081830303815290604052907bffffffffffffffffffffffffffffffffffffffffffffffffffffffff19166020820180517bffffffffffffffffffffffffffffffffffffffffffffffffffffffff83818316178352505050506040518082805190602001908083835b602083106111c757805182526020820191506020810190506020830392506111a4565b6001836020036101000a038019825116818451168082178552505050505050905001915050600060405180830381855af49150503d8060008114611227576040519150601f19603f3d011682016040523d82523d6000602084013e61122c565b606091505b50915091508161123857fe5b7f4cc17991e3610e3400e74a8306aa421daaee1e3446fa22b490604610999e10b381806020019051602081101561126e57600080fd5b810190808051604051939291908464010000000082111561128e57600080fd5b838201915060208201858111156112a457600080fd5b82518660208202830111640100000000821117156112c157600080fd5b8083526020830192505050908051906020019060200280838360005b838110156112f85780820151818401526020810190506112dd565b505050509050016040525050506040518080602001828103825283818151815260200191508051906020019060200280838360005b8381101561134857808201518184015260208101905061132d565b505050509050019250505060405180910390a15050505050505050565b600060608873ffffffffffffffffffffffffffffffffffffffff16635d616c5b60e01b89898989898960405160240180878152602001868152602001806020018473ffffffffffffffffffffffffffffffffffffffff1681526020018381526020018281038252868682818152602001925060200280828437600081840152601f19601f820116905080830192505050975050505050505050604051602081830303815290604052907bffffffffffffffffffffffffffffffffffffffffffffffffffffffff19166020820180517bffffffffffffffffffffffffffffffffffffffffffffffffffffffff83818316178352505050506040518082805190602001908083835b6020831061148e578051825260208201915060208101905060208303925061146b565b6001836020036101000a038019825116818451168082178552505050505050905001915050600060405180830381855af49150503d80600081146114ee576040519150601f19603f3d011682016040523d82523d6000602084013e6114f3565b606091505b5091509150816114ff57fe5b7f4cc17991e3610e3400e74a8306aa421daaee1e3446fa22b490604610999e10b381806020019051602081101561153557600080fd5b810190808051604051939291908464010000000082111561155557600080fd5b8382019150602082018581111561156b57600080fd5b825186602082028301116401000000008211171561158857600080fd5b8083526020830192505050908051906020019060200280838360005b838110156115bf5780820151818401526020810190506115a4565b505050509050016040525050506040518080602001828103825283818151815260200191508051906020019060200280838360005b8381101561160f5780820151818401526020810190506115f4565b505050509050019250505060405180910390a150505050505050505056fea26469706673582212205a10976d2f120722dc8b27363f3017a23e39e76deaf50c7b434d325c0741dcaa64736f6c634300060c0033",
  "immutableReferences": {},
  "source": "pragma solidity =0.6.12;\r\n\r\nimport '../interfaces/IPepeswapV2Router01.sol';\r\n\r\ncontract RouterEventEmitter {\r\n    event Amounts(uint[] amounts);\r\n\r\n    receive() external payable {}\r\n\r\n    function swapExactTokensForTokens(\r\n        address router,\r\n        uint amountIn,\r\n        uint amountOutMin,\r\n        address[] calldata path,\r\n        address to,\r\n        uint deadline\r\n    ) external {\r\n        (bool success, bytes memory returnData) = router.delegatecall(abi.encodeWithSelector(\r\n            IPepeswapV2Router01(router).swapExactTokensForTokens.selector, amountIn, amountOutMin, path, to, deadline\r\n        ));\r\n        assert(success);\r\n        emit Amounts(abi.decode(returnData, (uint[])));\r\n    }\r\n\r\n    function swapTokensForExactTokens(\r\n        address router,\r\n        uint amountOut,\r\n        uint amountInMax,\r\n        address[] calldata path,\r\n        address to,\r\n        uint deadline\r\n    ) external {\r\n        (bool success, bytes memory returnData) = router.delegatecall(abi.encodeWithSelector(\r\n            IPepeswapV2Router01(router).swapTokensForExactTokens.selector, amountOut, amountInMax, path, to, deadline\r\n        ));\r\n        assert(success);\r\n        emit Amounts(abi.decode(returnData, (uint[])));\r\n    }\r\n\r\n    function swapExacBNBtForTokens(\r\n        address router,\r\n        uint amountOutMin,\r\n        address[] calldata path,\r\n        address to,\r\n        uint deadline\r\n    ) external payable {\r\n        (bool success, bytes memory returnData) = router.delegatecall(abi.encodeWithSelector(\r\n            IPepeswapV2Router01(router).swapExactBNBForTokens.selector, amountOutMin, path, to, deadline\r\n        ));\r\n        assert(success);\r\n        emit Amounts(abi.decode(returnData, (uint[])));\r\n    }\r\n\r\n    function swapTokensForExactBNB(\r\n        address router,\r\n        uint amountOut,\r\n        uint amountInMax,\r\n        address[] calldata path,\r\n        address to,\r\n        uint deadline\r\n    ) external {\r\n        (bool success, bytes memory returnData) = router.delegatecall(abi.encodeWithSelector(\r\n            IPepeswapV2Router01(router).swapTokensForExactBNB.selector, amountOut, amountInMax, path, to, deadline\r\n        ));\r\n        assert(success);\r\n        emit Amounts(abi.decode(returnData, (uint[])));\r\n    }\r\n\r\n    function swapExactTokensForBNB(\r\n        address router,\r\n        uint amountIn,\r\n        uint amountOutMin,\r\n        address[] calldata path,\r\n        address to,\r\n        uint deadline\r\n    ) external {\r\n        (bool success, bytes memory returnData) = router.delegatecall(abi.encodeWithSelector(\r\n            IPepeswapV2Router01(router).swapExactTokensForBNB.selector, amountIn, amountOutMin, path, to, deadline\r\n        ));\r\n        assert(success);\r\n        emit Amounts(abi.decode(returnData, (uint[])));\r\n    }\r\n\r\n    function swapBNBForExactTokens(\r\n        address router,\r\n        uint amountOut,\r\n        address[] calldata path,\r\n        address to,\r\n        uint deadline\r\n    ) external payable {\r\n        (bool success, bytes memory returnData) = router.delegatecall(abi.encodeWithSelector(\r\n            IPepeswapV2Router01(router).swapBNBForExactTokens.selector, amountOut, path, to, deadline\r\n        ));\r\n        assert(success);\r\n        emit Amounts(abi.decode(returnData, (uint[])));\r\n    }\r\n}\r\n",
  "sourcePath": "C:/Users/fsong/pepeswap/periphery/contracts/test/RouterEventEmitter.sol",
  "compiler": {
    "name": "solc",
    "version": "0.6.12+commit.27d51765.Emscripten.clang"
  },
  "schemaVersion": "3.3.4",
  "updatedAt": "2021-05-27T01:20:27.078Z",
  "devdoc": {
    "kind": "dev",
    "methods": {},
    "version": 1
  },
  "userdoc": {
    "kind": "user",
    "methods": {},
    "version": 1
  }
}